{"abi":[{"inputs":[{"internalType":"uint256","name":"minimum","type":"uint256"},{"internalType":"string","name":"name","type":"string"},{"internalType":"string","name":"description","type":"string"},{"internalType":"string","name":"image","type":"string"},{"internalType":"uint256","name":"target","type":"uint256"},{"internalType":"string","name":"deadline","type":"string"}],"name":"createCampaign","outputs":[],"stateMutability":"nonpayable","type":"function"},{"inputs":[{"internalType":"uint256","name":"","type":"uint256"}],"name":"deployedCampaigns","outputs":[{"internalType":"contract Campaign","name":"","type":"address"}],"stateMutability":"view","type":"function"},{"inputs":[],"name":"getDeployedCampaigns","outputs":[{"internalType":"contract Campaign[]","name":"","type":"address[]"}],"stateMutability":"view","type":"function"}],"devdoc":{"kind":"dev","methods":{},"version":1},"evm":{"assembly":"    /* \"Campaign.sol\":69:737  contract CampaignFactory {... */\n  mstore(0x40, 0x80)\n  callvalue\n  dup1\n  iszero\n  tag_1\n  jumpi\n  0x00\n  dup1\n  revert\ntag_1:\n  pop\n  dataSize(sub_0)\n  dup1\n  dataOffset(sub_0)\n  0x00\n  codecopy\n  0x00\n  return\nstop\n\nsub_0: assembly {\n        /* \"Campaign.sol\":69:737  contract CampaignFactory {... */\n      mstore(0x40, 0x80)\n      callvalue\n      dup1\n      iszero\n      tag_1\n      jumpi\n      0x00\n      dup1\n      revert\n    tag_1:\n      pop\n      jumpi(tag_2, lt(calldatasize, 0x04))\n      shr(0xe0, calldataload(0x00))\n      dup1\n      0x339d50a5\n      eq\n      tag_3\n      jumpi\n      dup1\n      0x4acb9d4f\n      eq\n      tag_4\n      jumpi\n      dup1\n      0xf876bc49\n      eq\n      tag_5\n      jumpi\n    tag_2:\n      0x00\n      dup1\n      revert\n        /* \"Campaign.sol\":100:135  Campaign[] public deployedCampaigns */\n    tag_3:\n      tag_6\n      0x04\n      dup1\n      calldatasize\n      sub\n      dup2\n      add\n      swap1\n      tag_7\n      swap2\n      swap1\n      tag_8\n      jump\t// in\n    tag_7:\n      tag_9\n      jump\t// in\n    tag_6:\n      mload(0x40)\n      tag_10\n      swap2\n      swap1\n      tag_11\n      jump\t// in\n    tag_10:\n      mload(0x40)\n      dup1\n      swap2\n      sub\n      swap1\n      return\n        /* \"Campaign.sol\":622:735  function getDeployedCampaigns() public view returns (Campaign[] memory) {... */\n    tag_4:\n      tag_12\n      tag_13\n      jump\t// in\n    tag_12:\n      mload(0x40)\n      tag_14\n      swap2\n      swap1\n      tag_15\n      jump\t// in\n    tag_14:\n      mload(0x40)\n      dup1\n      swap2\n      sub\n      swap1\n      return\n        /* \"Campaign.sol\":142:616  function createCampaign(... */\n    tag_5:\n      tag_16\n      0x04\n      dup1\n      calldatasize\n      sub\n      dup2\n      add\n      swap1\n      tag_17\n      swap2\n      swap1\n      tag_18\n      jump\t// in\n    tag_17:\n      tag_19\n      jump\t// in\n    tag_16:\n      stop\n        /* \"Campaign.sol\":100:135  Campaign[] public deployedCampaigns */\n    tag_9:\n      0x00\n      dup2\n      dup2\n      sload\n      dup2\n      lt\n      tag_20\n      jumpi\n      0x00\n      dup1\n      revert\n    tag_20:\n      swap1\n      0x00\n      mstore\n      keccak256(0x00, 0x20)\n      add\n      0x00\n      swap2\n      pop\n      sload\n      swap1\n      0x0100\n      exp\n      swap1\n      div\n      0xffffffffffffffffffffffffffffffffffffffff\n      and\n      dup2\n      jump\t// out\n        /* \"Campaign.sol\":622:735  function getDeployedCampaigns() public view returns (Campaign[] memory) {... */\n    tag_13:\n        /* \"Campaign.sol\":675:692  Campaign[] memory */\n      0x60\n        /* \"Campaign.sol\":711:728  deployedCampaigns */\n      0x00\n        /* \"Campaign.sol\":704:728  return deployedCampaigns */\n      dup1\n      sload\n      dup1\n      0x20\n      mul\n      0x20\n      add\n      mload(0x40)\n      swap1\n      dup2\n      add\n      0x40\n      mstore\n      dup1\n      swap3\n      swap2\n      swap1\n      dup2\n      dup2\n      mstore\n      0x20\n      add\n      dup3\n      dup1\n      sload\n      dup1\n      iszero\n      tag_23\n      jumpi\n      0x20\n      mul\n      dup3\n      add\n      swap2\n      swap1\n      0x00\n      mstore\n      keccak256(0x00, 0x20)\n      swap1\n    tag_24:\n      dup2\n      0x00\n      swap1\n      sload\n      swap1\n      0x0100\n      exp\n      swap1\n      div\n      0xffffffffffffffffffffffffffffffffffffffff\n      and\n      0xffffffffffffffffffffffffffffffffffffffff\n      and\n      dup2\n      mstore\n      0x20\n      add\n      swap1\n      0x01\n      add\n      swap1\n      dup1\n      dup4\n      gt\n      tag_24\n      jumpi\n    tag_23:\n      pop\n      pop\n      pop\n      pop\n      pop\n      swap1\n      pop\n        /* \"Campaign.sol\":622:735  function getDeployedCampaigns() public view returns (Campaign[] memory) {... */\n      swap1\n      jump\t// out\n        /* \"Campaign.sol\":142:616  function createCampaign(... */\n    tag_19:\n        /* \"Campaign.sol\":370:390  Campaign newCampaign */\n      0x00\n        /* \"Campaign.sol\":419:426  minimum */\n      dup11\n        /* \"Campaign.sol\":440:450  msg.sender */\n      caller\n        /* \"Campaign.sol\":464:468  name */\n      dup12\n      dup12\n        /* \"Campaign.sol\":482:493  description */\n      dup12\n      dup12\n        /* \"Campaign.sol\":507:512  image */\n      dup12\n      dup12\n        /* \"Campaign.sol\":526:532  target */\n      dup12\n        /* \"Campaign.sol\":546:554  deadline */\n      dup12\n      dup12\n        /* \"Campaign.sol\":393:564  new Campaign(... */\n      mload(0x40)\n      tag_26\n      swap1\n      tag_27\n      jump\t// in\n    tag_26:\n      tag_28\n      swap12\n      swap11\n      swap10\n      swap9\n      swap8\n      swap7\n      swap6\n      swap5\n      swap4\n      swap3\n      swap2\n      swap1\n      tag_29\n      jump\t// in\n    tag_28:\n      mload(0x40)\n      dup1\n      swap2\n      sub\n      swap1\n      0x00\n      create\n      dup1\n      iszero\n      dup1\n      iszero\n      tag_30\n      jumpi\n      returndatasize\n      0x00\n      dup1\n      returndatacopy\n      revert(0x00, returndatasize)\n    tag_30:\n      pop\n        /* \"Campaign.sol\":370:564  Campaign newCampaign = new Campaign(... */\n      swap1\n      pop\n        /* \"Campaign.sol\":574:591  deployedCampaigns */\n      0x00\n        /* \"Campaign.sol\":597:608  newCampaign */\n      dup2\n        /* \"Campaign.sol\":574:609  deployedCampaigns.push(newCampaign) */\n      swap1\n      dup1\n      0x01\n      dup2\n      sload\n      add\n      dup1\n      dup3\n      sstore\n      dup1\n      swap2\n      pop\n      pop\n      0x01\n      swap1\n      sub\n      swap1\n      0x00\n      mstore\n      keccak256(0x00, 0x20)\n      add\n      0x00\n      swap1\n      swap2\n      swap1\n      swap2\n      swap1\n      swap2\n      0x0100\n      exp\n      dup2\n      sload\n      dup2\n      0xffffffffffffffffffffffffffffffffffffffff\n      mul\n      not\n      and\n      swap1\n      dup4\n      0xffffffffffffffffffffffffffffffffffffffff\n      and\n      mul\n      or\n      swap1\n      sstore\n      pop\n        /* \"Campaign.sol\":360:616  {... */\n      pop\n        /* \"Campaign.sol\":142:616  function createCampaign(... */\n      pop\n      pop\n      pop\n      pop\n      pop\n      pop\n      pop\n      pop\n      pop\n      pop\n      jump\t// out\n    tag_27:\n      dataSize(sub_0)\n      dup1\n      dataOffset(sub_0)\n      dup4\n      codecopy\n      add\n      swap1\n      jump\t// out\n        /* \"#utility.yul\":88:205   */\n    tag_33:\n        /* \"#utility.yul\":197:198   */\n      0x00\n        /* \"#utility.yul\":194:195   */\n      dup1\n        /* \"#utility.yul\":187:199   */\n      revert\n        /* \"#utility.yul\":211:328   */\n    tag_34:\n        /* \"#utility.yul\":320:321   */\n      0x00\n        /* \"#utility.yul\":317:318   */\n      dup1\n        /* \"#utility.yul\":310:322   */\n      revert\n        /* \"#utility.yul\":334:411   */\n    tag_35:\n        /* \"#utility.yul\":371:378   */\n      0x00\n        /* \"#utility.yul\":400:405   */\n      dup2\n        /* \"#utility.yul\":389:405   */\n      swap1\n      pop\n        /* \"#utility.yul\":334:411   */\n      swap2\n      swap1\n      pop\n      jump\t// out\n        /* \"#utility.yul\":417:539   */\n    tag_36:\n        /* \"#utility.yul\":490:514   */\n      tag_68\n        /* \"#utility.yul\":508:513   */\n      dup2\n        /* \"#utility.yul\":490:514   */\n      tag_35\n      jump\t// in\n    tag_68:\n        /* \"#utility.yul\":483:488   */\n      dup2\n        /* \"#utility.yul\":480:515   */\n      eq\n        /* \"#utility.yul\":470:533   */\n      tag_69\n      jumpi\n        /* \"#utility.yul\":529:530   */\n      0x00\n        /* \"#utility.yul\":526:527   */\n      dup1\n        /* \"#utility.yul\":519:531   */\n      revert\n        /* \"#utility.yul\":470:533   */\n    tag_69:\n        /* \"#utility.yul\":417:539   */\n      pop\n      jump\t// out\n        /* \"#utility.yul\":545:684   */\n    tag_37:\n        /* \"#utility.yul\":591:596   */\n      0x00\n        /* \"#utility.yul\":629:635   */\n      dup2\n        /* \"#utility.yul\":616:636   */\n      calldataload\n        /* \"#utility.yul\":607:636   */\n      swap1\n      pop\n        /* \"#utility.yul\":645:678   */\n      tag_71\n        /* \"#utility.yul\":672:677   */\n      dup2\n        /* \"#utility.yul\":645:678   */\n      tag_36\n      jump\t// in\n    tag_71:\n        /* \"#utility.yul\":545:684   */\n      swap3\n      swap2\n      pop\n      pop\n      jump\t// out\n        /* \"#utility.yul\":690:1019   */\n    tag_8:\n        /* \"#utility.yul\":749:755   */\n      0x00\n        /* \"#utility.yul\":798:800   */\n      0x20\n        /* \"#utility.yul\":786:795   */\n      dup3\n        /* \"#utility.yul\":777:784   */\n      dup5\n        /* \"#utility.yul\":773:796   */\n      sub\n        /* \"#utility.yul\":769:801   */\n      slt\n        /* \"#utility.yul\":766:885   */\n      iszero\n      tag_73\n      jumpi\n        /* \"#utility.yul\":804:883   */\n      tag_74\n      tag_33\n      jump\t// in\n    tag_74:\n        /* \"#utility.yul\":766:885   */\n    tag_73:\n        /* \"#utility.yul\":924:925   */\n      0x00\n        /* \"#utility.yul\":949:1002   */\n      tag_75\n        /* \"#utility.yul\":994:1001   */\n      dup5\n        /* \"#utility.yul\":985:991   */\n      dup3\n        /* \"#utility.yul\":974:983   */\n      dup6\n        /* \"#utility.yul\":970:992   */\n      add\n        /* \"#utility.yul\":949:1002   */\n      tag_37\n      jump\t// in\n    tag_75:\n        /* \"#utility.yul\":939:1002   */\n      swap2\n      pop\n        /* \"#utility.yul\":895:1012   */\n      pop\n        /* \"#utility.yul\":690:1019   */\n      swap3\n      swap2\n      pop\n      pop\n      jump\t// out\n        /* \"#utility.yul\":1025:1151   */\n    tag_38:\n        /* \"#utility.yul\":1062:1069   */\n      0x00\n        /* \"#utility.yul\":1102:1144   */\n      0xffffffffffffffffffffffffffffffffffffffff\n        /* \"#utility.yul\":1095:1100   */\n      dup3\n        /* \"#utility.yul\":1091:1145   */\n      and\n        /* \"#utility.yul\":1080:1145   */\n      swap1\n      pop\n        /* \"#utility.yul\":1025:1151   */\n      swap2\n      swap1\n      pop\n      jump\t// out\n        /* \"#utility.yul\":1157:1217   */\n    tag_39:\n        /* \"#utility.yul\":1185:1188   */\n      0x00\n        /* \"#utility.yul\":1206:1211   */\n      dup2\n        /* \"#utility.yul\":1199:1211   */\n      swap1\n      pop\n        /* \"#utility.yul\":1157:1217   */\n      swap2\n      swap1\n      pop\n      jump\t// out\n        /* \"#utility.yul\":1223:1365   */\n    tag_40:\n        /* \"#utility.yul\":1273:1282   */\n      0x00\n        /* \"#utility.yul\":1306:1359   */\n      tag_79\n        /* \"#utility.yul\":1324:1358   */\n      tag_80\n        /* \"#utility.yul\":1333:1357   */\n      tag_81\n        /* \"#utility.yul\":1351:1356   */\n      dup5\n        /* \"#utility.yul\":1333:1357   */\n      tag_38\n      jump\t// in\n    tag_81:\n        /* \"#utility.yul\":1324:1358   */\n      tag_39\n      jump\t// in\n    tag_80:\n        /* \"#utility.yul\":1306:1359   */\n      tag_38\n      jump\t// in\n    tag_79:\n        /* \"#utility.yul\":1293:1359   */\n      swap1\n      pop\n        /* \"#utility.yul\":1223:1365   */\n      swap2\n      swap1\n      pop\n      jump\t// out\n        /* \"#utility.yul\":1371:1497   */\n    tag_41:\n        /* \"#utility.yul\":1421:1430   */\n      0x00\n        /* \"#utility.yul\":1454:1491   */\n      tag_83\n        /* \"#utility.yul\":1485:1490   */\n      dup3\n        /* \"#utility.yul\":1454:1491   */\n      tag_40\n      jump\t// in\n    tag_83:\n        /* \"#utility.yul\":1441:1491   */\n      swap1\n      pop\n        /* \"#utility.yul\":1371:1497   */\n      swap2\n      swap1\n      pop\n      jump\t// out\n        /* \"#utility.yul\":1503:1645   */\n    tag_42:\n        /* \"#utility.yul\":1569:1578   */\n      0x00\n        /* \"#utility.yul\":1602:1639   */\n      tag_85\n        /* \"#utility.yul\":1633:1638   */\n      dup3\n        /* \"#utility.yul\":1602:1639   */\n      tag_41\n      jump\t// in\n    tag_85:\n        /* \"#utility.yul\":1589:1639   */\n      swap1\n      pop\n        /* \"#utility.yul\":1503:1645   */\n      swap2\n      swap1\n      pop\n      jump\t// out\n        /* \"#utility.yul\":1651:1814   */\n    tag_43:\n        /* \"#utility.yul\":1754:1807   */\n      tag_87\n        /* \"#utility.yul\":1801:1806   */\n      dup2\n        /* \"#utility.yul\":1754:1807   */\n      tag_42\n      jump\t// in\n    tag_87:\n        /* \"#utility.yul\":1749:1752   */\n      dup3\n        /* \"#utility.yul\":1742:1808   */\n      mstore\n        /* \"#utility.yul\":1651:1814   */\n      pop\n      pop\n      jump\t// out\n        /* \"#utility.yul\":1820:2074   */\n    tag_11:\n        /* \"#utility.yul\":1929:1933   */\n      0x00\n        /* \"#utility.yul\":1967:1969   */\n      0x20\n        /* \"#utility.yul\":1956:1965   */\n      dup3\n        /* \"#utility.yul\":1952:1970   */\n      add\n        /* \"#utility.yul\":1944:1970   */\n      swap1\n      pop\n        /* \"#utility.yul\":1980:2067   */\n      tag_89\n        /* \"#utility.yul\":2064:2065   */\n      0x00\n        /* \"#utility.yul\":2053:2062   */\n      dup4\n        /* \"#utility.yul\":2049:2066   */\n      add\n        /* \"#utility.yul\":2040:2046   */\n      dup5\n        /* \"#utility.yul\":1980:2067   */\n      tag_43\n      jump\t// in\n    tag_89:\n        /* \"#utility.yul\":1820:2074   */\n      swap3\n      swap2\n      pop\n      pop\n      jump\t// out\n        /* \"#utility.yul\":2080:2210   */\n    tag_44:\n        /* \"#utility.yul\":2163:2169   */\n      0x00\n        /* \"#utility.yul\":2197:2202   */\n      dup2\n        /* \"#utility.yul\":2191:2203   */\n      mload\n        /* \"#utility.yul\":2181:2203   */\n      swap1\n      pop\n        /* \"#utility.yul\":2080:2210   */\n      swap2\n      swap1\n      pop\n      jump\t// out\n        /* \"#utility.yul\":2216:2400   */\n    tag_45:\n        /* \"#utility.yul\":2315:2326   */\n      0x00\n        /* \"#utility.yul\":2349:2355   */\n      dup3\n        /* \"#utility.yul\":2344:2347   */\n      dup3\n        /* \"#utility.yul\":2337:2356   */\n      mstore\n        /* \"#utility.yul\":2389:2393   */\n      0x20\n        /* \"#utility.yul\":2384:2387   */\n      dup3\n        /* \"#utility.yul\":2380:2394   */\n      add\n        /* \"#utility.yul\":2365:2394   */\n      swap1\n      pop\n        /* \"#utility.yul\":2216:2400   */\n      swap3\n      swap2\n      pop\n      pop\n      jump\t// out\n        /* \"#utility.yul\":2406:2554   */\n    tag_46:\n        /* \"#utility.yul\":2489:2493   */\n      0x00\n        /* \"#utility.yul\":2512:2515   */\n      dup2\n        /* \"#utility.yul\":2504:2515   */\n      swap1\n      pop\n        /* \"#utility.yul\":2542:2546   */\n      0x20\n        /* \"#utility.yul\":2537:2540   */\n      dup3\n        /* \"#utility.yul\":2533:2547   */\n      add\n        /* \"#utility.yul\":2525:2547   */\n      swap1\n      pop\n        /* \"#utility.yul\":2406:2554   */\n      swap2\n      swap1\n      pop\n      jump\t// out\n        /* \"#utility.yul\":2560:2713   */\n    tag_47:\n        /* \"#utility.yul\":2653:2706   */\n      tag_94\n        /* \"#utility.yul\":2700:2705   */\n      dup2\n        /* \"#utility.yul\":2653:2706   */\n      tag_42\n      jump\t// in\n    tag_94:\n        /* \"#utility.yul\":2648:2651   */\n      dup3\n        /* \"#utility.yul\":2641:2707   */\n      mstore\n        /* \"#utility.yul\":2560:2713   */\n      pop\n      pop\n      jump\t// out\n        /* \"#utility.yul\":2719:2930   */\n    tag_48:\n        /* \"#utility.yul\":2804:2814   */\n      0x00\n        /* \"#utility.yul\":2825:2887   */\n      tag_96\n        /* \"#utility.yul\":2883:2886   */\n      dup4\n        /* \"#utility.yul\":2875:2881   */\n      dup4\n        /* \"#utility.yul\":2825:2887   */\n      tag_47\n      jump\t// in\n    tag_96:\n        /* \"#utility.yul\":2919:2923   */\n      0x20\n        /* \"#utility.yul\":2914:2917   */\n      dup4\n        /* \"#utility.yul\":2910:2924   */\n      add\n        /* \"#utility.yul\":2896:2924   */\n      swap1\n      pop\n        /* \"#utility.yul\":2719:2930   */\n      swap3\n      swap2\n      pop\n      pop\n      jump\t// out\n        /* \"#utility.yul\":2936:3065   */\n    tag_49:\n        /* \"#utility.yul\":3022:3026   */\n      0x00\n        /* \"#utility.yul\":3054:3058   */\n      0x20\n        /* \"#utility.yul\":3049:3052   */\n      dup3\n        /* \"#utility.yul\":3045:3059   */\n      add\n        /* \"#utility.yul\":3037:3059   */\n      swap1\n      pop\n        /* \"#utility.yul\":2936:3065   */\n      swap2\n      swap1\n      pop\n      jump\t// out\n        /* \"#utility.yul\":3111:3923   */\n    tag_50:\n        /* \"#utility.yul\":3246:3249   */\n      0x00\n        /* \"#utility.yul\":3275:3345   */\n      tag_99\n        /* \"#utility.yul\":3339:3344   */\n      dup3\n        /* \"#utility.yul\":3275:3345   */\n      tag_44\n      jump\t// in\n    tag_99:\n        /* \"#utility.yul\":3361:3447   */\n      tag_100\n        /* \"#utility.yul\":3440:3446   */\n      dup2\n        /* \"#utility.yul\":3435:3438   */\n      dup6\n        /* \"#utility.yul\":3361:3447   */\n      tag_45\n      jump\t// in\n    tag_100:\n        /* \"#utility.yul\":3354:3447   */\n      swap4\n      pop\n        /* \"#utility.yul\":3471:3543   */\n      tag_101\n        /* \"#utility.yul\":3537:3542   */\n      dup4\n        /* \"#utility.yul\":3471:3543   */\n      tag_46\n      jump\t// in\n    tag_101:\n        /* \"#utility.yul\":3566:3573   */\n      dup1\n        /* \"#utility.yul\":3597:3598   */\n      0x00\n        /* \"#utility.yul\":3582:3898   */\n    tag_102:\n        /* \"#utility.yul\":3607:3613   */\n      dup4\n        /* \"#utility.yul\":3604:3605   */\n      dup2\n        /* \"#utility.yul\":3601:3614   */\n      lt\n        /* \"#utility.yul\":3582:3898   */\n      iszero\n      tag_104\n      jumpi\n        /* \"#utility.yul\":3683:3689   */\n      dup2\n        /* \"#utility.yul\":3677:3690   */\n      mload\n        /* \"#utility.yul\":3710:3789   */\n      tag_105\n        /* \"#utility.yul\":3785:3788   */\n      dup9\n        /* \"#utility.yul\":3770:3783   */\n      dup3\n        /* \"#utility.yul\":3710:3789   */\n      tag_48\n      jump\t// in\n    tag_105:\n        /* \"#utility.yul\":3703:3789   */\n      swap8\n      pop\n        /* \"#utility.yul\":3812:3888   */\n      tag_106\n        /* \"#utility.yul\":3881:3887   */\n      dup4\n        /* \"#utility.yul\":3812:3888   */\n      tag_49\n      jump\t// in\n    tag_106:\n        /* \"#utility.yul\":3802:3888   */\n      swap3\n      pop\n        /* \"#utility.yul\":3642:3898   */\n      pop\n        /* \"#utility.yul\":3629:3630   */\n      0x01\n        /* \"#utility.yul\":3626:3627   */\n      dup2\n        /* \"#utility.yul\":3622:3631   */\n      add\n        /* \"#utility.yul\":3617:3631   */\n      swap1\n      pop\n        /* \"#utility.yul\":3582:3898   */\n      jump(tag_102)\n    tag_104:\n        /* \"#utility.yul\":3586:3600   */\n      pop\n        /* \"#utility.yul\":3914:3917   */\n      dup6\n        /* \"#utility.yul\":3907:3917   */\n      swap4\n      pop\n        /* \"#utility.yul\":3251:3923   */\n      pop\n      pop\n      pop\n        /* \"#utility.yul\":3111:3923   */\n      swap3\n      swap2\n      pop\n      pop\n      jump\t// out\n        /* \"#utility.yul\":3929:4334   */\n    tag_15:\n        /* \"#utility.yul\":4088:4092   */\n      0x00\n        /* \"#utility.yul\":4126:4128   */\n      0x20\n        /* \"#utility.yul\":4115:4124   */\n      dup3\n        /* \"#utility.yul\":4111:4129   */\n      add\n        /* \"#utility.yul\":4103:4129   */\n      swap1\n      pop\n        /* \"#utility.yul\":4175:4184   */\n      dup2\n        /* \"#utility.yul\":4169:4173   */\n      dup2\n        /* \"#utility.yul\":4165:4185   */\n      sub\n        /* \"#utility.yul\":4161:4162   */\n      0x00\n        /* \"#utility.yul\":4150:4159   */\n      dup4\n        /* \"#utility.yul\":4146:4163   */\n      add\n        /* \"#utility.yul\":4139:4186   */\n      mstore\n        /* \"#utility.yul\":4203:4327   */\n      tag_108\n        /* \"#utility.yul\":4322:4326   */\n      dup2\n        /* \"#utility.yul\":4313:4319   */\n      dup5\n        /* \"#utility.yul\":4203:4327   */\n      tag_50\n      jump\t// in\n    tag_108:\n        /* \"#utility.yul\":4195:4327   */\n      swap1\n      pop\n        /* \"#utility.yul\":3929:4334   */\n      swap3\n      swap2\n      pop\n      pop\n      jump\t// out\n        /* \"#utility.yul\":4340:4457   */\n    tag_51:\n        /* \"#utility.yul\":4449:4450   */\n      0x00\n        /* \"#utility.yul\":4446:4447   */\n      dup1\n        /* \"#utility.yul\":4439:4451   */\n      revert\n        /* \"#utility.yul\":4463:4580   */\n    tag_52:\n        /* \"#utility.yul\":4572:4573   */\n      0x00\n        /* \"#utility.yul\":4569:4570   */\n      dup1\n        /* \"#utility.yul\":4562:4574   */\n      revert\n        /* \"#utility.yul\":4586:4703   */\n    tag_53:\n        /* \"#utility.yul\":4695:4696   */\n      0x00\n        /* \"#utility.yul\":4692:4693   */\n      dup1\n        /* \"#utility.yul\":4685:4697   */\n      revert\n        /* \"#utility.yul\":4723:5276   */\n    tag_54:\n        /* \"#utility.yul\":4781:4789   */\n      0x00\n        /* \"#utility.yul\":4791:4797   */\n      dup1\n        /* \"#utility.yul\":4841:4844   */\n      dup4\n        /* \"#utility.yul\":4834:4838   */\n      0x1f\n        /* \"#utility.yul\":4826:4832   */\n      dup5\n        /* \"#utility.yul\":4822:4839   */\n      add\n        /* \"#utility.yul\":4818:4845   */\n      slt\n        /* \"#utility.yul\":4808:4930   */\n      tag_113\n      jumpi\n        /* \"#utility.yul\":4849:4928   */\n      tag_114\n      tag_51\n      jump\t// in\n    tag_114:\n        /* \"#utility.yul\":4808:4930   */\n    tag_113:\n        /* \"#utility.yul\":4962:4968   */\n      dup3\n        /* \"#utility.yul\":4949:4969   */\n      calldataload\n        /* \"#utility.yul\":4939:4969   */\n      swap1\n      pop\n        /* \"#utility.yul\":4992:5010   */\n      0xffffffffffffffff\n        /* \"#utility.yul\":4984:4990   */\n      dup2\n        /* \"#utility.yul\":4981:5011   */\n      gt\n        /* \"#utility.yul\":4978:5095   */\n      iszero\n      tag_115\n      jumpi\n        /* \"#utility.yul\":5014:5093   */\n      tag_116\n      tag_52\n      jump\t// in\n    tag_116:\n        /* \"#utility.yul\":4978:5095   */\n    tag_115:\n        /* \"#utility.yul\":5128:5132   */\n      0x20\n        /* \"#utility.yul\":5120:5126   */\n      dup4\n        /* \"#utility.yul\":5116:5133   */\n      add\n        /* \"#utility.yul\":5104:5133   */\n      swap2\n      pop\n        /* \"#utility.yul\":5182:5185   */\n      dup4\n        /* \"#utility.yul\":5174:5178   */\n      0x01\n        /* \"#utility.yul\":5166:5172   */\n      dup3\n        /* \"#utility.yul\":5162:5179   */\n      mul\n        /* \"#utility.yul\":5152:5160   */\n      dup4\n        /* \"#utility.yul\":5148:5180   */\n      add\n        /* \"#utility.yul\":5145:5186   */\n      gt\n        /* \"#utility.yul\":5142:5270   */\n      iszero\n      tag_117\n      jumpi\n        /* \"#utility.yul\":5189:5268   */\n      tag_118\n      tag_53\n      jump\t// in\n    tag_118:\n        /* \"#utility.yul\":5142:5270   */\n    tag_117:\n        /* \"#utility.yul\":4723:5276   */\n      swap3\n      pop\n      swap3\n      swap1\n      pop\n      jump\t// out\n        /* \"#utility.yul\":5282:7139   */\n    tag_18:\n        /* \"#utility.yul\":5434:5440   */\n      0x00\n        /* \"#utility.yul\":5442:5448   */\n      dup1\n        /* \"#utility.yul\":5450:5456   */\n      0x00\n        /* \"#utility.yul\":5458:5464   */\n      dup1\n        /* \"#utility.yul\":5466:5472   */\n      0x00\n        /* \"#utility.yul\":5474:5480   */\n      dup1\n        /* \"#utility.yul\":5482:5488   */\n      0x00\n        /* \"#utility.yul\":5490:5496   */\n      dup1\n        /* \"#utility.yul\":5498:5504   */\n      0x00\n        /* \"#utility.yul\":5506:5512   */\n      dup1\n        /* \"#utility.yul\":5555:5558   */\n      0xc0\n        /* \"#utility.yul\":5543:5552   */\n      dup12\n        /* \"#utility.yul\":5534:5541   */\n      dup14\n        /* \"#utility.yul\":5530:5553   */\n      sub\n        /* \"#utility.yul\":5526:5559   */\n      slt\n        /* \"#utility.yul\":5523:5643   */\n      iszero\n      tag_120\n      jumpi\n        /* \"#utility.yul\":5562:5641   */\n      tag_121\n      tag_33\n      jump\t// in\n    tag_121:\n        /* \"#utility.yul\":5523:5643   */\n    tag_120:\n        /* \"#utility.yul\":5682:5683   */\n      0x00\n        /* \"#utility.yul\":5707:5760   */\n      tag_122\n        /* \"#utility.yul\":5752:5759   */\n      dup14\n        /* \"#utility.yul\":5743:5749   */\n      dup3\n        /* \"#utility.yul\":5732:5741   */\n      dup15\n        /* \"#utility.yul\":5728:5750   */\n      add\n        /* \"#utility.yul\":5707:5760   */\n      tag_37\n      jump\t// in\n    tag_122:\n        /* \"#utility.yul\":5697:5760   */\n      swap11\n      pop\n        /* \"#utility.yul\":5653:5770   */\n      pop\n        /* \"#utility.yul\":5837:5839   */\n      0x20\n        /* \"#utility.yul\":5826:5835   */\n      dup12\n        /* \"#utility.yul\":5822:5840   */\n      add\n        /* \"#utility.yul\":5809:5841   */\n      calldataload\n        /* \"#utility.yul\":5868:5886   */\n      0xffffffffffffffff\n        /* \"#utility.yul\":5860:5866   */\n      dup2\n        /* \"#utility.yul\":5857:5887   */\n      gt\n        /* \"#utility.yul\":5854:5971   */\n      iszero\n      tag_123\n      jumpi\n        /* \"#utility.yul\":5890:5969   */\n      tag_124\n      tag_34\n      jump\t// in\n    tag_124:\n        /* \"#utility.yul\":5854:5971   */\n    tag_123:\n        /* \"#utility.yul\":6003:6068   */\n      tag_125\n        /* \"#utility.yul\":6060:6067   */\n      dup14\n        /* \"#utility.yul\":6051:6057   */\n      dup3\n        /* \"#utility.yul\":6040:6049   */\n      dup15\n        /* \"#utility.yul\":6036:6058   */\n      add\n        /* \"#utility.yul\":6003:6068   */\n      tag_54\n      jump\t// in\n    tag_125:\n        /* \"#utility.yul\":5985:6068   */\n      swap10\n      pop\n      swap10\n      pop\n        /* \"#utility.yul\":5780:6078   */\n      pop\n        /* \"#utility.yul\":6145:6147   */\n      0x40\n        /* \"#utility.yul\":6134:6143   */\n      dup12\n        /* \"#utility.yul\":6130:6148   */\n      add\n        /* \"#utility.yul\":6117:6149   */\n      calldataload\n        /* \"#utility.yul\":6176:6194   */\n      0xffffffffffffffff\n        /* \"#utility.yul\":6168:6174   */\n      dup2\n        /* \"#utility.yul\":6165:6195   */\n      gt\n        /* \"#utility.yul\":6162:6279   */\n      iszero\n      tag_126\n      jumpi\n        /* \"#utility.yul\":6198:6277   */\n      tag_127\n      tag_34\n      jump\t// in\n    tag_127:\n        /* \"#utility.yul\":6162:6279   */\n    tag_126:\n        /* \"#utility.yul\":6311:6376   */\n      tag_128\n        /* \"#utility.yul\":6368:6375   */\n      dup14\n        /* \"#utility.yul\":6359:6365   */\n      dup3\n        /* \"#utility.yul\":6348:6357   */\n      dup15\n        /* \"#utility.yul\":6344:6366   */\n      add\n        /* \"#utility.yul\":6311:6376   */\n      tag_54\n      jump\t// in\n    tag_128:\n        /* \"#utility.yul\":6293:6376   */\n      swap8\n      pop\n      swap8\n      pop\n        /* \"#utility.yul\":6088:6386   */\n      pop\n        /* \"#utility.yul\":6453:6455   */\n      0x60\n        /* \"#utility.yul\":6442:6451   */\n      dup12\n        /* \"#utility.yul\":6438:6456   */\n      add\n        /* \"#utility.yul\":6425:6457   */\n      calldataload\n        /* \"#utility.yul\":6484:6502   */\n      0xffffffffffffffff\n        /* \"#utility.yul\":6476:6482   */\n      dup2\n        /* \"#utility.yul\":6473:6503   */\n      gt\n        /* \"#utility.yul\":6470:6587   */\n      iszero\n      tag_129\n      jumpi\n        /* \"#utility.yul\":6506:6585   */\n      tag_130\n      tag_34\n      jump\t// in\n    tag_130:\n        /* \"#utility.yul\":6470:6587   */\n    tag_129:\n        /* \"#utility.yul\":6619:6684   */\n      tag_131\n        /* \"#utility.yul\":6676:6683   */\n      dup14\n        /* \"#utility.yul\":6667:6673   */\n      dup3\n        /* \"#utility.yul\":6656:6665   */\n      dup15\n        /* \"#utility.yul\":6652:6674   */\n      add\n        /* \"#utility.yul\":6619:6684   */\n      tag_54\n      jump\t// in\n    tag_131:\n        /* \"#utility.yul\":6601:6684   */\n      swap6\n      pop\n      swap6\n      pop\n        /* \"#utility.yul\":6396:6694   */\n      pop\n        /* \"#utility.yul\":6733:6736   */\n      0x80\n        /* \"#utility.yul\":6760:6813   */\n      tag_132\n        /* \"#utility.yul\":6805:6812   */\n      dup14\n        /* \"#utility.yul\":6796:6802   */\n      dup3\n        /* \"#utility.yul\":6785:6794   */\n      dup15\n        /* \"#utility.yul\":6781:6803   */\n      add\n        /* \"#utility.yul\":6760:6813   */\n      tag_37\n      jump\t// in\n    tag_132:\n        /* \"#utility.yul\":6750:6813   */\n      swap4\n      pop\n        /* \"#utility.yul\":6704:6823   */\n      pop\n        /* \"#utility.yul\":6890:6893   */\n      0xa0\n        /* \"#utility.yul\":6879:6888   */\n      dup12\n        /* \"#utility.yul\":6875:6894   */\n      add\n        /* \"#utility.yul\":6862:6895   */\n      calldataload\n        /* \"#utility.yul\":6922:6940   */\n      0xffffffffffffffff\n        /* \"#utility.yul\":6914:6920   */\n      dup2\n        /* \"#utility.yul\":6911:6941   */\n      gt\n        /* \"#utility.yul\":6908:7025   */\n      iszero\n      tag_133\n      jumpi\n        /* \"#utility.yul\":6944:7023   */\n      tag_134\n      tag_34\n      jump\t// in\n    tag_134:\n        /* \"#utility.yul\":6908:7025   */\n    tag_133:\n        /* \"#utility.yul\":7057:7122   */\n      tag_135\n        /* \"#utility.yul\":7114:7121   */\n      dup14\n        /* \"#utility.yul\":7105:7111   */\n      dup3\n        /* \"#utility.yul\":7094:7103   */\n      dup15\n        /* \"#utility.yul\":7090:7112   */\n      add\n        /* \"#utility.yul\":7057:7122   */\n      tag_54\n      jump\t// in\n    tag_135:\n        /* \"#utility.yul\":7039:7122   */\n      swap3\n      pop\n      swap3\n      pop\n        /* \"#utility.yul\":6833:7132   */\n      pop\n        /* \"#utility.yul\":5282:7139   */\n      swap3\n      swap6\n      swap9\n      swap12\n      swap2\n      swap5\n      swap8\n      swap11\n      pop\n      swap3\n      swap6\n      swap9\n      pop\n      jump\t// out\n        /* \"#utility.yul\":7145:7263   */\n    tag_55:\n        /* \"#utility.yul\":7232:7256   */\n      tag_137\n        /* \"#utility.yul\":7250:7255   */\n      dup2\n        /* \"#utility.yul\":7232:7256   */\n      tag_35\n      jump\t// in\n    tag_137:\n        /* \"#utility.yul\":7227:7230   */\n      dup3\n        /* \"#utility.yul\":7220:7257   */\n      mstore\n        /* \"#utility.yul\":7145:7263   */\n      pop\n      pop\n      jump\t// out\n        /* \"#utility.yul\":7269:7365   */\n    tag_56:\n        /* \"#utility.yul\":7306:7313   */\n      0x00\n        /* \"#utility.yul\":7335:7359   */\n      tag_139\n        /* \"#utility.yul\":7353:7358   */\n      dup3\n        /* \"#utility.yul\":7335:7359   */\n      tag_38\n      jump\t// in\n    tag_139:\n        /* \"#utility.yul\":7324:7359   */\n      swap1\n      pop\n        /* \"#utility.yul\":7269:7365   */\n      swap2\n      swap1\n      pop\n      jump\t// out\n        /* \"#utility.yul\":7371:7489   */\n    tag_57:\n        /* \"#utility.yul\":7458:7482   */\n      tag_141\n        /* \"#utility.yul\":7476:7481   */\n      dup2\n        /* \"#utility.yul\":7458:7482   */\n      tag_56\n      jump\t// in\n    tag_141:\n        /* \"#utility.yul\":7453:7456   */\n      dup3\n        /* \"#utility.yul\":7446:7483   */\n      mstore\n        /* \"#utility.yul\":7371:7489   */\n      pop\n      pop\n      jump\t// out\n        /* \"#utility.yul\":7495:7664   */\n    tag_58:\n        /* \"#utility.yul\":7579:7590   */\n      0x00\n        /* \"#utility.yul\":7613:7619   */\n      dup3\n        /* \"#utility.yul\":7608:7611   */\n      dup3\n        /* \"#utility.yul\":7601:7620   */\n      mstore\n        /* \"#utility.yul\":7653:7657   */\n      0x20\n        /* \"#utility.yul\":7648:7651   */\n      dup3\n        /* \"#utility.yul\":7644:7658   */\n      add\n        /* \"#utility.yul\":7629:7658   */\n      swap1\n      pop\n        /* \"#utility.yul\":7495:7664   */\n      swap3\n      swap2\n      pop\n      pop\n      jump\t// out\n        /* \"#utility.yul\":7670:7824   */\n    tag_59:\n        /* \"#utility.yul\":7754:7760   */\n      dup3\n        /* \"#utility.yul\":7749:7752   */\n      dup2\n        /* \"#utility.yul\":7744:7747   */\n      dup4\n        /* \"#utility.yul\":7731:7761   */\n      calldatacopy\n        /* \"#utility.yul\":7816:7817   */\n      0x00\n        /* \"#utility.yul\":7807:7813   */\n      dup4\n        /* \"#utility.yul\":7802:7805   */\n      dup4\n        /* \"#utility.yul\":7798:7814   */\n      add\n        /* \"#utility.yul\":7791:7818   */\n      mstore\n        /* \"#utility.yul\":7670:7824   */\n      pop\n      pop\n      pop\n      jump\t// out\n        /* \"#utility.yul\":7830:7932   */\n    tag_60:\n        /* \"#utility.yul\":7871:7877   */\n      0x00\n        /* \"#utility.yul\":7922:7924   */\n      0x1f\n        /* \"#utility.yul\":7918:7925   */\n      not\n        /* \"#utility.yul\":7913:7915   */\n      0x1f\n        /* \"#utility.yul\":7906:7911   */\n      dup4\n        /* \"#utility.yul\":7902:7916   */\n      add\n        /* \"#utility.yul\":7898:7926   */\n      and\n        /* \"#utility.yul\":7888:7926   */\n      swap1\n      pop\n        /* \"#utility.yul\":7830:7932   */\n      swap2\n      swap1\n      pop\n      jump\t// out\n        /* \"#utility.yul\":7962:8266   */\n    tag_61:\n        /* \"#utility.yul\":8060:8063   */\n      0x00\n        /* \"#utility.yul\":8081:8152   */\n      tag_146\n        /* \"#utility.yul\":8145:8151   */\n      dup4\n        /* \"#utility.yul\":8140:8143   */\n      dup6\n        /* \"#utility.yul\":8081:8152   */\n      tag_58\n      jump\t// in\n    tag_146:\n        /* \"#utility.yul\":8074:8152   */\n      swap4\n      pop\n        /* \"#utility.yul\":8162:8205   */\n      tag_147\n        /* \"#utility.yul\":8198:8204   */\n      dup4\n        /* \"#utility.yul\":8193:8196   */\n      dup6\n        /* \"#utility.yul\":8186:8191   */\n      dup5\n        /* \"#utility.yul\":8162:8205   */\n      tag_59\n      jump\t// in\n    tag_147:\n        /* \"#utility.yul\":8230:8259   */\n      tag_148\n        /* \"#utility.yul\":8252:8258   */\n      dup4\n        /* \"#utility.yul\":8230:8259   */\n      tag_60\n      jump\t// in\n    tag_148:\n        /* \"#utility.yul\":8225:8228   */\n      dup5\n        /* \"#utility.yul\":8221:8260   */\n      add\n        /* \"#utility.yul\":8214:8260   */\n      swap1\n      pop\n        /* \"#utility.yul\":7962:8266   */\n      swap4\n      swap3\n      pop\n      pop\n      pop\n      jump\t// out\n        /* \"#utility.yul\":8272:9604   */\n    tag_29:\n        /* \"#utility.yul\":8654:8658   */\n      0x00\n        /* \"#utility.yul\":8692:8695   */\n      0xe0\n        /* \"#utility.yul\":8681:8690   */\n      dup3\n        /* \"#utility.yul\":8677:8696   */\n      add\n        /* \"#utility.yul\":8669:8696   */\n      swap1\n      pop\n        /* \"#utility.yul\":8706:8777   */\n      tag_150\n        /* \"#utility.yul\":8774:8775   */\n      0x00\n        /* \"#utility.yul\":8763:8772   */\n      dup4\n        /* \"#utility.yul\":8759:8776   */\n      add\n        /* \"#utility.yul\":8750:8756   */\n      dup15\n        /* \"#utility.yul\":8706:8777   */\n      tag_55\n      jump\t// in\n    tag_150:\n        /* \"#utility.yul\":8787:8859   */\n      tag_151\n        /* \"#utility.yul\":8855:8857   */\n      0x20\n        /* \"#utility.yul\":8844:8853   */\n      dup4\n        /* \"#utility.yul\":8840:8858   */\n      add\n        /* \"#utility.yul\":8831:8837   */\n      dup14\n        /* \"#utility.yul\":8787:8859   */\n      tag_57\n      jump\t// in\n    tag_151:\n        /* \"#utility.yul\":8906:8915   */\n      dup2\n        /* \"#utility.yul\":8900:8904   */\n      dup2\n        /* \"#utility.yul\":8896:8916   */\n      sub\n        /* \"#utility.yul\":8891:8893   */\n      0x40\n        /* \"#utility.yul\":8880:8889   */\n      dup4\n        /* \"#utility.yul\":8876:8894   */\n      add\n        /* \"#utility.yul\":8869:8917   */\n      mstore\n        /* \"#utility.yul\":8934:9022   */\n      tag_152\n        /* \"#utility.yul\":9017:9021   */\n      dup2\n        /* \"#utility.yul\":9008:9014   */\n      dup12\n        /* \"#utility.yul\":9000:9006   */\n      dup14\n        /* \"#utility.yul\":8934:9022   */\n      tag_61\n      jump\t// in\n    tag_152:\n        /* \"#utility.yul\":8926:9022   */\n      swap1\n      pop\n        /* \"#utility.yul\":9069:9078   */\n      dup2\n        /* \"#utility.yul\":9063:9067   */\n      dup2\n        /* \"#utility.yul\":9059:9079   */\n      sub\n        /* \"#utility.yul\":9054:9056   */\n      0x60\n        /* \"#utility.yul\":9043:9052   */\n      dup4\n        /* \"#utility.yul\":9039:9057   */\n      add\n        /* \"#utility.yul\":9032:9080   */\n      mstore\n        /* \"#utility.yul\":9097:9185   */\n      tag_153\n        /* \"#utility.yul\":9180:9184   */\n      dup2\n        /* \"#utility.yul\":9171:9177   */\n      dup10\n        /* \"#utility.yul\":9163:9169   */\n      dup12\n        /* \"#utility.yul\":9097:9185   */\n      tag_61\n      jump\t// in\n    tag_153:\n        /* \"#utility.yul\":9089:9185   */\n      swap1\n      pop\n        /* \"#utility.yul\":9233:9242   */\n      dup2\n        /* \"#utility.yul\":9227:9231   */\n      dup2\n        /* \"#utility.yul\":9223:9243   */\n      sub\n        /* \"#utility.yul\":9217:9220   */\n      0x80\n        /* \"#utility.yul\":9206:9215   */\n      dup4\n        /* \"#utility.yul\":9202:9221   */\n      add\n        /* \"#utility.yul\":9195:9244   */\n      mstore\n        /* \"#utility.yul\":9261:9349   */\n      tag_154\n        /* \"#utility.yul\":9344:9348   */\n      dup2\n        /* \"#utility.yul\":9335:9341   */\n      dup8\n        /* \"#utility.yul\":9327:9333   */\n      dup10\n        /* \"#utility.yul\":9261:9349   */\n      tag_61\n      jump\t// in\n    tag_154:\n        /* \"#utility.yul\":9253:9349   */\n      swap1\n      pop\n        /* \"#utility.yul\":9359:9432   */\n      tag_155\n        /* \"#utility.yul\":9427:9430   */\n      0xa0\n        /* \"#utility.yul\":9416:9425   */\n      dup4\n        /* \"#utility.yul\":9412:9431   */\n      add\n        /* \"#utility.yul\":9403:9409   */\n      dup7\n        /* \"#utility.yul\":9359:9432   */\n      tag_55\n      jump\t// in\n    tag_155:\n        /* \"#utility.yul\":9480:9489   */\n      dup2\n        /* \"#utility.yul\":9474:9478   */\n      dup2\n        /* \"#utility.yul\":9470:9490   */\n      sub\n        /* \"#utility.yul\":9464:9467   */\n      0xc0\n        /* \"#utility.yul\":9453:9462   */\n      dup4\n        /* \"#utility.yul\":9449:9468   */\n      add\n        /* \"#utility.yul\":9442:9491   */\n      mstore\n        /* \"#utility.yul\":9508:9597   */\n      tag_156\n        /* \"#utility.yul\":9592:9596   */\n      dup2\n        /* \"#utility.yul\":9582:9589   */\n      dup5\n        /* \"#utility.yul\":9574:9580   */\n      dup7\n        /* \"#utility.yul\":9508:9597   */\n      tag_61\n      jump\t// in\n    tag_156:\n        /* \"#utility.yul\":9500:9597   */\n      swap1\n      pop\n        /* \"#utility.yul\":8272:9604   */\n      swap13\n      swap12\n      pop\n      pop\n      pop\n      pop\n      pop\n      pop\n      pop\n      pop\n      pop\n      pop\n      pop\n      pop\n      jump\t// out\n    stop\n\n    sub_0: assembly {\n            /* \"Campaign.sol\":739:6774  contract Campaign {... */\n          mstore(0x40, 0x80)\n            /* \"Campaign.sol\":1249:1250  1 */\n          0x01\n            /* \"Campaign.sol\":1214:1250  uint256 private isCampaignActive = 1 */\n          0x07\n          sstore\n            /* \"Campaign.sol\":1595:2053  constructor(... */\n          callvalue\n          dup1\n          iszero\n          tag_1\n          jumpi\n          0x00\n          dup1\n          revert\n        tag_1:\n          pop\n          mload(0x40)\n          sub(codesize, bytecodeSize)\n          dup1\n          bytecodeSize\n          dup4\n          codecopy\n          dup2\n          dup2\n          add\n          0x40\n          mstore\n          dup2\n          add\n          swap1\n          tag_2\n          swap2\n          swap1\n          tag_3\n          jump\t// in\n        tag_2:\n            /* \"Campaign.sol\":1831:1838  creator */\n          dup6\n            /* \"Campaign.sol\":1821:1828  manager */\n          0x00\n          dup1\n            /* \"Campaign.sol\":1821:1838  manager = creator */\n          0x0100\n          exp\n          dup2\n          sload\n          dup2\n          0xffffffffffffffffffffffffffffffffffffffff\n          mul\n          not\n          and\n          swap1\n          dup4\n          0xffffffffffffffffffffffffffffffffffffffff\n          and\n          mul\n          or\n          swap1\n          sstore\n          pop\n            /* \"Campaign.sol\":1870:1877  minimum */\n          dup7\n            /* \"Campaign.sol\":1848:1867  minimumContribution */\n          0x01\n            /* \"Campaign.sol\":1848:1877  minimumContribution = minimum */\n          dup2\n          swap1\n          sstore\n          pop\n            /* \"Campaign.sol\":1902:1906  name */\n          dup5\n            /* \"Campaign.sol\":1887:1899  CampaignName */\n          0x02\n            /* \"Campaign.sol\":1887:1906  CampaignName = name */\n          swap1\n          dup1\n          mload\n          swap1\n          0x20\n          add\n          swap1\n          tag_6\n          swap3\n          swap2\n          swap1\n          tag_7\n          jump\t// in\n        tag_6:\n          pop\n            /* \"Campaign.sol\":1938:1949  description */\n          dup4\n            /* \"Campaign.sol\":1916:1935  CampaignDescription */\n          0x03\n            /* \"Campaign.sol\":1916:1949  CampaignDescription = description */\n          swap1\n          dup1\n          mload\n          swap1\n          0x20\n          add\n          swap1\n          tag_8\n          swap3\n          swap2\n          swap1\n          tag_7\n          jump\t// in\n        tag_8:\n          pop\n            /* \"Campaign.sol\":1970:1975  image */\n          dup3\n            /* \"Campaign.sol\":1959:1967  imageUrl */\n          0x05\n            /* \"Campaign.sol\":1959:1975  imageUrl = image */\n          swap1\n          dup1\n          mload\n          swap1\n          0x20\n          add\n          swap1\n          tag_9\n          swap3\n          swap2\n          swap1\n          tag_7\n          jump\t// in\n        tag_9:\n          pop\n            /* \"Campaign.sol\":2003:2009  target */\n          dup2\n            /* \"Campaign.sol\":1985:2000  targetToAchieve */\n          0x06\n            /* \"Campaign.sol\":1985:2009  targetToAchieve = target */\n          dup2\n          swap1\n          sstore\n          pop\n            /* \"Campaign.sol\":2038:2046  deadline */\n          dup1\n            /* \"Campaign.sol\":2019:2035  campaignDeadline */\n          0x04\n            /* \"Campaign.sol\":2019:2046  campaignDeadline = deadline */\n          swap1\n          dup1\n          mload\n          swap1\n          0x20\n          add\n          swap1\n          tag_10\n          swap3\n          swap2\n          swap1\n          tag_7\n          jump\t// in\n        tag_10:\n          pop\n            /* \"Campaign.sol\":1595:2053  constructor(... */\n          pop\n          pop\n          pop\n          pop\n          pop\n          pop\n          pop\n            /* \"Campaign.sol\":739:6774  contract Campaign {... */\n          jump(tag_11)\n        tag_7:\n          dup3\n          dup1\n          sload\n          tag_12\n          swap1\n          tag_13\n          jump\t// in\n        tag_12:\n          swap1\n          0x00\n          mstore\n          keccak256(0x00, 0x20)\n          swap1\n          0x1f\n          add\n          0x20\n          swap1\n          div\n          dup2\n          add\n          swap3\n          dup3\n          tag_15\n          jumpi\n          0x00\n          dup6\n          sstore\n          jump(tag_14)\n        tag_15:\n          dup3\n          0x1f\n          lt\n          tag_16\n          jumpi\n          dup1\n          mload\n          not(0xff)\n          and\n          dup4\n          dup1\n          add\n          or\n          dup6\n          sstore\n          jump(tag_14)\n        tag_16:\n          dup3\n          dup1\n          add\n          0x01\n          add\n          dup6\n          sstore\n          dup3\n          iszero\n          tag_14\n          jumpi\n          swap2\n          dup3\n          add\n        tag_17:\n          dup3\n          dup2\n          gt\n          iszero\n          tag_18\n          jumpi\n          dup3\n          mload\n          dup3\n          sstore\n          swap2\n          0x20\n          add\n          swap2\n          swap1\n          0x01\n          add\n          swap1\n          jump(tag_17)\n        tag_18:\n        tag_14:\n          pop\n          swap1\n          pop\n          tag_19\n          swap2\n          swap1\n          tag_20\n          jump\t// in\n        tag_19:\n          pop\n          swap1\n          jump\t// out\n        tag_20:\n        tag_21:\n          dup1\n          dup3\n          gt\n          iszero\n          tag_22\n          jumpi\n          0x00\n          dup2\n          0x00\n          swap1\n          sstore\n          pop\n          0x01\n          add\n          jump(tag_21)\n        tag_22:\n          pop\n          swap1\n          jump\t// out\n            /* \"#utility.yul\":7:82   */\n        tag_23:\n            /* \"#utility.yul\":40:46   */\n          0x00\n            /* \"#utility.yul\":73:75   */\n          0x40\n            /* \"#utility.yul\":67:76   */\n          mload\n            /* \"#utility.yul\":57:76   */\n          swap1\n          pop\n            /* \"#utility.yul\":7:82   */\n          swap1\n          jump\t// out\n            /* \"#utility.yul\":88:205   */\n        tag_24:\n            /* \"#utility.yul\":197:198   */\n          0x00\n            /* \"#utility.yul\":194:195   */\n          dup1\n            /* \"#utility.yul\":187:199   */\n          revert\n            /* \"#utility.yul\":211:328   */\n        tag_25:\n            /* \"#utility.yul\":320:321   */\n          0x00\n            /* \"#utility.yul\":317:318   */\n          dup1\n            /* \"#utility.yul\":310:322   */\n          revert\n            /* \"#utility.yul\":334:411   */\n        tag_26:\n            /* \"#utility.yul\":371:378   */\n          0x00\n            /* \"#utility.yul\":400:405   */\n          dup2\n            /* \"#utility.yul\":389:405   */\n          swap1\n          pop\n            /* \"#utility.yul\":334:411   */\n          swap2\n          swap1\n          pop\n          jump\t// out\n            /* \"#utility.yul\":417:539   */\n        tag_27:\n            /* \"#utility.yul\":490:514   */\n          tag_50\n            /* \"#utility.yul\":508:513   */\n          dup2\n            /* \"#utility.yul\":490:514   */\n          tag_26\n          jump\t// in\n        tag_50:\n            /* \"#utility.yul\":483:488   */\n          dup2\n            /* \"#utility.yul\":480:515   */\n          eq\n            /* \"#utility.yul\":470:533   */\n          tag_51\n          jumpi\n            /* \"#utility.yul\":529:530   */\n          0x00\n            /* \"#utility.yul\":526:527   */\n          dup1\n            /* \"#utility.yul\":519:531   */\n          revert\n            /* \"#utility.yul\":470:533   */\n        tag_51:\n            /* \"#utility.yul\":417:539   */\n          pop\n          jump\t// out\n            /* \"#utility.yul\":545:688   */\n        tag_28:\n            /* \"#utility.yul\":602:607   */\n          0x00\n            /* \"#utility.yul\":633:639   */\n          dup2\n            /* \"#utility.yul\":627:640   */\n          mload\n            /* \"#utility.yul\":618:640   */\n          swap1\n          pop\n            /* \"#utility.yul\":649:682   */\n          tag_53\n            /* \"#utility.yul\":676:681   */\n          dup2\n            /* \"#utility.yul\":649:682   */\n          tag_27\n          jump\t// in\n        tag_53:\n            /* \"#utility.yul\":545:688   */\n          swap3\n          swap2\n          pop\n          pop\n          jump\t// out\n            /* \"#utility.yul\":694:820   */\n        tag_29:\n            /* \"#utility.yul\":731:738   */\n          0x00\n            /* \"#utility.yul\":771:813   */\n          0xffffffffffffffffffffffffffffffffffffffff\n            /* \"#utility.yul\":764:769   */\n          dup3\n            /* \"#utility.yul\":760:814   */\n          and\n            /* \"#utility.yul\":749:814   */\n          swap1\n          pop\n            /* \"#utility.yul\":694:820   */\n          swap2\n          swap1\n          pop\n          jump\t// out\n            /* \"#utility.yul\":826:922   */\n        tag_30:\n            /* \"#utility.yul\":863:870   */\n          0x00\n            /* \"#utility.yul\":892:916   */\n          tag_56\n            /* \"#utility.yul\":910:915   */\n          dup3\n            /* \"#utility.yul\":892:916   */\n          tag_29\n          jump\t// in\n        tag_56:\n            /* \"#utility.yul\":881:916   */\n          swap1\n          pop\n            /* \"#utility.yul\":826:922   */\n          swap2\n          swap1\n          pop\n          jump\t// out\n            /* \"#utility.yul\":928:1050   */\n        tag_31:\n            /* \"#utility.yul\":1001:1025   */\n          tag_58\n            /* \"#utility.yul\":1019:1024   */\n          dup2\n            /* \"#utility.yul\":1001:1025   */\n          tag_30\n          jump\t// in\n        tag_58:\n            /* \"#utility.yul\":994:999   */\n          dup2\n            /* \"#utility.yul\":991:1026   */\n          eq\n            /* \"#utility.yul\":981:1044   */\n          tag_59\n          jumpi\n            /* \"#utility.yul\":1040:1041   */\n          0x00\n            /* \"#utility.yul\":1037:1038   */\n          dup1\n            /* \"#utility.yul\":1030:1042   */\n          revert\n            /* \"#utility.yul\":981:1044   */\n        tag_59:\n            /* \"#utility.yul\":928:1050   */\n          pop\n          jump\t// out\n            /* \"#utility.yul\":1056:1199   */\n        tag_32:\n            /* \"#utility.yul\":1113:1118   */\n          0x00\n            /* \"#utility.yul\":1144:1150   */\n          dup2\n            /* \"#utility.yul\":1138:1151   */\n          mload\n            /* \"#utility.yul\":1129:1151   */\n          swap1\n          pop\n            /* \"#utility.yul\":1160:1193   */\n          tag_61\n            /* \"#utility.yul\":1187:1192   */\n          dup2\n            /* \"#utility.yul\":1160:1193   */\n          tag_31\n          jump\t// in\n        tag_61:\n            /* \"#utility.yul\":1056:1199   */\n          swap3\n          swap2\n          pop\n          pop\n          jump\t// out\n            /* \"#utility.yul\":1205:1322   */\n        tag_33:\n            /* \"#utility.yul\":1314:1315   */\n          0x00\n            /* \"#utility.yul\":1311:1312   */\n          dup1\n            /* \"#utility.yul\":1304:1316   */\n          revert\n            /* \"#utility.yul\":1328:1445   */\n        tag_34:\n            /* \"#utility.yul\":1437:1438   */\n          0x00\n            /* \"#utility.yul\":1434:1435   */\n          dup1\n            /* \"#utility.yul\":1427:1439   */\n          revert\n            /* \"#utility.yul\":1451:1553   */\n        tag_35:\n            /* \"#utility.yul\":1492:1498   */\n          0x00\n            /* \"#utility.yul\":1543:1545   */\n          0x1f\n            /* \"#utility.yul\":1539:1546   */\n          not\n            /* \"#utility.yul\":1534:1536   */\n          0x1f\n            /* \"#utility.yul\":1527:1532   */\n          dup4\n            /* \"#utility.yul\":1523:1537   */\n          add\n            /* \"#utility.yul\":1519:1547   */\n          and\n            /* \"#utility.yul\":1509:1547   */\n          swap1\n          pop\n            /* \"#utility.yul\":1451:1553   */\n          swap2\n          swap1\n          pop\n          jump\t// out\n            /* \"#utility.yul\":1559:1739   */\n        tag_36:\n            /* \"#utility.yul\":1607:1684   */\n          0x4e487b7100000000000000000000000000000000000000000000000000000000\n            /* \"#utility.yul\":1604:1605   */\n          0x00\n            /* \"#utility.yul\":1597:1685   */\n          mstore\n            /* \"#utility.yul\":1704:1708   */\n          0x41\n            /* \"#utility.yul\":1701:1702   */\n          0x04\n            /* \"#utility.yul\":1694:1709   */\n          mstore\n            /* \"#utility.yul\":1728:1732   */\n          0x24\n            /* \"#utility.yul\":1725:1726   */\n          0x00\n            /* \"#utility.yul\":1718:1733   */\n          revert\n            /* \"#utility.yul\":1745:2026   */\n        tag_37:\n            /* \"#utility.yul\":1828:1855   */\n          tag_67\n            /* \"#utility.yul\":1850:1854   */\n          dup3\n            /* \"#utility.yul\":1828:1855   */\n          tag_35\n          jump\t// in\n        tag_67:\n            /* \"#utility.yul\":1820:1826   */\n          dup2\n            /* \"#utility.yul\":1816:1856   */\n          add\n            /* \"#utility.yul\":1958:1964   */\n          dup2\n            /* \"#utility.yul\":1946:1956   */\n          dup2\n            /* \"#utility.yul\":1943:1965   */\n          lt\n            /* \"#utility.yul\":1922:1940   */\n          0xffffffffffffffff\n            /* \"#utility.yul\":1910:1920   */\n          dup3\n            /* \"#utility.yul\":1907:1941   */\n          gt\n            /* \"#utility.yul\":1904:1966   */\n          or\n            /* \"#utility.yul\":1901:1989   */\n          iszero\n          tag_68\n          jumpi\n            /* \"#utility.yul\":1969:1987   */\n          tag_69\n          tag_36\n          jump\t// in\n        tag_69:\n            /* \"#utility.yul\":1901:1989   */\n        tag_68:\n            /* \"#utility.yul\":2009:2019   */\n          dup1\n            /* \"#utility.yul\":2005:2007   */\n          0x40\n            /* \"#utility.yul\":1998:2020   */\n          mstore\n            /* \"#utility.yul\":1788:2026   */\n          pop\n            /* \"#utility.yul\":1745:2026   */\n          pop\n          pop\n          jump\t// out\n            /* \"#utility.yul\":2032:2161   */\n        tag_38:\n            /* \"#utility.yul\":2066:2072   */\n          0x00\n            /* \"#utility.yul\":2093:2113   */\n          tag_71\n          tag_23\n          jump\t// in\n        tag_71:\n            /* \"#utility.yul\":2083:2113   */\n          swap1\n          pop\n            /* \"#utility.yul\":2122:2155   */\n          tag_72\n            /* \"#utility.yul\":2150:2154   */\n          dup3\n            /* \"#utility.yul\":2142:2148   */\n          dup3\n            /* \"#utility.yul\":2122:2155   */\n          tag_37\n          jump\t// in\n        tag_72:\n            /* \"#utility.yul\":2032:2161   */\n          swap2\n          swap1\n          pop\n          jump\t// out\n            /* \"#utility.yul\":2167:2475   */\n        tag_39:\n            /* \"#utility.yul\":2229:2233   */\n          0x00\n            /* \"#utility.yul\":2319:2337   */\n          0xffffffffffffffff\n            /* \"#utility.yul\":2311:2317   */\n          dup3\n            /* \"#utility.yul\":2308:2338   */\n          gt\n            /* \"#utility.yul\":2305:2361   */\n          iszero\n          tag_74\n          jumpi\n            /* \"#utility.yul\":2341:2359   */\n          tag_75\n          tag_36\n          jump\t// in\n        tag_75:\n            /* \"#utility.yul\":2305:2361   */\n        tag_74:\n            /* \"#utility.yul\":2379:2408   */\n          tag_76\n            /* \"#utility.yul\":2401:2407   */\n          dup3\n            /* \"#utility.yul\":2379:2408   */\n          tag_35\n          jump\t// in\n        tag_76:\n            /* \"#utility.yul\":2371:2408   */\n          swap1\n          pop\n            /* \"#utility.yul\":2463:2467   */\n          0x20\n            /* \"#utility.yul\":2457:2461   */\n          dup2\n            /* \"#utility.yul\":2453:2468   */\n          add\n            /* \"#utility.yul\":2445:2468   */\n          swap1\n          pop\n            /* \"#utility.yul\":2167:2475   */\n          swap2\n          swap1\n          pop\n          jump\t// out\n            /* \"#utility.yul\":2481:2788   */\n        tag_40:\n            /* \"#utility.yul\":2549:2550   */\n          0x00\n            /* \"#utility.yul\":2559:2672   */\n        tag_78:\n            /* \"#utility.yul\":2573:2579   */\n          dup4\n            /* \"#utility.yul\":2570:2571   */\n          dup2\n            /* \"#utility.yul\":2567:2580   */\n          lt\n            /* \"#utility.yul\":2559:2672   */\n          iszero\n          tag_80\n          jumpi\n            /* \"#utility.yul\":2658:2659   */\n          dup1\n            /* \"#utility.yul\":2653:2656   */\n          dup3\n            /* \"#utility.yul\":2649:2660   */\n          add\n            /* \"#utility.yul\":2643:2661   */\n          mload\n            /* \"#utility.yul\":2639:2640   */\n          dup2\n            /* \"#utility.yul\":2634:2637   */\n          dup5\n            /* \"#utility.yul\":2630:2641   */\n          add\n            /* \"#utility.yul\":2623:2662   */\n          mstore\n            /* \"#utility.yul\":2595:2597   */\n          0x20\n            /* \"#utility.yul\":2592:2593   */\n          dup2\n            /* \"#utility.yul\":2588:2598   */\n          add\n            /* \"#utility.yul\":2583:2598   */\n          swap1\n          pop\n            /* \"#utility.yul\":2559:2672   */\n          jump(tag_78)\n        tag_80:\n            /* \"#utility.yul\":2690:2696   */\n          dup4\n            /* \"#utility.yul\":2687:2688   */\n          dup2\n            /* \"#utility.yul\":2684:2697   */\n          gt\n            /* \"#utility.yul\":2681:2782   */\n          iszero\n          tag_81\n          jumpi\n            /* \"#utility.yul\":2770:2771   */\n          0x00\n            /* \"#utility.yul\":2761:2767   */\n          dup5\n            /* \"#utility.yul\":2756:2759   */\n          dup5\n            /* \"#utility.yul\":2752:2768   */\n          add\n            /* \"#utility.yul\":2745:2772   */\n          mstore\n            /* \"#utility.yul\":2681:2782   */\n        tag_81:\n            /* \"#utility.yul\":2530:2788   */\n          pop\n            /* \"#utility.yul\":2481:2788   */\n          pop\n          pop\n          pop\n          jump\t// out\n            /* \"#utility.yul\":2794:3215   */\n        tag_41:\n            /* \"#utility.yul\":2883:2888   */\n          0x00\n            /* \"#utility.yul\":2908:2974   */\n          tag_83\n            /* \"#utility.yul\":2924:2973   */\n          tag_84\n            /* \"#utility.yul\":2966:2972   */\n          dup5\n            /* \"#utility.yul\":2924:2973   */\n          tag_39\n          jump\t// in\n        tag_84:\n            /* \"#utility.yul\":2908:2974   */\n          tag_38\n          jump\t// in\n        tag_83:\n            /* \"#utility.yul\":2899:2974   */\n          swap1\n          pop\n            /* \"#utility.yul\":2997:3003   */\n          dup3\n            /* \"#utility.yul\":2990:2995   */\n          dup2\n            /* \"#utility.yul\":2983:3004   */\n          mstore\n            /* \"#utility.yul\":3035:3039   */\n          0x20\n            /* \"#utility.yul\":3028:3033   */\n          dup2\n            /* \"#utility.yul\":3024:3040   */\n          add\n            /* \"#utility.yul\":3073:3076   */\n          dup5\n            /* \"#utility.yul\":3064:3070   */\n          dup5\n            /* \"#utility.yul\":3059:3062   */\n          dup5\n            /* \"#utility.yul\":3055:3071   */\n          add\n            /* \"#utility.yul\":3052:3077   */\n          gt\n            /* \"#utility.yul\":3049:3161   */\n          iszero\n          tag_85\n          jumpi\n            /* \"#utility.yul\":3080:3159   */\n          tag_86\n          tag_34\n          jump\t// in\n        tag_86:\n            /* \"#utility.yul\":3049:3161   */\n        tag_85:\n            /* \"#utility.yul\":3170:3209   */\n          tag_87\n            /* \"#utility.yul\":3202:3208   */\n          dup5\n            /* \"#utility.yul\":3197:3200   */\n          dup3\n            /* \"#utility.yul\":3192:3195   */\n          dup6\n            /* \"#utility.yul\":3170:3209   */\n          tag_40\n          jump\t// in\n        tag_87:\n            /* \"#utility.yul\":2889:3215   */\n          pop\n            /* \"#utility.yul\":2794:3215   */\n          swap4\n          swap3\n          pop\n          pop\n          pop\n          jump\t// out\n            /* \"#utility.yul\":3235:3590   */\n        tag_42:\n            /* \"#utility.yul\":3302:3307   */\n          0x00\n            /* \"#utility.yul\":3351:3354   */\n          dup3\n            /* \"#utility.yul\":3344:3348   */\n          0x1f\n            /* \"#utility.yul\":3336:3342   */\n          dup4\n            /* \"#utility.yul\":3332:3349   */\n          add\n            /* \"#utility.yul\":3328:3355   */\n          slt\n            /* \"#utility.yul\":3318:3440   */\n          tag_89\n          jumpi\n            /* \"#utility.yul\":3359:3438   */\n          tag_90\n          tag_33\n          jump\t// in\n        tag_90:\n            /* \"#utility.yul\":3318:3440   */\n        tag_89:\n            /* \"#utility.yul\":3469:3475   */\n          dup2\n            /* \"#utility.yul\":3463:3476   */\n          mload\n            /* \"#utility.yul\":3494:3584   */\n          tag_91\n            /* \"#utility.yul\":3580:3583   */\n          dup5\n            /* \"#utility.yul\":3572:3578   */\n          dup3\n            /* \"#utility.yul\":3565:3569   */\n          0x20\n            /* \"#utility.yul\":3557:3563   */\n          dup7\n            /* \"#utility.yul\":3553:3570   */\n          add\n            /* \"#utility.yul\":3494:3584   */\n          tag_41\n          jump\t// in\n        tag_91:\n            /* \"#utility.yul\":3485:3584   */\n          swap2\n          pop\n            /* \"#utility.yul\":3308:3590   */\n          pop\n            /* \"#utility.yul\":3235:3590   */\n          swap3\n          swap2\n          pop\n          pop\n          jump\t// out\n            /* \"#utility.yul\":3596:5579   */\n        tag_3:\n            /* \"#utility.yul\":3760:3766   */\n          0x00\n            /* \"#utility.yul\":3768:3774   */\n          dup1\n            /* \"#utility.yul\":3776:3782   */\n          0x00\n            /* \"#utility.yul\":3784:3790   */\n          dup1\n            /* \"#utility.yul\":3792:3798   */\n          0x00\n            /* \"#utility.yul\":3800:3806   */\n          dup1\n            /* \"#utility.yul\":3808:3814   */\n          0x00\n            /* \"#utility.yul\":3857:3860   */\n          0xe0\n            /* \"#utility.yul\":3845:3854   */\n          dup9\n            /* \"#utility.yul\":3836:3843   */\n          dup11\n            /* \"#utility.yul\":3832:3855   */\n          sub\n            /* \"#utility.yul\":3828:3861   */\n          slt\n            /* \"#utility.yul\":3825:3945   */\n          iszero\n          tag_93\n          jumpi\n            /* \"#utility.yul\":3864:3943   */\n          tag_94\n          tag_24\n          jump\t// in\n        tag_94:\n            /* \"#utility.yul\":3825:3945   */\n        tag_93:\n            /* \"#utility.yul\":3984:3985   */\n          0x00\n            /* \"#utility.yul\":4009:4073   */\n          tag_95\n            /* \"#utility.yul\":4065:4072   */\n          dup11\n            /* \"#utility.yul\":4056:4062   */\n          dup3\n            /* \"#utility.yul\":4045:4054   */\n          dup12\n            /* \"#utility.yul\":4041:4063   */\n          add\n            /* \"#utility.yul\":4009:4073   */\n          tag_28\n          jump\t// in\n        tag_95:\n            /* \"#utility.yul\":3999:4073   */\n          swap8\n          pop\n            /* \"#utility.yul\":3955:4083   */\n          pop\n            /* \"#utility.yul\":4122:4124   */\n          0x20\n            /* \"#utility.yul\":4148:4212   */\n          tag_96\n            /* \"#utility.yul\":4204:4211   */\n          dup11\n            /* \"#utility.yul\":4195:4201   */\n          dup3\n            /* \"#utility.yul\":4184:4193   */\n          dup12\n            /* \"#utility.yul\":4180:4202   */\n          add\n            /* \"#utility.yul\":4148:4212   */\n          tag_32\n          jump\t// in\n        tag_96:\n            /* \"#utility.yul\":4138:4212   */\n          swap7\n          pop\n            /* \"#utility.yul\":4093:4222   */\n          pop\n            /* \"#utility.yul\":4282:4284   */\n          0x40\n            /* \"#utility.yul\":4271:4280   */\n          dup9\n            /* \"#utility.yul\":4267:4285   */\n          add\n            /* \"#utility.yul\":4261:4286   */\n          mload\n            /* \"#utility.yul\":4313:4331   */\n          0xffffffffffffffff\n            /* \"#utility.yul\":4305:4311   */\n          dup2\n            /* \"#utility.yul\":4302:4332   */\n          gt\n            /* \"#utility.yul\":4299:4416   */\n          iszero\n          tag_97\n          jumpi\n            /* \"#utility.yul\":4335:4414   */\n          tag_98\n          tag_25\n          jump\t// in\n        tag_98:\n            /* \"#utility.yul\":4299:4416   */\n        tag_97:\n            /* \"#utility.yul\":4440:4514   */\n          tag_99\n            /* \"#utility.yul\":4506:4513   */\n          dup11\n            /* \"#utility.yul\":4497:4503   */\n          dup3\n            /* \"#utility.yul\":4486:4495   */\n          dup12\n            /* \"#utility.yul\":4482:4504   */\n          add\n            /* \"#utility.yul\":4440:4514   */\n          tag_42\n          jump\t// in\n        tag_99:\n            /* \"#utility.yul\":4430:4514   */\n          swap6\n          pop\n            /* \"#utility.yul\":4232:4524   */\n          pop\n            /* \"#utility.yul\":4584:4586   */\n          0x60\n            /* \"#utility.yul\":4573:4582   */\n          dup9\n            /* \"#utility.yul\":4569:4587   */\n          add\n            /* \"#utility.yul\":4563:4588   */\n          mload\n            /* \"#utility.yul\":4615:4633   */\n          0xffffffffffffffff\n            /* \"#utility.yul\":4607:4613   */\n          dup2\n            /* \"#utility.yul\":4604:4634   */\n          gt\n            /* \"#utility.yul\":4601:4718   */\n          iszero\n          tag_100\n          jumpi\n            /* \"#utility.yul\":4637:4716   */\n          tag_101\n          tag_25\n          jump\t// in\n        tag_101:\n            /* \"#utility.yul\":4601:4718   */\n        tag_100:\n            /* \"#utility.yul\":4742:4816   */\n          tag_102\n            /* \"#utility.yul\":4808:4815   */\n          dup11\n            /* \"#utility.yul\":4799:4805   */\n          dup3\n            /* \"#utility.yul\":4788:4797   */\n          dup12\n            /* \"#utility.yul\":4784:4806   */\n          add\n            /* \"#utility.yul\":4742:4816   */\n          tag_42\n          jump\t// in\n        tag_102:\n            /* \"#utility.yul\":4732:4816   */\n          swap5\n          pop\n            /* \"#utility.yul\":4534:4826   */\n          pop\n            /* \"#utility.yul\":4886:4889   */\n          0x80\n            /* \"#utility.yul\":4875:4884   */\n          dup9\n            /* \"#utility.yul\":4871:4890   */\n          add\n            /* \"#utility.yul\":4865:4891   */\n          mload\n            /* \"#utility.yul\":4918:4936   */\n          0xffffffffffffffff\n            /* \"#utility.yul\":4910:4916   */\n          dup2\n            /* \"#utility.yul\":4907:4937   */\n          gt\n            /* \"#utility.yul\":4904:5021   */\n          iszero\n          tag_103\n          jumpi\n            /* \"#utility.yul\":4940:5019   */\n          tag_104\n          tag_25\n          jump\t// in\n        tag_104:\n            /* \"#utility.yul\":4904:5021   */\n        tag_103:\n            /* \"#utility.yul\":5045:5119   */\n          tag_105\n            /* \"#utility.yul\":5111:5118   */\n          dup11\n            /* \"#utility.yul\":5102:5108   */\n          dup3\n            /* \"#utility.yul\":5091:5100   */\n          dup12\n            /* \"#utility.yul\":5087:5109   */\n          add\n            /* \"#utility.yul\":5045:5119   */\n          tag_42\n          jump\t// in\n        tag_105:\n            /* \"#utility.yul\":5035:5119   */\n          swap4\n          pop\n            /* \"#utility.yul\":4836:5129   */\n          pop\n            /* \"#utility.yul\":5168:5171   */\n          0xa0\n            /* \"#utility.yul\":5195:5259   */\n          tag_106\n            /* \"#utility.yul\":5251:5258   */\n          dup11\n            /* \"#utility.yul\":5242:5248   */\n          dup3\n            /* \"#utility.yul\":5231:5240   */\n          dup12\n            /* \"#utility.yul\":5227:5249   */\n          add\n            /* \"#utility.yul\":5195:5259   */\n          tag_28\n          jump\t// in\n        tag_106:\n            /* \"#utility.yul\":5185:5259   */\n          swap3\n          pop\n            /* \"#utility.yul\":5139:5269   */\n          pop\n            /* \"#utility.yul\":5329:5332   */\n          0xc0\n            /* \"#utility.yul\":5318:5327   */\n          dup9\n            /* \"#utility.yul\":5314:5333   */\n          add\n            /* \"#utility.yul\":5308:5334   */\n          mload\n            /* \"#utility.yul\":5361:5379   */\n          0xffffffffffffffff\n            /* \"#utility.yul\":5353:5359   */\n          dup2\n            /* \"#utility.yul\":5350:5380   */\n          gt\n            /* \"#utility.yul\":5347:5464   */\n          iszero\n          tag_107\n          jumpi\n            /* \"#utility.yul\":5383:5462   */\n          tag_108\n          tag_25\n          jump\t// in\n        tag_108:\n            /* \"#utility.yul\":5347:5464   */\n        tag_107:\n            /* \"#utility.yul\":5488:5562   */\n          tag_109\n            /* \"#utility.yul\":5554:5561   */\n          dup11\n            /* \"#utility.yul\":5545:5551   */\n          dup3\n            /* \"#utility.yul\":5534:5543   */\n          dup12\n            /* \"#utility.yul\":5530:5552   */\n          add\n            /* \"#utility.yul\":5488:5562   */\n          tag_42\n          jump\t// in\n        tag_109:\n            /* \"#utility.yul\":5478:5562   */\n          swap2\n          pop\n            /* \"#utility.yul\":5279:5572   */\n          pop\n            /* \"#utility.yul\":3596:5579   */\n          swap3\n          swap6\n          swap9\n          swap2\n          swap5\n          swap8\n          pop\n          swap3\n          swap6\n          pop\n          jump\t// out\n            /* \"#utility.yul\":5585:5765   */\n        tag_43:\n            /* \"#utility.yul\":5633:5710   */\n          0x4e487b7100000000000000000000000000000000000000000000000000000000\n            /* \"#utility.yul\":5630:5631   */\n          0x00\n            /* \"#utility.yul\":5623:5711   */\n          mstore\n            /* \"#utility.yul\":5730:5734   */\n          0x22\n            /* \"#utility.yul\":5727:5728   */\n          0x04\n            /* \"#utility.yul\":5720:5735   */\n          mstore\n            /* \"#utility.yul\":5754:5758   */\n          0x24\n            /* \"#utility.yul\":5751:5752   */\n          0x00\n            /* \"#utility.yul\":5744:5759   */\n          revert\n            /* \"#utility.yul\":5771:6091   */\n        tag_13:\n            /* \"#utility.yul\":5815:5821   */\n          0x00\n            /* \"#utility.yul\":5852:5853   */\n          0x02\n            /* \"#utility.yul\":5846:5850   */\n          dup3\n            /* \"#utility.yul\":5842:5854   */\n          div\n            /* \"#utility.yul\":5832:5854   */\n          swap1\n          pop\n            /* \"#utility.yul\":5899:5900   */\n          0x01\n            /* \"#utility.yul\":5893:5897   */\n          dup3\n            /* \"#utility.yul\":5889:5901   */\n          and\n            /* \"#utility.yul\":5920:5938   */\n          dup1\n            /* \"#utility.yul\":5910:5991   */\n          tag_112\n          jumpi\n            /* \"#utility.yul\":5976:5980   */\n          0x7f\n            /* \"#utility.yul\":5968:5974   */\n          dup3\n            /* \"#utility.yul\":5964:5981   */\n          and\n            /* \"#utility.yul\":5954:5981   */\n          swap2\n          pop\n            /* \"#utility.yul\":5910:5991   */\n        tag_112:\n            /* \"#utility.yul\":6038:6040   */\n          0x20\n            /* \"#utility.yul\":6030:6036   */\n          dup3\n            /* \"#utility.yul\":6027:6041   */\n          lt\n            /* \"#utility.yul\":6007:6025   */\n          dup2\n            /* \"#utility.yul\":6004:6042   */\n          eq\n            /* \"#utility.yul\":6001:6085   */\n          iszero\n          tag_113\n          jumpi\n            /* \"#utility.yul\":6057:6075   */\n          tag_114\n          tag_43\n          jump\t// in\n        tag_114:\n            /* \"#utility.yul\":6001:6085   */\n        tag_113:\n            /* \"#utility.yul\":5822:6091   */\n          pop\n            /* \"#utility.yul\":5771:6091   */\n          swap2\n          swap1\n          pop\n          jump\t// out\n            /* \"Campaign.sol\":739:6774  contract Campaign {... */\n        tag_11:\n          dataSize(sub_0)\n          dup1\n          dataOffset(sub_0)\n          0x00\n          codecopy\n          0x00\n          return\n        stop\n\n        sub_0: assembly {\n                /* \"Campaign.sol\":739:6774  contract Campaign {... */\n              mstore(0x40, 0x80)\n              jumpi(tag_1, lt(calldatasize, 0x04))\n              shr(0xe0, calldataload(0x00))\n              dup1\n              0x8a9cfd55\n              gt\n              tag_25\n              jumpi\n              dup1\n              0xb2a87fc3\n              gt\n              tag_26\n              jumpi\n              dup1\n              0xb2a87fc3\n              eq\n              tag_19\n              jumpi\n              dup1\n              0xd350fe1f\n              eq\n              tag_20\n              jumpi\n              dup1\n              0xd7d1bbdb\n              eq\n              tag_21\n              jumpi\n              dup1\n              0xe0fe3bb4\n              eq\n              tag_22\n              jumpi\n              dup1\n              0xe90b44f2\n              eq\n              tag_23\n              jumpi\n              dup1\n              0xea25213f\n              eq\n              tag_24\n              jumpi\n              jump(tag_1)\n            tag_26:\n              dup1\n              0x8a9cfd55\n              eq\n              tag_13\n              jumpi\n              dup1\n              0x8adb87f4\n              eq\n              tag_14\n              jumpi\n              dup1\n              0x937e09b1\n              eq\n              tag_15\n              jumpi\n              dup1\n              0x97654a8c\n              eq\n              tag_16\n              jumpi\n              dup1\n              0xaba83150\n              eq\n              tag_17\n              jumpi\n              dup1\n              0xac307773\n              eq\n              tag_18\n              jumpi\n              jump(tag_1)\n            tag_25:\n              dup1\n              0x3410452a\n              gt\n              tag_27\n              jumpi\n              dup1\n              0x3410452a\n              eq\n              tag_7\n              jumpi\n              dup1\n              0x4051ddac\n              eq\n              tag_8\n              jumpi\n              dup1\n              0x481c6a75\n              eq\n              tag_9\n              jumpi\n              dup1\n              0x7e7cd1b3\n              eq\n              tag_10\n              jumpi\n              dup1\n              0x81d12c58\n              eq\n              tag_11\n              jumpi\n              dup1\n              0x82fde093\n              eq\n              tag_12\n              jumpi\n              jump(tag_1)\n            tag_27:\n              dup1\n              0x03441006\n              eq\n              tag_2\n              jumpi\n              dup1\n              0x0a144391\n              eq\n              tag_3\n              jumpi\n              dup1\n              0x1d6f8223\n              eq\n              tag_4\n              jumpi\n              dup1\n              0x1fbed579\n              eq\n              tag_5\n              jumpi\n              dup1\n              0x3228ff95\n              eq\n              tag_6\n              jumpi\n            tag_1:\n              0x00\n              dup1\n              revert\n                /* \"Campaign.sol\":3634:4178  function finalizeRequest(uint256 index) public onlyManager {... */\n            tag_2:\n              callvalue\n              dup1\n              iszero\n              tag_28\n              jumpi\n              0x00\n              dup1\n              revert\n            tag_28:\n              pop\n              tag_29\n              0x04\n              dup1\n              calldatasize\n              sub\n              dup2\n              add\n              swap1\n              tag_30\n              swap2\n              swap1\n              tag_31\n              jump\t// in\n            tag_30:\n              tag_32\n              jump\t// in\n            tag_29:\n              stop\n                /* \"Campaign.sol\":1348:1389  mapping(address => bool) public approvers */\n            tag_3:\n              callvalue\n              dup1\n              iszero\n              tag_33\n              jumpi\n              0x00\n              dup1\n              revert\n            tag_33:\n              pop\n              tag_34\n              0x04\n              dup1\n              calldatasize\n              sub\n              dup2\n              add\n              swap1\n              tag_35\n              swap2\n              swap1\n              tag_36\n              jump\t// in\n            tag_35:\n              tag_37\n              jump\t// in\n            tag_34:\n              mload(0x40)\n              tag_38\n              swap2\n              swap1\n              tag_39\n              jump\t// in\n            tag_38:\n              mload(0x40)\n              dup1\n              swap2\n              sub\n              swap1\n              return\n                /* \"Campaign.sol\":1114:1144  string public campaignDeadline */\n            tag_4:\n              callvalue\n              dup1\n              iszero\n              tag_40\n              jumpi\n              0x00\n              dup1\n              revert\n            tag_40:\n              pop\n              tag_41\n              tag_42\n              jump\t// in\n            tag_41:\n              mload(0x40)\n              tag_43\n              swap2\n              swap1\n              tag_44\n              jump\t// in\n            tag_43:\n              mload(0x40)\n              dup1\n              swap2\n              sub\n              swap1\n              return\n                /* \"Campaign.sol\":1257:1286  address[] public contributers */\n            tag_5:\n              callvalue\n              dup1\n              iszero\n              tag_45\n              jumpi\n              0x00\n              dup1\n              revert\n            tag_45:\n              pop\n              tag_46\n              0x04\n              dup1\n              calldatasize\n              sub\n              dup2\n              add\n              swap1\n              tag_47\n              swap2\n              swap1\n              tag_31\n              jump\t// in\n            tag_47:\n              tag_48\n              jump\t// in\n            tag_46:\n              mload(0x40)\n              tag_49\n              swap2\n              swap1\n              tag_50\n              jump\t// in\n            tag_49:\n              mload(0x40)\n              dup1\n              swap2\n              sub\n              swap1\n              return\n                /* \"Campaign.sol\":5497:5598  function getCampaignIsActive() public view returns (uint256) {... */\n            tag_6:\n              callvalue\n              dup1\n              iszero\n              tag_51\n              jumpi\n              0x00\n              dup1\n              revert\n            tag_51:\n              pop\n              tag_52\n              tag_53\n              jump\t// in\n            tag_52:\n              mload(0x40)\n              tag_54\n              swap2\n              swap1\n              tag_55\n              jump\t// in\n            tag_54:\n              mload(0x40)\n              dup1\n              swap2\n              sub\n              swap1\n              return\n                /* \"Campaign.sol\":4872:4965  function getRequestsCount() public view returns (uint256) {... */\n            tag_7:\n              callvalue\n              dup1\n              iszero\n              tag_56\n              jumpi\n              0x00\n              dup1\n              revert\n            tag_56:\n              pop\n              tag_57\n              tag_58\n              jump\t// in\n            tag_57:\n              mload(0x40)\n              tag_59\n              swap2\n              swap1\n              tag_55\n              jump\t// in\n            tag_59:\n              mload(0x40)\n              dup1\n              swap2\n              sub\n              swap1\n              return\n                /* \"Campaign.sol\":4184:4866  function getSummary()... */\n            tag_8:\n              callvalue\n              dup1\n              iszero\n              tag_60\n              jumpi\n              0x00\n              dup1\n              revert\n            tag_60:\n              pop\n              tag_61\n              tag_62\n              jump\t// in\n            tag_61:\n              mload(0x40)\n              tag_63\n              swap12\n              swap11\n              swap10\n              swap9\n              swap8\n              swap7\n              swap6\n              swap5\n              swap4\n              swap3\n              swap2\n              swap1\n              tag_64\n              jump\t// in\n            tag_63:\n              mload(0x40)\n              dup1\n              swap2\n              sub\n              swap1\n              return\n                /* \"Campaign.sol\":975:997  address public manager */\n            tag_9:\n              callvalue\n              dup1\n              iszero\n              tag_65\n              jumpi\n              0x00\n              dup1\n              revert\n            tag_65:\n              pop\n              tag_66\n              tag_67\n              jump\t// in\n            tag_66:\n              mload(0x40)\n              tag_68\n              swap2\n              swap1\n              tag_50\n              jump\t// in\n            tag_68:\n              mload(0x40)\n              dup1\n              swap2\n              sub\n              swap1\n              return\n                /* \"Campaign.sol\":1043:1069  string public CampaignName */\n            tag_10:\n              callvalue\n              dup1\n              iszero\n              tag_69\n              jumpi\n              0x00\n              dup1\n              revert\n            tag_69:\n              pop\n              tag_70\n              tag_71\n              jump\t// in\n            tag_70:\n              mload(0x40)\n              tag_72\n              swap2\n              swap1\n              tag_44\n              jump\t// in\n            tag_72:\n              mload(0x40)\n              dup1\n              swap2\n              sub\n              swap1\n              return\n                /* \"Campaign.sol\":2084:2127  mapping(uint256 => Request) public requests */\n            tag_11:\n              callvalue\n              dup1\n              iszero\n              tag_73\n              jumpi\n              0x00\n              dup1\n              revert\n            tag_73:\n              pop\n              tag_74\n              0x04\n              dup1\n              calldatasize\n              sub\n              dup2\n              add\n              swap1\n              tag_75\n              swap2\n              swap1\n              tag_31\n              jump\t// in\n            tag_75:\n              tag_76\n              jump\t// in\n            tag_74:\n              mload(0x40)\n              tag_77\n              swap6\n              swap5\n              swap4\n              swap3\n              swap2\n              swap1\n              tag_78\n              jump\t// in\n            tag_77:\n              mload(0x40)\n              dup1\n              swap2\n              sub\n              swap1\n              return\n                /* \"Campaign.sol\":1395:1424  uint256 public approversCount */\n            tag_12:\n              callvalue\n              dup1\n              iszero\n              tag_79\n              jumpi\n              0x00\n              dup1\n              revert\n            tag_79:\n              pop\n              tag_80\n              tag_81\n              jump\t// in\n            tag_80:\n              mload(0x40)\n              tag_82\n              swap2\n              swap1\n              tag_55\n              jump\t// in\n            tag_82:\n              mload(0x40)\n              dup1\n              swap2\n              sub\n              swap1\n              return\n                /* \"Campaign.sol\":2801:3154  function createRequest(... */\n            tag_13:\n              callvalue\n              dup1\n              iszero\n              tag_83\n              jumpi\n              0x00\n              dup1\n              revert\n            tag_83:\n              pop\n              tag_84\n              0x04\n              dup1\n              calldatasize\n              sub\n              dup2\n              add\n              swap1\n              tag_85\n              swap2\n              swap1\n              tag_86\n              jump\t// in\n            tag_85:\n              tag_87\n              jump\t// in\n            tag_84:\n              stop\n                /* \"Campaign.sol\":5736:5850  function getMyAmount(address sender) public view returns (uint256) {... */\n            tag_14:\n              callvalue\n              dup1\n              iszero\n              tag_88\n              jumpi\n              0x00\n              dup1\n              revert\n            tag_88:\n              pop\n              tag_89\n              0x04\n              dup1\n              calldatasize\n              sub\n              dup2\n              add\n              swap1\n              tag_90\n              swap2\n              swap1\n              tag_36\n              jump\t// in\n            tag_90:\n              tag_91\n              jump\t// in\n            tag_89:\n              mload(0x40)\n              tag_92\n              swap2\n              swap1\n              tag_55\n              jump\t// in\n            tag_92:\n              mload(0x40)\n              dup1\n              swap2\n              sub\n              swap1\n              return\n                /* \"Campaign.sol\":1003:1037  uint256 public minimumContribution */\n            tag_15:\n              callvalue\n              dup1\n              iszero\n              tag_93\n              jumpi\n              0x00\n              dup1\n              revert\n            tag_93:\n              pop\n              tag_94\n              tag_95\n              jump\t// in\n            tag_94:\n              mload(0x40)\n              tag_96\n              swap2\n              swap1\n              tag_55\n              jump\t// in\n            tag_96:\n              mload(0x40)\n              dup1\n              swap2\n              sub\n              swap1\n              return\n                /* \"Campaign.sol\":1075:1108  string public CampaignDescription */\n            tag_16:\n              callvalue\n              dup1\n              iszero\n              tag_97\n              jumpi\n              0x00\n              dup1\n              revert\n            tag_97:\n              pop\n              tag_98\n              tag_99\n              jump\t// in\n            tag_98:\n              mload(0x40)\n              tag_100\n              swap2\n              swap1\n              tag_44\n              jump\t// in\n            tag_100:\n              mload(0x40)\n              dup1\n              swap2\n              sub\n              swap1\n              return\n                /* \"Campaign.sol\":1150:1172  string public imageUrl */\n            tag_17:\n              callvalue\n              dup1\n              iszero\n              tag_101\n              jumpi\n              0x00\n              dup1\n              revert\n            tag_101:\n              pop\n              tag_102\n              tag_103\n              jump\t// in\n            tag_102:\n              mload(0x40)\n              tag_104\n              swap2\n              swap1\n              tag_44\n              jump\t// in\n            tag_104:\n              mload(0x40)\n              dup1\n              swap2\n              sub\n              swap1\n              return\n                /* \"Campaign.sol\":4971:5491  function claimFunds() public payable onlyManager returns (bool) {... */\n            tag_18:\n              tag_105\n              tag_106\n              jump\t// in\n            tag_105:\n              mload(0x40)\n              tag_107\n              swap2\n              swap1\n              tag_39\n              jump\t// in\n            tag_107:\n              mload(0x40)\n              dup1\n              swap2\n              sub\n              swap1\n              return\n                /* \"Campaign.sol\":1178:1208  uint256 public targetToAchieve */\n            tag_19:\n              callvalue\n              dup1\n              iszero\n              tag_108\n              jumpi\n              0x00\n              dup1\n              revert\n            tag_108:\n              pop\n              tag_109\n              tag_110\n              jump\t// in\n            tag_109:\n              mload(0x40)\n              tag_111\n              swap2\n              swap1\n              tag_55\n              jump\t// in\n            tag_111:\n              mload(0x40)\n              dup1\n              swap2\n              sub\n              swap1\n              return\n                /* \"Campaign.sol\":5856:6772  function getRefundAmount() public payable returns (bool) {... */\n            tag_20:\n              tag_112\n              tag_113\n              jump\t// in\n            tag_112:\n              mload(0x40)\n              tag_114\n              swap2\n              swap1\n              tag_39\n              jump\t// in\n            tag_114:\n              mload(0x40)\n              dup1\n              swap2\n              sub\n              swap1\n              return\n                /* \"Campaign.sol\":3160:3628  function approveRequest(uint256 index) public {... */\n            tag_21:\n              callvalue\n              dup1\n              iszero\n              tag_115\n              jumpi\n              0x00\n              dup1\n              revert\n            tag_115:\n              pop\n              tag_116\n              0x04\n              dup1\n              calldatasize\n              sub\n              dup2\n              add\n              swap1\n              tag_117\n              swap2\n              swap1\n              tag_31\n              jump\t// in\n            tag_117:\n              tag_118\n              jump\t// in\n            tag_116:\n              stop\n                /* \"Campaign.sol\":5604:5730  function setCampaignIsActive() public returns (uint256) {... */\n            tag_22:\n              callvalue\n              dup1\n              iszero\n              tag_119\n              jumpi\n              0x00\n              dup1\n              revert\n            tag_119:\n              pop\n              tag_120\n              tag_121\n              jump\t// in\n            tag_120:\n              mload(0x40)\n              tag_122\n              swap2\n              swap1\n              tag_55\n              jump\t// in\n            tag_122:\n              mload(0x40)\n              dup1\n              swap2\n              sub\n              swap1\n              return\n                /* \"Campaign.sol\":1292:1342  mapping(address => uint256) public contributersMap */\n            tag_23:\n              callvalue\n              dup1\n              iszero\n              tag_123\n              jumpi\n              0x00\n              dup1\n              revert\n            tag_123:\n              pop\n              tag_124\n              0x04\n              dup1\n              calldatasize\n              sub\n              dup2\n              add\n              swap1\n              tag_125\n              swap2\n              swap1\n              tag_36\n              jump\t// in\n            tag_125:\n              tag_126\n              jump\t// in\n            tag_124:\n              mload(0x40)\n              tag_127\n              swap2\n              swap1\n              tag_55\n              jump\t// in\n            tag_127:\n              mload(0x40)\n              dup1\n              swap2\n              sub\n              swap1\n              return\n                /* \"Campaign.sol\":2134:2795  function contibute() public payable {... */\n            tag_24:\n              tag_128\n              tag_129\n              jump\t// in\n            tag_128:\n              stop\n                /* \"Campaign.sol\":3634:4178  function finalizeRequest(uint256 index) public onlyManager {... */\n            tag_32:\n                /* \"Campaign.sol\":1499:1506  manager */\n              0x00\n              dup1\n              sload\n              swap1\n              0x0100\n              exp\n              swap1\n              div\n              0xffffffffffffffffffffffffffffffffffffffff\n              and\n                /* \"Campaign.sol\":1485:1506  msg.sender == manager */\n              0xffffffffffffffffffffffffffffffffffffffff\n              and\n                /* \"Campaign.sol\":1485:1495  msg.sender */\n              caller\n                /* \"Campaign.sol\":1485:1506  msg.sender == manager */\n              0xffffffffffffffffffffffffffffffffffffffff\n              and\n              eq\n                /* \"Campaign.sol\":1464:1571  require(... */\n              tag_131\n              jumpi\n              mload(0x40)\n              0x08c379a000000000000000000000000000000000000000000000000000000000\n              dup2\n              mstore\n              0x04\n              add\n              tag_132\n              swap1\n              tag_133\n              jump\t// in\n            tag_132:\n              mload(0x40)\n              dup1\n              swap2\n              sub\n              swap1\n              revert\n            tag_131:\n                /* \"Campaign.sol\":3703:3726  Request storage request */\n              0x00\n                /* \"Campaign.sol\":3729:3737  requests */\n              0x0d\n                /* \"Campaign.sol\":3729:3744  requests[index] */\n              0x00\n                /* \"Campaign.sol\":3738:3743  index */\n              dup4\n                /* \"Campaign.sol\":3729:3744  requests[index] */\n              dup2\n              mstore\n              0x20\n              add\n              swap1\n              dup2\n              mstore\n              0x20\n              add\n              0x00\n              keccak256\n                /* \"Campaign.sol\":3703:3744  Request storage request = requests[index] */\n              swap1\n              pop\n                /* \"Campaign.sol\":3818:3819  2 */\n              0x02\n                /* \"Campaign.sol\":3801:3815  approversCount */\n              sload(0x0b)\n                /* \"Campaign.sol\":3801:3819  approversCount / 2 */\n              tag_135\n              swap2\n              swap1\n              tag_136\n              jump\t// in\n            tag_135:\n                /* \"Campaign.sol\":3775:3782  request */\n              dup2\n                /* \"Campaign.sol\":3775:3796  request.approvalCount */\n              0x03\n              add\n              sload\n                /* \"Campaign.sol\":3775:3820  request.approvalCount >= (approversCount / 2) */\n              lt\n              iszero\n                /* \"Campaign.sol\":3754:3866  require(... */\n              tag_137\n              jumpi\n              mload(0x40)\n              0x08c379a000000000000000000000000000000000000000000000000000000000\n              dup2\n              mstore\n              0x04\n              add\n              tag_138\n              swap1\n              tag_139\n              jump\t// in\n            tag_138:\n              mload(0x40)\n              dup1\n              swap2\n              sub\n              swap1\n              revert\n            tag_137:\n                /* \"Campaign.sol\":3886:3893  request */\n              dup1\n                /* \"Campaign.sol\":3886:3902  request.complete */\n              0x02\n              add\n              0x14\n              swap1\n              sload\n              swap1\n              0x0100\n              exp\n              swap1\n              div\n              0xff\n              and\n                /* \"Campaign.sol\":3884:3903  !(request.complete) */\n              iszero\n                /* \"Campaign.sol\":3876:3933  require(!(request.complete), \"Request already finalized\") */\n              tag_140\n              jumpi\n              mload(0x40)\n              0x08c379a000000000000000000000000000000000000000000000000000000000\n              dup2\n              mstore\n              0x04\n              add\n              tag_141\n              swap1\n              tag_142\n              jump\t// in\n            tag_141:\n              mload(0x40)\n              dup1\n              swap2\n              sub\n              swap1\n              revert\n            tag_140:\n                /* \"Campaign.sol\":3999:4011  bool success */\n              0x00\n                /* \"Campaign.sol\":4017:4024  request */\n              dup2\n                /* \"Campaign.sol\":4017:4034  request.recipient */\n              0x02\n              add\n              0x00\n              swap1\n              sload\n              swap1\n              0x0100\n              exp\n              swap1\n              div\n              0xffffffffffffffffffffffffffffffffffffffff\n              and\n                /* \"Campaign.sol\":4017:4039  request.recipient.call */\n              0xffffffffffffffffffffffffffffffffffffffff\n              and\n                /* \"Campaign.sol\":4047:4054  request */\n              dup3\n                /* \"Campaign.sol\":4047:4060  request.value */\n              0x01\n              add\n              sload\n                /* \"Campaign.sol\":4017:4065  request.recipient.call{value: request.value}(\"\") */\n              mload(0x40)\n              tag_143\n              swap1\n              tag_144\n              jump\t// in\n            tag_143:\n              0x00\n              mload(0x40)\n              dup1\n              dup4\n              sub\n              dup2\n              dup6\n              dup8\n              gas\n              call\n              swap3\n              pop\n              pop\n              pop\n              returndatasize\n              dup1\n              0x00\n              dup2\n              eq\n              tag_147\n              jumpi\n              mload(0x40)\n              swap2\n              pop\n              and(add(returndatasize, 0x3f), not(0x1f))\n              dup3\n              add\n              0x40\n              mstore\n              returndatasize\n              dup3\n              mstore\n              returndatasize\n              0x00\n              0x20\n              dup5\n              add\n              returndatacopy\n              jump(tag_146)\n            tag_147:\n              0x60\n              swap2\n              pop\n            tag_146:\n              pop\n                /* \"Campaign.sol\":3998:4065  (bool success, ) = request.recipient.call{value: request.value}(\"\") */\n              pop\n              swap1\n              pop\n                /* \"Campaign.sol\":4079:4086  success */\n              dup1\n                /* \"Campaign.sol\":4075:4136  if (success) {... */\n              iszero\n              tag_148\n              jumpi\n                /* \"Campaign.sol\":4121:4125  true */\n              0x01\n                /* \"Campaign.sol\":4102:4109  request */\n              dup3\n                /* \"Campaign.sol\":4102:4118  request.complete */\n              0x02\n              add\n              0x14\n                /* \"Campaign.sol\":4102:4125  request.complete = true */\n              0x0100\n              exp\n              dup2\n              sload\n              dup2\n              0xff\n              mul\n              not\n              and\n              swap1\n              dup4\n              iszero\n              iszero\n              mul\n              or\n              swap1\n              sstore\n              pop\n                /* \"Campaign.sol\":4075:4136  if (success) {... */\n            tag_148:\n                /* \"Campaign.sol\":3693:4178  {... */\n              pop\n              pop\n                /* \"Campaign.sol\":3634:4178  function finalizeRequest(uint256 index) public onlyManager {... */\n              pop\n              jump\t// out\n                /* \"Campaign.sol\":1348:1389  mapping(address => bool) public approvers */\n            tag_37:\n              mstore(0x20, 0x0a)\n              dup1\n              0x00\n              mstore\n              keccak256(0x00, 0x40)\n              0x00\n              swap2\n              pop\n              sload\n              swap1\n              0x0100\n              exp\n              swap1\n              div\n              0xff\n              and\n              dup2\n              jump\t// out\n                /* \"Campaign.sol\":1114:1144  string public campaignDeadline */\n            tag_42:\n              0x04\n              dup1\n              sload\n              tag_149\n              swap1\n              tag_150\n              jump\t// in\n            tag_149:\n              dup1\n              0x1f\n              add\n              0x20\n              dup1\n              swap2\n              div\n              mul\n              0x20\n              add\n              mload(0x40)\n              swap1\n              dup2\n              add\n              0x40\n              mstore\n              dup1\n              swap3\n              swap2\n              swap1\n              dup2\n              dup2\n              mstore\n              0x20\n              add\n              dup3\n              dup1\n              sload\n              tag_151\n              swap1\n              tag_150\n              jump\t// in\n            tag_151:\n              dup1\n              iszero\n              tag_152\n              jumpi\n              dup1\n              0x1f\n              lt\n              tag_153\n              jumpi\n              0x0100\n              dup1\n              dup4\n              sload\n              div\n              mul\n              dup4\n              mstore\n              swap2\n              0x20\n              add\n              swap2\n              jump(tag_152)\n            tag_153:\n              dup3\n              add\n              swap2\n              swap1\n              0x00\n              mstore\n              keccak256(0x00, 0x20)\n              swap1\n            tag_154:\n              dup2\n              sload\n              dup2\n              mstore\n              swap1\n              0x01\n              add\n              swap1\n              0x20\n              add\n              dup1\n              dup4\n              gt\n              tag_154\n              jumpi\n              dup3\n              swap1\n              sub\n              0x1f\n              and\n              dup3\n              add\n              swap2\n            tag_152:\n              pop\n              pop\n              pop\n              pop\n              pop\n              dup2\n              jump\t// out\n                /* \"Campaign.sol\":1257:1286  address[] public contributers */\n            tag_48:\n              0x08\n              dup2\n              dup2\n              sload\n              dup2\n              lt\n              tag_155\n              jumpi\n              0x00\n              dup1\n              revert\n            tag_155:\n              swap1\n              0x00\n              mstore\n              keccak256(0x00, 0x20)\n              add\n              0x00\n              swap2\n              pop\n              sload\n              swap1\n              0x0100\n              exp\n              swap1\n              div\n              0xffffffffffffffffffffffffffffffffffffffff\n              and\n              dup2\n              jump\t// out\n                /* \"Campaign.sol\":5497:5598  function getCampaignIsActive() public view returns (uint256) {... */\n            tag_53:\n                /* \"Campaign.sol\":5549:5556  uint256 */\n              0x00\n                /* \"Campaign.sol\":5575:5591  isCampaignActive */\n              sload(0x07)\n                /* \"Campaign.sol\":5568:5591  return isCampaignActive */\n              swap1\n              pop\n                /* \"Campaign.sol\":5497:5598  function getCampaignIsActive() public view returns (uint256) {... */\n              swap1\n              jump\t// out\n                /* \"Campaign.sol\":4872:4965  function getRequestsCount() public view returns (uint256) {... */\n            tag_58:\n                /* \"Campaign.sol\":4921:4928  uint256 */\n              0x00\n                /* \"Campaign.sol\":4947:4958  numRequests */\n              sload(0x0c)\n                /* \"Campaign.sol\":4940:4958  return numRequests */\n              swap1\n              pop\n                /* \"Campaign.sol\":4872:4965  function getRequestsCount() public view returns (uint256) {... */\n              swap1\n              jump\t// out\n                /* \"Campaign.sol\":4184:4866  function getSummary()... */\n            tag_62:\n                /* \"Campaign.sol\":4264:4271  uint256 */\n              0x00\n                /* \"Campaign.sol\":4285:4292  uint256 */\n              dup1\n                /* \"Campaign.sol\":4306:4313  uint256 */\n              0x00\n                /* \"Campaign.sol\":4327:4334  uint256 */\n              dup1\n                /* \"Campaign.sol\":4348:4355  address */\n              0x00\n                /* \"Campaign.sol\":4369:4382  string memory */\n              0x60\n                /* \"Campaign.sol\":4396:4409  string memory */\n              dup1\n                /* \"Campaign.sol\":4423:4436  string memory */\n              0x60\n                /* \"Campaign.sol\":4450:4457  uint256 */\n              0x00\n                /* \"Campaign.sol\":4471:4484  string memory */\n              0x60\n                /* \"Campaign.sol\":4498:4505  uint256 */\n              0x00\n                /* \"Campaign.sol\":4551:4570  minimumContribution */\n              sload(0x01)\n                /* \"Campaign.sol\":4584:4605  address(this).balance */\n              selfbalance\n                /* \"Campaign.sol\":4619:4630  numRequests */\n              sload(0x0c)\n                /* \"Campaign.sol\":4644:4658  approversCount */\n              sload(0x0b)\n                /* \"Campaign.sol\":4672:4679  manager */\n              0x00\n              dup1\n              sload\n              swap1\n              0x0100\n              exp\n              swap1\n              div\n              0xffffffffffffffffffffffffffffffffffffffff\n              and\n                /* \"Campaign.sol\":4693:4705  CampaignName */\n              0x02\n                /* \"Campaign.sol\":4719:4738  CampaignDescription */\n              0x03\n                /* \"Campaign.sol\":4752:4760  imageUrl */\n              0x05\n                /* \"Campaign.sol\":4774:4789  targetToAchieve */\n              sload(0x06)\n                /* \"Campaign.sol\":4803:4819  campaignDeadline */\n              0x04\n                /* \"Campaign.sol\":4833:4849  isCampaignActive */\n              sload(0x07)\n                /* \"Campaign.sol\":4530:4859  return (... */\n              dup6\n              dup1\n              sload\n              tag_160\n              swap1\n              tag_150\n              jump\t// in\n            tag_160:\n              dup1\n              0x1f\n              add\n              0x20\n              dup1\n              swap2\n              div\n              mul\n              0x20\n              add\n              mload(0x40)\n              swap1\n              dup2\n              add\n              0x40\n              mstore\n              dup1\n              swap3\n              swap2\n              swap1\n              dup2\n              dup2\n              mstore\n              0x20\n              add\n              dup3\n              dup1\n              sload\n              tag_161\n              swap1\n              tag_150\n              jump\t// in\n            tag_161:\n              dup1\n              iszero\n              tag_162\n              jumpi\n              dup1\n              0x1f\n              lt\n              tag_163\n              jumpi\n              0x0100\n              dup1\n              dup4\n              sload\n              div\n              mul\n              dup4\n              mstore\n              swap2\n              0x20\n              add\n              swap2\n              jump(tag_162)\n            tag_163:\n              dup3\n              add\n              swap2\n              swap1\n              0x00\n              mstore\n              keccak256(0x00, 0x20)\n              swap1\n            tag_164:\n              dup2\n              sload\n              dup2\n              mstore\n              swap1\n              0x01\n              add\n              swap1\n              0x20\n              add\n              dup1\n              dup4\n              gt\n              tag_164\n              jumpi\n              dup3\n              swap1\n              sub\n              0x1f\n              and\n              dup3\n              add\n              swap2\n            tag_162:\n              pop\n              pop\n              pop\n              pop\n              pop\n              swap6\n              pop\n              dup5\n              dup1\n              sload\n              tag_165\n              swap1\n              tag_150\n              jump\t// in\n            tag_165:\n              dup1\n              0x1f\n              add\n              0x20\n              dup1\n              swap2\n              div\n              mul\n              0x20\n              add\n              mload(0x40)\n              swap1\n              dup2\n              add\n              0x40\n              mstore\n              dup1\n              swap3\n              swap2\n              swap1\n              dup2\n              dup2\n              mstore\n              0x20\n              add\n              dup3\n              dup1\n              sload\n              tag_166\n              swap1\n              tag_150\n              jump\t// in\n            tag_166:\n              dup1\n              iszero\n              tag_167\n              jumpi\n              dup1\n              0x1f\n              lt\n              tag_168\n              jumpi\n              0x0100\n              dup1\n              dup4\n              sload\n              div\n              mul\n              dup4\n              mstore\n              swap2\n              0x20\n              add\n              swap2\n              jump(tag_167)\n            tag_168:\n              dup3\n              add\n              swap2\n              swap1\n              0x00\n              mstore\n              keccak256(0x00, 0x20)\n              swap1\n            tag_169:\n              dup2\n              sload\n              dup2\n              mstore\n              swap1\n              0x01\n              add\n              swap1\n              0x20\n              add\n              dup1\n              dup4\n              gt\n              tag_169\n              jumpi\n              dup3\n              swap1\n              sub\n              0x1f\n              and\n              dup3\n              add\n              swap2\n            tag_167:\n              pop\n              pop\n              pop\n              pop\n              pop\n              swap5\n              pop\n              dup4\n              dup1\n              sload\n              tag_170\n              swap1\n              tag_150\n              jump\t// in\n            tag_170:\n              dup1\n              0x1f\n              add\n              0x20\n              dup1\n              swap2\n              div\n              mul\n              0x20\n              add\n              mload(0x40)\n              swap1\n              dup2\n              add\n              0x40\n              mstore\n              dup1\n              swap3\n              swap2\n              swap1\n              dup2\n              dup2\n              mstore\n              0x20\n              add\n              dup3\n              dup1\n              sload\n              tag_171\n              swap1\n              tag_150\n              jump\t// in\n            tag_171:\n              dup1\n              iszero\n              tag_172\n              jumpi\n              dup1\n              0x1f\n              lt\n              tag_173\n              jumpi\n              0x0100\n              dup1\n              dup4\n              sload\n              div\n              mul\n              dup4\n              mstore\n              swap2\n              0x20\n              add\n              swap2\n              jump(tag_172)\n            tag_173:\n              dup3\n              add\n              swap2\n              swap1\n              0x00\n              mstore\n              keccak256(0x00, 0x20)\n              swap1\n            tag_174:\n              dup2\n              sload\n              dup2\n              mstore\n              swap1\n              0x01\n              add\n              swap1\n              0x20\n              add\n              dup1\n              dup4\n              gt\n              tag_174\n              jumpi\n              dup3\n              swap1\n              sub\n              0x1f\n              and\n              dup3\n              add\n              swap2\n            tag_172:\n              pop\n              pop\n              pop\n              pop\n              pop\n              swap4\n              pop\n              dup2\n              dup1\n              sload\n              tag_175\n              swap1\n              tag_150\n              jump\t// in\n            tag_175:\n              dup1\n              0x1f\n              add\n              0x20\n              dup1\n              swap2\n              div\n              mul\n              0x20\n              add\n              mload(0x40)\n              swap1\n              dup2\n              add\n              0x40\n              mstore\n              dup1\n              swap3\n              swap2\n              swap1\n              dup2\n              dup2\n              mstore\n              0x20\n              add\n              dup3\n              dup1\n              sload\n              tag_176\n              swap1\n              tag_150\n              jump\t// in\n            tag_176:\n              dup1\n              iszero\n              tag_177\n              jumpi\n              dup1\n              0x1f\n              lt\n              tag_178\n              jumpi\n              0x0100\n              dup1\n              dup4\n              sload\n              div\n              mul\n              dup4\n              mstore\n              swap2\n              0x20\n              add\n              swap2\n              jump(tag_177)\n            tag_178:\n              dup3\n              add\n              swap2\n              swap1\n              0x00\n              mstore\n              keccak256(0x00, 0x20)\n              swap1\n            tag_179:\n              dup2\n              sload\n              dup2\n              mstore\n              swap1\n              0x01\n              add\n              swap1\n              0x20\n              add\n              dup1\n              dup4\n              gt\n              tag_179\n              jumpi\n              dup3\n              swap1\n              sub\n              0x1f\n              and\n              dup3\n              add\n              swap2\n            tag_177:\n              pop\n              pop\n              pop\n              pop\n              pop\n              swap2\n              pop\n              swap11\n              pop\n              swap11\n              pop\n              swap11\n              pop\n              swap11\n              pop\n              swap11\n              pop\n              swap11\n              pop\n              swap11\n              pop\n              swap11\n              pop\n              swap11\n              pop\n              swap11\n              pop\n              swap11\n              pop\n                /* \"Campaign.sol\":4184:4866  function getSummary()... */\n              swap1\n              swap2\n              swap3\n              swap4\n              swap5\n              swap6\n              swap7\n              swap8\n              swap9\n              swap10\n              swap11\n              jump\t// out\n                /* \"Campaign.sol\":975:997  address public manager */\n            tag_67:\n              0x00\n              dup1\n              sload\n              swap1\n              0x0100\n              exp\n              swap1\n              div\n              0xffffffffffffffffffffffffffffffffffffffff\n              and\n              dup2\n              jump\t// out\n                /* \"Campaign.sol\":1043:1069  string public CampaignName */\n            tag_71:\n              0x02\n              dup1\n              sload\n              tag_180\n              swap1\n              tag_150\n              jump\t// in\n            tag_180:\n              dup1\n              0x1f\n              add\n              0x20\n              dup1\n              swap2\n              div\n              mul\n              0x20\n              add\n              mload(0x40)\n              swap1\n              dup2\n              add\n              0x40\n              mstore\n              dup1\n              swap3\n              swap2\n              swap1\n              dup2\n              dup2\n              mstore\n              0x20\n              add\n              dup3\n              dup1\n              sload\n              tag_181\n              swap1\n              tag_150\n              jump\t// in\n            tag_181:\n              dup1\n              iszero\n              tag_182\n              jumpi\n              dup1\n              0x1f\n              lt\n              tag_183\n              jumpi\n              0x0100\n              dup1\n              dup4\n              sload\n              div\n              mul\n              dup4\n              mstore\n              swap2\n              0x20\n              add\n              swap2\n              jump(tag_182)\n            tag_183:\n              dup3\n              add\n              swap2\n              swap1\n              0x00\n              mstore\n              keccak256(0x00, 0x20)\n              swap1\n            tag_184:\n              dup2\n              sload\n              dup2\n              mstore\n              swap1\n              0x01\n              add\n              swap1\n              0x20\n              add\n              dup1\n              dup4\n              gt\n              tag_184\n              jumpi\n              dup3\n              swap1\n              sub\n              0x1f\n              and\n              dup3\n              add\n              swap2\n            tag_182:\n              pop\n              pop\n              pop\n              pop\n              pop\n              dup2\n              jump\t// out\n                /* \"Campaign.sol\":2084:2127  mapping(uint256 => Request) public requests */\n            tag_76:\n              mstore(0x20, 0x0d)\n              dup1\n              0x00\n              mstore\n              keccak256(0x00, 0x40)\n              0x00\n              swap2\n              pop\n              swap1\n              pop\n              dup1\n              0x00\n              add\n              dup1\n              sload\n              tag_185\n              swap1\n              tag_150\n              jump\t// in\n            tag_185:\n              dup1\n              0x1f\n              add\n              0x20\n              dup1\n              swap2\n              div\n              mul\n              0x20\n              add\n              mload(0x40)\n              swap1\n              dup2\n              add\n              0x40\n              mstore\n              dup1\n              swap3\n              swap2\n              swap1\n              dup2\n              dup2\n              mstore\n              0x20\n              add\n              dup3\n              dup1\n              sload\n              tag_186\n              swap1\n              tag_150\n              jump\t// in\n            tag_186:\n              dup1\n              iszero\n              tag_187\n              jumpi\n              dup1\n              0x1f\n              lt\n              tag_188\n              jumpi\n              0x0100\n              dup1\n              dup4\n              sload\n              div\n              mul\n              dup4\n              mstore\n              swap2\n              0x20\n              add\n              swap2\n              jump(tag_187)\n            tag_188:\n              dup3\n              add\n              swap2\n              swap1\n              0x00\n              mstore\n              keccak256(0x00, 0x20)\n              swap1\n            tag_189:\n              dup2\n              sload\n              dup2\n              mstore\n              swap1\n              0x01\n              add\n              swap1\n              0x20\n              add\n              dup1\n              dup4\n              gt\n              tag_189\n              jumpi\n              dup3\n              swap1\n              sub\n              0x1f\n              and\n              dup3\n              add\n              swap2\n            tag_187:\n              pop\n              pop\n              pop\n              pop\n              pop\n              swap1\n              dup1\n              0x01\n              add\n              sload\n              swap1\n              dup1\n              0x02\n              add\n              0x00\n              swap1\n              sload\n              swap1\n              0x0100\n              exp\n              swap1\n              div\n              0xffffffffffffffffffffffffffffffffffffffff\n              and\n              swap1\n              dup1\n              0x02\n              add\n              0x14\n              swap1\n              sload\n              swap1\n              0x0100\n              exp\n              swap1\n              div\n              0xff\n              and\n              swap1\n              dup1\n              0x03\n              add\n              sload\n              swap1\n              pop\n              dup6\n              jump\t// out\n                /* \"Campaign.sol\":1395:1424  uint256 public approversCount */\n            tag_81:\n              sload(0x0b)\n              dup2\n              jump\t// out\n                /* \"Campaign.sol\":2801:3154  function createRequest(... */\n            tag_87:\n                /* \"Campaign.sol\":1499:1506  manager */\n              0x00\n              dup1\n              sload\n              swap1\n              0x0100\n              exp\n              swap1\n              div\n              0xffffffffffffffffffffffffffffffffffffffff\n              and\n                /* \"Campaign.sol\":1485:1506  msg.sender == manager */\n              0xffffffffffffffffffffffffffffffffffffffff\n              and\n                /* \"Campaign.sol\":1485:1495  msg.sender */\n              caller\n                /* \"Campaign.sol\":1485:1506  msg.sender == manager */\n              0xffffffffffffffffffffffffffffffffffffffff\n              and\n              eq\n                /* \"Campaign.sol\":1464:1571  require(... */\n              tag_191\n              jumpi\n              mload(0x40)\n              0x08c379a000000000000000000000000000000000000000000000000000000000\n              dup2\n              mstore\n              0x04\n              add\n              tag_192\n              swap1\n              tag_133\n              jump\t// in\n            tag_192:\n              mload(0x40)\n              dup1\n              swap2\n              sub\n              swap1\n              revert\n            tag_191:\n                /* \"Campaign.sol\":2952:2969  Request storage r */\n              0x00\n                /* \"Campaign.sol\":2972:2980  requests */\n              0x0d\n                /* \"Campaign.sol\":2972:2995  requests[numRequests++] */\n              0x00\n                /* \"Campaign.sol\":2981:2992  numRequests */\n              0x0c\n              0x00\n                /* \"Campaign.sol\":2981:2994  numRequests++ */\n              dup2\n              sload\n              dup1\n              swap3\n              swap2\n              swap1\n              tag_194\n              swap1\n              tag_195\n              jump\t// in\n            tag_194:\n              swap2\n              swap1\n              pop\n              sstore\n                /* \"Campaign.sol\":2972:2995  requests[numRequests++] */\n              dup2\n              mstore\n              0x20\n              add\n              swap1\n              dup2\n              mstore\n              0x20\n              add\n              0x00\n              keccak256\n                /* \"Campaign.sol\":2952:2995  Request storage r = requests[numRequests++] */\n              swap1\n              pop\n                /* \"Campaign.sol\":3021:3032  description */\n              dup4\n                /* \"Campaign.sol\":3005:3006  r */\n              dup2\n                /* \"Campaign.sol\":3005:3018  r.description */\n              0x00\n              add\n                /* \"Campaign.sol\":3005:3032  r.description = description */\n              swap1\n              dup1\n              mload\n              swap1\n              0x20\n              add\n              swap1\n              tag_196\n              swap3\n              swap2\n              swap1\n              tag_197\n              jump\t// in\n            tag_196:\n              pop\n                /* \"Campaign.sol\":3052:3057  value */\n              dup3\n                /* \"Campaign.sol\":3042:3043  r */\n              dup2\n                /* \"Campaign.sol\":3042:3049  r.value */\n              0x01\n              add\n                /* \"Campaign.sol\":3042:3057  r.value = value */\n              dup2\n              swap1\n              sstore\n              pop\n                /* \"Campaign.sol\":3081:3090  recipient */\n              dup2\n                /* \"Campaign.sol\":3067:3068  r */\n              dup2\n                /* \"Campaign.sol\":3067:3078  r.recipient */\n              0x02\n              add\n              0x00\n                /* \"Campaign.sol\":3067:3090  r.recipient = recipient */\n              0x0100\n              exp\n              dup2\n              sload\n              dup2\n              0xffffffffffffffffffffffffffffffffffffffff\n              mul\n              not\n              and\n              swap1\n              dup4\n              0xffffffffffffffffffffffffffffffffffffffff\n              and\n              mul\n              or\n              swap1\n              sstore\n              pop\n                /* \"Campaign.sol\":3113:3118  false */\n              0x00\n                /* \"Campaign.sol\":3100:3101  r */\n              dup2\n                /* \"Campaign.sol\":3100:3110  r.complete */\n              0x02\n              add\n              0x14\n                /* \"Campaign.sol\":3100:3118  r.complete = false */\n              0x0100\n              exp\n              dup2\n              sload\n              dup2\n              0xff\n              mul\n              not\n              and\n              swap1\n              dup4\n              iszero\n              iszero\n              mul\n              or\n              swap1\n              sstore\n              pop\n                /* \"Campaign.sol\":3146:3147  0 */\n              0x00\n                /* \"Campaign.sol\":3128:3129  r */\n              dup2\n                /* \"Campaign.sol\":3128:3143  r.approvalCount */\n              0x03\n              add\n                /* \"Campaign.sol\":3128:3147  r.approvalCount = 0 */\n              dup2\n              swap1\n              sstore\n              pop\n                /* \"Campaign.sol\":2942:3154  {... */\n              pop\n                /* \"Campaign.sol\":2801:3154  function createRequest(... */\n              pop\n              pop\n              pop\n              jump\t// out\n                /* \"Campaign.sol\":5736:5850  function getMyAmount(address sender) public view returns (uint256) {... */\n            tag_91:\n                /* \"Campaign.sol\":5794:5801  uint256 */\n              0x00\n                /* \"Campaign.sol\":5820:5835  contributersMap */\n              0x09\n                /* \"Campaign.sol\":5820:5843  contributersMap[sender] */\n              0x00\n                /* \"Campaign.sol\":5836:5842  sender */\n              dup4\n                /* \"Campaign.sol\":5820:5843  contributersMap[sender] */\n              0xffffffffffffffffffffffffffffffffffffffff\n              and\n              0xffffffffffffffffffffffffffffffffffffffff\n              and\n              dup2\n              mstore\n              0x20\n              add\n              swap1\n              dup2\n              mstore\n              0x20\n              add\n              0x00\n              keccak256\n              sload\n                /* \"Campaign.sol\":5813:5843  return contributersMap[sender] */\n              swap1\n              pop\n                /* \"Campaign.sol\":5736:5850  function getMyAmount(address sender) public view returns (uint256) {... */\n              swap2\n              swap1\n              pop\n              jump\t// out\n                /* \"Campaign.sol\":1003:1037  uint256 public minimumContribution */\n            tag_95:\n              sload(0x01)\n              dup2\n              jump\t// out\n                /* \"Campaign.sol\":1075:1108  string public CampaignDescription */\n            tag_99:\n              0x03\n              dup1\n              sload\n              tag_199\n              swap1\n              tag_150\n              jump\t// in\n            tag_199:\n              dup1\n              0x1f\n              add\n              0x20\n              dup1\n              swap2\n              div\n              mul\n              0x20\n              add\n              mload(0x40)\n              swap1\n              dup2\n              add\n              0x40\n              mstore\n              dup1\n              swap3\n              swap2\n              swap1\n              dup2\n              dup2\n              mstore\n              0x20\n              add\n              dup3\n              dup1\n              sload\n              tag_200\n              swap1\n              tag_150\n              jump\t// in\n            tag_200:\n              dup1\n              iszero\n              tag_201\n              jumpi\n              dup1\n              0x1f\n              lt\n              tag_202\n              jumpi\n              0x0100\n              dup1\n              dup4\n              sload\n              div\n              mul\n              dup4\n              mstore\n              swap2\n              0x20\n              add\n              swap2\n              jump(tag_201)\n            tag_202:\n              dup3\n              add\n              swap2\n              swap1\n              0x00\n              mstore\n              keccak256(0x00, 0x20)\n              swap1\n            tag_203:\n              dup2\n              sload\n              dup2\n              mstore\n              swap1\n              0x01\n              add\n              swap1\n              0x20\n              add\n              dup1\n              dup4\n              gt\n              tag_203\n              jumpi\n              dup3\n              swap1\n              sub\n              0x1f\n              and\n              dup3\n              add\n              swap2\n            tag_201:\n              pop\n              pop\n              pop\n              pop\n              pop\n              dup2\n              jump\t// out\n                /* \"Campaign.sol\":1150:1172  string public imageUrl */\n            tag_103:\n              0x05\n              dup1\n              sload\n              tag_204\n              swap1\n              tag_150\n              jump\t// in\n            tag_204:\n              dup1\n              0x1f\n              add\n              0x20\n              dup1\n              swap2\n              div\n              mul\n              0x20\n              add\n              mload(0x40)\n              swap1\n              dup2\n              add\n              0x40\n              mstore\n              dup1\n              swap3\n              swap2\n              swap1\n              dup2\n              dup2\n              mstore\n              0x20\n              add\n              dup3\n              dup1\n              sload\n              tag_205\n              swap1\n              tag_150\n              jump\t// in\n            tag_205:\n              dup1\n              iszero\n              tag_206\n              jumpi\n              dup1\n              0x1f\n              lt\n              tag_207\n              jumpi\n              0x0100\n              dup1\n              dup4\n              sload\n              div\n              mul\n              dup4\n              mstore\n              swap2\n              0x20\n              add\n              swap2\n              jump(tag_206)\n            tag_207:\n              dup3\n              add\n              swap2\n              swap1\n              0x00\n              mstore\n              keccak256(0x00, 0x20)\n              swap1\n            tag_208:\n              dup2\n              sload\n              dup2\n              mstore\n              swap1\n              0x01\n              add\n              swap1\n              0x20\n              add\n              dup1\n              dup4\n              gt\n              tag_208\n              jumpi\n              dup3\n              swap1\n              sub\n              0x1f\n              and\n              dup3\n              add\n              swap2\n            tag_206:\n              pop\n              pop\n              pop\n              pop\n              pop\n              dup2\n              jump\t// out\n                /* \"Campaign.sol\":4971:5491  function claimFunds() public payable onlyManager returns (bool) {... */\n            tag_106:\n                /* \"Campaign.sol\":5029:5033  bool */\n              0x00\n                /* \"Campaign.sol\":1499:1506  manager */\n              dup1\n              0x00\n              swap1\n              sload\n              swap1\n              0x0100\n              exp\n              swap1\n              div\n              0xffffffffffffffffffffffffffffffffffffffff\n              and\n                /* \"Campaign.sol\":1485:1506  msg.sender == manager */\n              0xffffffffffffffffffffffffffffffffffffffff\n              and\n                /* \"Campaign.sol\":1485:1495  msg.sender */\n              caller\n                /* \"Campaign.sol\":1485:1506  msg.sender == manager */\n              0xffffffffffffffffffffffffffffffffffffffff\n              and\n              eq\n                /* \"Campaign.sol\":1464:1571  require(... */\n              tag_210\n              jumpi\n              mload(0x40)\n              0x08c379a000000000000000000000000000000000000000000000000000000000\n              dup2\n              mstore\n              0x04\n              add\n              tag_211\n              swap1\n              tag_133\n              jump\t// in\n            tag_211:\n              mload(0x40)\n              dup1\n              swap2\n              sub\n              swap1\n              revert\n            tag_210:\n                /* \"Campaign.sol\":5091:5106  targetToAchieve */\n              sload(0x06)\n                /* \"Campaign.sol\":5066:5087  address(this).balance */\n              selfbalance\n                /* \"Campaign.sol\":5066:5106  address(this).balance >= targetToAchieve */\n              lt\n              iszero\n                /* \"Campaign.sol\":5045:5151  require(... */\n              tag_213\n              jumpi\n              mload(0x40)\n              0x08c379a000000000000000000000000000000000000000000000000000000000\n              dup2\n              mstore\n              0x04\n              add\n              tag_214\n              swap1\n              tag_215\n              jump\t// in\n            tag_214:\n              mload(0x40)\n              dup1\n              swap2\n              sub\n              swap1\n              revert\n            tag_213:\n                /* \"Campaign.sol\":5298:5310  bool success */\n              0x00\n                /* \"Campaign.sol\":5324:5331  manager */\n              dup1\n              0x00\n              swap1\n              sload\n              swap1\n              0x0100\n              exp\n              swap1\n              div\n              0xffffffffffffffffffffffffffffffffffffffff\n              and\n                /* \"Campaign.sol\":5316:5337  payable(manager).call */\n              0xffffffffffffffffffffffffffffffffffffffff\n              and\n                /* \"Campaign.sol\":5345:5366  address(this).balance */\n              selfbalance\n                /* \"Campaign.sol\":5316:5393  payable(manager).call{value: address(this).balance}(... */\n              mload(0x40)\n              tag_216\n              swap1\n              tag_144\n              jump\t// in\n            tag_216:\n              0x00\n              mload(0x40)\n              dup1\n              dup4\n              sub\n              dup2\n              dup6\n              dup8\n              gas\n              call\n              swap3\n              pop\n              pop\n              pop\n              returndatasize\n              dup1\n              0x00\n              dup2\n              eq\n              tag_219\n              jumpi\n              mload(0x40)\n              swap2\n              pop\n              and(add(returndatasize, 0x3f), not(0x1f))\n              dup3\n              add\n              0x40\n              mstore\n              returndatasize\n              dup3\n              mstore\n              returndatasize\n              0x00\n              0x20\n              dup5\n              add\n              returndatacopy\n              jump(tag_218)\n            tag_219:\n              0x60\n              swap2\n              pop\n            tag_218:\n              pop\n                /* \"Campaign.sol\":5297:5393  (bool success, ) = payable(manager).call{value: address(this).balance}(... */\n              pop\n              swap1\n              pop\n                /* \"Campaign.sol\":5407:5414  success */\n              dup1\n                /* \"Campaign.sol\":5403:5461  if (success) {... */\n              iszero\n              tag_220\n              jumpi\n                /* \"Campaign.sol\":5449:5450  0 */\n              0x00\n                /* \"Campaign.sol\":5430:5446  isCampaignActive */\n              0x07\n                /* \"Campaign.sol\":5430:5450  isCampaignActive = 0 */\n              dup2\n              swap1\n              sstore\n              pop\n                /* \"Campaign.sol\":5403:5461  if (success) {... */\n            tag_220:\n                /* \"Campaign.sol\":5477:5484  success */\n              dup1\n                /* \"Campaign.sol\":5470:5484  return success */\n              swap2\n              pop\n              pop\n                /* \"Campaign.sol\":4971:5491  function claimFunds() public payable onlyManager returns (bool) {... */\n              swap1\n              jump\t// out\n                /* \"Campaign.sol\":1178:1208  uint256 public targetToAchieve */\n            tag_110:\n              sload(0x06)\n              dup2\n              jump\t// out\n                /* \"Campaign.sol\":5856:6772  function getRefundAmount() public payable returns (bool) {... */\n            tag_113:\n                /* \"Campaign.sol\":5907:5911  bool */\n              0x00\n                /* \"Campaign.sol\":5961:5962  0 */\n              dup1\n                /* \"Campaign.sol\":5931:5946  contributersMap */\n              0x09\n                /* \"Campaign.sol\":5931:5958  contributersMap[msg.sender] */\n              0x00\n                /* \"Campaign.sol\":5947:5957  msg.sender */\n              caller\n                /* \"Campaign.sol\":5931:5958  contributersMap[msg.sender] */\n              0xffffffffffffffffffffffffffffffffffffffff\n              and\n              0xffffffffffffffffffffffffffffffffffffffff\n              and\n              dup2\n              mstore\n              0x20\n              add\n              swap1\n              dup2\n              mstore\n              0x20\n              add\n              0x00\n              keccak256\n              sload\n                /* \"Campaign.sol\":5931:5962  contributersMap[msg.sender] > 0 */\n              gt\n                /* \"Campaign.sol\":5923:5963  require(contributersMap[msg.sender] > 0) */\n              tag_222\n              jumpi\n              0x00\n              dup1\n              revert\n            tag_222:\n                /* \"Campaign.sol\":6001:6002  0 */\n              0x00\n                /* \"Campaign.sol\":5981:5997  isCampaignActive */\n              sload(0x07)\n                /* \"Campaign.sol\":5981:6002  isCampaignActive == 0 */\n              eq\n                /* \"Campaign.sol\":5973:6003  require(isCampaignActive == 0) */\n              tag_223\n              jumpi\n              0x00\n              dup1\n              revert\n            tag_223:\n                /* \"Campaign.sol\":6014:6040  uint256 senderContribution */\n              0x00\n                /* \"Campaign.sol\":6043:6058  contributersMap */\n              0x09\n                /* \"Campaign.sol\":6043:6070  contributersMap[msg.sender] */\n              0x00\n                /* \"Campaign.sol\":6059:6069  msg.sender */\n              caller\n                /* \"Campaign.sol\":6043:6070  contributersMap[msg.sender] */\n              0xffffffffffffffffffffffffffffffffffffffff\n              and\n              0xffffffffffffffffffffffffffffffffffffffff\n              and\n              dup2\n              mstore\n              0x20\n              add\n              swap1\n              dup2\n              mstore\n              0x20\n              add\n              0x00\n              keccak256\n              sload\n                /* \"Campaign.sol\":6014:6070  uint256 senderContribution = contributersMap[msg.sender] */\n              swap1\n              pop\n                /* \"Campaign.sol\":6080:6106  uint256 totalContributions */\n              0x00\n                /* \"Campaign.sol\":6126:6135  uint256 i */\n              dup1\n                /* \"Campaign.sol\":6121:6250  for (uint256 i = 0; i < contributers.length; i++) {... */\n            tag_224:\n                /* \"Campaign.sol\":6145:6157  contributers */\n              0x08\n                /* \"Campaign.sol\":6145:6164  contributers.length */\n              dup1\n              sload\n              swap1\n              pop\n                /* \"Campaign.sol\":6141:6142  i */\n              dup2\n                /* \"Campaign.sol\":6141:6164  i < contributers.length */\n              lt\n                /* \"Campaign.sol\":6121:6250  for (uint256 i = 0; i < contributers.length; i++) {... */\n              iszero\n              tag_225\n              jumpi\n                /* \"Campaign.sol\":6207:6222  contributersMap */\n              0x09\n                /* \"Campaign.sol\":6207:6239  contributersMap[contributers[i]] */\n              0x00\n                /* \"Campaign.sol\":6223:6235  contributers */\n              0x08\n                /* \"Campaign.sol\":6236:6237  i */\n              dup4\n                /* \"Campaign.sol\":6223:6238  contributers[i] */\n              dup2\n              sload\n              dup2\n              lt\n              tag_227\n              jumpi\n              tag_228\n              tag_229\n              jump\t// in\n            tag_228:\n            tag_227:\n              swap1\n              0x00\n              mstore\n              keccak256(0x00, 0x20)\n              add\n              0x00\n              swap1\n              sload\n              swap1\n              0x0100\n              exp\n              swap1\n              div\n              0xffffffffffffffffffffffffffffffffffffffff\n              and\n                /* \"Campaign.sol\":6207:6239  contributersMap[contributers[i]] */\n              0xffffffffffffffffffffffffffffffffffffffff\n              and\n              0xffffffffffffffffffffffffffffffffffffffff\n              and\n              dup2\n              mstore\n              0x20\n              add\n              swap1\n              dup2\n              mstore\n              0x20\n              add\n              0x00\n              keccak256\n              sload\n                /* \"Campaign.sol\":6185:6239  totalContributions += contributersMap[contributers[i]] */\n              dup3\n              tag_231\n              swap2\n              swap1\n              tag_232\n              jump\t// in\n            tag_231:\n              swap2\n              pop\n                /* \"Campaign.sol\":6166:6169  i++ */\n              dup1\n              dup1\n              tag_233\n              swap1\n              tag_195\n              jump\t// in\n            tag_233:\n              swap2\n              pop\n              pop\n                /* \"Campaign.sol\":6121:6250  for (uint256 i = 0; i < contributers.length; i++) {... */\n              jump(tag_224)\n            tag_225:\n              pop\n                /* \"Campaign.sol\":6259:6278  uint256 senderRatio */\n              0x00\n                /* \"Campaign.sol\":6310:6328  totalContributions */\n              dup2\n                /* \"Campaign.sol\":6303:6306  100 */\n              0x64\n                /* \"Campaign.sol\":6282:6300  senderContribution */\n              dup5\n                /* \"Campaign.sol\":6282:6306  senderContribution * 100 */\n              tag_234\n              swap2\n              swap1\n              tag_235\n              jump\t// in\n            tag_234:\n                /* \"Campaign.sol\":6281:6328  (senderContribution * 100) / totalContributions */\n              tag_236\n              swap2\n              swap1\n              tag_136\n              jump\t// in\n            tag_236:\n                /* \"Campaign.sol\":6259:6328  uint256 senderRatio = (senderContribution * 100) / totalContributions */\n              swap1\n              pop\n                /* \"Campaign.sol\":6338:6358  uint256 refundAmount */\n              0x00\n                /* \"Campaign.sol\":6401:6404  100 */\n              0x64\n                /* \"Campaign.sol\":6386:6397  senderRatio */\n              dup3\n                /* \"Campaign.sol\":6362:6383  address(this).balance */\n              selfbalance\n                /* \"Campaign.sol\":6362:6397  address(this).balance * senderRatio */\n              tag_237\n              swap2\n              swap1\n              tag_235\n              jump\t// in\n            tag_237:\n                /* \"Campaign.sol\":6361:6404  (address(this).balance * senderRatio) / 100 */\n              tag_238\n              swap2\n              swap1\n              tag_136\n              jump\t// in\n            tag_238:\n                /* \"Campaign.sol\":6338:6404  uint256 refundAmount = (address(this).balance * senderRatio) / 100 */\n              swap1\n              pop\n                /* \"Campaign.sol\":6471:6483  bool success */\n              0x00\n                /* \"Campaign.sol\":6489:6499  msg.sender */\n              caller\n                /* \"Campaign.sol\":6489:6504  msg.sender.call */\n              0xffffffffffffffffffffffffffffffffffffffff\n              and\n                /* \"Campaign.sol\":6512:6524  refundAmount */\n              dup3\n                /* \"Campaign.sol\":6489:6529  msg.sender.call{value: refundAmount}(\"\") */\n              mload(0x40)\n              tag_239\n              swap1\n              tag_144\n              jump\t// in\n            tag_239:\n              0x00\n              mload(0x40)\n              dup1\n              dup4\n              sub\n              dup2\n              dup6\n              dup8\n              gas\n              call\n              swap3\n              pop\n              pop\n              pop\n              returndatasize\n              dup1\n              0x00\n              dup2\n              eq\n              tag_242\n              jumpi\n              mload(0x40)\n              swap2\n              pop\n              and(add(returndatasize, 0x3f), not(0x1f))\n              dup3\n              add\n              0x40\n              mstore\n              returndatasize\n              dup3\n              mstore\n              returndatasize\n              0x00\n              0x20\n              dup5\n              add\n              returndatacopy\n              jump(tag_241)\n            tag_242:\n              0x60\n              swap2\n              pop\n            tag_241:\n              pop\n                /* \"Campaign.sol\":6470:6529  (bool success, ) = msg.sender.call{value: refundAmount}(\"\") */\n              pop\n              swap1\n              pop\n                /* \"Campaign.sol\":6547:6554  success */\n              dup1\n                /* \"Campaign.sol\":6539:6575  require(success, \"Transfer failed.\") */\n              tag_243\n              jumpi\n              mload(0x40)\n              0x08c379a000000000000000000000000000000000000000000000000000000000\n              dup2\n              mstore\n              0x04\n              add\n              tag_244\n              swap1\n              tag_245\n              jump\t// in\n            tag_244:\n              mload(0x40)\n              dup1\n              swap2\n              sub\n              swap1\n              revert\n            tag_243:\n                /* \"Campaign.sol\":6590:6597  success */\n              dup1\n                /* \"Campaign.sol\":6586:6655  if (success) {... */\n              iszero\n              tag_246\n              jumpi\n                /* \"Campaign.sol\":6643:6644  0 */\n              0x00\n                /* \"Campaign.sol\":6613:6628  contributersMap */\n              0x09\n                /* \"Campaign.sol\":6613:6640  contributersMap[msg.sender] */\n              0x00\n                /* \"Campaign.sol\":6629:6639  msg.sender */\n              caller\n                /* \"Campaign.sol\":6613:6640  contributersMap[msg.sender] */\n              0xffffffffffffffffffffffffffffffffffffffff\n              and\n              0xffffffffffffffffffffffffffffffffffffffff\n              and\n              dup2\n              mstore\n              0x20\n              add\n              swap1\n              dup2\n              mstore\n              0x20\n              add\n              0x00\n              keccak256\n                /* \"Campaign.sol\":6613:6644  contributersMap[msg.sender] = 0 */\n              dup2\n              swap1\n              sstore\n              pop\n                /* \"Campaign.sol\":6586:6655  if (success) {... */\n            tag_246:\n                /* \"Campaign.sol\":6693:6694  0 */\n              0x00\n                /* \"Campaign.sol\":6668:6689  address(this).balance */\n              selfbalance\n                /* \"Campaign.sol\":6668:6694  address(this).balance == 0 */\n              eq\n                /* \"Campaign.sol\":6664:6741  if (address(this).balance == 0) {... */\n              iszero\n              tag_247\n              jumpi\n                /* \"Campaign.sol\":6729:6730  0 */\n              0x00\n                /* \"Campaign.sol\":6710:6726  isCampaignActive */\n              0x07\n                /* \"Campaign.sol\":6710:6730  isCampaignActive = 0 */\n              dup2\n              swap1\n              sstore\n              pop\n                /* \"Campaign.sol\":6664:6741  if (address(this).balance == 0) {... */\n            tag_247:\n                /* \"Campaign.sol\":6758:6765  success */\n              dup1\n                /* \"Campaign.sol\":6751:6765  return success */\n              swap6\n              pop\n              pop\n              pop\n              pop\n              pop\n              pop\n                /* \"Campaign.sol\":5856:6772  function getRefundAmount() public payable returns (bool) {... */\n              swap1\n              jump\t// out\n                /* \"Campaign.sol\":3160:3628  function approveRequest(uint256 index) public {... */\n            tag_118:\n                /* \"Campaign.sol\":3216:3239  Request storage request */\n              0x00\n                /* \"Campaign.sol\":3242:3250  requests */\n              0x0d\n                /* \"Campaign.sol\":3242:3257  requests[index] */\n              0x00\n                /* \"Campaign.sol\":3251:3256  index */\n              dup4\n                /* \"Campaign.sol\":3242:3257  requests[index] */\n              dup2\n              mstore\n              0x20\n              add\n              swap1\n              dup2\n              mstore\n              0x20\n              add\n              0x00\n              keccak256\n                /* \"Campaign.sol\":3216:3257  Request storage request = requests[index] */\n              swap1\n              pop\n                /* \"Campaign.sol\":3288:3297  approvers */\n              0x0a\n                /* \"Campaign.sol\":3288:3309  approvers[msg.sender] */\n              0x00\n                /* \"Campaign.sol\":3298:3308  msg.sender */\n              caller\n                /* \"Campaign.sol\":3288:3309  approvers[msg.sender] */\n              0xffffffffffffffffffffffffffffffffffffffff\n              and\n              0xffffffffffffffffffffffffffffffffffffffff\n              and\n              dup2\n              mstore\n              0x20\n              add\n              swap1\n              dup2\n              mstore\n              0x20\n              add\n              0x00\n              keccak256\n              0x00\n              swap1\n              sload\n              swap1\n              0x0100\n              exp\n              swap1\n              div\n              0xff\n              and\n                /* \"Campaign.sol\":3267:3416  require(... */\n              tag_249\n              jumpi\n              mload(0x40)\n              0x08c379a000000000000000000000000000000000000000000000000000000000\n              dup2\n              mstore\n              0x04\n              add\n              tag_250\n              swap1\n              tag_251\n              jump\t// in\n            tag_250:\n              mload(0x40)\n              dup1\n              swap2\n              sub\n              swap1\n              revert\n            tag_249:\n                /* \"Campaign.sol\":3448:3455  request */\n              dup1\n                /* \"Campaign.sol\":3448:3465  request.approvals */\n              0x04\n              add\n                /* \"Campaign.sol\":3448:3477  request.approvals[msg.sender] */\n              0x00\n                /* \"Campaign.sol\":3466:3476  msg.sender */\n              caller\n                /* \"Campaign.sol\":3448:3477  request.approvals[msg.sender] */\n              0xffffffffffffffffffffffffffffffffffffffff\n              and\n              0xffffffffffffffffffffffffffffffffffffffff\n              and\n              dup2\n              mstore\n              0x20\n              add\n              swap1\n              dup2\n              mstore\n              0x20\n              add\n              0x00\n              keccak256\n              0x00\n              swap1\n              sload\n              swap1\n              0x0100\n              exp\n              swap1\n              div\n              0xff\n              and\n                /* \"Campaign.sol\":3447:3477  !request.approvals[msg.sender] */\n              iszero\n                /* \"Campaign.sol\":3426:3541  require(... */\n              tag_252\n              jumpi\n              mload(0x40)\n              0x08c379a000000000000000000000000000000000000000000000000000000000\n              dup2\n              mstore\n              0x04\n              add\n              tag_253\n              swap1\n              tag_254\n              jump\t// in\n            tag_253:\n              mload(0x40)\n              dup1\n              swap2\n              sub\n              swap1\n              revert\n            tag_252:\n                /* \"Campaign.sol\":3584:3588  true */\n              0x01\n                /* \"Campaign.sol\":3552:3559  request */\n              dup2\n                /* \"Campaign.sol\":3552:3569  request.approvals */\n              0x04\n              add\n                /* \"Campaign.sol\":3552:3581  request.approvals[msg.sender] */\n              0x00\n                /* \"Campaign.sol\":3570:3580  msg.sender */\n              caller\n                /* \"Campaign.sol\":3552:3581  request.approvals[msg.sender] */\n              0xffffffffffffffffffffffffffffffffffffffff\n              and\n              0xffffffffffffffffffffffffffffffffffffffff\n              and\n              dup2\n              mstore\n              0x20\n              add\n              swap1\n              dup2\n              mstore\n              0x20\n              add\n              0x00\n              keccak256\n              0x00\n                /* \"Campaign.sol\":3552:3588  request.approvals[msg.sender] = true */\n              0x0100\n              exp\n              dup2\n              sload\n              dup2\n              0xff\n              mul\n              not\n              and\n              swap1\n              dup4\n              iszero\n              iszero\n              mul\n              or\n              swap1\n              sstore\n              pop\n                /* \"Campaign.sol\":3598:3605  request */\n              dup1\n                /* \"Campaign.sol\":3598:3619  request.approvalCount */\n              0x03\n              add\n              0x00\n                /* \"Campaign.sol\":3598:3621  request.approvalCount++ */\n              dup2\n              sload\n              dup1\n              swap3\n              swap2\n              swap1\n              tag_255\n              swap1\n              tag_195\n              jump\t// in\n            tag_255:\n              swap2\n              swap1\n              pop\n              sstore\n              pop\n                /* \"Campaign.sol\":3206:3628  {... */\n              pop\n                /* \"Campaign.sol\":3160:3628  function approveRequest(uint256 index) public {... */\n              pop\n              jump\t// out\n                /* \"Campaign.sol\":5604:5730  function setCampaignIsActive() public returns (uint256) {... */\n            tag_121:\n                /* \"Campaign.sol\":5651:5658  uint256 */\n              0x00\n                /* \"Campaign.sol\":5689:5690  0 */\n              dup1\n                /* \"Campaign.sol\":5670:5686  isCampaignActive */\n              0x07\n                /* \"Campaign.sol\":5670:5690  isCampaignActive = 0 */\n              dup2\n              swap1\n              sstore\n              pop\n                /* \"Campaign.sol\":5707:5723  isCampaignActive */\n              sload(0x07)\n                /* \"Campaign.sol\":5700:5723  return isCampaignActive */\n              swap1\n              pop\n                /* \"Campaign.sol\":5604:5730  function setCampaignIsActive() public returns (uint256) {... */\n              swap1\n              jump\t// out\n                /* \"Campaign.sol\":1292:1342  mapping(address => uint256) public contributersMap */\n            tag_126:\n              mstore(0x20, 0x09)\n              dup1\n              0x00\n              mstore\n              keccak256(0x00, 0x40)\n              0x00\n              swap2\n              pop\n              swap1\n              pop\n              sload\n              dup2\n              jump\t// out\n                /* \"Campaign.sol\":2134:2795  function contibute() public payable {... */\n            tag_129:\n                /* \"Campaign.sol\":2214:2233  minimumContribution */\n              sload(0x01)\n                /* \"Campaign.sol\":2201:2210  msg.value */\n              callvalue\n                /* \"Campaign.sol\":2201:2233  msg.value >= minimumContribution */\n              lt\n              iszero\n                /* \"Campaign.sol\":2180:2292  require(... */\n              tag_258\n              jumpi\n              mload(0x40)\n              0x08c379a000000000000000000000000000000000000000000000000000000000\n              dup2\n              mstore\n              0x04\n              add\n              tag_259\n              swap1\n              tag_260\n              jump\t// in\n            tag_259:\n              mload(0x40)\n              dup1\n              swap2\n              sub\n              swap1\n              revert\n            tag_258:\n                /* \"Campaign.sol\":2364:2373  uint256 i */\n              0x00\n                /* \"Campaign.sol\":2359:2635  for (uint256 i = 0; i < contributers.length; i++) {... */\n            tag_261:\n                /* \"Campaign.sol\":2383:2395  contributers */\n              0x08\n                /* \"Campaign.sol\":2383:2402  contributers.length */\n              dup1\n              sload\n              swap1\n              pop\n                /* \"Campaign.sol\":2379:2380  i */\n              dup2\n                /* \"Campaign.sol\":2379:2402  i < contributers.length */\n              lt\n                /* \"Campaign.sol\":2359:2635  for (uint256 i = 0; i < contributers.length; i++) {... */\n              iszero\n              tag_262\n              jumpi\n                /* \"Campaign.sol\":2441:2453  contributers */\n              0x08\n                /* \"Campaign.sol\":2454:2455  i */\n              dup2\n                /* \"Campaign.sol\":2441:2456  contributers[i] */\n              dup2\n              sload\n              dup2\n              lt\n              tag_264\n              jumpi\n              tag_265\n              tag_229\n              jump\t// in\n            tag_265:\n            tag_264:\n              swap1\n              0x00\n              mstore\n              keccak256(0x00, 0x20)\n              add\n              0x00\n              swap1\n              sload\n              swap1\n              0x0100\n              exp\n              swap1\n              div\n              0xffffffffffffffffffffffffffffffffffffffff\n              and\n                /* \"Campaign.sol\":2427:2456  msg.sender == contributers[i] */\n              0xffffffffffffffffffffffffffffffffffffffff\n              and\n                /* \"Campaign.sol\":2427:2437  msg.sender */\n              caller\n                /* \"Campaign.sol\":2427:2456  msg.sender == contributers[i] */\n              0xffffffffffffffffffffffffffffffffffffffff\n              and\n              eq\n                /* \"Campaign.sol\":2423:2625  if (msg.sender == contributers[i]) {... */\n              iszero\n              tag_267\n              jumpi\n                /* \"Campaign.sol\":2576:2585  msg.value */\n              callvalue\n                /* \"Campaign.sol\":2526:2541  contributersMap */\n              0x09\n                /* \"Campaign.sol\":2526:2553  contributersMap[msg.sender] */\n              0x00\n                /* \"Campaign.sol\":2542:2552  msg.sender */\n              caller\n                /* \"Campaign.sol\":2526:2553  contributersMap[msg.sender] */\n              0xffffffffffffffffffffffffffffffffffffffff\n              and\n              0xffffffffffffffffffffffffffffffffffffffff\n              and\n              dup2\n              mstore\n              0x20\n              add\n              swap1\n              dup2\n              mstore\n              0x20\n              add\n              0x00\n              keccak256\n              sload\n                /* \"Campaign.sol\":2526:2585  contributersMap[msg.sender] +... */\n              tag_268\n              swap2\n              swap1\n              tag_232\n              jump\t// in\n            tag_268:\n                /* \"Campaign.sol\":2476:2491  contributersMap */\n              0x09\n                /* \"Campaign.sol\":2476:2503  contributersMap[msg.sender] */\n              0x00\n                /* \"Campaign.sol\":2492:2502  msg.sender */\n              caller\n                /* \"Campaign.sol\":2476:2503  contributersMap[msg.sender] */\n              0xffffffffffffffffffffffffffffffffffffffff\n              and\n              0xffffffffffffffffffffffffffffffffffffffff\n              and\n              dup2\n              mstore\n              0x20\n              add\n              swap1\n              dup2\n              mstore\n              0x20\n              add\n              0x00\n              keccak256\n                /* \"Campaign.sol\":2476:2585  contributersMap[msg.sender] =... */\n              dup2\n              swap1\n              sstore\n              pop\n                /* \"Campaign.sol\":2604:2611  return; */\n              pop\n              jump(tag_257)\n                /* \"Campaign.sol\":2423:2625  if (msg.sender == contributers[i]) {... */\n            tag_267:\n                /* \"Campaign.sol\":2404:2407  i++ */\n              dup1\n              dup1\n              tag_269\n              swap1\n              tag_195\n              jump\t// in\n            tag_269:\n              swap2\n              pop\n              pop\n                /* \"Campaign.sol\":2359:2635  for (uint256 i = 0; i < contributers.length; i++) {... */\n              jump(tag_261)\n            tag_262:\n              pop\n                /* \"Campaign.sol\":2645:2657  contributers */\n              0x08\n                /* \"Campaign.sol\":2663:2673  msg.sender */\n              caller\n                /* \"Campaign.sol\":2645:2674  contributers.push(msg.sender) */\n              swap1\n              dup1\n              0x01\n              dup2\n              sload\n              add\n              dup1\n              dup3\n              sstore\n              dup1\n              swap2\n              pop\n              pop\n              0x01\n              swap1\n              sub\n              swap1\n              0x00\n              mstore\n              keccak256(0x00, 0x20)\n              add\n              0x00\n              swap1\n              swap2\n              swap1\n              swap2\n              swap1\n              swap2\n              0x0100\n              exp\n              dup2\n              sload\n              dup2\n              0xffffffffffffffffffffffffffffffffffffffff\n              mul\n              not\n              and\n              swap1\n              dup4\n              0xffffffffffffffffffffffffffffffffffffffff\n              and\n              mul\n              or\n              swap1\n              sstore\n              pop\n                /* \"Campaign.sol\":2714:2723  msg.value */\n              callvalue\n                /* \"Campaign.sol\":2684:2699  contributersMap */\n              0x09\n                /* \"Campaign.sol\":2684:2711  contributersMap[msg.sender] */\n              0x00\n                /* \"Campaign.sol\":2700:2710  msg.sender */\n              caller\n                /* \"Campaign.sol\":2684:2711  contributersMap[msg.sender] */\n              0xffffffffffffffffffffffffffffffffffffffff\n              and\n              0xffffffffffffffffffffffffffffffffffffffff\n              and\n              dup2\n              mstore\n              0x20\n              add\n              swap1\n              dup2\n              mstore\n              0x20\n              add\n              0x00\n              keccak256\n                /* \"Campaign.sol\":2684:2723  contributersMap[msg.sender] = msg.value */\n              dup2\n              swap1\n              sstore\n              pop\n                /* \"Campaign.sol\":2758:2762  true */\n              0x01\n                /* \"Campaign.sol\":2734:2743  approvers */\n              0x0a\n                /* \"Campaign.sol\":2734:2755  approvers[msg.sender] */\n              0x00\n                /* \"Campaign.sol\":2744:2754  msg.sender */\n              caller\n                /* \"Campaign.sol\":2734:2755  approvers[msg.sender] */\n              0xffffffffffffffffffffffffffffffffffffffff\n              and\n              0xffffffffffffffffffffffffffffffffffffffff\n              and\n              dup2\n              mstore\n              0x20\n              add\n              swap1\n              dup2\n              mstore\n              0x20\n              add\n              0x00\n              keccak256\n              0x00\n                /* \"Campaign.sol\":2734:2762  approvers[msg.sender] = true */\n              0x0100\n              exp\n              dup2\n              sload\n              dup2\n              0xff\n              mul\n              not\n              and\n              swap1\n              dup4\n              iszero\n              iszero\n              mul\n              or\n              swap1\n              sstore\n              pop\n                /* \"Campaign.sol\":2772:2786  approversCount */\n              0x0b\n              0x00\n                /* \"Campaign.sol\":2772:2788  approversCount++ */\n              dup2\n              sload\n              dup1\n              swap3\n              swap2\n              swap1\n              tag_271\n              swap1\n              tag_195\n              jump\t// in\n            tag_271:\n              swap2\n              swap1\n              pop\n              sstore\n              pop\n                /* \"Campaign.sol\":2134:2795  function contibute() public payable {... */\n            tag_257:\n              jump\t// out\n            tag_197:\n              dup3\n              dup1\n              sload\n              tag_272\n              swap1\n              tag_150\n              jump\t// in\n            tag_272:\n              swap1\n              0x00\n              mstore\n              keccak256(0x00, 0x20)\n              swap1\n              0x1f\n              add\n              0x20\n              swap1\n              div\n              dup2\n              add\n              swap3\n              dup3\n              tag_274\n              jumpi\n              0x00\n              dup6\n              sstore\n              jump(tag_273)\n            tag_274:\n              dup3\n              0x1f\n              lt\n              tag_275\n              jumpi\n              dup1\n              mload\n              not(0xff)\n              and\n              dup4\n              dup1\n              add\n              or\n              dup6\n              sstore\n              jump(tag_273)\n            tag_275:\n              dup3\n              dup1\n              add\n              0x01\n              add\n              dup6\n              sstore\n              dup3\n              iszero\n              tag_273\n              jumpi\n              swap2\n              dup3\n              add\n            tag_276:\n              dup3\n              dup2\n              gt\n              iszero\n              tag_277\n              jumpi\n              dup3\n              mload\n              dup3\n              sstore\n              swap2\n              0x20\n              add\n              swap2\n              swap1\n              0x01\n              add\n              swap1\n              jump(tag_276)\n            tag_277:\n            tag_273:\n              pop\n              swap1\n              pop\n              tag_278\n              swap2\n              swap1\n              tag_279\n              jump\t// in\n            tag_278:\n              pop\n              swap1\n              jump\t// out\n            tag_279:\n            tag_280:\n              dup1\n              dup3\n              gt\n              iszero\n              tag_281\n              jumpi\n              0x00\n              dup2\n              0x00\n              swap1\n              sstore\n              pop\n              0x01\n              add\n              jump(tag_280)\n            tag_281:\n              pop\n              swap1\n              jump\t// out\n                /* \"#utility.yul\":7:82   */\n            tag_282:\n                /* \"#utility.yul\":40:46   */\n              0x00\n                /* \"#utility.yul\":73:75   */\n              0x40\n                /* \"#utility.yul\":67:76   */\n              mload\n                /* \"#utility.yul\":57:76   */\n              swap1\n              pop\n                /* \"#utility.yul\":7:82   */\n              swap1\n              jump\t// out\n                /* \"#utility.yul\":88:205   */\n            tag_283:\n                /* \"#utility.yul\":197:198   */\n              0x00\n                /* \"#utility.yul\":194:195   */\n              dup1\n                /* \"#utility.yul\":187:199   */\n              revert\n                /* \"#utility.yul\":211:328   */\n            tag_284:\n                /* \"#utility.yul\":320:321   */\n              0x00\n                /* \"#utility.yul\":317:318   */\n              dup1\n                /* \"#utility.yul\":310:322   */\n              revert\n                /* \"#utility.yul\":334:411   */\n            tag_285:\n                /* \"#utility.yul\":371:378   */\n              0x00\n                /* \"#utility.yul\":400:405   */\n              dup2\n                /* \"#utility.yul\":389:405   */\n              swap1\n              pop\n                /* \"#utility.yul\":334:411   */\n              swap2\n              swap1\n              pop\n              jump\t// out\n                /* \"#utility.yul\":417:539   */\n            tag_286:\n                /* \"#utility.yul\":490:514   */\n              tag_342\n                /* \"#utility.yul\":508:513   */\n              dup2\n                /* \"#utility.yul\":490:514   */\n              tag_285\n              jump\t// in\n            tag_342:\n                /* \"#utility.yul\":483:488   */\n              dup2\n                /* \"#utility.yul\":480:515   */\n              eq\n                /* \"#utility.yul\":470:533   */\n              tag_343\n              jumpi\n                /* \"#utility.yul\":529:530   */\n              0x00\n                /* \"#utility.yul\":526:527   */\n              dup1\n                /* \"#utility.yul\":519:531   */\n              revert\n                /* \"#utility.yul\":470:533   */\n            tag_343:\n                /* \"#utility.yul\":417:539   */\n              pop\n              jump\t// out\n                /* \"#utility.yul\":545:684   */\n            tag_287:\n                /* \"#utility.yul\":591:596   */\n              0x00\n                /* \"#utility.yul\":629:635   */\n              dup2\n                /* \"#utility.yul\":616:636   */\n              calldataload\n                /* \"#utility.yul\":607:636   */\n              swap1\n              pop\n                /* \"#utility.yul\":645:678   */\n              tag_345\n                /* \"#utility.yul\":672:677   */\n              dup2\n                /* \"#utility.yul\":645:678   */\n              tag_286\n              jump\t// in\n            tag_345:\n                /* \"#utility.yul\":545:684   */\n              swap3\n              swap2\n              pop\n              pop\n              jump\t// out\n                /* \"#utility.yul\":690:1019   */\n            tag_31:\n                /* \"#utility.yul\":749:755   */\n              0x00\n                /* \"#utility.yul\":798:800   */\n              0x20\n                /* \"#utility.yul\":786:795   */\n              dup3\n                /* \"#utility.yul\":777:784   */\n              dup5\n                /* \"#utility.yul\":773:796   */\n              sub\n                /* \"#utility.yul\":769:801   */\n              slt\n                /* \"#utility.yul\":766:885   */\n              iszero\n              tag_347\n              jumpi\n                /* \"#utility.yul\":804:883   */\n              tag_348\n              tag_283\n              jump\t// in\n            tag_348:\n                /* \"#utility.yul\":766:885   */\n            tag_347:\n                /* \"#utility.yul\":924:925   */\n              0x00\n                /* \"#utility.yul\":949:1002   */\n              tag_349\n                /* \"#utility.yul\":994:1001   */\n              dup5\n                /* \"#utility.yul\":985:991   */\n              dup3\n                /* \"#utility.yul\":974:983   */\n              dup6\n                /* \"#utility.yul\":970:992   */\n              add\n                /* \"#utility.yul\":949:1002   */\n              tag_287\n              jump\t// in\n            tag_349:\n                /* \"#utility.yul\":939:1002   */\n              swap2\n              pop\n                /* \"#utility.yul\":895:1012   */\n              pop\n                /* \"#utility.yul\":690:1019   */\n              swap3\n              swap2\n              pop\n              pop\n              jump\t// out\n                /* \"#utility.yul\":1025:1151   */\n            tag_288:\n                /* \"#utility.yul\":1062:1069   */\n              0x00\n                /* \"#utility.yul\":1102:1144   */\n              0xffffffffffffffffffffffffffffffffffffffff\n                /* \"#utility.yul\":1095:1100   */\n              dup3\n                /* \"#utility.yul\":1091:1145   */\n              and\n                /* \"#utility.yul\":1080:1145   */\n              swap1\n              pop\n                /* \"#utility.yul\":1025:1151   */\n              swap2\n              swap1\n              pop\n              jump\t// out\n                /* \"#utility.yul\":1157:1253   */\n            tag_289:\n                /* \"#utility.yul\":1194:1201   */\n              0x00\n                /* \"#utility.yul\":1223:1247   */\n              tag_352\n                /* \"#utility.yul\":1241:1246   */\n              dup3\n                /* \"#utility.yul\":1223:1247   */\n              tag_288\n              jump\t// in\n            tag_352:\n                /* \"#utility.yul\":1212:1247   */\n              swap1\n              pop\n                /* \"#utility.yul\":1157:1253   */\n              swap2\n              swap1\n              pop\n              jump\t// out\n                /* \"#utility.yul\":1259:1381   */\n            tag_290:\n                /* \"#utility.yul\":1332:1356   */\n              tag_354\n                /* \"#utility.yul\":1350:1355   */\n              dup2\n                /* \"#utility.yul\":1332:1356   */\n              tag_289\n              jump\t// in\n            tag_354:\n                /* \"#utility.yul\":1325:1330   */\n              dup2\n                /* \"#utility.yul\":1322:1357   */\n              eq\n                /* \"#utility.yul\":1312:1375   */\n              tag_355\n              jumpi\n                /* \"#utility.yul\":1371:1372   */\n              0x00\n                /* \"#utility.yul\":1368:1369   */\n              dup1\n                /* \"#utility.yul\":1361:1373   */\n              revert\n                /* \"#utility.yul\":1312:1375   */\n            tag_355:\n                /* \"#utility.yul\":1259:1381   */\n              pop\n              jump\t// out\n                /* \"#utility.yul\":1387:1526   */\n            tag_291:\n                /* \"#utility.yul\":1433:1438   */\n              0x00\n                /* \"#utility.yul\":1471:1477   */\n              dup2\n                /* \"#utility.yul\":1458:1478   */\n              calldataload\n                /* \"#utility.yul\":1449:1478   */\n              swap1\n              pop\n                /* \"#utility.yul\":1487:1520   */\n              tag_357\n                /* \"#utility.yul\":1514:1519   */\n              dup2\n                /* \"#utility.yul\":1487:1520   */\n              tag_290\n              jump\t// in\n            tag_357:\n                /* \"#utility.yul\":1387:1526   */\n              swap3\n              swap2\n              pop\n              pop\n              jump\t// out\n                /* \"#utility.yul\":1532:1861   */\n            tag_36:\n                /* \"#utility.yul\":1591:1597   */\n              0x00\n                /* \"#utility.yul\":1640:1642   */\n              0x20\n                /* \"#utility.yul\":1628:1637   */\n              dup3\n                /* \"#utility.yul\":1619:1626   */\n              dup5\n                /* \"#utility.yul\":1615:1638   */\n              sub\n                /* \"#utility.yul\":1611:1643   */\n              slt\n                /* \"#utility.yul\":1608:1727   */\n              iszero\n              tag_359\n              jumpi\n                /* \"#utility.yul\":1646:1725   */\n              tag_360\n              tag_283\n              jump\t// in\n            tag_360:\n                /* \"#utility.yul\":1608:1727   */\n            tag_359:\n                /* \"#utility.yul\":1766:1767   */\n              0x00\n                /* \"#utility.yul\":1791:1844   */\n              tag_361\n                /* \"#utility.yul\":1836:1843   */\n              dup5\n                /* \"#utility.yul\":1827:1833   */\n              dup3\n                /* \"#utility.yul\":1816:1825   */\n              dup6\n                /* \"#utility.yul\":1812:1834   */\n              add\n                /* \"#utility.yul\":1791:1844   */\n              tag_291\n              jump\t// in\n            tag_361:\n                /* \"#utility.yul\":1781:1844   */\n              swap2\n              pop\n                /* \"#utility.yul\":1737:1854   */\n              pop\n                /* \"#utility.yul\":1532:1861   */\n              swap3\n              swap2\n              pop\n              pop\n              jump\t// out\n                /* \"#utility.yul\":1867:1957   */\n            tag_292:\n                /* \"#utility.yul\":1901:1908   */\n              0x00\n                /* \"#utility.yul\":1944:1949   */\n              dup2\n                /* \"#utility.yul\":1937:1950   */\n              iszero\n                /* \"#utility.yul\":1930:1951   */\n              iszero\n                /* \"#utility.yul\":1919:1951   */\n              swap1\n              pop\n                /* \"#utility.yul\":1867:1957   */\n              swap2\n              swap1\n              pop\n              jump\t// out\n                /* \"#utility.yul\":1963:2072   */\n            tag_293:\n                /* \"#utility.yul\":2044:2065   */\n              tag_364\n                /* \"#utility.yul\":2059:2064   */\n              dup2\n                /* \"#utility.yul\":2044:2065   */\n              tag_292\n              jump\t// in\n            tag_364:\n                /* \"#utility.yul\":2039:2042   */\n              dup3\n                /* \"#utility.yul\":2032:2066   */\n              mstore\n                /* \"#utility.yul\":1963:2072   */\n              pop\n              pop\n              jump\t// out\n                /* \"#utility.yul\":2078:2288   */\n            tag_39:\n                /* \"#utility.yul\":2165:2169   */\n              0x00\n                /* \"#utility.yul\":2203:2205   */\n              0x20\n                /* \"#utility.yul\":2192:2201   */\n              dup3\n                /* \"#utility.yul\":2188:2206   */\n              add\n                /* \"#utility.yul\":2180:2206   */\n              swap1\n              pop\n                /* \"#utility.yul\":2216:2281   */\n              tag_366\n                /* \"#utility.yul\":2278:2279   */\n              0x00\n                /* \"#utility.yul\":2267:2276   */\n              dup4\n                /* \"#utility.yul\":2263:2280   */\n              add\n                /* \"#utility.yul\":2254:2260   */\n              dup5\n                /* \"#utility.yul\":2216:2281   */\n              tag_293\n              jump\t// in\n            tag_366:\n                /* \"#utility.yul\":2078:2288   */\n              swap3\n              swap2\n              pop\n              pop\n              jump\t// out\n                /* \"#utility.yul\":2294:2393   */\n            tag_294:\n                /* \"#utility.yul\":2346:2352   */\n              0x00\n                /* \"#utility.yul\":2380:2385   */\n              dup2\n                /* \"#utility.yul\":2374:2386   */\n              mload\n                /* \"#utility.yul\":2364:2386   */\n              swap1\n              pop\n                /* \"#utility.yul\":2294:2393   */\n              swap2\n              swap1\n              pop\n              jump\t// out\n                /* \"#utility.yul\":2399:2568   */\n            tag_295:\n                /* \"#utility.yul\":2483:2494   */\n              0x00\n                /* \"#utility.yul\":2517:2523   */\n              dup3\n                /* \"#utility.yul\":2512:2515   */\n              dup3\n                /* \"#utility.yul\":2505:2524   */\n              mstore\n                /* \"#utility.yul\":2557:2561   */\n              0x20\n                /* \"#utility.yul\":2552:2555   */\n              dup3\n                /* \"#utility.yul\":2548:2562   */\n              add\n                /* \"#utility.yul\":2533:2562   */\n              swap1\n              pop\n                /* \"#utility.yul\":2399:2568   */\n              swap3\n              swap2\n              pop\n              pop\n              jump\t// out\n                /* \"#utility.yul\":2574:2881   */\n            tag_296:\n                /* \"#utility.yul\":2642:2643   */\n              0x00\n                /* \"#utility.yul\":2652:2765   */\n            tag_370:\n                /* \"#utility.yul\":2666:2672   */\n              dup4\n                /* \"#utility.yul\":2663:2664   */\n              dup2\n                /* \"#utility.yul\":2660:2673   */\n              lt\n                /* \"#utility.yul\":2652:2765   */\n              iszero\n              tag_372\n              jumpi\n                /* \"#utility.yul\":2751:2752   */\n              dup1\n                /* \"#utility.yul\":2746:2749   */\n              dup3\n                /* \"#utility.yul\":2742:2753   */\n              add\n                /* \"#utility.yul\":2736:2754   */\n              mload\n                /* \"#utility.yul\":2732:2733   */\n              dup2\n                /* \"#utility.yul\":2727:2730   */\n              dup5\n                /* \"#utility.yul\":2723:2734   */\n              add\n                /* \"#utility.yul\":2716:2755   */\n              mstore\n                /* \"#utility.yul\":2688:2690   */\n              0x20\n                /* \"#utility.yul\":2685:2686   */\n              dup2\n                /* \"#utility.yul\":2681:2691   */\n              add\n                /* \"#utility.yul\":2676:2691   */\n              swap1\n              pop\n                /* \"#utility.yul\":2652:2765   */\n              jump(tag_370)\n            tag_372:\n                /* \"#utility.yul\":2783:2789   */\n              dup4\n                /* \"#utility.yul\":2780:2781   */\n              dup2\n                /* \"#utility.yul\":2777:2790   */\n              gt\n                /* \"#utility.yul\":2774:2875   */\n              iszero\n              tag_373\n              jumpi\n                /* \"#utility.yul\":2863:2864   */\n              0x00\n                /* \"#utility.yul\":2854:2860   */\n              dup5\n                /* \"#utility.yul\":2849:2852   */\n              dup5\n                /* \"#utility.yul\":2845:2861   */\n              add\n                /* \"#utility.yul\":2838:2865   */\n              mstore\n                /* \"#utility.yul\":2774:2875   */\n            tag_373:\n                /* \"#utility.yul\":2623:2881   */\n              pop\n                /* \"#utility.yul\":2574:2881   */\n              pop\n              pop\n              pop\n              jump\t// out\n                /* \"#utility.yul\":2887:2989   */\n            tag_297:\n                /* \"#utility.yul\":2928:2934   */\n              0x00\n                /* \"#utility.yul\":2979:2981   */\n              0x1f\n                /* \"#utility.yul\":2975:2982   */\n              not\n                /* \"#utility.yul\":2970:2972   */\n              0x1f\n                /* \"#utility.yul\":2963:2968   */\n              dup4\n                /* \"#utility.yul\":2959:2973   */\n              add\n                /* \"#utility.yul\":2955:2983   */\n              and\n                /* \"#utility.yul\":2945:2983   */\n              swap1\n              pop\n                /* \"#utility.yul\":2887:2989   */\n              swap2\n              swap1\n              pop\n              jump\t// out\n                /* \"#utility.yul\":2995:3359   */\n            tag_298:\n                /* \"#utility.yul\":3083:3086   */\n              0x00\n                /* \"#utility.yul\":3111:3150   */\n              tag_376\n                /* \"#utility.yul\":3144:3149   */\n              dup3\n                /* \"#utility.yul\":3111:3150   */\n              tag_294\n              jump\t// in\n            tag_376:\n                /* \"#utility.yul\":3166:3237   */\n              tag_377\n                /* \"#utility.yul\":3230:3236   */\n              dup2\n                /* \"#utility.yul\":3225:3228   */\n              dup6\n                /* \"#utility.yul\":3166:3237   */\n              tag_295\n              jump\t// in\n            tag_377:\n                /* \"#utility.yul\":3159:3237   */\n              swap4\n              pop\n                /* \"#utility.yul\":3246:3298   */\n              tag_378\n                /* \"#utility.yul\":3291:3297   */\n              dup2\n                /* \"#utility.yul\":3286:3289   */\n              dup6\n                /* \"#utility.yul\":3279:3283   */\n              0x20\n                /* \"#utility.yul\":3272:3277   */\n              dup7\n                /* \"#utility.yul\":3268:3284   */\n              add\n                /* \"#utility.yul\":3246:3298   */\n              tag_296\n              jump\t// in\n            tag_378:\n                /* \"#utility.yul\":3323:3352   */\n              tag_379\n                /* \"#utility.yul\":3345:3351   */\n              dup2\n                /* \"#utility.yul\":3323:3352   */\n              tag_297\n              jump\t// in\n            tag_379:\n                /* \"#utility.yul\":3318:3321   */\n              dup5\n                /* \"#utility.yul\":3314:3353   */\n              add\n                /* \"#utility.yul\":3307:3353   */\n              swap2\n              pop\n                /* \"#utility.yul\":3087:3359   */\n              pop\n                /* \"#utility.yul\":2995:3359   */\n              swap3\n              swap2\n              pop\n              pop\n              jump\t// out\n                /* \"#utility.yul\":3365:3678   */\n            tag_44:\n                /* \"#utility.yul\":3478:3482   */\n              0x00\n                /* \"#utility.yul\":3516:3518   */\n              0x20\n                /* \"#utility.yul\":3505:3514   */\n              dup3\n                /* \"#utility.yul\":3501:3519   */\n              add\n                /* \"#utility.yul\":3493:3519   */\n              swap1\n              pop\n                /* \"#utility.yul\":3565:3574   */\n              dup2\n                /* \"#utility.yul\":3559:3563   */\n              dup2\n                /* \"#utility.yul\":3555:3575   */\n              sub\n                /* \"#utility.yul\":3551:3552   */\n              0x00\n                /* \"#utility.yul\":3540:3549   */\n              dup4\n                /* \"#utility.yul\":3536:3553   */\n              add\n                /* \"#utility.yul\":3529:3576   */\n              mstore\n                /* \"#utility.yul\":3593:3671   */\n              tag_381\n                /* \"#utility.yul\":3666:3670   */\n              dup2\n                /* \"#utility.yul\":3657:3663   */\n              dup5\n                /* \"#utility.yul\":3593:3671   */\n              tag_298\n              jump\t// in\n            tag_381:\n                /* \"#utility.yul\":3585:3671   */\n              swap1\n              pop\n                /* \"#utility.yul\":3365:3678   */\n              swap3\n              swap2\n              pop\n              pop\n              jump\t// out\n                /* \"#utility.yul\":3684:3802   */\n            tag_299:\n                /* \"#utility.yul\":3771:3795   */\n              tag_383\n                /* \"#utility.yul\":3789:3794   */\n              dup2\n                /* \"#utility.yul\":3771:3795   */\n              tag_289\n              jump\t// in\n            tag_383:\n                /* \"#utility.yul\":3766:3769   */\n              dup3\n                /* \"#utility.yul\":3759:3796   */\n              mstore\n                /* \"#utility.yul\":3684:3802   */\n              pop\n              pop\n              jump\t// out\n                /* \"#utility.yul\":3808:4030   */\n            tag_50:\n                /* \"#utility.yul\":3901:3905   */\n              0x00\n                /* \"#utility.yul\":3939:3941   */\n              0x20\n                /* \"#utility.yul\":3928:3937   */\n              dup3\n                /* \"#utility.yul\":3924:3942   */\n              add\n                /* \"#utility.yul\":3916:3942   */\n              swap1\n              pop\n                /* \"#utility.yul\":3952:4023   */\n              tag_385\n                /* \"#utility.yul\":4020:4021   */\n              0x00\n                /* \"#utility.yul\":4009:4018   */\n              dup4\n                /* \"#utility.yul\":4005:4022   */\n              add\n                /* \"#utility.yul\":3996:4002   */\n              dup5\n                /* \"#utility.yul\":3952:4023   */\n              tag_299\n              jump\t// in\n            tag_385:\n                /* \"#utility.yul\":3808:4030   */\n              swap3\n              swap2\n              pop\n              pop\n              jump\t// out\n                /* \"#utility.yul\":4036:4154   */\n            tag_300:\n                /* \"#utility.yul\":4123:4147   */\n              tag_387\n                /* \"#utility.yul\":4141:4146   */\n              dup2\n                /* \"#utility.yul\":4123:4147   */\n              tag_285\n              jump\t// in\n            tag_387:\n                /* \"#utility.yul\":4118:4121   */\n              dup3\n                /* \"#utility.yul\":4111:4148   */\n              mstore\n                /* \"#utility.yul\":4036:4154   */\n              pop\n              pop\n              jump\t// out\n                /* \"#utility.yul\":4160:4382   */\n            tag_55:\n                /* \"#utility.yul\":4253:4257   */\n              0x00\n                /* \"#utility.yul\":4291:4293   */\n              0x20\n                /* \"#utility.yul\":4280:4289   */\n              dup3\n                /* \"#utility.yul\":4276:4294   */\n              add\n                /* \"#utility.yul\":4268:4294   */\n              swap1\n              pop\n                /* \"#utility.yul\":4304:4375   */\n              tag_389\n                /* \"#utility.yul\":4372:4373   */\n              0x00\n                /* \"#utility.yul\":4361:4370   */\n              dup4\n                /* \"#utility.yul\":4357:4374   */\n              add\n                /* \"#utility.yul\":4348:4354   */\n              dup5\n                /* \"#utility.yul\":4304:4375   */\n              tag_300\n              jump\t// in\n            tag_389:\n                /* \"#utility.yul\":4160:4382   */\n              swap3\n              swap2\n              pop\n              pop\n              jump\t// out\n                /* \"#utility.yul\":4388:6084   */\n            tag_64:\n                /* \"#utility.yul\":4842:4846   */\n              0x00\n                /* \"#utility.yul\":4880:4883   */\n              0x0160\n                /* \"#utility.yul\":4869:4878   */\n              dup3\n                /* \"#utility.yul\":4865:4884   */\n              add\n                /* \"#utility.yul\":4857:4884   */\n              swap1\n              pop\n                /* \"#utility.yul\":4894:4965   */\n              tag_391\n                /* \"#utility.yul\":4962:4963   */\n              0x00\n                /* \"#utility.yul\":4951:4960   */\n              dup4\n                /* \"#utility.yul\":4947:4964   */\n              add\n                /* \"#utility.yul\":4938:4944   */\n              dup15\n                /* \"#utility.yul\":4894:4965   */\n              tag_300\n              jump\t// in\n            tag_391:\n                /* \"#utility.yul\":4975:5047   */\n              tag_392\n                /* \"#utility.yul\":5043:5045   */\n              0x20\n                /* \"#utility.yul\":5032:5041   */\n              dup4\n                /* \"#utility.yul\":5028:5046   */\n              add\n                /* \"#utility.yul\":5019:5025   */\n              dup14\n                /* \"#utility.yul\":4975:5047   */\n              tag_300\n              jump\t// in\n            tag_392:\n                /* \"#utility.yul\":5057:5129   */\n              tag_393\n                /* \"#utility.yul\":5125:5127   */\n              0x40\n                /* \"#utility.yul\":5114:5123   */\n              dup4\n                /* \"#utility.yul\":5110:5128   */\n              add\n                /* \"#utility.yul\":5101:5107   */\n              dup13\n                /* \"#utility.yul\":5057:5129   */\n              tag_300\n              jump\t// in\n            tag_393:\n                /* \"#utility.yul\":5139:5211   */\n              tag_394\n                /* \"#utility.yul\":5207:5209   */\n              0x60\n                /* \"#utility.yul\":5196:5205   */\n              dup4\n                /* \"#utility.yul\":5192:5210   */\n              add\n                /* \"#utility.yul\":5183:5189   */\n              dup12\n                /* \"#utility.yul\":5139:5211   */\n              tag_300\n              jump\t// in\n            tag_394:\n                /* \"#utility.yul\":5221:5294   */\n              tag_395\n                /* \"#utility.yul\":5289:5292   */\n              0x80\n                /* \"#utility.yul\":5278:5287   */\n              dup4\n                /* \"#utility.yul\":5274:5293   */\n              add\n                /* \"#utility.yul\":5265:5271   */\n              dup11\n                /* \"#utility.yul\":5221:5294   */\n              tag_299\n              jump\t// in\n            tag_395:\n                /* \"#utility.yul\":5342:5351   */\n              dup2\n                /* \"#utility.yul\":5336:5340   */\n              dup2\n                /* \"#utility.yul\":5332:5352   */\n              sub\n                /* \"#utility.yul\":5326:5329   */\n              0xa0\n                /* \"#utility.yul\":5315:5324   */\n              dup4\n                /* \"#utility.yul\":5311:5330   */\n              add\n                /* \"#utility.yul\":5304:5353   */\n              mstore\n                /* \"#utility.yul\":5370:5448   */\n              tag_396\n                /* \"#utility.yul\":5443:5447   */\n              dup2\n                /* \"#utility.yul\":5434:5440   */\n              dup10\n                /* \"#utility.yul\":5370:5448   */\n              tag_298\n              jump\t// in\n            tag_396:\n                /* \"#utility.yul\":5362:5448   */\n              swap1\n              pop\n                /* \"#utility.yul\":5496:5505   */\n              dup2\n                /* \"#utility.yul\":5490:5494   */\n              dup2\n                /* \"#utility.yul\":5486:5506   */\n              sub\n                /* \"#utility.yul\":5480:5483   */\n              0xc0\n                /* \"#utility.yul\":5469:5478   */\n              dup4\n                /* \"#utility.yul\":5465:5484   */\n              add\n                /* \"#utility.yul\":5458:5507   */\n              mstore\n                /* \"#utility.yul\":5524:5602   */\n              tag_397\n                /* \"#utility.yul\":5597:5601   */\n              dup2\n                /* \"#utility.yul\":5588:5594   */\n              dup9\n                /* \"#utility.yul\":5524:5602   */\n              tag_298\n              jump\t// in\n            tag_397:\n                /* \"#utility.yul\":5516:5602   */\n              swap1\n              pop\n                /* \"#utility.yul\":5650:5659   */\n              dup2\n                /* \"#utility.yul\":5644:5648   */\n              dup2\n                /* \"#utility.yul\":5640:5660   */\n              sub\n                /* \"#utility.yul\":5634:5637   */\n              0xe0\n                /* \"#utility.yul\":5623:5632   */\n              dup4\n                /* \"#utility.yul\":5619:5638   */\n              add\n                /* \"#utility.yul\":5612:5661   */\n              mstore\n                /* \"#utility.yul\":5678:5756   */\n              tag_398\n                /* \"#utility.yul\":5751:5755   */\n              dup2\n                /* \"#utility.yul\":5742:5748   */\n              dup8\n                /* \"#utility.yul\":5678:5756   */\n              tag_298\n              jump\t// in\n            tag_398:\n                /* \"#utility.yul\":5670:5756   */\n              swap1\n              pop\n                /* \"#utility.yul\":5766:5839   */\n              tag_399\n                /* \"#utility.yul\":5834:5837   */\n              0x0100\n                /* \"#utility.yul\":5823:5832   */\n              dup4\n                /* \"#utility.yul\":5819:5838   */\n              add\n                /* \"#utility.yul\":5810:5816   */\n              dup7\n                /* \"#utility.yul\":5766:5839   */\n              tag_300\n              jump\t// in\n            tag_399:\n                /* \"#utility.yul\":5887:5896   */\n              dup2\n                /* \"#utility.yul\":5881:5885   */\n              dup2\n                /* \"#utility.yul\":5877:5897   */\n              sub\n                /* \"#utility.yul\":5871:5874   */\n              0x0120\n                /* \"#utility.yul\":5860:5869   */\n              dup4\n                /* \"#utility.yul\":5856:5875   */\n              add\n                /* \"#utility.yul\":5849:5898   */\n              mstore\n                /* \"#utility.yul\":5915:5993   */\n              tag_400\n                /* \"#utility.yul\":5988:5992   */\n              dup2\n                /* \"#utility.yul\":5979:5985   */\n              dup6\n                /* \"#utility.yul\":5915:5993   */\n              tag_298\n              jump\t// in\n            tag_400:\n                /* \"#utility.yul\":5907:5993   */\n              swap1\n              pop\n                /* \"#utility.yul\":6003:6077   */\n              tag_401\n                /* \"#utility.yul\":6072:6075   */\n              0x0140\n                /* \"#utility.yul\":6061:6070   */\n              dup4\n                /* \"#utility.yul\":6057:6076   */\n              add\n                /* \"#utility.yul\":6047:6054   */\n              dup5\n                /* \"#utility.yul\":6003:6077   */\n              tag_300\n              jump\t// in\n            tag_401:\n                /* \"#utility.yul\":4388:6084   */\n              swap13\n              swap12\n              pop\n              pop\n              pop\n              pop\n              pop\n              pop\n              pop\n              pop\n              pop\n              pop\n              pop\n              pop\n              jump\t// out\n                /* \"#utility.yul\":6090:6194   */\n            tag_301:\n                /* \"#utility.yul\":6135:6142   */\n              0x00\n                /* \"#utility.yul\":6164:6188   */\n              tag_403\n                /* \"#utility.yul\":6182:6187   */\n              dup3\n                /* \"#utility.yul\":6164:6188   */\n              tag_288\n              jump\t// in\n            tag_403:\n                /* \"#utility.yul\":6153:6188   */\n              swap1\n              pop\n                /* \"#utility.yul\":6090:6194   */\n              swap2\n              swap1\n              pop\n              jump\t// out\n                /* \"#utility.yul\":6200:6342   */\n            tag_302:\n                /* \"#utility.yul\":6303:6335   */\n              tag_405\n                /* \"#utility.yul\":6329:6334   */\n              dup2\n                /* \"#utility.yul\":6303:6335   */\n              tag_301\n              jump\t// in\n            tag_405:\n                /* \"#utility.yul\":6298:6301   */\n              dup3\n                /* \"#utility.yul\":6291:6336   */\n              mstore\n                /* \"#utility.yul\":6200:6342   */\n              pop\n              pop\n              jump\t// out\n                /* \"#utility.yul\":6348:7123   */\n            tag_78:\n                /* \"#utility.yul\":6583:6587   */\n              0x00\n                /* \"#utility.yul\":6621:6624   */\n              0xa0\n                /* \"#utility.yul\":6610:6619   */\n              dup3\n                /* \"#utility.yul\":6606:6625   */\n              add\n                /* \"#utility.yul\":6598:6625   */\n              swap1\n              pop\n                /* \"#utility.yul\":6671:6680   */\n              dup2\n                /* \"#utility.yul\":6665:6669   */\n              dup2\n                /* \"#utility.yul\":6661:6681   */\n              sub\n                /* \"#utility.yul\":6657:6658   */\n              0x00\n                /* \"#utility.yul\":6646:6655   */\n              dup4\n                /* \"#utility.yul\":6642:6659   */\n              add\n                /* \"#utility.yul\":6635:6682   */\n              mstore\n                /* \"#utility.yul\":6699:6777   */\n              tag_407\n                /* \"#utility.yul\":6772:6776   */\n              dup2\n                /* \"#utility.yul\":6763:6769   */\n              dup9\n                /* \"#utility.yul\":6699:6777   */\n              tag_298\n              jump\t// in\n            tag_407:\n                /* \"#utility.yul\":6691:6777   */\n              swap1\n              pop\n                /* \"#utility.yul\":6787:6859   */\n              tag_408\n                /* \"#utility.yul\":6855:6857   */\n              0x20\n                /* \"#utility.yul\":6844:6853   */\n              dup4\n                /* \"#utility.yul\":6840:6858   */\n              add\n                /* \"#utility.yul\":6831:6837   */\n              dup8\n                /* \"#utility.yul\":6787:6859   */\n              tag_300\n              jump\t// in\n            tag_408:\n                /* \"#utility.yul\":6869:6957   */\n              tag_409\n                /* \"#utility.yul\":6953:6955   */\n              0x40\n                /* \"#utility.yul\":6942:6951   */\n              dup4\n                /* \"#utility.yul\":6938:6956   */\n              add\n                /* \"#utility.yul\":6929:6935   */\n              dup7\n                /* \"#utility.yul\":6869:6957   */\n              tag_302\n              jump\t// in\n            tag_409:\n                /* \"#utility.yul\":6967:7033   */\n              tag_410\n                /* \"#utility.yul\":7029:7031   */\n              0x60\n                /* \"#utility.yul\":7018:7027   */\n              dup4\n                /* \"#utility.yul\":7014:7032   */\n              add\n                /* \"#utility.yul\":7005:7011   */\n              dup6\n                /* \"#utility.yul\":6967:7033   */\n              tag_293\n              jump\t// in\n            tag_410:\n                /* \"#utility.yul\":7043:7116   */\n              tag_411\n                /* \"#utility.yul\":7111:7114   */\n              0x80\n                /* \"#utility.yul\":7100:7109   */\n              dup4\n                /* \"#utility.yul\":7096:7115   */\n              add\n                /* \"#utility.yul\":7087:7093   */\n              dup5\n                /* \"#utility.yul\":7043:7116   */\n              tag_300\n              jump\t// in\n            tag_411:\n                /* \"#utility.yul\":6348:7123   */\n              swap7\n              swap6\n              pop\n              pop\n              pop\n              pop\n              pop\n              pop\n              jump\t// out\n                /* \"#utility.yul\":7129:7246   */\n            tag_303:\n                /* \"#utility.yul\":7238:7239   */\n              0x00\n                /* \"#utility.yul\":7235:7236   */\n              dup1\n                /* \"#utility.yul\":7228:7240   */\n              revert\n                /* \"#utility.yul\":7252:7369   */\n            tag_304:\n                /* \"#utility.yul\":7361:7362   */\n              0x00\n                /* \"#utility.yul\":7358:7359   */\n              dup1\n                /* \"#utility.yul\":7351:7363   */\n              revert\n                /* \"#utility.yul\":7375:7555   */\n            tag_305:\n                /* \"#utility.yul\":7423:7500   */\n              0x4e487b7100000000000000000000000000000000000000000000000000000000\n                /* \"#utility.yul\":7420:7421   */\n              0x00\n                /* \"#utility.yul\":7413:7501   */\n              mstore\n                /* \"#utility.yul\":7520:7524   */\n              0x41\n                /* \"#utility.yul\":7517:7518   */\n              0x04\n                /* \"#utility.yul\":7510:7525   */\n              mstore\n                /* \"#utility.yul\":7544:7548   */\n              0x24\n                /* \"#utility.yul\":7541:7542   */\n              0x00\n                /* \"#utility.yul\":7534:7549   */\n              revert\n                /* \"#utility.yul\":7561:7842   */\n            tag_306:\n                /* \"#utility.yul\":7644:7671   */\n              tag_416\n                /* \"#utility.yul\":7666:7670   */\n              dup3\n                /* \"#utility.yul\":7644:7671   */\n              tag_297\n              jump\t// in\n            tag_416:\n                /* \"#utility.yul\":7636:7642   */\n              dup2\n                /* \"#utility.yul\":7632:7672   */\n              add\n                /* \"#utility.yul\":7774:7780   */\n              dup2\n                /* \"#utility.yul\":7762:7772   */\n              dup2\n                /* \"#utility.yul\":7759:7781   */\n              lt\n                /* \"#utility.yul\":7738:7756   */\n              0xffffffffffffffff\n                /* \"#utility.yul\":7726:7736   */\n              dup3\n                /* \"#utility.yul\":7723:7757   */\n              gt\n                /* \"#utility.yul\":7720:7782   */\n              or\n                /* \"#utility.yul\":7717:7805   */\n              iszero\n              tag_417\n              jumpi\n                /* \"#utility.yul\":7785:7803   */\n              tag_418\n              tag_305\n              jump\t// in\n            tag_418:\n                /* \"#utility.yul\":7717:7805   */\n            tag_417:\n                /* \"#utility.yul\":7825:7835   */\n              dup1\n                /* \"#utility.yul\":7821:7823   */\n              0x40\n                /* \"#utility.yul\":7814:7836   */\n              mstore\n                /* \"#utility.yul\":7604:7842   */\n              pop\n                /* \"#utility.yul\":7561:7842   */\n              pop\n              pop\n              jump\t// out\n                /* \"#utility.yul\":7848:7977   */\n            tag_307:\n                /* \"#utility.yul\":7882:7888   */\n              0x00\n                /* \"#utility.yul\":7909:7929   */\n              tag_420\n              tag_282\n              jump\t// in\n            tag_420:\n                /* \"#utility.yul\":7899:7929   */\n              swap1\n              pop\n                /* \"#utility.yul\":7938:7971   */\n              tag_421\n                /* \"#utility.yul\":7966:7970   */\n              dup3\n                /* \"#utility.yul\":7958:7964   */\n              dup3\n                /* \"#utility.yul\":7938:7971   */\n              tag_306\n              jump\t// in\n            tag_421:\n                /* \"#utility.yul\":7848:7977   */\n              swap2\n              swap1\n              pop\n              jump\t// out\n                /* \"#utility.yul\":7983:8291   */\n            tag_308:\n                /* \"#utility.yul\":8045:8049   */\n              0x00\n                /* \"#utility.yul\":8135:8153   */\n              0xffffffffffffffff\n                /* \"#utility.yul\":8127:8133   */\n              dup3\n                /* \"#utility.yul\":8124:8154   */\n              gt\n                /* \"#utility.yul\":8121:8177   */\n              iszero\n              tag_423\n              jumpi\n                /* \"#utility.yul\":8157:8175   */\n              tag_424\n              tag_305\n              jump\t// in\n            tag_424:\n                /* \"#utility.yul\":8121:8177   */\n            tag_423:\n                /* \"#utility.yul\":8195:8224   */\n              tag_425\n                /* \"#utility.yul\":8217:8223   */\n              dup3\n                /* \"#utility.yul\":8195:8224   */\n              tag_297\n              jump\t// in\n            tag_425:\n                /* \"#utility.yul\":8187:8224   */\n              swap1\n              pop\n                /* \"#utility.yul\":8279:8283   */\n              0x20\n                /* \"#utility.yul\":8273:8277   */\n              dup2\n                /* \"#utility.yul\":8269:8284   */\n              add\n                /* \"#utility.yul\":8261:8284   */\n              swap1\n              pop\n                /* \"#utility.yul\":7983:8291   */\n              swap2\n              swap1\n              pop\n              jump\t// out\n                /* \"#utility.yul\":8297:8451   */\n            tag_309:\n                /* \"#utility.yul\":8381:8387   */\n              dup3\n                /* \"#utility.yul\":8376:8379   */\n              dup2\n                /* \"#utility.yul\":8371:8374   */\n              dup4\n                /* \"#utility.yul\":8358:8388   */\n              calldatacopy\n                /* \"#utility.yul\":8443:8444   */\n              0x00\n                /* \"#utility.yul\":8434:8440   */\n              dup4\n                /* \"#utility.yul\":8429:8432   */\n              dup4\n                /* \"#utility.yul\":8425:8441   */\n              add\n                /* \"#utility.yul\":8418:8445   */\n              mstore\n                /* \"#utility.yul\":8297:8451   */\n              pop\n              pop\n              pop\n              jump\t// out\n                /* \"#utility.yul\":8457:8869   */\n            tag_310:\n                /* \"#utility.yul\":8535:8540   */\n              0x00\n                /* \"#utility.yul\":8560:8626   */\n              tag_428\n                /* \"#utility.yul\":8576:8625   */\n              tag_429\n                /* \"#utility.yul\":8618:8624   */\n              dup5\n                /* \"#utility.yul\":8576:8625   */\n              tag_308\n              jump\t// in\n            tag_429:\n                /* \"#utility.yul\":8560:8626   */\n              tag_307\n              jump\t// in\n            tag_428:\n                /* \"#utility.yul\":8551:8626   */\n              swap1\n              pop\n                /* \"#utility.yul\":8649:8655   */\n              dup3\n                /* \"#utility.yul\":8642:8647   */\n              dup2\n                /* \"#utility.yul\":8635:8656   */\n              mstore\n                /* \"#utility.yul\":8687:8691   */\n              0x20\n                /* \"#utility.yul\":8680:8685   */\n              dup2\n                /* \"#utility.yul\":8676:8692   */\n              add\n                /* \"#utility.yul\":8725:8728   */\n              dup5\n                /* \"#utility.yul\":8716:8722   */\n              dup5\n                /* \"#utility.yul\":8711:8714   */\n              dup5\n                /* \"#utility.yul\":8707:8723   */\n              add\n                /* \"#utility.yul\":8704:8729   */\n              gt\n                /* \"#utility.yul\":8701:8813   */\n              iszero\n              tag_430\n              jumpi\n                /* \"#utility.yul\":8732:8811   */\n              tag_431\n              tag_304\n              jump\t// in\n            tag_431:\n                /* \"#utility.yul\":8701:8813   */\n            tag_430:\n                /* \"#utility.yul\":8822:8863   */\n              tag_432\n                /* \"#utility.yul\":8856:8862   */\n              dup5\n                /* \"#utility.yul\":8851:8854   */\n              dup3\n                /* \"#utility.yul\":8846:8849   */\n              dup6\n                /* \"#utility.yul\":8822:8863   */\n              tag_309\n              jump\t// in\n            tag_432:\n                /* \"#utility.yul\":8541:8869   */\n              pop\n                /* \"#utility.yul\":8457:8869   */\n              swap4\n              swap3\n              pop\n              pop\n              pop\n              jump\t// out\n                /* \"#utility.yul\":8889:9229   */\n            tag_311:\n                /* \"#utility.yul\":8945:8950   */\n              0x00\n                /* \"#utility.yul\":8994:8997   */\n              dup3\n                /* \"#utility.yul\":8987:8991   */\n              0x1f\n                /* \"#utility.yul\":8979:8985   */\n              dup4\n                /* \"#utility.yul\":8975:8992   */\n              add\n                /* \"#utility.yul\":8971:8998   */\n              slt\n                /* \"#utility.yul\":8961:9083   */\n              tag_434\n              jumpi\n                /* \"#utility.yul\":9002:9081   */\n              tag_435\n              tag_303\n              jump\t// in\n            tag_435:\n                /* \"#utility.yul\":8961:9083   */\n            tag_434:\n                /* \"#utility.yul\":9119:9125   */\n              dup2\n                /* \"#utility.yul\":9106:9126   */\n              calldataload\n                /* \"#utility.yul\":9144:9223   */\n              tag_436\n                /* \"#utility.yul\":9219:9222   */\n              dup5\n                /* \"#utility.yul\":9211:9217   */\n              dup3\n                /* \"#utility.yul\":9204:9208   */\n              0x20\n                /* \"#utility.yul\":9196:9202   */\n              dup7\n                /* \"#utility.yul\":9192:9209   */\n              add\n                /* \"#utility.yul\":9144:9223   */\n              tag_310\n              jump\t// in\n            tag_436:\n                /* \"#utility.yul\":9135:9223   */\n              swap2\n              pop\n                /* \"#utility.yul\":8951:9229   */\n              pop\n                /* \"#utility.yul\":8889:9229   */\n              swap3\n              swap2\n              pop\n              pop\n              jump\t// out\n                /* \"#utility.yul\":9235:9373   */\n            tag_312:\n                /* \"#utility.yul\":9316:9348   */\n              tag_438\n                /* \"#utility.yul\":9342:9347   */\n              dup2\n                /* \"#utility.yul\":9316:9348   */\n              tag_301\n              jump\t// in\n            tag_438:\n                /* \"#utility.yul\":9309:9314   */\n              dup2\n                /* \"#utility.yul\":9306:9349   */\n              eq\n                /* \"#utility.yul\":9296:9367   */\n              tag_439\n              jumpi\n                /* \"#utility.yul\":9363:9364   */\n              0x00\n                /* \"#utility.yul\":9360:9361   */\n              dup1\n                /* \"#utility.yul\":9353:9365   */\n              revert\n                /* \"#utility.yul\":9296:9367   */\n            tag_439:\n                /* \"#utility.yul\":9235:9373   */\n              pop\n              jump\t// out\n                /* \"#utility.yul\":9379:9534   */\n            tag_313:\n                /* \"#utility.yul\":9433:9438   */\n              0x00\n                /* \"#utility.yul\":9471:9477   */\n              dup2\n                /* \"#utility.yul\":9458:9478   */\n              calldataload\n                /* \"#utility.yul\":9449:9478   */\n              swap1\n              pop\n                /* \"#utility.yul\":9487:9528   */\n              tag_441\n                /* \"#utility.yul\":9522:9527   */\n              dup2\n                /* \"#utility.yul\":9487:9528   */\n              tag_312\n              jump\t// in\n            tag_441:\n                /* \"#utility.yul\":9379:9534   */\n              swap3\n              swap2\n              pop\n              pop\n              jump\t// out\n                /* \"#utility.yul\":9540:10355   */\n            tag_86:\n                /* \"#utility.yul\":9635:9641   */\n              0x00\n                /* \"#utility.yul\":9643:9649   */\n              dup1\n                /* \"#utility.yul\":9651:9657   */\n              0x00\n                /* \"#utility.yul\":9700:9702   */\n              0x60\n                /* \"#utility.yul\":9688:9697   */\n              dup5\n                /* \"#utility.yul\":9679:9686   */\n              dup7\n                /* \"#utility.yul\":9675:9698   */\n              sub\n                /* \"#utility.yul\":9671:9703   */\n              slt\n                /* \"#utility.yul\":9668:9787   */\n              iszero\n              tag_443\n              jumpi\n                /* \"#utility.yul\":9706:9785   */\n              tag_444\n              tag_283\n              jump\t// in\n            tag_444:\n                /* \"#utility.yul\":9668:9787   */\n            tag_443:\n                /* \"#utility.yul\":9854:9855   */\n              0x00\n                /* \"#utility.yul\":9843:9852   */\n              dup5\n                /* \"#utility.yul\":9839:9856   */\n              add\n                /* \"#utility.yul\":9826:9857   */\n              calldataload\n                /* \"#utility.yul\":9884:9902   */\n              0xffffffffffffffff\n                /* \"#utility.yul\":9876:9882   */\n              dup2\n                /* \"#utility.yul\":9873:9903   */\n              gt\n                /* \"#utility.yul\":9870:9987   */\n              iszero\n              tag_445\n              jumpi\n                /* \"#utility.yul\":9906:9985   */\n              tag_446\n              tag_284\n              jump\t// in\n            tag_446:\n                /* \"#utility.yul\":9870:9987   */\n            tag_445:\n                /* \"#utility.yul\":10011:10074   */\n              tag_447\n                /* \"#utility.yul\":10066:10073   */\n              dup7\n                /* \"#utility.yul\":10057:10063   */\n              dup3\n                /* \"#utility.yul\":10046:10055   */\n              dup8\n                /* \"#utility.yul\":10042:10064   */\n              add\n                /* \"#utility.yul\":10011:10074   */\n              tag_311\n              jump\t// in\n            tag_447:\n                /* \"#utility.yul\":10001:10074   */\n              swap4\n              pop\n                /* \"#utility.yul\":9797:10084   */\n              pop\n                /* \"#utility.yul\":10123:10125   */\n              0x20\n                /* \"#utility.yul\":10149:10202   */\n              tag_448\n                /* \"#utility.yul\":10194:10201   */\n              dup7\n                /* \"#utility.yul\":10185:10191   */\n              dup3\n                /* \"#utility.yul\":10174:10183   */\n              dup8\n                /* \"#utility.yul\":10170:10192   */\n              add\n                /* \"#utility.yul\":10149:10202   */\n              tag_287\n              jump\t// in\n            tag_448:\n                /* \"#utility.yul\":10139:10202   */\n              swap3\n              pop\n                /* \"#utility.yul\":10094:10212   */\n              pop\n                /* \"#utility.yul\":10251:10253   */\n              0x40\n                /* \"#utility.yul\":10277:10338   */\n              tag_449\n                /* \"#utility.yul\":10330:10337   */\n              dup7\n                /* \"#utility.yul\":10321:10327   */\n              dup3\n                /* \"#utility.yul\":10310:10319   */\n              dup8\n                /* \"#utility.yul\":10306:10328   */\n              add\n                /* \"#utility.yul\":10277:10338   */\n              tag_313\n              jump\t// in\n            tag_449:\n                /* \"#utility.yul\":10267:10338   */\n              swap2\n              pop\n                /* \"#utility.yul\":10222:10348   */\n              pop\n                /* \"#utility.yul\":9540:10355   */\n              swap3\n              pop\n              swap3\n              pop\n              swap3\n              jump\t// out\n                /* \"#utility.yul\":10361:10587   */\n            tag_314:\n                /* \"#utility.yul\":10501:10535   */\n              0x4f6e6c7920746865206d616e616765722063616e2063616c6c20746869732066\n                /* \"#utility.yul\":10497:10498   */\n              0x00\n                /* \"#utility.yul\":10489:10495   */\n              dup3\n                /* \"#utility.yul\":10485:10499   */\n              add\n                /* \"#utility.yul\":10478:10536   */\n              mstore\n                /* \"#utility.yul\":10570:10579   */\n              0x756e6374696f6e00000000000000000000000000000000000000000000000000\n                /* \"#utility.yul\":10565:10567   */\n              0x20\n                /* \"#utility.yul\":10557:10563   */\n              dup3\n                /* \"#utility.yul\":10553:10568   */\n              add\n                /* \"#utility.yul\":10546:10580   */\n              mstore\n                /* \"#utility.yul\":10361:10587   */\n              pop\n              jump\t// out\n                /* \"#utility.yul\":10593:10959   */\n            tag_315:\n                /* \"#utility.yul\":10735:10738   */\n              0x00\n                /* \"#utility.yul\":10756:10823   */\n              tag_452\n                /* \"#utility.yul\":10820:10822   */\n              0x27\n                /* \"#utility.yul\":10815:10818   */\n              dup4\n                /* \"#utility.yul\":10756:10823   */\n              tag_295\n              jump\t// in\n            tag_452:\n                /* \"#utility.yul\":10749:10823   */\n              swap2\n              pop\n                /* \"#utility.yul\":10832:10925   */\n              tag_453\n                /* \"#utility.yul\":10921:10924   */\n              dup3\n                /* \"#utility.yul\":10832:10925   */\n              tag_314\n              jump\t// in\n            tag_453:\n                /* \"#utility.yul\":10950:10952   */\n              0x40\n                /* \"#utility.yul\":10945:10948   */\n              dup3\n                /* \"#utility.yul\":10941:10953   */\n              add\n                /* \"#utility.yul\":10934:10953   */\n              swap1\n              pop\n                /* \"#utility.yul\":10593:10959   */\n              swap2\n              swap1\n              pop\n              jump\t// out\n                /* \"#utility.yul\":10965:11384   */\n            tag_133:\n                /* \"#utility.yul\":11131:11135   */\n              0x00\n                /* \"#utility.yul\":11169:11171   */\n              0x20\n                /* \"#utility.yul\":11158:11167   */\n              dup3\n                /* \"#utility.yul\":11154:11172   */\n              add\n                /* \"#utility.yul\":11146:11172   */\n              swap1\n              pop\n                /* \"#utility.yul\":11218:11227   */\n              dup2\n                /* \"#utility.yul\":11212:11216   */\n              dup2\n                /* \"#utility.yul\":11208:11228   */\n              sub\n                /* \"#utility.yul\":11204:11205   */\n              0x00\n                /* \"#utility.yul\":11193:11202   */\n              dup4\n                /* \"#utility.yul\":11189:11206   */\n              add\n                /* \"#utility.yul\":11182:11229   */\n              mstore\n                /* \"#utility.yul\":11246:11377   */\n              tag_455\n                /* \"#utility.yul\":11372:11376   */\n              dup2\n                /* \"#utility.yul\":11246:11377   */\n              tag_315\n              jump\t// in\n            tag_455:\n                /* \"#utility.yul\":11238:11377   */\n              swap1\n              pop\n                /* \"#utility.yul\":10965:11384   */\n              swap2\n              swap1\n              pop\n              jump\t// out\n                /* \"#utility.yul\":11390:11570   */\n            tag_316:\n                /* \"#utility.yul\":11438:11515   */\n              0x4e487b7100000000000000000000000000000000000000000000000000000000\n                /* \"#utility.yul\":11435:11436   */\n              0x00\n                /* \"#utility.yul\":11428:11516   */\n              mstore\n                /* \"#utility.yul\":11535:11539   */\n              0x12\n                /* \"#utility.yul\":11532:11533   */\n              0x04\n                /* \"#utility.yul\":11525:11540   */\n              mstore\n                /* \"#utility.yul\":11559:11563   */\n              0x24\n                /* \"#utility.yul\":11556:11557   */\n              0x00\n                /* \"#utility.yul\":11549:11564   */\n              revert\n                /* \"#utility.yul\":11576:11756   */\n            tag_317:\n                /* \"#utility.yul\":11624:11701   */\n              0x4e487b7100000000000000000000000000000000000000000000000000000000\n                /* \"#utility.yul\":11621:11622   */\n              0x00\n                /* \"#utility.yul\":11614:11702   */\n              mstore\n                /* \"#utility.yul\":11721:11725   */\n              0x11\n                /* \"#utility.yul\":11718:11719   */\n              0x04\n                /* \"#utility.yul\":11711:11726   */\n              mstore\n                /* \"#utility.yul\":11745:11749   */\n              0x24\n                /* \"#utility.yul\":11742:11743   */\n              0x00\n                /* \"#utility.yul\":11735:11750   */\n              revert\n                /* \"#utility.yul\":11762:11947   */\n            tag_136:\n                /* \"#utility.yul\":11802:11803   */\n              0x00\n                /* \"#utility.yul\":11819:11839   */\n              tag_459\n                /* \"#utility.yul\":11837:11838   */\n              dup3\n                /* \"#utility.yul\":11819:11839   */\n              tag_285\n              jump\t// in\n            tag_459:\n                /* \"#utility.yul\":11814:11839   */\n              swap2\n              pop\n                /* \"#utility.yul\":11853:11873   */\n              tag_460\n                /* \"#utility.yul\":11871:11872   */\n              dup4\n                /* \"#utility.yul\":11853:11873   */\n              tag_285\n              jump\t// in\n            tag_460:\n                /* \"#utility.yul\":11848:11873   */\n              swap3\n              pop\n                /* \"#utility.yul\":11892:11893   */\n              dup3\n                /* \"#utility.yul\":11882:11917   */\n              tag_461\n              jumpi\n                /* \"#utility.yul\":11897:11915   */\n              tag_462\n              tag_316\n              jump\t// in\n            tag_462:\n                /* \"#utility.yul\":11882:11917   */\n            tag_461:\n                /* \"#utility.yul\":11939:11940   */\n              dup3\n                /* \"#utility.yul\":11936:11937   */\n              dup3\n                /* \"#utility.yul\":11932:11941   */\n              div\n                /* \"#utility.yul\":11927:11941   */\n              swap1\n              pop\n                /* \"#utility.yul\":11762:11947   */\n              swap3\n              swap2\n              pop\n              pop\n              jump\t// out\n                /* \"#utility.yul\":11953:12123   */\n            tag_318:\n                /* \"#utility.yul\":12093:12115   */\n              0x4e6f7420656e6f75676820617070726f76616c73000000000000000000000000\n                /* \"#utility.yul\":12089:12090   */\n              0x00\n                /* \"#utility.yul\":12081:12087   */\n              dup3\n                /* \"#utility.yul\":12077:12091   */\n              add\n                /* \"#utility.yul\":12070:12116   */\n              mstore\n                /* \"#utility.yul\":11953:12123   */\n              pop\n              jump\t// out\n                /* \"#utility.yul\":12129:12495   */\n            tag_319:\n                /* \"#utility.yul\":12271:12274   */\n              0x00\n                /* \"#utility.yul\":12292:12359   */\n              tag_465\n                /* \"#utility.yul\":12356:12358   */\n              0x14\n                /* \"#utility.yul\":12351:12354   */\n              dup4\n                /* \"#utility.yul\":12292:12359   */\n              tag_295\n              jump\t// in\n            tag_465:\n                /* \"#utility.yul\":12285:12359   */\n              swap2\n              pop\n                /* \"#utility.yul\":12368:12461   */\n              tag_466\n                /* \"#utility.yul\":12457:12460   */\n              dup3\n                /* \"#utility.yul\":12368:12461   */\n              tag_318\n              jump\t// in\n            tag_466:\n                /* \"#utility.yul\":12486:12488   */\n              0x20\n                /* \"#utility.yul\":12481:12484   */\n              dup3\n                /* \"#utility.yul\":12477:12489   */\n              add\n                /* \"#utility.yul\":12470:12489   */\n              swap1\n              pop\n                /* \"#utility.yul\":12129:12495   */\n              swap2\n              swap1\n              pop\n              jump\t// out\n                /* \"#utility.yul\":12501:12920   */\n            tag_139:\n                /* \"#utility.yul\":12667:12671   */\n              0x00\n                /* \"#utility.yul\":12705:12707   */\n              0x20\n                /* \"#utility.yul\":12694:12703   */\n              dup3\n                /* \"#utility.yul\":12690:12708   */\n              add\n                /* \"#utility.yul\":12682:12708   */\n              swap1\n              pop\n                /* \"#utility.yul\":12754:12763   */\n              dup2\n                /* \"#utility.yul\":12748:12752   */\n              dup2\n                /* \"#utility.yul\":12744:12764   */\n              sub\n                /* \"#utility.yul\":12740:12741   */\n              0x00\n                /* \"#utility.yul\":12729:12738   */\n              dup4\n                /* \"#utility.yul\":12725:12742   */\n              add\n                /* \"#utility.yul\":12718:12765   */\n              mstore\n                /* \"#utility.yul\":12782:12913   */\n              tag_468\n                /* \"#utility.yul\":12908:12912   */\n              dup2\n                /* \"#utility.yul\":12782:12913   */\n              tag_319\n              jump\t// in\n            tag_468:\n                /* \"#utility.yul\":12774:12913   */\n              swap1\n              pop\n                /* \"#utility.yul\":12501:12920   */\n              swap2\n              swap1\n              pop\n              jump\t// out\n                /* \"#utility.yul\":12926:13101   */\n            tag_320:\n                /* \"#utility.yul\":13066:13093   */\n              0x5265717565737420616c72656164792066696e616c697a656400000000000000\n                /* \"#utility.yul\":13062:13063   */\n              0x00\n                /* \"#utility.yul\":13054:13060   */\n              dup3\n                /* \"#utility.yul\":13050:13064   */\n              add\n                /* \"#utility.yul\":13043:13094   */\n              mstore\n                /* \"#utility.yul\":12926:13101   */\n              pop\n              jump\t// out\n                /* \"#utility.yul\":13107:13473   */\n            tag_321:\n                /* \"#utility.yul\":13249:13252   */\n              0x00\n                /* \"#utility.yul\":13270:13337   */\n              tag_471\n                /* \"#utility.yul\":13334:13336   */\n              0x19\n                /* \"#utility.yul\":13329:13332   */\n              dup4\n                /* \"#utility.yul\":13270:13337   */\n              tag_295\n              jump\t// in\n            tag_471:\n                /* \"#utility.yul\":13263:13337   */\n              swap2\n              pop\n                /* \"#utility.yul\":13346:13439   */\n              tag_472\n                /* \"#utility.yul\":13435:13438   */\n              dup3\n                /* \"#utility.yul\":13346:13439   */\n              tag_320\n              jump\t// in\n            tag_472:\n                /* \"#utility.yul\":13464:13466   */\n              0x20\n                /* \"#utility.yul\":13459:13462   */\n              dup3\n                /* \"#utility.yul\":13455:13467   */\n              add\n                /* \"#utility.yul\":13448:13467   */\n              swap1\n              pop\n                /* \"#utility.yul\":13107:13473   */\n              swap2\n              swap1\n              pop\n              jump\t// out\n                /* \"#utility.yul\":13479:13898   */\n            tag_142:\n                /* \"#utility.yul\":13645:13649   */\n              0x00\n                /* \"#utility.yul\":13683:13685   */\n              0x20\n                /* \"#utility.yul\":13672:13681   */\n              dup3\n                /* \"#utility.yul\":13668:13686   */\n              add\n                /* \"#utility.yul\":13660:13686   */\n              swap1\n              pop\n                /* \"#utility.yul\":13732:13741   */\n              dup2\n                /* \"#utility.yul\":13726:13730   */\n              dup2\n                /* \"#utility.yul\":13722:13742   */\n              sub\n                /* \"#utility.yul\":13718:13719   */\n              0x00\n                /* \"#utility.yul\":13707:13716   */\n              dup4\n                /* \"#utility.yul\":13703:13720   */\n              add\n                /* \"#utility.yul\":13696:13743   */\n              mstore\n                /* \"#utility.yul\":13760:13891   */\n              tag_474\n                /* \"#utility.yul\":13886:13890   */\n              dup2\n                /* \"#utility.yul\":13760:13891   */\n              tag_321\n              jump\t// in\n            tag_474:\n                /* \"#utility.yul\":13752:13891   */\n              swap1\n              pop\n                /* \"#utility.yul\":13479:13898   */\n              swap2\n              swap1\n              pop\n              jump\t// out\n                /* \"#utility.yul\":13904:14051   */\n            tag_322:\n                /* \"#utility.yul\":14005:14016   */\n              0x00\n                /* \"#utility.yul\":14042:14045   */\n              dup2\n                /* \"#utility.yul\":14027:14045   */\n              swap1\n              pop\n                /* \"#utility.yul\":13904:14051   */\n              swap3\n              swap2\n              pop\n              pop\n              jump\t// out\n                /* \"#utility.yul\":14057:14171   */\n            tag_323:\n              pop\n              jump\t// out\n                /* \"#utility.yul\":14177:14575   */\n            tag_324:\n                /* \"#utility.yul\":14336:14339   */\n              0x00\n                /* \"#utility.yul\":14357:14440   */\n              tag_478\n                /* \"#utility.yul\":14438:14439   */\n              0x00\n                /* \"#utility.yul\":14433:14436   */\n              dup4\n                /* \"#utility.yul\":14357:14440   */\n              tag_322\n              jump\t// in\n            tag_478:\n                /* \"#utility.yul\":14350:14440   */\n              swap2\n              pop\n                /* \"#utility.yul\":14449:14542   */\n              tag_479\n                /* \"#utility.yul\":14538:14541   */\n              dup3\n                /* \"#utility.yul\":14449:14542   */\n              tag_323\n              jump\t// in\n            tag_479:\n                /* \"#utility.yul\":14567:14568   */\n              0x00\n                /* \"#utility.yul\":14562:14565   */\n              dup3\n                /* \"#utility.yul\":14558:14569   */\n              add\n                /* \"#utility.yul\":14551:14569   */\n              swap1\n              pop\n                /* \"#utility.yul\":14177:14575   */\n              swap2\n              swap1\n              pop\n              jump\t// out\n                /* \"#utility.yul\":14581:14960   */\n            tag_144:\n                /* \"#utility.yul\":14765:14768   */\n              0x00\n                /* \"#utility.yul\":14787:14934   */\n              tag_481\n                /* \"#utility.yul\":14930:14933   */\n              dup3\n                /* \"#utility.yul\":14787:14934   */\n              tag_324\n              jump\t// in\n            tag_481:\n                /* \"#utility.yul\":14780:14934   */\n              swap2\n              pop\n                /* \"#utility.yul\":14951:14954   */\n              dup2\n                /* \"#utility.yul\":14944:14954   */\n              swap1\n              pop\n                /* \"#utility.yul\":14581:14960   */\n              swap2\n              swap1\n              pop\n              jump\t// out\n                /* \"#utility.yul\":14966:15146   */\n            tag_325:\n                /* \"#utility.yul\":15014:15091   */\n              0x4e487b7100000000000000000000000000000000000000000000000000000000\n                /* \"#utility.yul\":15011:15012   */\n              0x00\n                /* \"#utility.yul\":15004:15092   */\n              mstore\n                /* \"#utility.yul\":15111:15115   */\n              0x22\n                /* \"#utility.yul\":15108:15109   */\n              0x04\n                /* \"#utility.yul\":15101:15116   */\n              mstore\n                /* \"#utility.yul\":15135:15139   */\n              0x24\n                /* \"#utility.yul\":15132:15133   */\n              0x00\n                /* \"#utility.yul\":15125:15140   */\n              revert\n                /* \"#utility.yul\":15152:15472   */\n            tag_150:\n                /* \"#utility.yul\":15196:15202   */\n              0x00\n                /* \"#utility.yul\":15233:15234   */\n              0x02\n                /* \"#utility.yul\":15227:15231   */\n              dup3\n                /* \"#utility.yul\":15223:15235   */\n              div\n                /* \"#utility.yul\":15213:15235   */\n              swap1\n              pop\n                /* \"#utility.yul\":15280:15281   */\n              0x01\n                /* \"#utility.yul\":15274:15278   */\n              dup3\n                /* \"#utility.yul\":15270:15282   */\n              and\n                /* \"#utility.yul\":15301:15319   */\n              dup1\n                /* \"#utility.yul\":15291:15372   */\n              tag_484\n              jumpi\n                /* \"#utility.yul\":15357:15361   */\n              0x7f\n                /* \"#utility.yul\":15349:15355   */\n              dup3\n                /* \"#utility.yul\":15345:15362   */\n              and\n                /* \"#utility.yul\":15335:15362   */\n              swap2\n              pop\n                /* \"#utility.yul\":15291:15372   */\n            tag_484:\n                /* \"#utility.yul\":15419:15421   */\n              0x20\n                /* \"#utility.yul\":15411:15417   */\n              dup3\n                /* \"#utility.yul\":15408:15422   */\n              lt\n                /* \"#utility.yul\":15388:15406   */\n              dup2\n                /* \"#utility.yul\":15385:15423   */\n              eq\n                /* \"#utility.yul\":15382:15466   */\n              iszero\n              tag_485\n              jumpi\n                /* \"#utility.yul\":15438:15456   */\n              tag_486\n              tag_325\n              jump\t// in\n            tag_486:\n                /* \"#utility.yul\":15382:15466   */\n            tag_485:\n                /* \"#utility.yul\":15203:15472   */\n              pop\n                /* \"#utility.yul\":15152:15472   */\n              swap2\n              swap1\n              pop\n              jump\t// out\n                /* \"#utility.yul\":15478:15711   */\n            tag_195:\n                /* \"#utility.yul\":15517:15520   */\n              0x00\n                /* \"#utility.yul\":15540:15564   */\n              tag_488\n                /* \"#utility.yul\":15558:15563   */\n              dup3\n                /* \"#utility.yul\":15540:15564   */\n              tag_285\n              jump\t// in\n            tag_488:\n                /* \"#utility.yul\":15531:15564   */\n              swap2\n              pop\n                /* \"#utility.yul\":15586:15652   */\n              0xffffffffffffffffffffffffffffffffffffffffffffffffffffffffffffffff\n                /* \"#utility.yul\":15579:15584   */\n              dup3\n                /* \"#utility.yul\":15576:15653   */\n              eq\n                /* \"#utility.yul\":15573:15676   */\n              iszero\n              tag_489\n              jumpi\n                /* \"#utility.yul\":15656:15674   */\n              tag_490\n              tag_317\n              jump\t// in\n            tag_490:\n                /* \"#utility.yul\":15573:15676   */\n            tag_489:\n                /* \"#utility.yul\":15703:15704   */\n              0x01\n                /* \"#utility.yul\":15696:15701   */\n              dup3\n                /* \"#utility.yul\":15692:15705   */\n              add\n                /* \"#utility.yul\":15685:15705   */\n              swap1\n              pop\n                /* \"#utility.yul\":15478:15711   */\n              swap2\n              swap1\n              pop\n              jump\t// out\n                /* \"#utility.yul\":15717:15886   */\n            tag_326:\n                /* \"#utility.yul\":15857:15878   */\n              0x746172676574206e6f7420616368696576656400000000000000000000000000\n                /* \"#utility.yul\":15853:15854   */\n              0x00\n                /* \"#utility.yul\":15845:15851   */\n              dup3\n                /* \"#utility.yul\":15841:15855   */\n              add\n                /* \"#utility.yul\":15834:15879   */\n              mstore\n                /* \"#utility.yul\":15717:15886   */\n              pop\n              jump\t// out\n                /* \"#utility.yul\":15892:16258   */\n            tag_327:\n                /* \"#utility.yul\":16034:16037   */\n              0x00\n                /* \"#utility.yul\":16055:16122   */\n              tag_493\n                /* \"#utility.yul\":16119:16121   */\n              0x13\n                /* \"#utility.yul\":16114:16117   */\n              dup4\n                /* \"#utility.yul\":16055:16122   */\n              tag_295\n              jump\t// in\n            tag_493:\n                /* \"#utility.yul\":16048:16122   */\n              swap2\n              pop\n                /* \"#utility.yul\":16131:16224   */\n              tag_494\n                /* \"#utility.yul\":16220:16223   */\n              dup3\n                /* \"#utility.yul\":16131:16224   */\n              tag_326\n              jump\t// in\n            tag_494:\n                /* \"#utility.yul\":16249:16251   */\n              0x20\n                /* \"#utility.yul\":16244:16247   */\n              dup3\n                /* \"#utility.yul\":16240:16252   */\n              add\n                /* \"#utility.yul\":16233:16252   */\n              swap1\n              pop\n                /* \"#utility.yul\":15892:16258   */\n              swap2\n              swap1\n              pop\n              jump\t// out\n                /* \"#utility.yul\":16264:16683   */\n            tag_215:\n                /* \"#utility.yul\":16430:16434   */\n              0x00\n                /* \"#utility.yul\":16468:16470   */\n              0x20\n                /* \"#utility.yul\":16457:16466   */\n              dup3\n                /* \"#utility.yul\":16453:16471   */\n              add\n                /* \"#utility.yul\":16445:16471   */\n              swap1\n              pop\n                /* \"#utility.yul\":16517:16526   */\n              dup2\n                /* \"#utility.yul\":16511:16515   */\n              dup2\n                /* \"#utility.yul\":16507:16527   */\n              sub\n                /* \"#utility.yul\":16503:16504   */\n              0x00\n                /* \"#utility.yul\":16492:16501   */\n              dup4\n                /* \"#utility.yul\":16488:16505   */\n              add\n                /* \"#utility.yul\":16481:16528   */\n              mstore\n                /* \"#utility.yul\":16545:16676   */\n              tag_496\n                /* \"#utility.yul\":16671:16675   */\n              dup2\n                /* \"#utility.yul\":16545:16676   */\n              tag_327\n              jump\t// in\n            tag_496:\n                /* \"#utility.yul\":16537:16676   */\n              swap1\n              pop\n                /* \"#utility.yul\":16264:16683   */\n              swap2\n              swap1\n              pop\n              jump\t// out\n                /* \"#utility.yul\":16689:16869   */\n            tag_229:\n                /* \"#utility.yul\":16737:16814   */\n              0x4e487b7100000000000000000000000000000000000000000000000000000000\n                /* \"#utility.yul\":16734:16735   */\n              0x00\n                /* \"#utility.yul\":16727:16815   */\n              mstore\n                /* \"#utility.yul\":16834:16838   */\n              0x32\n                /* \"#utility.yul\":16831:16832   */\n              0x04\n                /* \"#utility.yul\":16824:16839   */\n              mstore\n                /* \"#utility.yul\":16858:16862   */\n              0x24\n                /* \"#utility.yul\":16855:16856   */\n              0x00\n                /* \"#utility.yul\":16848:16863   */\n              revert\n                /* \"#utility.yul\":16875:17180   */\n            tag_232:\n                /* \"#utility.yul\":16915:16918   */\n              0x00\n                /* \"#utility.yul\":16934:16954   */\n              tag_499\n                /* \"#utility.yul\":16952:16953   */\n              dup3\n                /* \"#utility.yul\":16934:16954   */\n              tag_285\n              jump\t// in\n            tag_499:\n                /* \"#utility.yul\":16929:16954   */\n              swap2\n              pop\n                /* \"#utility.yul\":16968:16988   */\n              tag_500\n                /* \"#utility.yul\":16986:16987   */\n              dup4\n                /* \"#utility.yul\":16968:16988   */\n              tag_285\n              jump\t// in\n            tag_500:\n                /* \"#utility.yul\":16963:16988   */\n              swap3\n              pop\n                /* \"#utility.yul\":17122:17123   */\n              dup3\n                /* \"#utility.yul\":17054:17120   */\n              0xffffffffffffffffffffffffffffffffffffffffffffffffffffffffffffffff\n                /* \"#utility.yul\":17050:17124   */\n              sub\n                /* \"#utility.yul\":17047:17048   */\n              dup3\n                /* \"#utility.yul\":17044:17125   */\n              gt\n                /* \"#utility.yul\":17041:17148   */\n              iszero\n              tag_501\n              jumpi\n                /* \"#utility.yul\":17128:17146   */\n              tag_502\n              tag_317\n              jump\t// in\n            tag_502:\n                /* \"#utility.yul\":17041:17148   */\n            tag_501:\n                /* \"#utility.yul\":17172:17173   */\n              dup3\n                /* \"#utility.yul\":17169:17170   */\n              dup3\n                /* \"#utility.yul\":17165:17174   */\n              add\n                /* \"#utility.yul\":17158:17174   */\n              swap1\n              pop\n                /* \"#utility.yul\":16875:17180   */\n              swap3\n              swap2\n              pop\n              pop\n              jump\t// out\n                /* \"#utility.yul\":17186:17534   */\n            tag_235:\n                /* \"#utility.yul\":17226:17233   */\n              0x00\n                /* \"#utility.yul\":17249:17269   */\n              tag_504\n                /* \"#utility.yul\":17267:17268   */\n              dup3\n                /* \"#utility.yul\":17249:17269   */\n              tag_285\n              jump\t// in\n            tag_504:\n                /* \"#utility.yul\":17244:17269   */\n              swap2\n              pop\n                /* \"#utility.yul\":17283:17303   */\n              tag_505\n                /* \"#utility.yul\":17301:17302   */\n              dup4\n                /* \"#utility.yul\":17283:17303   */\n              tag_285\n              jump\t// in\n            tag_505:\n                /* \"#utility.yul\":17278:17303   */\n              swap3\n              pop\n                /* \"#utility.yul\":17471:17472   */\n              dup2\n                /* \"#utility.yul\":17403:17469   */\n              0xffffffffffffffffffffffffffffffffffffffffffffffffffffffffffffffff\n                /* \"#utility.yul\":17399:17473   */\n              div\n                /* \"#utility.yul\":17396:17397   */\n              dup4\n                /* \"#utility.yul\":17393:17474   */\n              gt\n                /* \"#utility.yul\":17388:17389   */\n              dup3\n                /* \"#utility.yul\":17381:17390   */\n              iszero\n                /* \"#utility.yul\":17374:17391   */\n              iszero\n                /* \"#utility.yul\":17370:17475   */\n              and\n                /* \"#utility.yul\":17367:17498   */\n              iszero\n              tag_506\n              jumpi\n                /* \"#utility.yul\":17478:17496   */\n              tag_507\n              tag_317\n              jump\t// in\n            tag_507:\n                /* \"#utility.yul\":17367:17498   */\n            tag_506:\n                /* \"#utility.yul\":17526:17527   */\n              dup3\n                /* \"#utility.yul\":17523:17524   */\n              dup3\n                /* \"#utility.yul\":17519:17528   */\n              mul\n                /* \"#utility.yul\":17508:17528   */\n              swap1\n              pop\n                /* \"#utility.yul\":17186:17534   */\n              swap3\n              swap2\n              pop\n              pop\n              jump\t// out\n                /* \"#utility.yul\":17540:17706   */\n            tag_328:\n                /* \"#utility.yul\":17680:17698   */\n              0x5472616e73666572206661696c65642e00000000000000000000000000000000\n                /* \"#utility.yul\":17676:17677   */\n              0x00\n                /* \"#utility.yul\":17668:17674   */\n              dup3\n                /* \"#utility.yul\":17664:17678   */\n              add\n                /* \"#utility.yul\":17657:17699   */\n              mstore\n                /* \"#utility.yul\":17540:17706   */\n              pop\n              jump\t// out\n                /* \"#utility.yul\":17712:18078   */\n            tag_329:\n                /* \"#utility.yul\":17854:17857   */\n              0x00\n                /* \"#utility.yul\":17875:17942   */\n              tag_510\n                /* \"#utility.yul\":17939:17941   */\n              0x10\n                /* \"#utility.yul\":17934:17937   */\n              dup4\n                /* \"#utility.yul\":17875:17942   */\n              tag_295\n              jump\t// in\n            tag_510:\n                /* \"#utility.yul\":17868:17942   */\n              swap2\n              pop\n                /* \"#utility.yul\":17951:18044   */\n              tag_511\n                /* \"#utility.yul\":18040:18043   */\n              dup3\n                /* \"#utility.yul\":17951:18044   */\n              tag_328\n              jump\t// in\n            tag_511:\n                /* \"#utility.yul\":18069:18071   */\n              0x20\n                /* \"#utility.yul\":18064:18067   */\n              dup3\n                /* \"#utility.yul\":18060:18072   */\n              add\n                /* \"#utility.yul\":18053:18072   */\n              swap1\n              pop\n                /* \"#utility.yul\":17712:18078   */\n              swap2\n              swap1\n              pop\n              jump\t// out\n                /* \"#utility.yul\":18084:18503   */\n            tag_245:\n                /* \"#utility.yul\":18250:18254   */\n              0x00\n                /* \"#utility.yul\":18288:18290   */\n              0x20\n                /* \"#utility.yul\":18277:18286   */\n              dup3\n                /* \"#utility.yul\":18273:18291   */\n              add\n                /* \"#utility.yul\":18265:18291   */\n              swap1\n              pop\n                /* \"#utility.yul\":18337:18346   */\n              dup2\n                /* \"#utility.yul\":18331:18335   */\n              dup2\n                /* \"#utility.yul\":18327:18347   */\n              sub\n                /* \"#utility.yul\":18323:18324   */\n              0x00\n                /* \"#utility.yul\":18312:18321   */\n              dup4\n                /* \"#utility.yul\":18308:18325   */\n              add\n                /* \"#utility.yul\":18301:18348   */\n              mstore\n                /* \"#utility.yul\":18365:18496   */\n              tag_513\n                /* \"#utility.yul\":18491:18495   */\n              dup2\n                /* \"#utility.yul\":18365:18496   */\n              tag_329\n              jump\t// in\n            tag_513:\n                /* \"#utility.yul\":18357:18496   */\n              swap1\n              pop\n                /* \"#utility.yul\":18084:18503   */\n              swap2\n              swap1\n              pop\n              jump\t// out\n                /* \"#utility.yul\":18509:18814   */\n            tag_330:\n                /* \"#utility.yul\":18649:18683   */\n              0x596f7520617265206e6f7420616e20617070726f76657221204f6e6c7920636f\n                /* \"#utility.yul\":18645:18646   */\n              0x00\n                /* \"#utility.yul\":18637:18643   */\n              dup3\n                /* \"#utility.yul\":18633:18647   */\n              add\n                /* \"#utility.yul\":18626:18684   */\n              mstore\n                /* \"#utility.yul\":18718:18752   */\n              0x6e7472696275746f72732063616e20617070726f766520612073706563696669\n                /* \"#utility.yul\":18713:18715   */\n              0x20\n                /* \"#utility.yul\":18705:18711   */\n              dup3\n                /* \"#utility.yul\":18701:18716   */\n              add\n                /* \"#utility.yul\":18694:18753   */\n              mstore\n                /* \"#utility.yul\":18787:18806   */\n              0x63207061796d656e742072657175657374000000000000000000000000000000\n                /* \"#utility.yul\":18782:18784   */\n              0x40\n                /* \"#utility.yul\":18774:18780   */\n              dup3\n                /* \"#utility.yul\":18770:18785   */\n              add\n                /* \"#utility.yul\":18763:18807   */\n              mstore\n                /* \"#utility.yul\":18509:18814   */\n              pop\n              jump\t// out\n                /* \"#utility.yul\":18820:19186   */\n            tag_331:\n                /* \"#utility.yul\":18962:18965   */\n              0x00\n                /* \"#utility.yul\":18983:19050   */\n              tag_516\n                /* \"#utility.yul\":19047:19049   */\n              0x51\n                /* \"#utility.yul\":19042:19045   */\n              dup4\n                /* \"#utility.yul\":18983:19050   */\n              tag_295\n              jump\t// in\n            tag_516:\n                /* \"#utility.yul\":18976:19050   */\n              swap2\n              pop\n                /* \"#utility.yul\":19059:19152   */\n              tag_517\n                /* \"#utility.yul\":19148:19151   */\n              dup3\n                /* \"#utility.yul\":19059:19152   */\n              tag_330\n              jump\t// in\n            tag_517:\n                /* \"#utility.yul\":19177:19179   */\n              0x60\n                /* \"#utility.yul\":19172:19175   */\n              dup3\n                /* \"#utility.yul\":19168:19180   */\n              add\n                /* \"#utility.yul\":19161:19180   */\n              swap1\n              pop\n                /* \"#utility.yul\":18820:19186   */\n              swap2\n              swap1\n              pop\n              jump\t// out\n                /* \"#utility.yul\":19192:19611   */\n            tag_251:\n                /* \"#utility.yul\":19358:19362   */\n              0x00\n                /* \"#utility.yul\":19396:19398   */\n              0x20\n                /* \"#utility.yul\":19385:19394   */\n              dup3\n                /* \"#utility.yul\":19381:19399   */\n              add\n                /* \"#utility.yul\":19373:19399   */\n              swap1\n              pop\n                /* \"#utility.yul\":19445:19454   */\n              dup2\n                /* \"#utility.yul\":19439:19443   */\n              dup2\n                /* \"#utility.yul\":19435:19455   */\n              sub\n                /* \"#utility.yul\":19431:19432   */\n              0x00\n                /* \"#utility.yul\":19420:19429   */\n              dup4\n                /* \"#utility.yul\":19416:19433   */\n              add\n                /* \"#utility.yul\":19409:19456   */\n              mstore\n                /* \"#utility.yul\":19473:19604   */\n              tag_519\n                /* \"#utility.yul\":19599:19603   */\n              dup2\n                /* \"#utility.yul\":19473:19604   */\n              tag_331\n              jump\t// in\n            tag_519:\n                /* \"#utility.yul\":19465:19604   */\n              swap1\n              pop\n                /* \"#utility.yul\":19192:19611   */\n              swap2\n              swap1\n              pop\n              jump\t// out\n                /* \"#utility.yul\":19617:19842   */\n            tag_332:\n                /* \"#utility.yul\":19757:19791   */\n              0x596f75206861766520616c726561647920617070726f76656420746869732072\n                /* \"#utility.yul\":19753:19754   */\n              0x00\n                /* \"#utility.yul\":19745:19751   */\n              dup3\n                /* \"#utility.yul\":19741:19755   */\n              add\n                /* \"#utility.yul\":19734:19792   */\n              mstore\n                /* \"#utility.yul\":19826:19834   */\n              0x6571756573740000000000000000000000000000000000000000000000000000\n                /* \"#utility.yul\":19821:19823   */\n              0x20\n                /* \"#utility.yul\":19813:19819   */\n              dup3\n                /* \"#utility.yul\":19809:19824   */\n              add\n                /* \"#utility.yul\":19802:19835   */\n              mstore\n                /* \"#utility.yul\":19617:19842   */\n              pop\n              jump\t// out\n                /* \"#utility.yul\":19848:20214   */\n            tag_333:\n                /* \"#utility.yul\":19990:19993   */\n              0x00\n                /* \"#utility.yul\":20011:20078   */\n              tag_522\n                /* \"#utility.yul\":20075:20077   */\n              0x26\n                /* \"#utility.yul\":20070:20073   */\n              dup4\n                /* \"#utility.yul\":20011:20078   */\n              tag_295\n              jump\t// in\n            tag_522:\n                /* \"#utility.yul\":20004:20078   */\n              swap2\n              pop\n                /* \"#utility.yul\":20087:20180   */\n              tag_523\n                /* \"#utility.yul\":20176:20179   */\n              dup3\n                /* \"#utility.yul\":20087:20180   */\n              tag_332\n              jump\t// in\n            tag_523:\n                /* \"#utility.yul\":20205:20207   */\n              0x40\n                /* \"#utility.yul\":20200:20203   */\n              dup3\n                /* \"#utility.yul\":20196:20208   */\n              add\n                /* \"#utility.yul\":20189:20208   */\n              swap1\n              pop\n                /* \"#utility.yul\":19848:20214   */\n              swap2\n              swap1\n              pop\n              jump\t// out\n                /* \"#utility.yul\":20220:20639   */\n            tag_254:\n                /* \"#utility.yul\":20386:20390   */\n              0x00\n                /* \"#utility.yul\":20424:20426   */\n              0x20\n                /* \"#utility.yul\":20413:20422   */\n              dup3\n                /* \"#utility.yul\":20409:20427   */\n              add\n                /* \"#utility.yul\":20401:20427   */\n              swap1\n              pop\n                /* \"#utility.yul\":20473:20482   */\n              dup2\n                /* \"#utility.yul\":20467:20471   */\n              dup2\n                /* \"#utility.yul\":20463:20483   */\n              sub\n                /* \"#utility.yul\":20459:20460   */\n              0x00\n                /* \"#utility.yul\":20448:20457   */\n              dup4\n                /* \"#utility.yul\":20444:20461   */\n              add\n                /* \"#utility.yul\":20437:20484   */\n              mstore\n                /* \"#utility.yul\":20501:20632   */\n              tag_525\n                /* \"#utility.yul\":20627:20631   */\n              dup2\n                /* \"#utility.yul\":20501:20632   */\n              tag_333\n              jump\t// in\n            tag_525:\n                /* \"#utility.yul\":20493:20632   */\n              swap1\n              pop\n                /* \"#utility.yul\":20220:20639   */\n              swap2\n              swap1\n              pop\n              jump\t// out\n                /* \"#utility.yul\":20645:20865   */\n            tag_334:\n                /* \"#utility.yul\":20785:20819   */\n              0x436f6e747269627574696f6e206973206c657373207468616e206d696e696d75\n                /* \"#utility.yul\":20781:20782   */\n              0x00\n                /* \"#utility.yul\":20773:20779   */\n              dup3\n                /* \"#utility.yul\":20769:20783   */\n              add\n                /* \"#utility.yul\":20762:20820   */\n              mstore\n                /* \"#utility.yul\":20854:20857   */\n              0x6d00000000000000000000000000000000000000000000000000000000000000\n                /* \"#utility.yul\":20849:20851   */\n              0x20\n                /* \"#utility.yul\":20841:20847   */\n              dup3\n                /* \"#utility.yul\":20837:20852   */\n              add\n                /* \"#utility.yul\":20830:20858   */\n              mstore\n                /* \"#utility.yul\":20645:20865   */\n              pop\n              jump\t// out\n                /* \"#utility.yul\":20871:21237   */\n            tag_335:\n                /* \"#utility.yul\":21013:21016   */\n              0x00\n                /* \"#utility.yul\":21034:21101   */\n              tag_528\n                /* \"#utility.yul\":21098:21100   */\n              0x21\n                /* \"#utility.yul\":21093:21096   */\n              dup4\n                /* \"#utility.yul\":21034:21101   */\n              tag_295\n              jump\t// in\n            tag_528:\n                /* \"#utility.yul\":21027:21101   */\n              swap2\n              pop\n                /* \"#utility.yul\":21110:21203   */\n              tag_529\n                /* \"#utility.yul\":21199:21202   */\n              dup3\n                /* \"#utility.yul\":21110:21203   */\n              tag_334\n              jump\t// in\n            tag_529:\n                /* \"#utility.yul\":21228:21230   */\n              0x40\n                /* \"#utility.yul\":21223:21226   */\n              dup3\n                /* \"#utility.yul\":21219:21231   */\n              add\n                /* \"#utility.yul\":21212:21231   */\n              swap1\n              pop\n                /* \"#utility.yul\":20871:21237   */\n              swap2\n              swap1\n              pop\n              jump\t// out\n                /* \"#utility.yul\":21243:21662   */\n            tag_260:\n                /* \"#utility.yul\":21409:21413   */\n              0x00\n                /* \"#utility.yul\":21447:21449   */\n              0x20\n                /* \"#utility.yul\":21436:21445   */\n              dup3\n                /* \"#utility.yul\":21432:21450   */\n              add\n                /* \"#utility.yul\":21424:21450   */\n              swap1\n              pop\n                /* \"#utility.yul\":21496:21505   */\n              dup2\n                /* \"#utility.yul\":21490:21494   */\n              dup2\n                /* \"#utility.yul\":21486:21506   */\n              sub\n                /* \"#utility.yul\":21482:21483   */\n              0x00\n                /* \"#utility.yul\":21471:21480   */\n              dup4\n                /* \"#utility.yul\":21467:21484   */\n              add\n                /* \"#utility.yul\":21460:21507   */\n              mstore\n                /* \"#utility.yul\":21524:21655   */\n              tag_531\n                /* \"#utility.yul\":21650:21654   */\n              dup2\n                /* \"#utility.yul\":21524:21655   */\n              tag_335\n              jump\t// in\n            tag_531:\n                /* \"#utility.yul\":21516:21655   */\n              swap1\n              pop\n                /* \"#utility.yul\":21243:21662   */\n              swap2\n              swap1\n              pop\n              jump\t// out\n\n            auxdata: 0xa2646970667358221220971b8b89b60b5a6f6981092dfdb8870b63b7a15e30df02723688ae8af1574c4f64736f6c634300080a0033\n        }\n    }\n\n    auxdata: 0xa2646970667358221220b78749da50176b2f2f15b590b9cc4471a476e7d5955fecb1b9bfe9d3cb2323c364736f6c634300080a0033\n}\n","bytecode":{"linkReferences":{},"object":"608060405234801561001057600080fd5b5061317c806100206000396000f3fe60806040523480156200001157600080fd5b5060043610620000465760003560e01c8063339d50a5146200004b5780634acb9d4f1462000081578063f876bc4914620000a3575b600080fd5b620000696004803603810190620000639190620002a7565b620000c3565b60405162000078919062000364565b60405180910390f35b6200008b62000103565b6040516200009a91906200044f565b60405180910390f35b620000c16004803603810190620000bb9190620004e1565b62000193565b005b60008181548110620000d457600080fd5b906000526020600020016000915054906101000a900473ffffffffffffffffffffffffffffffffffffffff1681565b606060008054806020026020016040519081016040528092919081815260200182805480156200018957602002820191906000526020600020905b8160009054906101000a900473ffffffffffffffffffffffffffffffffffffffff1673ffffffffffffffffffffffffffffffffffffffff16815260200190600101908083116200013e575b5050505050905090565b60008a338b8b8b8b8b8b8b8b8b604051620001ae9062000254565b620001c49b9a99989796959493929190620006a6565b604051809103906000f080158015620001e1573d6000803e3d6000fd5b5090506000819080600181540180825580915050600190039060005260206000200160009091909190916101000a81548173ffffffffffffffffffffffffffffffffffffffff021916908373ffffffffffffffffffffffffffffffffffffffff1602179055505050505050505050505050565b6129ff806200074883390190565b600080fd5b600080fd5b6000819050919050565b62000281816200026c565b81146200028d57600080fd5b50565b600081359050620002a18162000276565b92915050565b600060208284031215620002c057620002bf62000262565b5b6000620002d08482850162000290565b91505092915050565b600073ffffffffffffffffffffffffffffffffffffffff82169050919050565b6000819050919050565b6000620003246200031e6200031884620002d9565b620002f9565b620002d9565b9050919050565b6000620003388262000303565b9050919050565b60006200034c826200032b565b9050919050565b6200035e816200033f565b82525050565b60006020820190506200037b600083018462000353565b92915050565b600081519050919050565b600082825260208201905092915050565b6000819050602082019050919050565b620003b8816200033f565b82525050565b6000620003cc8383620003ad565b60208301905092915050565b6000602082019050919050565b6000620003f28262000381565b620003fe81856200038c565b93506200040b836200039d565b8060005b8381101562000442578151620004268882620003be565b97506200043383620003d8565b9250506001810190506200040f565b5085935050505092915050565b600060208201905081810360008301526200046b8184620003e5565b905092915050565b600080fd5b600080fd5b600080fd5b60008083601f8401126200049b576200049a62000473565b5b8235905067ffffffffffffffff811115620004bb57620004ba62000478565b5b602083019150836001820283011115620004da57620004d96200047d565b5b9250929050565b60008060008060008060008060008060c08b8d03121562000507576200050662000262565b5b6000620005178d828e0162000290565b9a505060208b013567ffffffffffffffff8111156200053b576200053a62000267565b5b620005498d828e0162000482565b995099505060408b013567ffffffffffffffff8111156200056f576200056e62000267565b5b6200057d8d828e0162000482565b975097505060608b013567ffffffffffffffff811115620005a357620005a262000267565b5b620005b18d828e0162000482565b95509550506080620005c68d828e0162000290565b93505060a08b013567ffffffffffffffff811115620005ea57620005e962000267565b5b620005f88d828e0162000482565b92509250509295989b9194979a5092959850565b62000617816200026c565b82525050565b60006200062a82620002d9565b9050919050565b6200063c816200061d565b82525050565b600082825260208201905092915050565b82818337600083830152505050565b6000601f19601f8301169050919050565b600062000681838562000642565b93506200069083858462000653565b6200069b8362000662565b840190509392505050565b600060e082019050620006bd600083018e6200060c565b620006cc602083018d62000631565b8181036040830152620006e1818b8d62000673565b90508181036060830152620006f881898b62000673565b905081810360808301526200070f81878962000673565b90506200072060a08301866200060c565b81810360c08301526200073581848662000673565b90509c9b50505050505050505050505056fe608060405260016007553480156200001657600080fd5b50604051620029ff380380620029ff83398181016040528101906200003c9190620003e8565b856000806101000a81548173ffffffffffffffffffffffffffffffffffffffff021916908373ffffffffffffffffffffffffffffffffffffffff1602179055508660018190555084600290805190602001906200009b929190620000fb565b508360039080519060200190620000b4929190620000fb565b508260059080519060200190620000cd929190620000fb565b50816006819055508060049080519060200190620000ed929190620000fb565b50505050505050506200057c565b828054620001099062000546565b90600052602060002090601f0160209004810192826200012d576000855562000179565b82601f106200014857805160ff191683800117855562000179565b8280016001018555821562000179579182015b82811115620001785782518255916020019190600101906200015b565b5b5090506200018891906200018c565b5090565b5b80821115620001a75760008160009055506001016200018d565b5090565b6000604051905090565b600080fd5b600080fd5b6000819050919050565b620001d481620001bf565b8114620001e057600080fd5b50565b600081519050620001f481620001c9565b92915050565b600073ffffffffffffffffffffffffffffffffffffffff82169050919050565b60006200022782620001fa565b9050919050565b62000239816200021a565b81146200024557600080fd5b50565b60008151905062000259816200022e565b92915050565b600080fd5b600080fd5b6000601f19601f8301169050919050565b7f4e487b7100000000000000000000000000000000000000000000000000000000600052604160045260246000fd5b620002b48262000269565b810181811067ffffffffffffffff82111715620002d657620002d56200027a565b5b80604052505050565b6000620002eb620001ab565b9050620002f98282620002a9565b919050565b600067ffffffffffffffff8211156200031c576200031b6200027a565b5b620003278262000269565b9050602081019050919050565b60005b838110156200035457808201518184015260208101905062000337565b8381111562000364576000848401525b50505050565b6000620003816200037b84620002fe565b620002df565b905082815260208101848484011115620003a0576200039f62000264565b5b620003ad84828562000334565b509392505050565b600082601f830112620003cd57620003cc6200025f565b5b8151620003df8482602086016200036a565b91505092915050565b600080600080600080600060e0888a0312156200040a5762000409620001b5565b5b60006200041a8a828b01620001e3565b97505060206200042d8a828b0162000248565b965050604088015167ffffffffffffffff811115620004515762000450620001ba565b5b6200045f8a828b01620003b5565b955050606088015167ffffffffffffffff811115620004835762000482620001ba565b5b620004918a828b01620003b5565b945050608088015167ffffffffffffffff811115620004b557620004b4620001ba565b5b620004c38a828b01620003b5565b93505060a0620004d68a828b01620001e3565b92505060c088015167ffffffffffffffff811115620004fa57620004f9620001ba565b5b620005088a828b01620003b5565b91505092959891949750929550565b7f4e487b7100000000000000000000000000000000000000000000000000000000600052602260045260246000fd5b600060028204905060018216806200055f57607f821691505b6020821081141562000576576200057562000517565b5b50919050565b612473806200058c6000396000f3fe6080604052600436106101405760003560e01c80638a9cfd55116100b6578063b2a87fc31161006f578063b2a87fc314610465578063d350fe1f14610490578063d7d1bbdb146104ae578063e0fe3bb4146104d7578063e90b44f214610502578063ea25213f1461053f57610140565b80638a9cfd55146103605780638adb87f414610389578063937e09b1146103c657806397654a8c146103f1578063aba831501461041c578063ac3077731461044757610140565b80633410452a116101085780633410452a1461023e5780634051ddac14610269578063481c6a751461029e5780637e7cd1b3146102c957806381d12c58146102f457806382fde0931461033557610140565b806303441006146101455780630a1443911461016e5780631d6f8223146101ab5780631fbed579146101d65780633228ff9514610213575b600080fd5b34801561015157600080fd5b5061016c600480360381019061016791906118b2565b610549565b005b34801561017a57600080fd5b506101956004803603810190610190919061193d565b610752565b6040516101a29190611985565b60405180910390f35b3480156101b757600080fd5b506101c0610772565b6040516101cd9190611a39565b60405180910390f35b3480156101e257600080fd5b506101fd60048036038101906101f891906118b2565b610800565b60405161020a9190611a6a565b60405180910390f35b34801561021f57600080fd5b5061022861083f565b6040516102359190611a94565b60405180910390f35b34801561024a57600080fd5b50610253610849565b6040516102609190611a94565b60405180910390f35b34801561027557600080fd5b5061027e610853565b6040516102959b9a99989796959493929190611aaf565b60405180910390f35b3480156102aa57600080fd5b506102b3610af2565b6040516102c09190611a6a565b60405180910390f35b3480156102d557600080fd5b506102de610b16565b6040516102eb9190611a39565b60405180910390f35b34801561030057600080fd5b5061031b600480360381019061031691906118b2565b610ba4565b60405161032c959493929190611b97565b60405180910390f35b34801561034157600080fd5b5061034a610c8f565b6040516103579190611a94565b60405180910390f35b34801561036c57600080fd5b5061038760048036038101906103829190611d52565b610c95565b005b34801561039557600080fd5b506103b060048036038101906103ab919061193d565b610de2565b6040516103bd9190611a94565b60405180910390f35b3480156103d257600080fd5b506103db610e2b565b6040516103e89190611a94565b60405180910390f35b3480156103fd57600080fd5b50610406610e31565b6040516104139190611a39565b60405180910390f35b34801561042857600080fd5b50610431610ebf565b60405161043e9190611a39565b60405180910390f35b61044f610f4d565b60405161045c9190611985565b60405180910390f35b34801561047157600080fd5b5061047a6110c6565b6040516104879190611a94565b60405180910390f35b6104986110cc565b6040516104a59190611985565b60405180910390f35b3480156104ba57600080fd5b506104d560048036038101906104d091906118b2565b611369565b005b3480156104e357600080fd5b506104ec611513565b6040516104f99190611a94565b60405180910390f35b34801561050e57600080fd5b506105296004803603810190610524919061193d565b611524565b6040516105369190611a94565b60405180910390f35b61054761153c565b005b60008054906101000a900473ffffffffffffffffffffffffffffffffffffffff1673ffffffffffffffffffffffffffffffffffffffff163373ffffffffffffffffffffffffffffffffffffffff16146105d7576040517f08c379a00000000000000000000000000000000000000000000000000000000081526004016105ce90611e33565b60405180910390fd5b6000600d600083815260200190815260200160002090506002600b546105fd9190611eb1565b81600301541015610643576040517f08c379a000000000000000000000000000000000000000000000000000000000815260040161063a90611f2e565b60405180910390fd5b8060020160149054906101000a900460ff1615610695576040517f08c379a000000000000000000000000000000000000000000000000000000000815260040161068c90611f9a565b60405180910390fd5b60008160020160009054906101000a900473ffffffffffffffffffffffffffffffffffffffff1673ffffffffffffffffffffffffffffffffffffffff1682600101546040516106e390611feb565b60006040518083038185875af1925050503d8060008114610720576040519150601f19603f3d011682016040523d82523d6000602084013e610725565b606091505b50509050801561074d5760018260020160146101000a81548160ff0219169083151502179055505b505050565b600a6020528060005260406000206000915054906101000a900460ff1681565b6004805461077f9061202f565b80601f01602080910402602001604051908101604052809291908181526020018280546107ab9061202f565b80156107f85780601f106107cd576101008083540402835291602001916107f8565b820191906000526020600020905b8154815290600101906020018083116107db57829003601f168201915b505050505081565b6008818154811061081057600080fd5b906000526020600020016000915054906101000a900473ffffffffffffffffffffffffffffffffffffffff1681565b6000600754905090565b6000600c54905090565b6000806000806000606080606060006060600060015447600c54600b5460008054906101000a900473ffffffffffffffffffffffffffffffffffffffff1660026003600560065460046007548580546108ab9061202f565b80601f01602080910402602001604051908101604052809291908181526020018280546108d79061202f565b80156109245780601f106108f957610100808354040283529160200191610924565b820191906000526020600020905b81548152906001019060200180831161090757829003601f168201915b505050505095508480546109379061202f565b80601f01602080910402602001604051908101604052809291908181526020018280546109639061202f565b80156109b05780601f10610985576101008083540402835291602001916109b0565b820191906000526020600020905b81548152906001019060200180831161099357829003601f168201915b505050505094508380546109c39061202f565b80601f01602080910402602001604051908101604052809291908181526020018280546109ef9061202f565b8015610a3c5780601f10610a1157610100808354040283529160200191610a3c565b820191906000526020600020905b815481529060010190602001808311610a1f57829003601f168201915b50505050509350818054610a4f9061202f565b80601f0160208091040260200160405190810160405280929190818152602001828054610a7b9061202f565b8015610ac85780601f10610a9d57610100808354040283529160200191610ac8565b820191906000526020600020905b815481529060010190602001808311610aab57829003601f168201915b505050505091509a509a509a509a509a509a509a509a509a509a509a50909192939495969798999a565b60008054906101000a900473ffffffffffffffffffffffffffffffffffffffff1681565b60028054610b239061202f565b80601f0160208091040260200160405190810160405280929190818152602001828054610b4f9061202f565b8015610b9c5780601f10610b7157610100808354040283529160200191610b9c565b820191906000526020600020905b815481529060010190602001808311610b7f57829003601f168201915b505050505081565b600d602052806000526040600020600091509050806000018054610bc79061202f565b80601f0160208091040260200160405190810160405280929190818152602001828054610bf39061202f565b8015610c405780601f10610c1557610100808354040283529160200191610c40565b820191906000526020600020905b815481529060010190602001808311610c2357829003601f168201915b5050505050908060010154908060020160009054906101000a900473ffffffffffffffffffffffffffffffffffffffff16908060020160149054906101000a900460ff16908060030154905085565b600b5481565b60008054906101000a900473ffffffffffffffffffffffffffffffffffffffff1673ffffffffffffffffffffffffffffffffffffffff163373ffffffffffffffffffffffffffffffffffffffff1614610d23576040517f08c379a0000000000000000000000000000000000000000000000000000000008152600401610d1a90611e33565b60405180910390fd5b6000600d6000600c6000815480929190610d3c90612061565b919050558152602001908152602001600020905083816000019080519060200190610d689291906117c5565b50828160010181905550818160020160006101000a81548173ffffffffffffffffffffffffffffffffffffffff021916908373ffffffffffffffffffffffffffffffffffffffff16021790555060008160020160146101000a81548160ff0219169083151502179055506000816003018190555050505050565b6000600960008373ffffffffffffffffffffffffffffffffffffffff1673ffffffffffffffffffffffffffffffffffffffff168152602001908152602001600020549050919050565b60015481565b60038054610e3e9061202f565b80601f0160208091040260200160405190810160405280929190818152602001828054610e6a9061202f565b8015610eb75780601f10610e8c57610100808354040283529160200191610eb7565b820191906000526020600020905b815481529060010190602001808311610e9a57829003601f168201915b505050505081565b60058054610ecc9061202f565b80601f0160208091040260200160405190810160405280929190818152602001828054610ef89061202f565b8015610f455780601f10610f1a57610100808354040283529160200191610f45565b820191906000526020600020905b815481529060010190602001808311610f2857829003601f168201915b505050505081565b60008060009054906101000a900473ffffffffffffffffffffffffffffffffffffffff1673ffffffffffffffffffffffffffffffffffffffff163373ffffffffffffffffffffffffffffffffffffffff1614610fde576040517f08c379a0000000000000000000000000000000000000000000000000000000008152600401610fd590611e33565b60405180910390fd5b600654471015611023576040517f08c379a000000000000000000000000000000000000000000000000000000000815260040161101a906120f6565b60405180910390fd5b60008060009054906101000a900473ffffffffffffffffffffffffffffffffffffffff1673ffffffffffffffffffffffffffffffffffffffff164760405161106a90611feb565b60006040518083038185875af1925050503d80600081146110a7576040519150601f19603f3d011682016040523d82523d6000602084013e6110ac565b606091505b5050905080156110bf5760006007819055505b8091505090565b60065481565b600080600960003373ffffffffffffffffffffffffffffffffffffffff1673ffffffffffffffffffffffffffffffffffffffff168152602001908152602001600020541161111957600080fd5b60006007541461112857600080fd5b6000600960003373ffffffffffffffffffffffffffffffffffffffff1673ffffffffffffffffffffffffffffffffffffffff1681526020019081526020016000205490506000805b60088054905081101561121b57600960006008838154811061119557611194612116565b5b9060005260206000200160009054906101000a900473ffffffffffffffffffffffffffffffffffffffff1673ffffffffffffffffffffffffffffffffffffffff1673ffffffffffffffffffffffffffffffffffffffff16815260200190815260200160002054826112069190612145565b9150808061121390612061565b915050611170565b5060008160648461122c919061219b565b6112369190611eb1565b9050600060648247611248919061219b565b6112529190611eb1565b905060003373ffffffffffffffffffffffffffffffffffffffff168260405161127a90611feb565b60006040518083038185875af1925050503d80600081146112b7576040519150601f19603f3d011682016040523d82523d6000602084013e6112bc565b606091505b5050905080611300576040517f08c379a00000000000000000000000000000000000000000000000000000000081526004016112f790612241565b60405180910390fd5b801561134c576000600960003373ffffffffffffffffffffffffffffffffffffffff1673ffffffffffffffffffffffffffffffffffffffff168152602001908152602001600020819055505b600047141561135e5760006007819055505b809550505050505090565b6000600d60008381526020019081526020016000209050600a60003373ffffffffffffffffffffffffffffffffffffffff1673ffffffffffffffffffffffffffffffffffffffff16815260200190815260200160002060009054906101000a900460ff1661140c576040517f08c379a0000000000000000000000000000000000000000000000000000000008152600401611403906122f9565b60405180910390fd5b8060040160003373ffffffffffffffffffffffffffffffffffffffff1673ffffffffffffffffffffffffffffffffffffffff16815260200190815260200160002060009054906101000a900460ff161561149b576040517f08c379a00000000000000000000000000000000000000000000000000000000081526004016114929061238b565b60405180910390fd5b60018160040160003373ffffffffffffffffffffffffffffffffffffffff1673ffffffffffffffffffffffffffffffffffffffff16815260200190815260200160002060006101000a81548160ff02191690831515021790555080600301600081548092919061150a90612061565b91905055505050565b600080600781905550600754905090565b60096020528060005260406000206000915090505481565b600154341015611581576040517f08c379a00000000000000000000000000000000000000000000000000000000081526004016115789061241d565b60405180910390fd5b60005b6008805490508110156116aa57600881815481106115a5576115a4612116565b5b9060005260206000200160009054906101000a900473ffffffffffffffffffffffffffffffffffffffff1673ffffffffffffffffffffffffffffffffffffffff163373ffffffffffffffffffffffffffffffffffffffff1614156116975734600960003373ffffffffffffffffffffffffffffffffffffffff1673ffffffffffffffffffffffffffffffffffffffff1681526020019081526020016000205461164e9190612145565b600960003373ffffffffffffffffffffffffffffffffffffffff1673ffffffffffffffffffffffffffffffffffffffff16815260200190815260200160002081905550506117c3565b80806116a290612061565b915050611584565b506008339080600181540180825580915050600190039060005260206000200160009091909190916101000a81548173ffffffffffffffffffffffffffffffffffffffff021916908373ffffffffffffffffffffffffffffffffffffffff16021790555034600960003373ffffffffffffffffffffffffffffffffffffffff1673ffffffffffffffffffffffffffffffffffffffff168152602001908152602001600020819055506001600a60003373ffffffffffffffffffffffffffffffffffffffff1673ffffffffffffffffffffffffffffffffffffffff16815260200190815260200160002060006101000a81548160ff021916908315150217905550600b60008154809291906117bd90612061565b91905055505b565b8280546117d19061202f565b90600052602060002090601f0160209004810192826117f3576000855561183a565b82601f1061180c57805160ff191683800117855561183a565b8280016001018555821561183a579182015b8281111561183957825182559160200191906001019061181e565b5b509050611847919061184b565b5090565b5b8082111561186457600081600090555060010161184c565b5090565b6000604051905090565b600080fd5b600080fd5b6000819050919050565b61188f8161187c565b811461189a57600080fd5b50565b6000813590506118ac81611886565b92915050565b6000602082840312156118c8576118c7611872565b5b60006118d68482850161189d565b91505092915050565b600073ffffffffffffffffffffffffffffffffffffffff82169050919050565b600061190a826118df565b9050919050565b61191a816118ff565b811461192557600080fd5b50565b60008135905061193781611911565b92915050565b60006020828403121561195357611952611872565b5b600061196184828501611928565b91505092915050565b60008115159050919050565b61197f8161196a565b82525050565b600060208201905061199a6000830184611976565b92915050565b600081519050919050565b600082825260208201905092915050565b60005b838110156119da5780820151818401526020810190506119bf565b838111156119e9576000848401525b50505050565b6000601f19601f8301169050919050565b6000611a0b826119a0565b611a1581856119ab565b9350611a258185602086016119bc565b611a2e816119ef565b840191505092915050565b60006020820190508181036000830152611a538184611a00565b905092915050565b611a64816118ff565b82525050565b6000602082019050611a7f6000830184611a5b565b92915050565b611a8e8161187c565b82525050565b6000602082019050611aa96000830184611a85565b92915050565b600061016082019050611ac5600083018e611a85565b611ad2602083018d611a85565b611adf604083018c611a85565b611aec606083018b611a85565b611af9608083018a611a5b565b81810360a0830152611b0b8189611a00565b905081810360c0830152611b1f8188611a00565b905081810360e0830152611b338187611a00565b9050611b43610100830186611a85565b818103610120830152611b568185611a00565b9050611b66610140830184611a85565b9c9b505050505050505050505050565b6000611b81826118df565b9050919050565b611b9181611b76565b82525050565b600060a0820190508181036000830152611bb18188611a00565b9050611bc06020830187611a85565b611bcd6040830186611b88565b611bda6060830185611976565b611be76080830184611a85565b9695505050505050565b600080fd5b600080fd5b7f4e487b7100000000000000000000000000000000000000000000000000000000600052604160045260246000fd5b611c33826119ef565b810181811067ffffffffffffffff82111715611c5257611c51611bfb565b5b80604052505050565b6000611c65611868565b9050611c718282611c2a565b919050565b600067ffffffffffffffff821115611c9157611c90611bfb565b5b611c9a826119ef565b9050602081019050919050565b82818337600083830152505050565b6000611cc9611cc484611c76565b611c5b565b905082815260208101848484011115611ce557611ce4611bf6565b5b611cf0848285611ca7565b509392505050565b600082601f830112611d0d57611d0c611bf1565b5b8135611d1d848260208601611cb6565b91505092915050565b611d2f81611b76565b8114611d3a57600080fd5b50565b600081359050611d4c81611d26565b92915050565b600080600060608486031215611d6b57611d6a611872565b5b600084013567ffffffffffffffff811115611d8957611d88611877565b5b611d9586828701611cf8565b9350506020611da68682870161189d565b9250506040611db786828701611d3d565b9150509250925092565b7f4f6e6c7920746865206d616e616765722063616e2063616c6c2074686973206660008201527f756e6374696f6e00000000000000000000000000000000000000000000000000602082015250565b6000611e1d6027836119ab565b9150611e2882611dc1565b604082019050919050565b60006020820190508181036000830152611e4c81611e10565b9050919050565b7f4e487b7100000000000000000000000000000000000000000000000000000000600052601260045260246000fd5b7f4e487b7100000000000000000000000000000000000000000000000000000000600052601160045260246000fd5b6000611ebc8261187c565b9150611ec78361187c565b925082611ed757611ed6611e53565b5b828204905092915050565b7f4e6f7420656e6f75676820617070726f76616c73000000000000000000000000600082015250565b6000611f186014836119ab565b9150611f2382611ee2565b602082019050919050565b60006020820190508181036000830152611f4781611f0b565b9050919050565b7f5265717565737420616c72656164792066696e616c697a656400000000000000600082015250565b6000611f846019836119ab565b9150611f8f82611f4e565b602082019050919050565b60006020820190508181036000830152611fb381611f77565b9050919050565b600081905092915050565b50565b6000611fd5600083611fba565b9150611fe082611fc5565b600082019050919050565b6000611ff682611fc8565b9150819050919050565b7f4e487b7100000000000000000000000000000000000000000000000000000000600052602260045260246000fd5b6000600282049050600182168061204757607f821691505b6020821081141561205b5761205a612000565b5b50919050565b600061206c8261187c565b91507fffffffffffffffffffffffffffffffffffffffffffffffffffffffffffffffff82141561209f5761209e611e82565b5b600182019050919050565b7f746172676574206e6f7420616368696576656400000000000000000000000000600082015250565b60006120e06013836119ab565b91506120eb826120aa565b602082019050919050565b6000602082019050818103600083015261210f816120d3565b9050919050565b7f4e487b7100000000000000000000000000000000000000000000000000000000600052603260045260246000fd5b60006121508261187c565b915061215b8361187c565b9250827fffffffffffffffffffffffffffffffffffffffffffffffffffffffffffffffff038211156121905761218f611e82565b5b828201905092915050565b60006121a68261187c565b91506121b18361187c565b9250817fffffffffffffffffffffffffffffffffffffffffffffffffffffffffffffffff04831182151516156121ea576121e9611e82565b5b828202905092915050565b7f5472616e73666572206661696c65642e00000000000000000000000000000000600082015250565b600061222b6010836119ab565b9150612236826121f5565b602082019050919050565b6000602082019050818103600083015261225a8161221e565b9050919050565b7f596f7520617265206e6f7420616e20617070726f76657221204f6e6c7920636f60008201527f6e7472696275746f72732063616e20617070726f76652061207370656369666960208201527f63207061796d656e742072657175657374000000000000000000000000000000604082015250565b60006122e36051836119ab565b91506122ee82612261565b606082019050919050565b60006020820190508181036000830152612312816122d6565b9050919050565b7f596f75206861766520616c726561647920617070726f7665642074686973207260008201527f6571756573740000000000000000000000000000000000000000000000000000602082015250565b60006123756026836119ab565b915061238082612319565b604082019050919050565b600060208201905081810360008301526123a481612368565b9050919050565b7f436f6e747269627574696f6e206973206c657373207468616e206d696e696d7560008201527f6d00000000000000000000000000000000000000000000000000000000000000602082015250565b60006124076021836119ab565b9150612412826123ab565b604082019050919050565b60006020820190508181036000830152612436816123fa565b905091905056fea2646970667358221220971b8b89b60b5a6f6981092dfdb8870b63b7a15e30df02723688ae8af1574c4f64736f6c634300080a0033a2646970667358221220b78749da50176b2f2f15b590b9cc4471a476e7d5955fecb1b9bfe9d3cb2323c364736f6c634300080a0033","opcodes":"PUSH1 0x80 PUSH1 0x40 MSTORE CALLVALUE DUP1 ISZERO PUSH2 0x10 JUMPI PUSH1 0x0 DUP1 REVERT JUMPDEST POP PUSH2 0x317C DUP1 PUSH2 0x20 PUSH1 0x0 CODECOPY PUSH1 0x0 RETURN INVALID PUSH1 0x80 PUSH1 0x40 MSTORE CALLVALUE DUP1 ISZERO PUSH3 0x11 JUMPI PUSH1 0x0 DUP1 REVERT JUMPDEST POP PUSH1 0x4 CALLDATASIZE LT PUSH3 0x46 JUMPI PUSH1 0x0 CALLDATALOAD PUSH1 0xE0 SHR DUP1 PUSH4 0x339D50A5 EQ PUSH3 0x4B JUMPI DUP1 PUSH4 0x4ACB9D4F EQ PUSH3 0x81 JUMPI DUP1 PUSH4 0xF876BC49 EQ PUSH3 0xA3 JUMPI JUMPDEST PUSH1 0x0 DUP1 REVERT JUMPDEST PUSH3 0x69 PUSH1 0x4 DUP1 CALLDATASIZE SUB DUP2 ADD SWAP1 PUSH3 0x63 SWAP2 SWAP1 PUSH3 0x2A7 JUMP JUMPDEST PUSH3 0xC3 JUMP JUMPDEST PUSH1 0x40 MLOAD PUSH3 0x78 SWAP2 SWAP1 PUSH3 0x364 JUMP JUMPDEST PUSH1 0x40 MLOAD DUP1 SWAP2 SUB SWAP1 RETURN JUMPDEST PUSH3 0x8B PUSH3 0x103 JUMP JUMPDEST PUSH1 0x40 MLOAD PUSH3 0x9A SWAP2 SWAP1 PUSH3 0x44F JUMP JUMPDEST PUSH1 0x40 MLOAD DUP1 SWAP2 SUB SWAP1 RETURN JUMPDEST PUSH3 0xC1 PUSH1 0x4 DUP1 CALLDATASIZE SUB DUP2 ADD SWAP1 PUSH3 0xBB SWAP2 SWAP1 PUSH3 0x4E1 JUMP JUMPDEST PUSH3 0x193 JUMP JUMPDEST STOP JUMPDEST PUSH1 0x0 DUP2 DUP2 SLOAD DUP2 LT PUSH3 0xD4 JUMPI PUSH1 0x0 DUP1 REVERT JUMPDEST SWAP1 PUSH1 0x0 MSTORE PUSH1 0x20 PUSH1 0x0 KECCAK256 ADD PUSH1 0x0 SWAP2 POP SLOAD SWAP1 PUSH2 0x100 EXP SWAP1 DIV PUSH20 0xFFFFFFFFFFFFFFFFFFFFFFFFFFFFFFFFFFFFFFFF AND DUP2 JUMP JUMPDEST PUSH1 0x60 PUSH1 0x0 DUP1 SLOAD DUP1 PUSH1 0x20 MUL PUSH1 0x20 ADD PUSH1 0x40 MLOAD SWAP1 DUP2 ADD PUSH1 0x40 MSTORE DUP1 SWAP3 SWAP2 SWAP1 DUP2 DUP2 MSTORE PUSH1 0x20 ADD DUP3 DUP1 SLOAD DUP1 ISZERO PUSH3 0x189 JUMPI PUSH1 0x20 MUL DUP3 ADD SWAP2 SWAP1 PUSH1 0x0 MSTORE PUSH1 0x20 PUSH1 0x0 KECCAK256 SWAP1 JUMPDEST DUP2 PUSH1 0x0 SWAP1 SLOAD SWAP1 PUSH2 0x100 EXP SWAP1 DIV PUSH20 0xFFFFFFFFFFFFFFFFFFFFFFFFFFFFFFFFFFFFFFFF AND PUSH20 0xFFFFFFFFFFFFFFFFFFFFFFFFFFFFFFFFFFFFFFFF AND DUP2 MSTORE PUSH1 0x20 ADD SWAP1 PUSH1 0x1 ADD SWAP1 DUP1 DUP4 GT PUSH3 0x13E JUMPI JUMPDEST POP POP POP POP POP SWAP1 POP SWAP1 JUMP JUMPDEST PUSH1 0x0 DUP11 CALLER DUP12 DUP12 DUP12 DUP12 DUP12 DUP12 DUP12 DUP12 DUP12 PUSH1 0x40 MLOAD PUSH3 0x1AE SWAP1 PUSH3 0x254 JUMP JUMPDEST PUSH3 0x1C4 SWAP12 SWAP11 SWAP10 SWAP9 SWAP8 SWAP7 SWAP6 SWAP5 SWAP4 SWAP3 SWAP2 SWAP1 PUSH3 0x6A6 JUMP JUMPDEST PUSH1 0x40 MLOAD DUP1 SWAP2 SUB SWAP1 PUSH1 0x0 CREATE DUP1 ISZERO DUP1 ISZERO PUSH3 0x1E1 JUMPI RETURNDATASIZE PUSH1 0x0 DUP1 RETURNDATACOPY RETURNDATASIZE PUSH1 0x0 REVERT JUMPDEST POP SWAP1 POP PUSH1 0x0 DUP2 SWAP1 DUP1 PUSH1 0x1 DUP2 SLOAD ADD DUP1 DUP3 SSTORE DUP1 SWAP2 POP POP PUSH1 0x1 SWAP1 SUB SWAP1 PUSH1 0x0 MSTORE PUSH1 0x20 PUSH1 0x0 KECCAK256 ADD PUSH1 0x0 SWAP1 SWAP2 SWAP1 SWAP2 SWAP1 SWAP2 PUSH2 0x100 EXP DUP2 SLOAD DUP2 PUSH20 0xFFFFFFFFFFFFFFFFFFFFFFFFFFFFFFFFFFFFFFFF MUL NOT AND SWAP1 DUP4 PUSH20 0xFFFFFFFFFFFFFFFFFFFFFFFFFFFFFFFFFFFFFFFF AND MUL OR SWAP1 SSTORE POP POP POP POP POP POP POP POP POP POP POP POP JUMP JUMPDEST PUSH2 0x29FF DUP1 PUSH3 0x748 DUP4 CODECOPY ADD SWAP1 JUMP JUMPDEST PUSH1 0x0 DUP1 REVERT JUMPDEST PUSH1 0x0 DUP1 REVERT JUMPDEST PUSH1 0x0 DUP2 SWAP1 POP SWAP2 SWAP1 POP JUMP JUMPDEST PUSH3 0x281 DUP2 PUSH3 0x26C JUMP JUMPDEST DUP2 EQ PUSH3 0x28D JUMPI PUSH1 0x0 DUP1 REVERT JUMPDEST POP JUMP JUMPDEST PUSH1 0x0 DUP2 CALLDATALOAD SWAP1 POP PUSH3 0x2A1 DUP2 PUSH3 0x276 JUMP JUMPDEST SWAP3 SWAP2 POP POP JUMP JUMPDEST PUSH1 0x0 PUSH1 0x20 DUP3 DUP5 SUB SLT ISZERO PUSH3 0x2C0 JUMPI PUSH3 0x2BF PUSH3 0x262 JUMP JUMPDEST JUMPDEST PUSH1 0x0 PUSH3 0x2D0 DUP5 DUP3 DUP6 ADD PUSH3 0x290 JUMP JUMPDEST SWAP2 POP POP SWAP3 SWAP2 POP POP JUMP JUMPDEST PUSH1 0x0 PUSH20 0xFFFFFFFFFFFFFFFFFFFFFFFFFFFFFFFFFFFFFFFF DUP3 AND SWAP1 POP SWAP2 SWAP1 POP JUMP JUMPDEST PUSH1 0x0 DUP2 SWAP1 POP SWAP2 SWAP1 POP JUMP JUMPDEST PUSH1 0x0 PUSH3 0x324 PUSH3 0x31E PUSH3 0x318 DUP5 PUSH3 0x2D9 JUMP JUMPDEST PUSH3 0x2F9 JUMP JUMPDEST PUSH3 0x2D9 JUMP JUMPDEST SWAP1 POP SWAP2 SWAP1 POP JUMP JUMPDEST PUSH1 0x0 PUSH3 0x338 DUP3 PUSH3 0x303 JUMP JUMPDEST SWAP1 POP SWAP2 SWAP1 POP JUMP JUMPDEST PUSH1 0x0 PUSH3 0x34C DUP3 PUSH3 0x32B JUMP JUMPDEST SWAP1 POP SWAP2 SWAP1 POP JUMP JUMPDEST PUSH3 0x35E DUP2 PUSH3 0x33F JUMP JUMPDEST DUP3 MSTORE POP POP JUMP JUMPDEST PUSH1 0x0 PUSH1 0x20 DUP3 ADD SWAP1 POP PUSH3 0x37B PUSH1 0x0 DUP4 ADD DUP5 PUSH3 0x353 JUMP JUMPDEST SWAP3 SWAP2 POP POP JUMP JUMPDEST PUSH1 0x0 DUP2 MLOAD SWAP1 POP SWAP2 SWAP1 POP JUMP JUMPDEST PUSH1 0x0 DUP3 DUP3 MSTORE PUSH1 0x20 DUP3 ADD SWAP1 POP SWAP3 SWAP2 POP POP JUMP JUMPDEST PUSH1 0x0 DUP2 SWAP1 POP PUSH1 0x20 DUP3 ADD SWAP1 POP SWAP2 SWAP1 POP JUMP JUMPDEST PUSH3 0x3B8 DUP2 PUSH3 0x33F JUMP JUMPDEST DUP3 MSTORE POP POP JUMP JUMPDEST PUSH1 0x0 PUSH3 0x3CC DUP4 DUP4 PUSH3 0x3AD JUMP JUMPDEST PUSH1 0x20 DUP4 ADD SWAP1 POP SWAP3 SWAP2 POP POP JUMP JUMPDEST PUSH1 0x0 PUSH1 0x20 DUP3 ADD SWAP1 POP SWAP2 SWAP1 POP JUMP JUMPDEST PUSH1 0x0 PUSH3 0x3F2 DUP3 PUSH3 0x381 JUMP JUMPDEST PUSH3 0x3FE DUP2 DUP6 PUSH3 0x38C JUMP JUMPDEST SWAP4 POP PUSH3 0x40B DUP4 PUSH3 0x39D JUMP JUMPDEST DUP1 PUSH1 0x0 JUMPDEST DUP4 DUP2 LT ISZERO PUSH3 0x442 JUMPI DUP2 MLOAD PUSH3 0x426 DUP9 DUP3 PUSH3 0x3BE JUMP JUMPDEST SWAP8 POP PUSH3 0x433 DUP4 PUSH3 0x3D8 JUMP JUMPDEST SWAP3 POP POP PUSH1 0x1 DUP2 ADD SWAP1 POP PUSH3 0x40F JUMP JUMPDEST POP DUP6 SWAP4 POP POP POP POP SWAP3 SWAP2 POP POP JUMP JUMPDEST PUSH1 0x0 PUSH1 0x20 DUP3 ADD SWAP1 POP DUP2 DUP2 SUB PUSH1 0x0 DUP4 ADD MSTORE PUSH3 0x46B DUP2 DUP5 PUSH3 0x3E5 JUMP JUMPDEST SWAP1 POP SWAP3 SWAP2 POP POP JUMP JUMPDEST PUSH1 0x0 DUP1 REVERT JUMPDEST PUSH1 0x0 DUP1 REVERT JUMPDEST PUSH1 0x0 DUP1 REVERT JUMPDEST PUSH1 0x0 DUP1 DUP4 PUSH1 0x1F DUP5 ADD SLT PUSH3 0x49B JUMPI PUSH3 0x49A PUSH3 0x473 JUMP JUMPDEST JUMPDEST DUP3 CALLDATALOAD SWAP1 POP PUSH8 0xFFFFFFFFFFFFFFFF DUP2 GT ISZERO PUSH3 0x4BB JUMPI PUSH3 0x4BA PUSH3 0x478 JUMP JUMPDEST JUMPDEST PUSH1 0x20 DUP4 ADD SWAP2 POP DUP4 PUSH1 0x1 DUP3 MUL DUP4 ADD GT ISZERO PUSH3 0x4DA JUMPI PUSH3 0x4D9 PUSH3 0x47D JUMP JUMPDEST JUMPDEST SWAP3 POP SWAP3 SWAP1 POP JUMP JUMPDEST PUSH1 0x0 DUP1 PUSH1 0x0 DUP1 PUSH1 0x0 DUP1 PUSH1 0x0 DUP1 PUSH1 0x0 DUP1 PUSH1 0xC0 DUP12 DUP14 SUB SLT ISZERO PUSH3 0x507 JUMPI PUSH3 0x506 PUSH3 0x262 JUMP JUMPDEST JUMPDEST PUSH1 0x0 PUSH3 0x517 DUP14 DUP3 DUP15 ADD PUSH3 0x290 JUMP JUMPDEST SWAP11 POP POP PUSH1 0x20 DUP12 ADD CALLDATALOAD PUSH8 0xFFFFFFFFFFFFFFFF DUP2 GT ISZERO PUSH3 0x53B JUMPI PUSH3 0x53A PUSH3 0x267 JUMP JUMPDEST JUMPDEST PUSH3 0x549 DUP14 DUP3 DUP15 ADD PUSH3 0x482 JUMP JUMPDEST SWAP10 POP SWAP10 POP POP PUSH1 0x40 DUP12 ADD CALLDATALOAD PUSH8 0xFFFFFFFFFFFFFFFF DUP2 GT ISZERO PUSH3 0x56F JUMPI PUSH3 0x56E PUSH3 0x267 JUMP JUMPDEST JUMPDEST PUSH3 0x57D DUP14 DUP3 DUP15 ADD PUSH3 0x482 JUMP JUMPDEST SWAP8 POP SWAP8 POP POP PUSH1 0x60 DUP12 ADD CALLDATALOAD PUSH8 0xFFFFFFFFFFFFFFFF DUP2 GT ISZERO PUSH3 0x5A3 JUMPI PUSH3 0x5A2 PUSH3 0x267 JUMP JUMPDEST JUMPDEST PUSH3 0x5B1 DUP14 DUP3 DUP15 ADD PUSH3 0x482 JUMP JUMPDEST SWAP6 POP SWAP6 POP POP PUSH1 0x80 PUSH3 0x5C6 DUP14 DUP3 DUP15 ADD PUSH3 0x290 JUMP JUMPDEST SWAP4 POP POP PUSH1 0xA0 DUP12 ADD CALLDATALOAD PUSH8 0xFFFFFFFFFFFFFFFF DUP2 GT ISZERO PUSH3 0x5EA JUMPI PUSH3 0x5E9 PUSH3 0x267 JUMP JUMPDEST JUMPDEST PUSH3 0x5F8 DUP14 DUP3 DUP15 ADD PUSH3 0x482 JUMP JUMPDEST SWAP3 POP SWAP3 POP POP SWAP3 SWAP6 SWAP9 SWAP12 SWAP2 SWAP5 SWAP8 SWAP11 POP SWAP3 SWAP6 SWAP9 POP JUMP JUMPDEST PUSH3 0x617 DUP2 PUSH3 0x26C JUMP JUMPDEST DUP3 MSTORE POP POP JUMP JUMPDEST PUSH1 0x0 PUSH3 0x62A DUP3 PUSH3 0x2D9 JUMP JUMPDEST SWAP1 POP SWAP2 SWAP1 POP JUMP JUMPDEST PUSH3 0x63C DUP2 PUSH3 0x61D JUMP JUMPDEST DUP3 MSTORE POP POP JUMP JUMPDEST PUSH1 0x0 DUP3 DUP3 MSTORE PUSH1 0x20 DUP3 ADD SWAP1 POP SWAP3 SWAP2 POP POP JUMP JUMPDEST DUP3 DUP2 DUP4 CALLDATACOPY PUSH1 0x0 DUP4 DUP4 ADD MSTORE POP POP POP JUMP JUMPDEST PUSH1 0x0 PUSH1 0x1F NOT PUSH1 0x1F DUP4 ADD AND SWAP1 POP SWAP2 SWAP1 POP JUMP JUMPDEST PUSH1 0x0 PUSH3 0x681 DUP4 DUP6 PUSH3 0x642 JUMP JUMPDEST SWAP4 POP PUSH3 0x690 DUP4 DUP6 DUP5 PUSH3 0x653 JUMP JUMPDEST PUSH3 0x69B DUP4 PUSH3 0x662 JUMP JUMPDEST DUP5 ADD SWAP1 POP SWAP4 SWAP3 POP POP POP JUMP JUMPDEST PUSH1 0x0 PUSH1 0xE0 DUP3 ADD SWAP1 POP PUSH3 0x6BD PUSH1 0x0 DUP4 ADD DUP15 PUSH3 0x60C JUMP JUMPDEST PUSH3 0x6CC PUSH1 0x20 DUP4 ADD DUP14 PUSH3 0x631 JUMP JUMPDEST DUP2 DUP2 SUB PUSH1 0x40 DUP4 ADD MSTORE PUSH3 0x6E1 DUP2 DUP12 DUP14 PUSH3 0x673 JUMP JUMPDEST SWAP1 POP DUP2 DUP2 SUB PUSH1 0x60 DUP4 ADD MSTORE PUSH3 0x6F8 DUP2 DUP10 DUP12 PUSH3 0x673 JUMP JUMPDEST SWAP1 POP DUP2 DUP2 SUB PUSH1 0x80 DUP4 ADD MSTORE PUSH3 0x70F DUP2 DUP8 DUP10 PUSH3 0x673 JUMP JUMPDEST SWAP1 POP PUSH3 0x720 PUSH1 0xA0 DUP4 ADD DUP7 PUSH3 0x60C JUMP JUMPDEST DUP2 DUP2 SUB PUSH1 0xC0 DUP4 ADD MSTORE PUSH3 0x735 DUP2 DUP5 DUP7 PUSH3 0x673 JUMP JUMPDEST SWAP1 POP SWAP13 SWAP12 POP POP POP POP POP POP POP POP POP POP POP POP JUMP INVALID PUSH1 0x80 PUSH1 0x40 MSTORE PUSH1 0x1 PUSH1 0x7 SSTORE CALLVALUE DUP1 ISZERO PUSH3 0x16 JUMPI PUSH1 0x0 DUP1 REVERT JUMPDEST POP PUSH1 0x40 MLOAD PUSH3 0x29FF CODESIZE SUB DUP1 PUSH3 0x29FF DUP4 CODECOPY DUP2 DUP2 ADD PUSH1 0x40 MSTORE DUP2 ADD SWAP1 PUSH3 0x3C SWAP2 SWAP1 PUSH3 0x3E8 JUMP JUMPDEST DUP6 PUSH1 0x0 DUP1 PUSH2 0x100 EXP DUP2 SLOAD DUP2 PUSH20 0xFFFFFFFFFFFFFFFFFFFFFFFFFFFFFFFFFFFFFFFF MUL NOT AND SWAP1 DUP4 PUSH20 0xFFFFFFFFFFFFFFFFFFFFFFFFFFFFFFFFFFFFFFFF AND MUL OR SWAP1 SSTORE POP DUP7 PUSH1 0x1 DUP2 SWAP1 SSTORE POP DUP5 PUSH1 0x2 SWAP1 DUP1 MLOAD SWAP1 PUSH1 0x20 ADD SWAP1 PUSH3 0x9B SWAP3 SWAP2 SWAP1 PUSH3 0xFB JUMP JUMPDEST POP DUP4 PUSH1 0x3 SWAP1 DUP1 MLOAD SWAP1 PUSH1 0x20 ADD SWAP1 PUSH3 0xB4 SWAP3 SWAP2 SWAP1 PUSH3 0xFB JUMP JUMPDEST POP DUP3 PUSH1 0x5 SWAP1 DUP1 MLOAD SWAP1 PUSH1 0x20 ADD SWAP1 PUSH3 0xCD SWAP3 SWAP2 SWAP1 PUSH3 0xFB JUMP JUMPDEST POP DUP2 PUSH1 0x6 DUP2 SWAP1 SSTORE POP DUP1 PUSH1 0x4 SWAP1 DUP1 MLOAD SWAP1 PUSH1 0x20 ADD SWAP1 PUSH3 0xED SWAP3 SWAP2 SWAP1 PUSH3 0xFB JUMP JUMPDEST POP POP POP POP POP POP POP POP PUSH3 0x57C JUMP JUMPDEST DUP3 DUP1 SLOAD PUSH3 0x109 SWAP1 PUSH3 0x546 JUMP JUMPDEST SWAP1 PUSH1 0x0 MSTORE PUSH1 0x20 PUSH1 0x0 KECCAK256 SWAP1 PUSH1 0x1F ADD PUSH1 0x20 SWAP1 DIV DUP2 ADD SWAP3 DUP3 PUSH3 0x12D JUMPI PUSH1 0x0 DUP6 SSTORE PUSH3 0x179 JUMP JUMPDEST DUP3 PUSH1 0x1F LT PUSH3 0x148 JUMPI DUP1 MLOAD PUSH1 0xFF NOT AND DUP4 DUP1 ADD OR DUP6 SSTORE PUSH3 0x179 JUMP JUMPDEST DUP3 DUP1 ADD PUSH1 0x1 ADD DUP6 SSTORE DUP3 ISZERO PUSH3 0x179 JUMPI SWAP2 DUP3 ADD JUMPDEST DUP3 DUP2 GT ISZERO PUSH3 0x178 JUMPI DUP3 MLOAD DUP3 SSTORE SWAP2 PUSH1 0x20 ADD SWAP2 SWAP1 PUSH1 0x1 ADD SWAP1 PUSH3 0x15B JUMP JUMPDEST JUMPDEST POP SWAP1 POP PUSH3 0x188 SWAP2 SWAP1 PUSH3 0x18C JUMP JUMPDEST POP SWAP1 JUMP JUMPDEST JUMPDEST DUP1 DUP3 GT ISZERO PUSH3 0x1A7 JUMPI PUSH1 0x0 DUP2 PUSH1 0x0 SWAP1 SSTORE POP PUSH1 0x1 ADD PUSH3 0x18D JUMP JUMPDEST POP SWAP1 JUMP JUMPDEST PUSH1 0x0 PUSH1 0x40 MLOAD SWAP1 POP SWAP1 JUMP JUMPDEST PUSH1 0x0 DUP1 REVERT JUMPDEST PUSH1 0x0 DUP1 REVERT JUMPDEST PUSH1 0x0 DUP2 SWAP1 POP SWAP2 SWAP1 POP JUMP JUMPDEST PUSH3 0x1D4 DUP2 PUSH3 0x1BF JUMP JUMPDEST DUP2 EQ PUSH3 0x1E0 JUMPI PUSH1 0x0 DUP1 REVERT JUMPDEST POP JUMP JUMPDEST PUSH1 0x0 DUP2 MLOAD SWAP1 POP PUSH3 0x1F4 DUP2 PUSH3 0x1C9 JUMP JUMPDEST SWAP3 SWAP2 POP POP JUMP JUMPDEST PUSH1 0x0 PUSH20 0xFFFFFFFFFFFFFFFFFFFFFFFFFFFFFFFFFFFFFFFF DUP3 AND SWAP1 POP SWAP2 SWAP1 POP JUMP JUMPDEST PUSH1 0x0 PUSH3 0x227 DUP3 PUSH3 0x1FA JUMP JUMPDEST SWAP1 POP SWAP2 SWAP1 POP JUMP JUMPDEST PUSH3 0x239 DUP2 PUSH3 0x21A JUMP JUMPDEST DUP2 EQ PUSH3 0x245 JUMPI PUSH1 0x0 DUP1 REVERT JUMPDEST POP JUMP JUMPDEST PUSH1 0x0 DUP2 MLOAD SWAP1 POP PUSH3 0x259 DUP2 PUSH3 0x22E JUMP JUMPDEST SWAP3 SWAP2 POP POP JUMP JUMPDEST PUSH1 0x0 DUP1 REVERT JUMPDEST PUSH1 0x0 DUP1 REVERT JUMPDEST PUSH1 0x0 PUSH1 0x1F NOT PUSH1 0x1F DUP4 ADD AND SWAP1 POP SWAP2 SWAP1 POP JUMP JUMPDEST PUSH32 0x4E487B7100000000000000000000000000000000000000000000000000000000 PUSH1 0x0 MSTORE PUSH1 0x41 PUSH1 0x4 MSTORE PUSH1 0x24 PUSH1 0x0 REVERT JUMPDEST PUSH3 0x2B4 DUP3 PUSH3 0x269 JUMP JUMPDEST DUP2 ADD DUP2 DUP2 LT PUSH8 0xFFFFFFFFFFFFFFFF DUP3 GT OR ISZERO PUSH3 0x2D6 JUMPI PUSH3 0x2D5 PUSH3 0x27A JUMP JUMPDEST JUMPDEST DUP1 PUSH1 0x40 MSTORE POP POP POP JUMP JUMPDEST PUSH1 0x0 PUSH3 0x2EB PUSH3 0x1AB JUMP JUMPDEST SWAP1 POP PUSH3 0x2F9 DUP3 DUP3 PUSH3 0x2A9 JUMP JUMPDEST SWAP2 SWAP1 POP JUMP JUMPDEST PUSH1 0x0 PUSH8 0xFFFFFFFFFFFFFFFF DUP3 GT ISZERO PUSH3 0x31C JUMPI PUSH3 0x31B PUSH3 0x27A JUMP JUMPDEST JUMPDEST PUSH3 0x327 DUP3 PUSH3 0x269 JUMP JUMPDEST SWAP1 POP PUSH1 0x20 DUP2 ADD SWAP1 POP SWAP2 SWAP1 POP JUMP JUMPDEST PUSH1 0x0 JUMPDEST DUP4 DUP2 LT ISZERO PUSH3 0x354 JUMPI DUP1 DUP3 ADD MLOAD DUP2 DUP5 ADD MSTORE PUSH1 0x20 DUP2 ADD SWAP1 POP PUSH3 0x337 JUMP JUMPDEST DUP4 DUP2 GT ISZERO PUSH3 0x364 JUMPI PUSH1 0x0 DUP5 DUP5 ADD MSTORE JUMPDEST POP POP POP POP JUMP JUMPDEST PUSH1 0x0 PUSH3 0x381 PUSH3 0x37B DUP5 PUSH3 0x2FE JUMP JUMPDEST PUSH3 0x2DF JUMP JUMPDEST SWAP1 POP DUP3 DUP2 MSTORE PUSH1 0x20 DUP2 ADD DUP5 DUP5 DUP5 ADD GT ISZERO PUSH3 0x3A0 JUMPI PUSH3 0x39F PUSH3 0x264 JUMP JUMPDEST JUMPDEST PUSH3 0x3AD DUP5 DUP3 DUP6 PUSH3 0x334 JUMP JUMPDEST POP SWAP4 SWAP3 POP POP POP JUMP JUMPDEST PUSH1 0x0 DUP3 PUSH1 0x1F DUP4 ADD SLT PUSH3 0x3CD JUMPI PUSH3 0x3CC PUSH3 0x25F JUMP JUMPDEST JUMPDEST DUP2 MLOAD PUSH3 0x3DF DUP5 DUP3 PUSH1 0x20 DUP7 ADD PUSH3 0x36A JUMP JUMPDEST SWAP2 POP POP SWAP3 SWAP2 POP POP JUMP JUMPDEST PUSH1 0x0 DUP1 PUSH1 0x0 DUP1 PUSH1 0x0 DUP1 PUSH1 0x0 PUSH1 0xE0 DUP9 DUP11 SUB SLT ISZERO PUSH3 0x40A JUMPI PUSH3 0x409 PUSH3 0x1B5 JUMP JUMPDEST JUMPDEST PUSH1 0x0 PUSH3 0x41A DUP11 DUP3 DUP12 ADD PUSH3 0x1E3 JUMP JUMPDEST SWAP8 POP POP PUSH1 0x20 PUSH3 0x42D DUP11 DUP3 DUP12 ADD PUSH3 0x248 JUMP JUMPDEST SWAP7 POP POP PUSH1 0x40 DUP9 ADD MLOAD PUSH8 0xFFFFFFFFFFFFFFFF DUP2 GT ISZERO PUSH3 0x451 JUMPI PUSH3 0x450 PUSH3 0x1BA JUMP JUMPDEST JUMPDEST PUSH3 0x45F DUP11 DUP3 DUP12 ADD PUSH3 0x3B5 JUMP JUMPDEST SWAP6 POP POP PUSH1 0x60 DUP9 ADD MLOAD PUSH8 0xFFFFFFFFFFFFFFFF DUP2 GT ISZERO PUSH3 0x483 JUMPI PUSH3 0x482 PUSH3 0x1BA JUMP JUMPDEST JUMPDEST PUSH3 0x491 DUP11 DUP3 DUP12 ADD PUSH3 0x3B5 JUMP JUMPDEST SWAP5 POP POP PUSH1 0x80 DUP9 ADD MLOAD PUSH8 0xFFFFFFFFFFFFFFFF DUP2 GT ISZERO PUSH3 0x4B5 JUMPI PUSH3 0x4B4 PUSH3 0x1BA JUMP JUMPDEST JUMPDEST PUSH3 0x4C3 DUP11 DUP3 DUP12 ADD PUSH3 0x3B5 JUMP JUMPDEST SWAP4 POP POP PUSH1 0xA0 PUSH3 0x4D6 DUP11 DUP3 DUP12 ADD PUSH3 0x1E3 JUMP JUMPDEST SWAP3 POP POP PUSH1 0xC0 DUP9 ADD MLOAD PUSH8 0xFFFFFFFFFFFFFFFF DUP2 GT ISZERO PUSH3 0x4FA JUMPI PUSH3 0x4F9 PUSH3 0x1BA JUMP JUMPDEST JUMPDEST PUSH3 0x508 DUP11 DUP3 DUP12 ADD PUSH3 0x3B5 JUMP JUMPDEST SWAP2 POP POP SWAP3 SWAP6 SWAP9 SWAP2 SWAP5 SWAP8 POP SWAP3 SWAP6 POP JUMP JUMPDEST PUSH32 0x4E487B7100000000000000000000000000000000000000000000000000000000 PUSH1 0x0 MSTORE PUSH1 0x22 PUSH1 0x4 MSTORE PUSH1 0x24 PUSH1 0x0 REVERT JUMPDEST PUSH1 0x0 PUSH1 0x2 DUP3 DIV SWAP1 POP PUSH1 0x1 DUP3 AND DUP1 PUSH3 0x55F JUMPI PUSH1 0x7F DUP3 AND SWAP2 POP JUMPDEST PUSH1 0x20 DUP3 LT DUP2 EQ ISZERO PUSH3 0x576 JUMPI PUSH3 0x575 PUSH3 0x517 JUMP JUMPDEST JUMPDEST POP SWAP2 SWAP1 POP JUMP JUMPDEST PUSH2 0x2473 DUP1 PUSH3 0x58C PUSH1 0x0 CODECOPY PUSH1 0x0 RETURN INVALID PUSH1 0x80 PUSH1 0x40 MSTORE PUSH1 0x4 CALLDATASIZE LT PUSH2 0x140 JUMPI PUSH1 0x0 CALLDATALOAD PUSH1 0xE0 SHR DUP1 PUSH4 0x8A9CFD55 GT PUSH2 0xB6 JUMPI DUP1 PUSH4 0xB2A87FC3 GT PUSH2 0x6F JUMPI DUP1 PUSH4 0xB2A87FC3 EQ PUSH2 0x465 JUMPI DUP1 PUSH4 0xD350FE1F EQ PUSH2 0x490 JUMPI DUP1 PUSH4 0xD7D1BBDB EQ PUSH2 0x4AE JUMPI DUP1 PUSH4 0xE0FE3BB4 EQ PUSH2 0x4D7 JUMPI DUP1 PUSH4 0xE90B44F2 EQ PUSH2 0x502 JUMPI DUP1 PUSH4 0xEA25213F EQ PUSH2 0x53F JUMPI PUSH2 0x140 JUMP JUMPDEST DUP1 PUSH4 0x8A9CFD55 EQ PUSH2 0x360 JUMPI DUP1 PUSH4 0x8ADB87F4 EQ PUSH2 0x389 JUMPI DUP1 PUSH4 0x937E09B1 EQ PUSH2 0x3C6 JUMPI DUP1 PUSH4 0x97654A8C EQ PUSH2 0x3F1 JUMPI DUP1 PUSH4 0xABA83150 EQ PUSH2 0x41C JUMPI DUP1 PUSH4 0xAC307773 EQ PUSH2 0x447 JUMPI PUSH2 0x140 JUMP JUMPDEST DUP1 PUSH4 0x3410452A GT PUSH2 0x108 JUMPI DUP1 PUSH4 0x3410452A EQ PUSH2 0x23E JUMPI DUP1 PUSH4 0x4051DDAC EQ PUSH2 0x269 JUMPI DUP1 PUSH4 0x481C6A75 EQ PUSH2 0x29E JUMPI DUP1 PUSH4 0x7E7CD1B3 EQ PUSH2 0x2C9 JUMPI DUP1 PUSH4 0x81D12C58 EQ PUSH2 0x2F4 JUMPI DUP1 PUSH4 0x82FDE093 EQ PUSH2 0x335 JUMPI PUSH2 0x140 JUMP JUMPDEST DUP1 PUSH4 0x3441006 EQ PUSH2 0x145 JUMPI DUP1 PUSH4 0xA144391 EQ PUSH2 0x16E JUMPI DUP1 PUSH4 0x1D6F8223 EQ PUSH2 0x1AB JUMPI DUP1 PUSH4 0x1FBED579 EQ PUSH2 0x1D6 JUMPI DUP1 PUSH4 0x3228FF95 EQ PUSH2 0x213 JUMPI JUMPDEST PUSH1 0x0 DUP1 REVERT JUMPDEST CALLVALUE DUP1 ISZERO PUSH2 0x151 JUMPI PUSH1 0x0 DUP1 REVERT JUMPDEST POP PUSH2 0x16C PUSH1 0x4 DUP1 CALLDATASIZE SUB DUP2 ADD SWAP1 PUSH2 0x167 SWAP2 SWAP1 PUSH2 0x18B2 JUMP JUMPDEST PUSH2 0x549 JUMP JUMPDEST STOP JUMPDEST CALLVALUE DUP1 ISZERO PUSH2 0x17A JUMPI PUSH1 0x0 DUP1 REVERT JUMPDEST POP PUSH2 0x195 PUSH1 0x4 DUP1 CALLDATASIZE SUB DUP2 ADD SWAP1 PUSH2 0x190 SWAP2 SWAP1 PUSH2 0x193D JUMP JUMPDEST PUSH2 0x752 JUMP JUMPDEST PUSH1 0x40 MLOAD PUSH2 0x1A2 SWAP2 SWAP1 PUSH2 0x1985 JUMP JUMPDEST PUSH1 0x40 MLOAD DUP1 SWAP2 SUB SWAP1 RETURN JUMPDEST CALLVALUE DUP1 ISZERO PUSH2 0x1B7 JUMPI PUSH1 0x0 DUP1 REVERT JUMPDEST POP PUSH2 0x1C0 PUSH2 0x772 JUMP JUMPDEST PUSH1 0x40 MLOAD PUSH2 0x1CD SWAP2 SWAP1 PUSH2 0x1A39 JUMP JUMPDEST PUSH1 0x40 MLOAD DUP1 SWAP2 SUB SWAP1 RETURN JUMPDEST CALLVALUE DUP1 ISZERO PUSH2 0x1E2 JUMPI PUSH1 0x0 DUP1 REVERT JUMPDEST POP PUSH2 0x1FD PUSH1 0x4 DUP1 CALLDATASIZE SUB DUP2 ADD SWAP1 PUSH2 0x1F8 SWAP2 SWAP1 PUSH2 0x18B2 JUMP JUMPDEST PUSH2 0x800 JUMP JUMPDEST PUSH1 0x40 MLOAD PUSH2 0x20A SWAP2 SWAP1 PUSH2 0x1A6A JUMP JUMPDEST PUSH1 0x40 MLOAD DUP1 SWAP2 SUB SWAP1 RETURN JUMPDEST CALLVALUE DUP1 ISZERO PUSH2 0x21F JUMPI PUSH1 0x0 DUP1 REVERT JUMPDEST POP PUSH2 0x228 PUSH2 0x83F JUMP JUMPDEST PUSH1 0x40 MLOAD PUSH2 0x235 SWAP2 SWAP1 PUSH2 0x1A94 JUMP JUMPDEST PUSH1 0x40 MLOAD DUP1 SWAP2 SUB SWAP1 RETURN JUMPDEST CALLVALUE DUP1 ISZERO PUSH2 0x24A JUMPI PUSH1 0x0 DUP1 REVERT JUMPDEST POP PUSH2 0x253 PUSH2 0x849 JUMP JUMPDEST PUSH1 0x40 MLOAD PUSH2 0x260 SWAP2 SWAP1 PUSH2 0x1A94 JUMP JUMPDEST PUSH1 0x40 MLOAD DUP1 SWAP2 SUB SWAP1 RETURN JUMPDEST CALLVALUE DUP1 ISZERO PUSH2 0x275 JUMPI PUSH1 0x0 DUP1 REVERT JUMPDEST POP PUSH2 0x27E PUSH2 0x853 JUMP JUMPDEST PUSH1 0x40 MLOAD PUSH2 0x295 SWAP12 SWAP11 SWAP10 SWAP9 SWAP8 SWAP7 SWAP6 SWAP5 SWAP4 SWAP3 SWAP2 SWAP1 PUSH2 0x1AAF JUMP JUMPDEST PUSH1 0x40 MLOAD DUP1 SWAP2 SUB SWAP1 RETURN JUMPDEST CALLVALUE DUP1 ISZERO PUSH2 0x2AA JUMPI PUSH1 0x0 DUP1 REVERT JUMPDEST POP PUSH2 0x2B3 PUSH2 0xAF2 JUMP JUMPDEST PUSH1 0x40 MLOAD PUSH2 0x2C0 SWAP2 SWAP1 PUSH2 0x1A6A JUMP JUMPDEST PUSH1 0x40 MLOAD DUP1 SWAP2 SUB SWAP1 RETURN JUMPDEST CALLVALUE DUP1 ISZERO PUSH2 0x2D5 JUMPI PUSH1 0x0 DUP1 REVERT JUMPDEST POP PUSH2 0x2DE PUSH2 0xB16 JUMP JUMPDEST PUSH1 0x40 MLOAD PUSH2 0x2EB SWAP2 SWAP1 PUSH2 0x1A39 JUMP JUMPDEST PUSH1 0x40 MLOAD DUP1 SWAP2 SUB SWAP1 RETURN JUMPDEST CALLVALUE DUP1 ISZERO PUSH2 0x300 JUMPI PUSH1 0x0 DUP1 REVERT JUMPDEST POP PUSH2 0x31B PUSH1 0x4 DUP1 CALLDATASIZE SUB DUP2 ADD SWAP1 PUSH2 0x316 SWAP2 SWAP1 PUSH2 0x18B2 JUMP JUMPDEST PUSH2 0xBA4 JUMP JUMPDEST PUSH1 0x40 MLOAD PUSH2 0x32C SWAP6 SWAP5 SWAP4 SWAP3 SWAP2 SWAP1 PUSH2 0x1B97 JUMP JUMPDEST PUSH1 0x40 MLOAD DUP1 SWAP2 SUB SWAP1 RETURN JUMPDEST CALLVALUE DUP1 ISZERO PUSH2 0x341 JUMPI PUSH1 0x0 DUP1 REVERT JUMPDEST POP PUSH2 0x34A PUSH2 0xC8F JUMP JUMPDEST PUSH1 0x40 MLOAD PUSH2 0x357 SWAP2 SWAP1 PUSH2 0x1A94 JUMP JUMPDEST PUSH1 0x40 MLOAD DUP1 SWAP2 SUB SWAP1 RETURN JUMPDEST CALLVALUE DUP1 ISZERO PUSH2 0x36C JUMPI PUSH1 0x0 DUP1 REVERT JUMPDEST POP PUSH2 0x387 PUSH1 0x4 DUP1 CALLDATASIZE SUB DUP2 ADD SWAP1 PUSH2 0x382 SWAP2 SWAP1 PUSH2 0x1D52 JUMP JUMPDEST PUSH2 0xC95 JUMP JUMPDEST STOP JUMPDEST CALLVALUE DUP1 ISZERO PUSH2 0x395 JUMPI PUSH1 0x0 DUP1 REVERT JUMPDEST POP PUSH2 0x3B0 PUSH1 0x4 DUP1 CALLDATASIZE SUB DUP2 ADD SWAP1 PUSH2 0x3AB SWAP2 SWAP1 PUSH2 0x193D JUMP JUMPDEST PUSH2 0xDE2 JUMP JUMPDEST PUSH1 0x40 MLOAD PUSH2 0x3BD SWAP2 SWAP1 PUSH2 0x1A94 JUMP JUMPDEST PUSH1 0x40 MLOAD DUP1 SWAP2 SUB SWAP1 RETURN JUMPDEST CALLVALUE DUP1 ISZERO PUSH2 0x3D2 JUMPI PUSH1 0x0 DUP1 REVERT JUMPDEST POP PUSH2 0x3DB PUSH2 0xE2B JUMP JUMPDEST PUSH1 0x40 MLOAD PUSH2 0x3E8 SWAP2 SWAP1 PUSH2 0x1A94 JUMP JUMPDEST PUSH1 0x40 MLOAD DUP1 SWAP2 SUB SWAP1 RETURN JUMPDEST CALLVALUE DUP1 ISZERO PUSH2 0x3FD JUMPI PUSH1 0x0 DUP1 REVERT JUMPDEST POP PUSH2 0x406 PUSH2 0xE31 JUMP JUMPDEST PUSH1 0x40 MLOAD PUSH2 0x413 SWAP2 SWAP1 PUSH2 0x1A39 JUMP JUMPDEST PUSH1 0x40 MLOAD DUP1 SWAP2 SUB SWAP1 RETURN JUMPDEST CALLVALUE DUP1 ISZERO PUSH2 0x428 JUMPI PUSH1 0x0 DUP1 REVERT JUMPDEST POP PUSH2 0x431 PUSH2 0xEBF JUMP JUMPDEST PUSH1 0x40 MLOAD PUSH2 0x43E SWAP2 SWAP1 PUSH2 0x1A39 JUMP JUMPDEST PUSH1 0x40 MLOAD DUP1 SWAP2 SUB SWAP1 RETURN JUMPDEST PUSH2 0x44F PUSH2 0xF4D JUMP JUMPDEST PUSH1 0x40 MLOAD PUSH2 0x45C SWAP2 SWAP1 PUSH2 0x1985 JUMP JUMPDEST PUSH1 0x40 MLOAD DUP1 SWAP2 SUB SWAP1 RETURN JUMPDEST CALLVALUE DUP1 ISZERO PUSH2 0x471 JUMPI PUSH1 0x0 DUP1 REVERT JUMPDEST POP PUSH2 0x47A PUSH2 0x10C6 JUMP JUMPDEST PUSH1 0x40 MLOAD PUSH2 0x487 SWAP2 SWAP1 PUSH2 0x1A94 JUMP JUMPDEST PUSH1 0x40 MLOAD DUP1 SWAP2 SUB SWAP1 RETURN JUMPDEST PUSH2 0x498 PUSH2 0x10CC JUMP JUMPDEST PUSH1 0x40 MLOAD PUSH2 0x4A5 SWAP2 SWAP1 PUSH2 0x1985 JUMP JUMPDEST PUSH1 0x40 MLOAD DUP1 SWAP2 SUB SWAP1 RETURN JUMPDEST CALLVALUE DUP1 ISZERO PUSH2 0x4BA JUMPI PUSH1 0x0 DUP1 REVERT JUMPDEST POP PUSH2 0x4D5 PUSH1 0x4 DUP1 CALLDATASIZE SUB DUP2 ADD SWAP1 PUSH2 0x4D0 SWAP2 SWAP1 PUSH2 0x18B2 JUMP JUMPDEST PUSH2 0x1369 JUMP JUMPDEST STOP JUMPDEST CALLVALUE DUP1 ISZERO PUSH2 0x4E3 JUMPI PUSH1 0x0 DUP1 REVERT JUMPDEST POP PUSH2 0x4EC PUSH2 0x1513 JUMP JUMPDEST PUSH1 0x40 MLOAD PUSH2 0x4F9 SWAP2 SWAP1 PUSH2 0x1A94 JUMP JUMPDEST PUSH1 0x40 MLOAD DUP1 SWAP2 SUB SWAP1 RETURN JUMPDEST CALLVALUE DUP1 ISZERO PUSH2 0x50E JUMPI PUSH1 0x0 DUP1 REVERT JUMPDEST POP PUSH2 0x529 PUSH1 0x4 DUP1 CALLDATASIZE SUB DUP2 ADD SWAP1 PUSH2 0x524 SWAP2 SWAP1 PUSH2 0x193D JUMP JUMPDEST PUSH2 0x1524 JUMP JUMPDEST PUSH1 0x40 MLOAD PUSH2 0x536 SWAP2 SWAP1 PUSH2 0x1A94 JUMP JUMPDEST PUSH1 0x40 MLOAD DUP1 SWAP2 SUB SWAP1 RETURN JUMPDEST PUSH2 0x547 PUSH2 0x153C JUMP JUMPDEST STOP JUMPDEST PUSH1 0x0 DUP1 SLOAD SWAP1 PUSH2 0x100 EXP SWAP1 DIV PUSH20 0xFFFFFFFFFFFFFFFFFFFFFFFFFFFFFFFFFFFFFFFF AND PUSH20 0xFFFFFFFFFFFFFFFFFFFFFFFFFFFFFFFFFFFFFFFF AND CALLER PUSH20 0xFFFFFFFFFFFFFFFFFFFFFFFFFFFFFFFFFFFFFFFF AND EQ PUSH2 0x5D7 JUMPI PUSH1 0x40 MLOAD PUSH32 0x8C379A000000000000000000000000000000000000000000000000000000000 DUP2 MSTORE PUSH1 0x4 ADD PUSH2 0x5CE SWAP1 PUSH2 0x1E33 JUMP JUMPDEST PUSH1 0x40 MLOAD DUP1 SWAP2 SUB SWAP1 REVERT JUMPDEST PUSH1 0x0 PUSH1 0xD PUSH1 0x0 DUP4 DUP2 MSTORE PUSH1 0x20 ADD SWAP1 DUP2 MSTORE PUSH1 0x20 ADD PUSH1 0x0 KECCAK256 SWAP1 POP PUSH1 0x2 PUSH1 0xB SLOAD PUSH2 0x5FD SWAP2 SWAP1 PUSH2 0x1EB1 JUMP JUMPDEST DUP2 PUSH1 0x3 ADD SLOAD LT ISZERO PUSH2 0x643 JUMPI PUSH1 0x40 MLOAD PUSH32 0x8C379A000000000000000000000000000000000000000000000000000000000 DUP2 MSTORE PUSH1 0x4 ADD PUSH2 0x63A SWAP1 PUSH2 0x1F2E JUMP JUMPDEST PUSH1 0x40 MLOAD DUP1 SWAP2 SUB SWAP1 REVERT JUMPDEST DUP1 PUSH1 0x2 ADD PUSH1 0x14 SWAP1 SLOAD SWAP1 PUSH2 0x100 EXP SWAP1 DIV PUSH1 0xFF AND ISZERO PUSH2 0x695 JUMPI PUSH1 0x40 MLOAD PUSH32 0x8C379A000000000000000000000000000000000000000000000000000000000 DUP2 MSTORE PUSH1 0x4 ADD PUSH2 0x68C SWAP1 PUSH2 0x1F9A JUMP JUMPDEST PUSH1 0x40 MLOAD DUP1 SWAP2 SUB SWAP1 REVERT JUMPDEST PUSH1 0x0 DUP2 PUSH1 0x2 ADD PUSH1 0x0 SWAP1 SLOAD SWAP1 PUSH2 0x100 EXP SWAP1 DIV PUSH20 0xFFFFFFFFFFFFFFFFFFFFFFFFFFFFFFFFFFFFFFFF AND PUSH20 0xFFFFFFFFFFFFFFFFFFFFFFFFFFFFFFFFFFFFFFFF AND DUP3 PUSH1 0x1 ADD SLOAD PUSH1 0x40 MLOAD PUSH2 0x6E3 SWAP1 PUSH2 0x1FEB JUMP JUMPDEST PUSH1 0x0 PUSH1 0x40 MLOAD DUP1 DUP4 SUB DUP2 DUP6 DUP8 GAS CALL SWAP3 POP POP POP RETURNDATASIZE DUP1 PUSH1 0x0 DUP2 EQ PUSH2 0x720 JUMPI PUSH1 0x40 MLOAD SWAP2 POP PUSH1 0x1F NOT PUSH1 0x3F RETURNDATASIZE ADD AND DUP3 ADD PUSH1 0x40 MSTORE RETURNDATASIZE DUP3 MSTORE RETURNDATASIZE PUSH1 0x0 PUSH1 0x20 DUP5 ADD RETURNDATACOPY PUSH2 0x725 JUMP JUMPDEST PUSH1 0x60 SWAP2 POP JUMPDEST POP POP SWAP1 POP DUP1 ISZERO PUSH2 0x74D JUMPI PUSH1 0x1 DUP3 PUSH1 0x2 ADD PUSH1 0x14 PUSH2 0x100 EXP DUP2 SLOAD DUP2 PUSH1 0xFF MUL NOT AND SWAP1 DUP4 ISZERO ISZERO MUL OR SWAP1 SSTORE POP JUMPDEST POP POP POP JUMP JUMPDEST PUSH1 0xA PUSH1 0x20 MSTORE DUP1 PUSH1 0x0 MSTORE PUSH1 0x40 PUSH1 0x0 KECCAK256 PUSH1 0x0 SWAP2 POP SLOAD SWAP1 PUSH2 0x100 EXP SWAP1 DIV PUSH1 0xFF AND DUP2 JUMP JUMPDEST PUSH1 0x4 DUP1 SLOAD PUSH2 0x77F SWAP1 PUSH2 0x202F JUMP JUMPDEST DUP1 PUSH1 0x1F ADD PUSH1 0x20 DUP1 SWAP2 DIV MUL PUSH1 0x20 ADD PUSH1 0x40 MLOAD SWAP1 DUP2 ADD PUSH1 0x40 MSTORE DUP1 SWAP3 SWAP2 SWAP1 DUP2 DUP2 MSTORE PUSH1 0x20 ADD DUP3 DUP1 SLOAD PUSH2 0x7AB SWAP1 PUSH2 0x202F JUMP JUMPDEST DUP1 ISZERO PUSH2 0x7F8 JUMPI DUP1 PUSH1 0x1F LT PUSH2 0x7CD JUMPI PUSH2 0x100 DUP1 DUP4 SLOAD DIV MUL DUP4 MSTORE SWAP2 PUSH1 0x20 ADD SWAP2 PUSH2 0x7F8 JUMP JUMPDEST DUP3 ADD SWAP2 SWAP1 PUSH1 0x0 MSTORE PUSH1 0x20 PUSH1 0x0 KECCAK256 SWAP1 JUMPDEST DUP2 SLOAD DUP2 MSTORE SWAP1 PUSH1 0x1 ADD SWAP1 PUSH1 0x20 ADD DUP1 DUP4 GT PUSH2 0x7DB JUMPI DUP3 SWAP1 SUB PUSH1 0x1F AND DUP3 ADD SWAP2 JUMPDEST POP POP POP POP POP DUP2 JUMP JUMPDEST PUSH1 0x8 DUP2 DUP2 SLOAD DUP2 LT PUSH2 0x810 JUMPI PUSH1 0x0 DUP1 REVERT JUMPDEST SWAP1 PUSH1 0x0 MSTORE PUSH1 0x20 PUSH1 0x0 KECCAK256 ADD PUSH1 0x0 SWAP2 POP SLOAD SWAP1 PUSH2 0x100 EXP SWAP1 DIV PUSH20 0xFFFFFFFFFFFFFFFFFFFFFFFFFFFFFFFFFFFFFFFF AND DUP2 JUMP JUMPDEST PUSH1 0x0 PUSH1 0x7 SLOAD SWAP1 POP SWAP1 JUMP JUMPDEST PUSH1 0x0 PUSH1 0xC SLOAD SWAP1 POP SWAP1 JUMP JUMPDEST PUSH1 0x0 DUP1 PUSH1 0x0 DUP1 PUSH1 0x0 PUSH1 0x60 DUP1 PUSH1 0x60 PUSH1 0x0 PUSH1 0x60 PUSH1 0x0 PUSH1 0x1 SLOAD SELFBALANCE PUSH1 0xC SLOAD PUSH1 0xB SLOAD PUSH1 0x0 DUP1 SLOAD SWAP1 PUSH2 0x100 EXP SWAP1 DIV PUSH20 0xFFFFFFFFFFFFFFFFFFFFFFFFFFFFFFFFFFFFFFFF AND PUSH1 0x2 PUSH1 0x3 PUSH1 0x5 PUSH1 0x6 SLOAD PUSH1 0x4 PUSH1 0x7 SLOAD DUP6 DUP1 SLOAD PUSH2 0x8AB SWAP1 PUSH2 0x202F JUMP JUMPDEST DUP1 PUSH1 0x1F ADD PUSH1 0x20 DUP1 SWAP2 DIV MUL PUSH1 0x20 ADD PUSH1 0x40 MLOAD SWAP1 DUP2 ADD PUSH1 0x40 MSTORE DUP1 SWAP3 SWAP2 SWAP1 DUP2 DUP2 MSTORE PUSH1 0x20 ADD DUP3 DUP1 SLOAD PUSH2 0x8D7 SWAP1 PUSH2 0x202F JUMP JUMPDEST DUP1 ISZERO PUSH2 0x924 JUMPI DUP1 PUSH1 0x1F LT PUSH2 0x8F9 JUMPI PUSH2 0x100 DUP1 DUP4 SLOAD DIV MUL DUP4 MSTORE SWAP2 PUSH1 0x20 ADD SWAP2 PUSH2 0x924 JUMP JUMPDEST DUP3 ADD SWAP2 SWAP1 PUSH1 0x0 MSTORE PUSH1 0x20 PUSH1 0x0 KECCAK256 SWAP1 JUMPDEST DUP2 SLOAD DUP2 MSTORE SWAP1 PUSH1 0x1 ADD SWAP1 PUSH1 0x20 ADD DUP1 DUP4 GT PUSH2 0x907 JUMPI DUP3 SWAP1 SUB PUSH1 0x1F AND DUP3 ADD SWAP2 JUMPDEST POP POP POP POP POP SWAP6 POP DUP5 DUP1 SLOAD PUSH2 0x937 SWAP1 PUSH2 0x202F JUMP JUMPDEST DUP1 PUSH1 0x1F ADD PUSH1 0x20 DUP1 SWAP2 DIV MUL PUSH1 0x20 ADD PUSH1 0x40 MLOAD SWAP1 DUP2 ADD PUSH1 0x40 MSTORE DUP1 SWAP3 SWAP2 SWAP1 DUP2 DUP2 MSTORE PUSH1 0x20 ADD DUP3 DUP1 SLOAD PUSH2 0x963 SWAP1 PUSH2 0x202F JUMP JUMPDEST DUP1 ISZERO PUSH2 0x9B0 JUMPI DUP1 PUSH1 0x1F LT PUSH2 0x985 JUMPI PUSH2 0x100 DUP1 DUP4 SLOAD DIV MUL DUP4 MSTORE SWAP2 PUSH1 0x20 ADD SWAP2 PUSH2 0x9B0 JUMP JUMPDEST DUP3 ADD SWAP2 SWAP1 PUSH1 0x0 MSTORE PUSH1 0x20 PUSH1 0x0 KECCAK256 SWAP1 JUMPDEST DUP2 SLOAD DUP2 MSTORE SWAP1 PUSH1 0x1 ADD SWAP1 PUSH1 0x20 ADD DUP1 DUP4 GT PUSH2 0x993 JUMPI DUP3 SWAP1 SUB PUSH1 0x1F AND DUP3 ADD SWAP2 JUMPDEST POP POP POP POP POP SWAP5 POP DUP4 DUP1 SLOAD PUSH2 0x9C3 SWAP1 PUSH2 0x202F JUMP JUMPDEST DUP1 PUSH1 0x1F ADD PUSH1 0x20 DUP1 SWAP2 DIV MUL PUSH1 0x20 ADD PUSH1 0x40 MLOAD SWAP1 DUP2 ADD PUSH1 0x40 MSTORE DUP1 SWAP3 SWAP2 SWAP1 DUP2 DUP2 MSTORE PUSH1 0x20 ADD DUP3 DUP1 SLOAD PUSH2 0x9EF SWAP1 PUSH2 0x202F JUMP JUMPDEST DUP1 ISZERO PUSH2 0xA3C JUMPI DUP1 PUSH1 0x1F LT PUSH2 0xA11 JUMPI PUSH2 0x100 DUP1 DUP4 SLOAD DIV MUL DUP4 MSTORE SWAP2 PUSH1 0x20 ADD SWAP2 PUSH2 0xA3C JUMP JUMPDEST DUP3 ADD SWAP2 SWAP1 PUSH1 0x0 MSTORE PUSH1 0x20 PUSH1 0x0 KECCAK256 SWAP1 JUMPDEST DUP2 SLOAD DUP2 MSTORE SWAP1 PUSH1 0x1 ADD SWAP1 PUSH1 0x20 ADD DUP1 DUP4 GT PUSH2 0xA1F JUMPI DUP3 SWAP1 SUB PUSH1 0x1F AND DUP3 ADD SWAP2 JUMPDEST POP POP POP POP POP SWAP4 POP DUP2 DUP1 SLOAD PUSH2 0xA4F SWAP1 PUSH2 0x202F JUMP JUMPDEST DUP1 PUSH1 0x1F ADD PUSH1 0x20 DUP1 SWAP2 DIV MUL PUSH1 0x20 ADD PUSH1 0x40 MLOAD SWAP1 DUP2 ADD PUSH1 0x40 MSTORE DUP1 SWAP3 SWAP2 SWAP1 DUP2 DUP2 MSTORE PUSH1 0x20 ADD DUP3 DUP1 SLOAD PUSH2 0xA7B SWAP1 PUSH2 0x202F JUMP JUMPDEST DUP1 ISZERO PUSH2 0xAC8 JUMPI DUP1 PUSH1 0x1F LT PUSH2 0xA9D JUMPI PUSH2 0x100 DUP1 DUP4 SLOAD DIV MUL DUP4 MSTORE SWAP2 PUSH1 0x20 ADD SWAP2 PUSH2 0xAC8 JUMP JUMPDEST DUP3 ADD SWAP2 SWAP1 PUSH1 0x0 MSTORE PUSH1 0x20 PUSH1 0x0 KECCAK256 SWAP1 JUMPDEST DUP2 SLOAD DUP2 MSTORE SWAP1 PUSH1 0x1 ADD SWAP1 PUSH1 0x20 ADD DUP1 DUP4 GT PUSH2 0xAAB JUMPI DUP3 SWAP1 SUB PUSH1 0x1F AND DUP3 ADD SWAP2 JUMPDEST POP POP POP POP POP SWAP2 POP SWAP11 POP SWAP11 POP SWAP11 POP SWAP11 POP SWAP11 POP SWAP11 POP SWAP11 POP SWAP11 POP SWAP11 POP SWAP11 POP SWAP11 POP SWAP1 SWAP2 SWAP3 SWAP4 SWAP5 SWAP6 SWAP7 SWAP8 SWAP9 SWAP10 SWAP11 JUMP JUMPDEST PUSH1 0x0 DUP1 SLOAD SWAP1 PUSH2 0x100 EXP SWAP1 DIV PUSH20 0xFFFFFFFFFFFFFFFFFFFFFFFFFFFFFFFFFFFFFFFF AND DUP2 JUMP JUMPDEST PUSH1 0x2 DUP1 SLOAD PUSH2 0xB23 SWAP1 PUSH2 0x202F JUMP JUMPDEST DUP1 PUSH1 0x1F ADD PUSH1 0x20 DUP1 SWAP2 DIV MUL PUSH1 0x20 ADD PUSH1 0x40 MLOAD SWAP1 DUP2 ADD PUSH1 0x40 MSTORE DUP1 SWAP3 SWAP2 SWAP1 DUP2 DUP2 MSTORE PUSH1 0x20 ADD DUP3 DUP1 SLOAD PUSH2 0xB4F SWAP1 PUSH2 0x202F JUMP JUMPDEST DUP1 ISZERO PUSH2 0xB9C JUMPI DUP1 PUSH1 0x1F LT PUSH2 0xB71 JUMPI PUSH2 0x100 DUP1 DUP4 SLOAD DIV MUL DUP4 MSTORE SWAP2 PUSH1 0x20 ADD SWAP2 PUSH2 0xB9C JUMP JUMPDEST DUP3 ADD SWAP2 SWAP1 PUSH1 0x0 MSTORE PUSH1 0x20 PUSH1 0x0 KECCAK256 SWAP1 JUMPDEST DUP2 SLOAD DUP2 MSTORE SWAP1 PUSH1 0x1 ADD SWAP1 PUSH1 0x20 ADD DUP1 DUP4 GT PUSH2 0xB7F JUMPI DUP3 SWAP1 SUB PUSH1 0x1F AND DUP3 ADD SWAP2 JUMPDEST POP POP POP POP POP DUP2 JUMP JUMPDEST PUSH1 0xD PUSH1 0x20 MSTORE DUP1 PUSH1 0x0 MSTORE PUSH1 0x40 PUSH1 0x0 KECCAK256 PUSH1 0x0 SWAP2 POP SWAP1 POP DUP1 PUSH1 0x0 ADD DUP1 SLOAD PUSH2 0xBC7 SWAP1 PUSH2 0x202F JUMP JUMPDEST DUP1 PUSH1 0x1F ADD PUSH1 0x20 DUP1 SWAP2 DIV MUL PUSH1 0x20 ADD PUSH1 0x40 MLOAD SWAP1 DUP2 ADD PUSH1 0x40 MSTORE DUP1 SWAP3 SWAP2 SWAP1 DUP2 DUP2 MSTORE PUSH1 0x20 ADD DUP3 DUP1 SLOAD PUSH2 0xBF3 SWAP1 PUSH2 0x202F JUMP JUMPDEST DUP1 ISZERO PUSH2 0xC40 JUMPI DUP1 PUSH1 0x1F LT PUSH2 0xC15 JUMPI PUSH2 0x100 DUP1 DUP4 SLOAD DIV MUL DUP4 MSTORE SWAP2 PUSH1 0x20 ADD SWAP2 PUSH2 0xC40 JUMP JUMPDEST DUP3 ADD SWAP2 SWAP1 PUSH1 0x0 MSTORE PUSH1 0x20 PUSH1 0x0 KECCAK256 SWAP1 JUMPDEST DUP2 SLOAD DUP2 MSTORE SWAP1 PUSH1 0x1 ADD SWAP1 PUSH1 0x20 ADD DUP1 DUP4 GT PUSH2 0xC23 JUMPI DUP3 SWAP1 SUB PUSH1 0x1F AND DUP3 ADD SWAP2 JUMPDEST POP POP POP POP POP SWAP1 DUP1 PUSH1 0x1 ADD SLOAD SWAP1 DUP1 PUSH1 0x2 ADD PUSH1 0x0 SWAP1 SLOAD SWAP1 PUSH2 0x100 EXP SWAP1 DIV PUSH20 0xFFFFFFFFFFFFFFFFFFFFFFFFFFFFFFFFFFFFFFFF AND SWAP1 DUP1 PUSH1 0x2 ADD PUSH1 0x14 SWAP1 SLOAD SWAP1 PUSH2 0x100 EXP SWAP1 DIV PUSH1 0xFF AND SWAP1 DUP1 PUSH1 0x3 ADD SLOAD SWAP1 POP DUP6 JUMP JUMPDEST PUSH1 0xB SLOAD DUP2 JUMP JUMPDEST PUSH1 0x0 DUP1 SLOAD SWAP1 PUSH2 0x100 EXP SWAP1 DIV PUSH20 0xFFFFFFFFFFFFFFFFFFFFFFFFFFFFFFFFFFFFFFFF AND PUSH20 0xFFFFFFFFFFFFFFFFFFFFFFFFFFFFFFFFFFFFFFFF AND CALLER PUSH20 0xFFFFFFFFFFFFFFFFFFFFFFFFFFFFFFFFFFFFFFFF AND EQ PUSH2 0xD23 JUMPI PUSH1 0x40 MLOAD PUSH32 0x8C379A000000000000000000000000000000000000000000000000000000000 DUP2 MSTORE PUSH1 0x4 ADD PUSH2 0xD1A SWAP1 PUSH2 0x1E33 JUMP JUMPDEST PUSH1 0x40 MLOAD DUP1 SWAP2 SUB SWAP1 REVERT JUMPDEST PUSH1 0x0 PUSH1 0xD PUSH1 0x0 PUSH1 0xC PUSH1 0x0 DUP2 SLOAD DUP1 SWAP3 SWAP2 SWAP1 PUSH2 0xD3C SWAP1 PUSH2 0x2061 JUMP JUMPDEST SWAP2 SWAP1 POP SSTORE DUP2 MSTORE PUSH1 0x20 ADD SWAP1 DUP2 MSTORE PUSH1 0x20 ADD PUSH1 0x0 KECCAK256 SWAP1 POP DUP4 DUP2 PUSH1 0x0 ADD SWAP1 DUP1 MLOAD SWAP1 PUSH1 0x20 ADD SWAP1 PUSH2 0xD68 SWAP3 SWAP2 SWAP1 PUSH2 0x17C5 JUMP JUMPDEST POP DUP3 DUP2 PUSH1 0x1 ADD DUP2 SWAP1 SSTORE POP DUP2 DUP2 PUSH1 0x2 ADD PUSH1 0x0 PUSH2 0x100 EXP DUP2 SLOAD DUP2 PUSH20 0xFFFFFFFFFFFFFFFFFFFFFFFFFFFFFFFFFFFFFFFF MUL NOT AND SWAP1 DUP4 PUSH20 0xFFFFFFFFFFFFFFFFFFFFFFFFFFFFFFFFFFFFFFFF AND MUL OR SWAP1 SSTORE POP PUSH1 0x0 DUP2 PUSH1 0x2 ADD PUSH1 0x14 PUSH2 0x100 EXP DUP2 SLOAD DUP2 PUSH1 0xFF MUL NOT AND SWAP1 DUP4 ISZERO ISZERO MUL OR SWAP1 SSTORE POP PUSH1 0x0 DUP2 PUSH1 0x3 ADD DUP2 SWAP1 SSTORE POP POP POP POP POP JUMP JUMPDEST PUSH1 0x0 PUSH1 0x9 PUSH1 0x0 DUP4 PUSH20 0xFFFFFFFFFFFFFFFFFFFFFFFFFFFFFFFFFFFFFFFF AND PUSH20 0xFFFFFFFFFFFFFFFFFFFFFFFFFFFFFFFFFFFFFFFF AND DUP2 MSTORE PUSH1 0x20 ADD SWAP1 DUP2 MSTORE PUSH1 0x20 ADD PUSH1 0x0 KECCAK256 SLOAD SWAP1 POP SWAP2 SWAP1 POP JUMP JUMPDEST PUSH1 0x1 SLOAD DUP2 JUMP JUMPDEST PUSH1 0x3 DUP1 SLOAD PUSH2 0xE3E SWAP1 PUSH2 0x202F JUMP JUMPDEST DUP1 PUSH1 0x1F ADD PUSH1 0x20 DUP1 SWAP2 DIV MUL PUSH1 0x20 ADD PUSH1 0x40 MLOAD SWAP1 DUP2 ADD PUSH1 0x40 MSTORE DUP1 SWAP3 SWAP2 SWAP1 DUP2 DUP2 MSTORE PUSH1 0x20 ADD DUP3 DUP1 SLOAD PUSH2 0xE6A SWAP1 PUSH2 0x202F JUMP JUMPDEST DUP1 ISZERO PUSH2 0xEB7 JUMPI DUP1 PUSH1 0x1F LT PUSH2 0xE8C JUMPI PUSH2 0x100 DUP1 DUP4 SLOAD DIV MUL DUP4 MSTORE SWAP2 PUSH1 0x20 ADD SWAP2 PUSH2 0xEB7 JUMP JUMPDEST DUP3 ADD SWAP2 SWAP1 PUSH1 0x0 MSTORE PUSH1 0x20 PUSH1 0x0 KECCAK256 SWAP1 JUMPDEST DUP2 SLOAD DUP2 MSTORE SWAP1 PUSH1 0x1 ADD SWAP1 PUSH1 0x20 ADD DUP1 DUP4 GT PUSH2 0xE9A JUMPI DUP3 SWAP1 SUB PUSH1 0x1F AND DUP3 ADD SWAP2 JUMPDEST POP POP POP POP POP DUP2 JUMP JUMPDEST PUSH1 0x5 DUP1 SLOAD PUSH2 0xECC SWAP1 PUSH2 0x202F JUMP JUMPDEST DUP1 PUSH1 0x1F ADD PUSH1 0x20 DUP1 SWAP2 DIV MUL PUSH1 0x20 ADD PUSH1 0x40 MLOAD SWAP1 DUP2 ADD PUSH1 0x40 MSTORE DUP1 SWAP3 SWAP2 SWAP1 DUP2 DUP2 MSTORE PUSH1 0x20 ADD DUP3 DUP1 SLOAD PUSH2 0xEF8 SWAP1 PUSH2 0x202F JUMP JUMPDEST DUP1 ISZERO PUSH2 0xF45 JUMPI DUP1 PUSH1 0x1F LT PUSH2 0xF1A JUMPI PUSH2 0x100 DUP1 DUP4 SLOAD DIV MUL DUP4 MSTORE SWAP2 PUSH1 0x20 ADD SWAP2 PUSH2 0xF45 JUMP JUMPDEST DUP3 ADD SWAP2 SWAP1 PUSH1 0x0 MSTORE PUSH1 0x20 PUSH1 0x0 KECCAK256 SWAP1 JUMPDEST DUP2 SLOAD DUP2 MSTORE SWAP1 PUSH1 0x1 ADD SWAP1 PUSH1 0x20 ADD DUP1 DUP4 GT PUSH2 0xF28 JUMPI DUP3 SWAP1 SUB PUSH1 0x1F AND DUP3 ADD SWAP2 JUMPDEST POP POP POP POP POP DUP2 JUMP JUMPDEST PUSH1 0x0 DUP1 PUSH1 0x0 SWAP1 SLOAD SWAP1 PUSH2 0x100 EXP SWAP1 DIV PUSH20 0xFFFFFFFFFFFFFFFFFFFFFFFFFFFFFFFFFFFFFFFF AND PUSH20 0xFFFFFFFFFFFFFFFFFFFFFFFFFFFFFFFFFFFFFFFF AND CALLER PUSH20 0xFFFFFFFFFFFFFFFFFFFFFFFFFFFFFFFFFFFFFFFF AND EQ PUSH2 0xFDE JUMPI PUSH1 0x40 MLOAD PUSH32 0x8C379A000000000000000000000000000000000000000000000000000000000 DUP2 MSTORE PUSH1 0x4 ADD PUSH2 0xFD5 SWAP1 PUSH2 0x1E33 JUMP JUMPDEST PUSH1 0x40 MLOAD DUP1 SWAP2 SUB SWAP1 REVERT JUMPDEST PUSH1 0x6 SLOAD SELFBALANCE LT ISZERO PUSH2 0x1023 JUMPI PUSH1 0x40 MLOAD PUSH32 0x8C379A000000000000000000000000000000000000000000000000000000000 DUP2 MSTORE PUSH1 0x4 ADD PUSH2 0x101A SWAP1 PUSH2 0x20F6 JUMP JUMPDEST PUSH1 0x40 MLOAD DUP1 SWAP2 SUB SWAP1 REVERT JUMPDEST PUSH1 0x0 DUP1 PUSH1 0x0 SWAP1 SLOAD SWAP1 PUSH2 0x100 EXP SWAP1 DIV PUSH20 0xFFFFFFFFFFFFFFFFFFFFFFFFFFFFFFFFFFFFFFFF AND PUSH20 0xFFFFFFFFFFFFFFFFFFFFFFFFFFFFFFFFFFFFFFFF AND SELFBALANCE PUSH1 0x40 MLOAD PUSH2 0x106A SWAP1 PUSH2 0x1FEB JUMP JUMPDEST PUSH1 0x0 PUSH1 0x40 MLOAD DUP1 DUP4 SUB DUP2 DUP6 DUP8 GAS CALL SWAP3 POP POP POP RETURNDATASIZE DUP1 PUSH1 0x0 DUP2 EQ PUSH2 0x10A7 JUMPI PUSH1 0x40 MLOAD SWAP2 POP PUSH1 0x1F NOT PUSH1 0x3F RETURNDATASIZE ADD AND DUP3 ADD PUSH1 0x40 MSTORE RETURNDATASIZE DUP3 MSTORE RETURNDATASIZE PUSH1 0x0 PUSH1 0x20 DUP5 ADD RETURNDATACOPY PUSH2 0x10AC JUMP JUMPDEST PUSH1 0x60 SWAP2 POP JUMPDEST POP POP SWAP1 POP DUP1 ISZERO PUSH2 0x10BF JUMPI PUSH1 0x0 PUSH1 0x7 DUP2 SWAP1 SSTORE POP JUMPDEST DUP1 SWAP2 POP POP SWAP1 JUMP JUMPDEST PUSH1 0x6 SLOAD DUP2 JUMP JUMPDEST PUSH1 0x0 DUP1 PUSH1 0x9 PUSH1 0x0 CALLER PUSH20 0xFFFFFFFFFFFFFFFFFFFFFFFFFFFFFFFFFFFFFFFF AND PUSH20 0xFFFFFFFFFFFFFFFFFFFFFFFFFFFFFFFFFFFFFFFF AND DUP2 MSTORE PUSH1 0x20 ADD SWAP1 DUP2 MSTORE PUSH1 0x20 ADD PUSH1 0x0 KECCAK256 SLOAD GT PUSH2 0x1119 JUMPI PUSH1 0x0 DUP1 REVERT JUMPDEST PUSH1 0x0 PUSH1 0x7 SLOAD EQ PUSH2 0x1128 JUMPI PUSH1 0x0 DUP1 REVERT JUMPDEST PUSH1 0x0 PUSH1 0x9 PUSH1 0x0 CALLER PUSH20 0xFFFFFFFFFFFFFFFFFFFFFFFFFFFFFFFFFFFFFFFF AND PUSH20 0xFFFFFFFFFFFFFFFFFFFFFFFFFFFFFFFFFFFFFFFF AND DUP2 MSTORE PUSH1 0x20 ADD SWAP1 DUP2 MSTORE PUSH1 0x20 ADD PUSH1 0x0 KECCAK256 SLOAD SWAP1 POP PUSH1 0x0 DUP1 JUMPDEST PUSH1 0x8 DUP1 SLOAD SWAP1 POP DUP2 LT ISZERO PUSH2 0x121B JUMPI PUSH1 0x9 PUSH1 0x0 PUSH1 0x8 DUP4 DUP2 SLOAD DUP2 LT PUSH2 0x1195 JUMPI PUSH2 0x1194 PUSH2 0x2116 JUMP JUMPDEST JUMPDEST SWAP1 PUSH1 0x0 MSTORE PUSH1 0x20 PUSH1 0x0 KECCAK256 ADD PUSH1 0x0 SWAP1 SLOAD SWAP1 PUSH2 0x100 EXP SWAP1 DIV PUSH20 0xFFFFFFFFFFFFFFFFFFFFFFFFFFFFFFFFFFFFFFFF AND PUSH20 0xFFFFFFFFFFFFFFFFFFFFFFFFFFFFFFFFFFFFFFFF AND PUSH20 0xFFFFFFFFFFFFFFFFFFFFFFFFFFFFFFFFFFFFFFFF AND DUP2 MSTORE PUSH1 0x20 ADD SWAP1 DUP2 MSTORE PUSH1 0x20 ADD PUSH1 0x0 KECCAK256 SLOAD DUP3 PUSH2 0x1206 SWAP2 SWAP1 PUSH2 0x2145 JUMP JUMPDEST SWAP2 POP DUP1 DUP1 PUSH2 0x1213 SWAP1 PUSH2 0x2061 JUMP JUMPDEST SWAP2 POP POP PUSH2 0x1170 JUMP JUMPDEST POP PUSH1 0x0 DUP2 PUSH1 0x64 DUP5 PUSH2 0x122C SWAP2 SWAP1 PUSH2 0x219B JUMP JUMPDEST PUSH2 0x1236 SWAP2 SWAP1 PUSH2 0x1EB1 JUMP JUMPDEST SWAP1 POP PUSH1 0x0 PUSH1 0x64 DUP3 SELFBALANCE PUSH2 0x1248 SWAP2 SWAP1 PUSH2 0x219B JUMP JUMPDEST PUSH2 0x1252 SWAP2 SWAP1 PUSH2 0x1EB1 JUMP JUMPDEST SWAP1 POP PUSH1 0x0 CALLER PUSH20 0xFFFFFFFFFFFFFFFFFFFFFFFFFFFFFFFFFFFFFFFF AND DUP3 PUSH1 0x40 MLOAD PUSH2 0x127A SWAP1 PUSH2 0x1FEB JUMP JUMPDEST PUSH1 0x0 PUSH1 0x40 MLOAD DUP1 DUP4 SUB DUP2 DUP6 DUP8 GAS CALL SWAP3 POP POP POP RETURNDATASIZE DUP1 PUSH1 0x0 DUP2 EQ PUSH2 0x12B7 JUMPI PUSH1 0x40 MLOAD SWAP2 POP PUSH1 0x1F NOT PUSH1 0x3F RETURNDATASIZE ADD AND DUP3 ADD PUSH1 0x40 MSTORE RETURNDATASIZE DUP3 MSTORE RETURNDATASIZE PUSH1 0x0 PUSH1 0x20 DUP5 ADD RETURNDATACOPY PUSH2 0x12BC JUMP JUMPDEST PUSH1 0x60 SWAP2 POP JUMPDEST POP POP SWAP1 POP DUP1 PUSH2 0x1300 JUMPI PUSH1 0x40 MLOAD PUSH32 0x8C379A000000000000000000000000000000000000000000000000000000000 DUP2 MSTORE PUSH1 0x4 ADD PUSH2 0x12F7 SWAP1 PUSH2 0x2241 JUMP JUMPDEST PUSH1 0x40 MLOAD DUP1 SWAP2 SUB SWAP1 REVERT JUMPDEST DUP1 ISZERO PUSH2 0x134C JUMPI PUSH1 0x0 PUSH1 0x9 PUSH1 0x0 CALLER PUSH20 0xFFFFFFFFFFFFFFFFFFFFFFFFFFFFFFFFFFFFFFFF AND PUSH20 0xFFFFFFFFFFFFFFFFFFFFFFFFFFFFFFFFFFFFFFFF AND DUP2 MSTORE PUSH1 0x20 ADD SWAP1 DUP2 MSTORE PUSH1 0x20 ADD PUSH1 0x0 KECCAK256 DUP2 SWAP1 SSTORE POP JUMPDEST PUSH1 0x0 SELFBALANCE EQ ISZERO PUSH2 0x135E JUMPI PUSH1 0x0 PUSH1 0x7 DUP2 SWAP1 SSTORE POP JUMPDEST DUP1 SWAP6 POP POP POP POP POP POP SWAP1 JUMP JUMPDEST PUSH1 0x0 PUSH1 0xD PUSH1 0x0 DUP4 DUP2 MSTORE PUSH1 0x20 ADD SWAP1 DUP2 MSTORE PUSH1 0x20 ADD PUSH1 0x0 KECCAK256 SWAP1 POP PUSH1 0xA PUSH1 0x0 CALLER PUSH20 0xFFFFFFFFFFFFFFFFFFFFFFFFFFFFFFFFFFFFFFFF AND PUSH20 0xFFFFFFFFFFFFFFFFFFFFFFFFFFFFFFFFFFFFFFFF AND DUP2 MSTORE PUSH1 0x20 ADD SWAP1 DUP2 MSTORE PUSH1 0x20 ADD PUSH1 0x0 KECCAK256 PUSH1 0x0 SWAP1 SLOAD SWAP1 PUSH2 0x100 EXP SWAP1 DIV PUSH1 0xFF AND PUSH2 0x140C JUMPI PUSH1 0x40 MLOAD PUSH32 0x8C379A000000000000000000000000000000000000000000000000000000000 DUP2 MSTORE PUSH1 0x4 ADD PUSH2 0x1403 SWAP1 PUSH2 0x22F9 JUMP JUMPDEST PUSH1 0x40 MLOAD DUP1 SWAP2 SUB SWAP1 REVERT JUMPDEST DUP1 PUSH1 0x4 ADD PUSH1 0x0 CALLER PUSH20 0xFFFFFFFFFFFFFFFFFFFFFFFFFFFFFFFFFFFFFFFF AND PUSH20 0xFFFFFFFFFFFFFFFFFFFFFFFFFFFFFFFFFFFFFFFF AND DUP2 MSTORE PUSH1 0x20 ADD SWAP1 DUP2 MSTORE PUSH1 0x20 ADD PUSH1 0x0 KECCAK256 PUSH1 0x0 SWAP1 SLOAD SWAP1 PUSH2 0x100 EXP SWAP1 DIV PUSH1 0xFF AND ISZERO PUSH2 0x149B JUMPI PUSH1 0x40 MLOAD PUSH32 0x8C379A000000000000000000000000000000000000000000000000000000000 DUP2 MSTORE PUSH1 0x4 ADD PUSH2 0x1492 SWAP1 PUSH2 0x238B JUMP JUMPDEST PUSH1 0x40 MLOAD DUP1 SWAP2 SUB SWAP1 REVERT JUMPDEST PUSH1 0x1 DUP2 PUSH1 0x4 ADD PUSH1 0x0 CALLER PUSH20 0xFFFFFFFFFFFFFFFFFFFFFFFFFFFFFFFFFFFFFFFF AND PUSH20 0xFFFFFFFFFFFFFFFFFFFFFFFFFFFFFFFFFFFFFFFF AND DUP2 MSTORE PUSH1 0x20 ADD SWAP1 DUP2 MSTORE PUSH1 0x20 ADD PUSH1 0x0 KECCAK256 PUSH1 0x0 PUSH2 0x100 EXP DUP2 SLOAD DUP2 PUSH1 0xFF MUL NOT AND SWAP1 DUP4 ISZERO ISZERO MUL OR SWAP1 SSTORE POP DUP1 PUSH1 0x3 ADD PUSH1 0x0 DUP2 SLOAD DUP1 SWAP3 SWAP2 SWAP1 PUSH2 0x150A SWAP1 PUSH2 0x2061 JUMP JUMPDEST SWAP2 SWAP1 POP SSTORE POP POP POP JUMP JUMPDEST PUSH1 0x0 DUP1 PUSH1 0x7 DUP2 SWAP1 SSTORE POP PUSH1 0x7 SLOAD SWAP1 POP SWAP1 JUMP JUMPDEST PUSH1 0x9 PUSH1 0x20 MSTORE DUP1 PUSH1 0x0 MSTORE PUSH1 0x40 PUSH1 0x0 KECCAK256 PUSH1 0x0 SWAP2 POP SWAP1 POP SLOAD DUP2 JUMP JUMPDEST PUSH1 0x1 SLOAD CALLVALUE LT ISZERO PUSH2 0x1581 JUMPI PUSH1 0x40 MLOAD PUSH32 0x8C379A000000000000000000000000000000000000000000000000000000000 DUP2 MSTORE PUSH1 0x4 ADD PUSH2 0x1578 SWAP1 PUSH2 0x241D JUMP JUMPDEST PUSH1 0x40 MLOAD DUP1 SWAP2 SUB SWAP1 REVERT JUMPDEST PUSH1 0x0 JUMPDEST PUSH1 0x8 DUP1 SLOAD SWAP1 POP DUP2 LT ISZERO PUSH2 0x16AA JUMPI PUSH1 0x8 DUP2 DUP2 SLOAD DUP2 LT PUSH2 0x15A5 JUMPI PUSH2 0x15A4 PUSH2 0x2116 JUMP JUMPDEST JUMPDEST SWAP1 PUSH1 0x0 MSTORE PUSH1 0x20 PUSH1 0x0 KECCAK256 ADD PUSH1 0x0 SWAP1 SLOAD SWAP1 PUSH2 0x100 EXP SWAP1 DIV PUSH20 0xFFFFFFFFFFFFFFFFFFFFFFFFFFFFFFFFFFFFFFFF AND PUSH20 0xFFFFFFFFFFFFFFFFFFFFFFFFFFFFFFFFFFFFFFFF AND CALLER PUSH20 0xFFFFFFFFFFFFFFFFFFFFFFFFFFFFFFFFFFFFFFFF AND EQ ISZERO PUSH2 0x1697 JUMPI CALLVALUE PUSH1 0x9 PUSH1 0x0 CALLER PUSH20 0xFFFFFFFFFFFFFFFFFFFFFFFFFFFFFFFFFFFFFFFF AND PUSH20 0xFFFFFFFFFFFFFFFFFFFFFFFFFFFFFFFFFFFFFFFF AND DUP2 MSTORE PUSH1 0x20 ADD SWAP1 DUP2 MSTORE PUSH1 0x20 ADD PUSH1 0x0 KECCAK256 SLOAD PUSH2 0x164E SWAP2 SWAP1 PUSH2 0x2145 JUMP JUMPDEST PUSH1 0x9 PUSH1 0x0 CALLER PUSH20 0xFFFFFFFFFFFFFFFFFFFFFFFFFFFFFFFFFFFFFFFF AND PUSH20 0xFFFFFFFFFFFFFFFFFFFFFFFFFFFFFFFFFFFFFFFF AND DUP2 MSTORE PUSH1 0x20 ADD SWAP1 DUP2 MSTORE PUSH1 0x20 ADD PUSH1 0x0 KECCAK256 DUP2 SWAP1 SSTORE POP POP PUSH2 0x17C3 JUMP JUMPDEST DUP1 DUP1 PUSH2 0x16A2 SWAP1 PUSH2 0x2061 JUMP JUMPDEST SWAP2 POP POP PUSH2 0x1584 JUMP JUMPDEST POP PUSH1 0x8 CALLER SWAP1 DUP1 PUSH1 0x1 DUP2 SLOAD ADD DUP1 DUP3 SSTORE DUP1 SWAP2 POP POP PUSH1 0x1 SWAP1 SUB SWAP1 PUSH1 0x0 MSTORE PUSH1 0x20 PUSH1 0x0 KECCAK256 ADD PUSH1 0x0 SWAP1 SWAP2 SWAP1 SWAP2 SWAP1 SWAP2 PUSH2 0x100 EXP DUP2 SLOAD DUP2 PUSH20 0xFFFFFFFFFFFFFFFFFFFFFFFFFFFFFFFFFFFFFFFF MUL NOT AND SWAP1 DUP4 PUSH20 0xFFFFFFFFFFFFFFFFFFFFFFFFFFFFFFFFFFFFFFFF AND MUL OR SWAP1 SSTORE POP CALLVALUE PUSH1 0x9 PUSH1 0x0 CALLER PUSH20 0xFFFFFFFFFFFFFFFFFFFFFFFFFFFFFFFFFFFFFFFF AND PUSH20 0xFFFFFFFFFFFFFFFFFFFFFFFFFFFFFFFFFFFFFFFF AND DUP2 MSTORE PUSH1 0x20 ADD SWAP1 DUP2 MSTORE PUSH1 0x20 ADD PUSH1 0x0 KECCAK256 DUP2 SWAP1 SSTORE POP PUSH1 0x1 PUSH1 0xA PUSH1 0x0 CALLER PUSH20 0xFFFFFFFFFFFFFFFFFFFFFFFFFFFFFFFFFFFFFFFF AND PUSH20 0xFFFFFFFFFFFFFFFFFFFFFFFFFFFFFFFFFFFFFFFF AND DUP2 MSTORE PUSH1 0x20 ADD SWAP1 DUP2 MSTORE PUSH1 0x20 ADD PUSH1 0x0 KECCAK256 PUSH1 0x0 PUSH2 0x100 EXP DUP2 SLOAD DUP2 PUSH1 0xFF MUL NOT AND SWAP1 DUP4 ISZERO ISZERO MUL OR SWAP1 SSTORE POP PUSH1 0xB PUSH1 0x0 DUP2 SLOAD DUP1 SWAP3 SWAP2 SWAP1 PUSH2 0x17BD SWAP1 PUSH2 0x2061 JUMP JUMPDEST SWAP2 SWAP1 POP SSTORE POP JUMPDEST JUMP JUMPDEST DUP3 DUP1 SLOAD PUSH2 0x17D1 SWAP1 PUSH2 0x202F JUMP JUMPDEST SWAP1 PUSH1 0x0 MSTORE PUSH1 0x20 PUSH1 0x0 KECCAK256 SWAP1 PUSH1 0x1F ADD PUSH1 0x20 SWAP1 DIV DUP2 ADD SWAP3 DUP3 PUSH2 0x17F3 JUMPI PUSH1 0x0 DUP6 SSTORE PUSH2 0x183A JUMP JUMPDEST DUP3 PUSH1 0x1F LT PUSH2 0x180C JUMPI DUP1 MLOAD PUSH1 0xFF NOT AND DUP4 DUP1 ADD OR DUP6 SSTORE PUSH2 0x183A JUMP JUMPDEST DUP3 DUP1 ADD PUSH1 0x1 ADD DUP6 SSTORE DUP3 ISZERO PUSH2 0x183A JUMPI SWAP2 DUP3 ADD JUMPDEST DUP3 DUP2 GT ISZERO PUSH2 0x1839 JUMPI DUP3 MLOAD DUP3 SSTORE SWAP2 PUSH1 0x20 ADD SWAP2 SWAP1 PUSH1 0x1 ADD SWAP1 PUSH2 0x181E JUMP JUMPDEST JUMPDEST POP SWAP1 POP PUSH2 0x1847 SWAP2 SWAP1 PUSH2 0x184B JUMP JUMPDEST POP SWAP1 JUMP JUMPDEST JUMPDEST DUP1 DUP3 GT ISZERO PUSH2 0x1864 JUMPI PUSH1 0x0 DUP2 PUSH1 0x0 SWAP1 SSTORE POP PUSH1 0x1 ADD PUSH2 0x184C JUMP JUMPDEST POP SWAP1 JUMP JUMPDEST PUSH1 0x0 PUSH1 0x40 MLOAD SWAP1 POP SWAP1 JUMP JUMPDEST PUSH1 0x0 DUP1 REVERT JUMPDEST PUSH1 0x0 DUP1 REVERT JUMPDEST PUSH1 0x0 DUP2 SWAP1 POP SWAP2 SWAP1 POP JUMP JUMPDEST PUSH2 0x188F DUP2 PUSH2 0x187C JUMP JUMPDEST DUP2 EQ PUSH2 0x189A JUMPI PUSH1 0x0 DUP1 REVERT JUMPDEST POP JUMP JUMPDEST PUSH1 0x0 DUP2 CALLDATALOAD SWAP1 POP PUSH2 0x18AC DUP2 PUSH2 0x1886 JUMP JUMPDEST SWAP3 SWAP2 POP POP JUMP JUMPDEST PUSH1 0x0 PUSH1 0x20 DUP3 DUP5 SUB SLT ISZERO PUSH2 0x18C8 JUMPI PUSH2 0x18C7 PUSH2 0x1872 JUMP JUMPDEST JUMPDEST PUSH1 0x0 PUSH2 0x18D6 DUP5 DUP3 DUP6 ADD PUSH2 0x189D JUMP JUMPDEST SWAP2 POP POP SWAP3 SWAP2 POP POP JUMP JUMPDEST PUSH1 0x0 PUSH20 0xFFFFFFFFFFFFFFFFFFFFFFFFFFFFFFFFFFFFFFFF DUP3 AND SWAP1 POP SWAP2 SWAP1 POP JUMP JUMPDEST PUSH1 0x0 PUSH2 0x190A DUP3 PUSH2 0x18DF JUMP JUMPDEST SWAP1 POP SWAP2 SWAP1 POP JUMP JUMPDEST PUSH2 0x191A DUP2 PUSH2 0x18FF JUMP JUMPDEST DUP2 EQ PUSH2 0x1925 JUMPI PUSH1 0x0 DUP1 REVERT JUMPDEST POP JUMP JUMPDEST PUSH1 0x0 DUP2 CALLDATALOAD SWAP1 POP PUSH2 0x1937 DUP2 PUSH2 0x1911 JUMP JUMPDEST SWAP3 SWAP2 POP POP JUMP JUMPDEST PUSH1 0x0 PUSH1 0x20 DUP3 DUP5 SUB SLT ISZERO PUSH2 0x1953 JUMPI PUSH2 0x1952 PUSH2 0x1872 JUMP JUMPDEST JUMPDEST PUSH1 0x0 PUSH2 0x1961 DUP5 DUP3 DUP6 ADD PUSH2 0x1928 JUMP JUMPDEST SWAP2 POP POP SWAP3 SWAP2 POP POP JUMP JUMPDEST PUSH1 0x0 DUP2 ISZERO ISZERO SWAP1 POP SWAP2 SWAP1 POP JUMP JUMPDEST PUSH2 0x197F DUP2 PUSH2 0x196A JUMP JUMPDEST DUP3 MSTORE POP POP JUMP JUMPDEST PUSH1 0x0 PUSH1 0x20 DUP3 ADD SWAP1 POP PUSH2 0x199A PUSH1 0x0 DUP4 ADD DUP5 PUSH2 0x1976 JUMP JUMPDEST SWAP3 SWAP2 POP POP JUMP JUMPDEST PUSH1 0x0 DUP2 MLOAD SWAP1 POP SWAP2 SWAP1 POP JUMP JUMPDEST PUSH1 0x0 DUP3 DUP3 MSTORE PUSH1 0x20 DUP3 ADD SWAP1 POP SWAP3 SWAP2 POP POP JUMP JUMPDEST PUSH1 0x0 JUMPDEST DUP4 DUP2 LT ISZERO PUSH2 0x19DA JUMPI DUP1 DUP3 ADD MLOAD DUP2 DUP5 ADD MSTORE PUSH1 0x20 DUP2 ADD SWAP1 POP PUSH2 0x19BF JUMP JUMPDEST DUP4 DUP2 GT ISZERO PUSH2 0x19E9 JUMPI PUSH1 0x0 DUP5 DUP5 ADD MSTORE JUMPDEST POP POP POP POP JUMP JUMPDEST PUSH1 0x0 PUSH1 0x1F NOT PUSH1 0x1F DUP4 ADD AND SWAP1 POP SWAP2 SWAP1 POP JUMP JUMPDEST PUSH1 0x0 PUSH2 0x1A0B DUP3 PUSH2 0x19A0 JUMP JUMPDEST PUSH2 0x1A15 DUP2 DUP6 PUSH2 0x19AB JUMP JUMPDEST SWAP4 POP PUSH2 0x1A25 DUP2 DUP6 PUSH1 0x20 DUP7 ADD PUSH2 0x19BC JUMP JUMPDEST PUSH2 0x1A2E DUP2 PUSH2 0x19EF JUMP JUMPDEST DUP5 ADD SWAP2 POP POP SWAP3 SWAP2 POP POP JUMP JUMPDEST PUSH1 0x0 PUSH1 0x20 DUP3 ADD SWAP1 POP DUP2 DUP2 SUB PUSH1 0x0 DUP4 ADD MSTORE PUSH2 0x1A53 DUP2 DUP5 PUSH2 0x1A00 JUMP JUMPDEST SWAP1 POP SWAP3 SWAP2 POP POP JUMP JUMPDEST PUSH2 0x1A64 DUP2 PUSH2 0x18FF JUMP JUMPDEST DUP3 MSTORE POP POP JUMP JUMPDEST PUSH1 0x0 PUSH1 0x20 DUP3 ADD SWAP1 POP PUSH2 0x1A7F PUSH1 0x0 DUP4 ADD DUP5 PUSH2 0x1A5B JUMP JUMPDEST SWAP3 SWAP2 POP POP JUMP JUMPDEST PUSH2 0x1A8E DUP2 PUSH2 0x187C JUMP JUMPDEST DUP3 MSTORE POP POP JUMP JUMPDEST PUSH1 0x0 PUSH1 0x20 DUP3 ADD SWAP1 POP PUSH2 0x1AA9 PUSH1 0x0 DUP4 ADD DUP5 PUSH2 0x1A85 JUMP JUMPDEST SWAP3 SWAP2 POP POP JUMP JUMPDEST PUSH1 0x0 PUSH2 0x160 DUP3 ADD SWAP1 POP PUSH2 0x1AC5 PUSH1 0x0 DUP4 ADD DUP15 PUSH2 0x1A85 JUMP JUMPDEST PUSH2 0x1AD2 PUSH1 0x20 DUP4 ADD DUP14 PUSH2 0x1A85 JUMP JUMPDEST PUSH2 0x1ADF PUSH1 0x40 DUP4 ADD DUP13 PUSH2 0x1A85 JUMP JUMPDEST PUSH2 0x1AEC PUSH1 0x60 DUP4 ADD DUP12 PUSH2 0x1A85 JUMP JUMPDEST PUSH2 0x1AF9 PUSH1 0x80 DUP4 ADD DUP11 PUSH2 0x1A5B JUMP JUMPDEST DUP2 DUP2 SUB PUSH1 0xA0 DUP4 ADD MSTORE PUSH2 0x1B0B DUP2 DUP10 PUSH2 0x1A00 JUMP JUMPDEST SWAP1 POP DUP2 DUP2 SUB PUSH1 0xC0 DUP4 ADD MSTORE PUSH2 0x1B1F DUP2 DUP9 PUSH2 0x1A00 JUMP JUMPDEST SWAP1 POP DUP2 DUP2 SUB PUSH1 0xE0 DUP4 ADD MSTORE PUSH2 0x1B33 DUP2 DUP8 PUSH2 0x1A00 JUMP JUMPDEST SWAP1 POP PUSH2 0x1B43 PUSH2 0x100 DUP4 ADD DUP7 PUSH2 0x1A85 JUMP JUMPDEST DUP2 DUP2 SUB PUSH2 0x120 DUP4 ADD MSTORE PUSH2 0x1B56 DUP2 DUP6 PUSH2 0x1A00 JUMP JUMPDEST SWAP1 POP PUSH2 0x1B66 PUSH2 0x140 DUP4 ADD DUP5 PUSH2 0x1A85 JUMP JUMPDEST SWAP13 SWAP12 POP POP POP POP POP POP POP POP POP POP POP POP JUMP JUMPDEST PUSH1 0x0 PUSH2 0x1B81 DUP3 PUSH2 0x18DF JUMP JUMPDEST SWAP1 POP SWAP2 SWAP1 POP JUMP JUMPDEST PUSH2 0x1B91 DUP2 PUSH2 0x1B76 JUMP JUMPDEST DUP3 MSTORE POP POP JUMP JUMPDEST PUSH1 0x0 PUSH1 0xA0 DUP3 ADD SWAP1 POP DUP2 DUP2 SUB PUSH1 0x0 DUP4 ADD MSTORE PUSH2 0x1BB1 DUP2 DUP9 PUSH2 0x1A00 JUMP JUMPDEST SWAP1 POP PUSH2 0x1BC0 PUSH1 0x20 DUP4 ADD DUP8 PUSH2 0x1A85 JUMP JUMPDEST PUSH2 0x1BCD PUSH1 0x40 DUP4 ADD DUP7 PUSH2 0x1B88 JUMP JUMPDEST PUSH2 0x1BDA PUSH1 0x60 DUP4 ADD DUP6 PUSH2 0x1976 JUMP JUMPDEST PUSH2 0x1BE7 PUSH1 0x80 DUP4 ADD DUP5 PUSH2 0x1A85 JUMP JUMPDEST SWAP7 SWAP6 POP POP POP POP POP POP JUMP JUMPDEST PUSH1 0x0 DUP1 REVERT JUMPDEST PUSH1 0x0 DUP1 REVERT JUMPDEST PUSH32 0x4E487B7100000000000000000000000000000000000000000000000000000000 PUSH1 0x0 MSTORE PUSH1 0x41 PUSH1 0x4 MSTORE PUSH1 0x24 PUSH1 0x0 REVERT JUMPDEST PUSH2 0x1C33 DUP3 PUSH2 0x19EF JUMP JUMPDEST DUP2 ADD DUP2 DUP2 LT PUSH8 0xFFFFFFFFFFFFFFFF DUP3 GT OR ISZERO PUSH2 0x1C52 JUMPI PUSH2 0x1C51 PUSH2 0x1BFB JUMP JUMPDEST JUMPDEST DUP1 PUSH1 0x40 MSTORE POP POP POP JUMP JUMPDEST PUSH1 0x0 PUSH2 0x1C65 PUSH2 0x1868 JUMP JUMPDEST SWAP1 POP PUSH2 0x1C71 DUP3 DUP3 PUSH2 0x1C2A JUMP JUMPDEST SWAP2 SWAP1 POP JUMP JUMPDEST PUSH1 0x0 PUSH8 0xFFFFFFFFFFFFFFFF DUP3 GT ISZERO PUSH2 0x1C91 JUMPI PUSH2 0x1C90 PUSH2 0x1BFB JUMP JUMPDEST JUMPDEST PUSH2 0x1C9A DUP3 PUSH2 0x19EF JUMP JUMPDEST SWAP1 POP PUSH1 0x20 DUP2 ADD SWAP1 POP SWAP2 SWAP1 POP JUMP JUMPDEST DUP3 DUP2 DUP4 CALLDATACOPY PUSH1 0x0 DUP4 DUP4 ADD MSTORE POP POP POP JUMP JUMPDEST PUSH1 0x0 PUSH2 0x1CC9 PUSH2 0x1CC4 DUP5 PUSH2 0x1C76 JUMP JUMPDEST PUSH2 0x1C5B JUMP JUMPDEST SWAP1 POP DUP3 DUP2 MSTORE PUSH1 0x20 DUP2 ADD DUP5 DUP5 DUP5 ADD GT ISZERO PUSH2 0x1CE5 JUMPI PUSH2 0x1CE4 PUSH2 0x1BF6 JUMP JUMPDEST JUMPDEST PUSH2 0x1CF0 DUP5 DUP3 DUP6 PUSH2 0x1CA7 JUMP JUMPDEST POP SWAP4 SWAP3 POP POP POP JUMP JUMPDEST PUSH1 0x0 DUP3 PUSH1 0x1F DUP4 ADD SLT PUSH2 0x1D0D JUMPI PUSH2 0x1D0C PUSH2 0x1BF1 JUMP JUMPDEST JUMPDEST DUP2 CALLDATALOAD PUSH2 0x1D1D DUP5 DUP3 PUSH1 0x20 DUP7 ADD PUSH2 0x1CB6 JUMP JUMPDEST SWAP2 POP POP SWAP3 SWAP2 POP POP JUMP JUMPDEST PUSH2 0x1D2F DUP2 PUSH2 0x1B76 JUMP JUMPDEST DUP2 EQ PUSH2 0x1D3A JUMPI PUSH1 0x0 DUP1 REVERT JUMPDEST POP JUMP JUMPDEST PUSH1 0x0 DUP2 CALLDATALOAD SWAP1 POP PUSH2 0x1D4C DUP2 PUSH2 0x1D26 JUMP JUMPDEST SWAP3 SWAP2 POP POP JUMP JUMPDEST PUSH1 0x0 DUP1 PUSH1 0x0 PUSH1 0x60 DUP5 DUP7 SUB SLT ISZERO PUSH2 0x1D6B JUMPI PUSH2 0x1D6A PUSH2 0x1872 JUMP JUMPDEST JUMPDEST PUSH1 0x0 DUP5 ADD CALLDATALOAD PUSH8 0xFFFFFFFFFFFFFFFF DUP2 GT ISZERO PUSH2 0x1D89 JUMPI PUSH2 0x1D88 PUSH2 0x1877 JUMP JUMPDEST JUMPDEST PUSH2 0x1D95 DUP7 DUP3 DUP8 ADD PUSH2 0x1CF8 JUMP JUMPDEST SWAP4 POP POP PUSH1 0x20 PUSH2 0x1DA6 DUP7 DUP3 DUP8 ADD PUSH2 0x189D JUMP JUMPDEST SWAP3 POP POP PUSH1 0x40 PUSH2 0x1DB7 DUP7 DUP3 DUP8 ADD PUSH2 0x1D3D JUMP JUMPDEST SWAP2 POP POP SWAP3 POP SWAP3 POP SWAP3 JUMP JUMPDEST PUSH32 0x4F6E6C7920746865206D616E616765722063616E2063616C6C20746869732066 PUSH1 0x0 DUP3 ADD MSTORE PUSH32 0x756E6374696F6E00000000000000000000000000000000000000000000000000 PUSH1 0x20 DUP3 ADD MSTORE POP JUMP JUMPDEST PUSH1 0x0 PUSH2 0x1E1D PUSH1 0x27 DUP4 PUSH2 0x19AB JUMP JUMPDEST SWAP2 POP PUSH2 0x1E28 DUP3 PUSH2 0x1DC1 JUMP JUMPDEST PUSH1 0x40 DUP3 ADD SWAP1 POP SWAP2 SWAP1 POP JUMP JUMPDEST PUSH1 0x0 PUSH1 0x20 DUP3 ADD SWAP1 POP DUP2 DUP2 SUB PUSH1 0x0 DUP4 ADD MSTORE PUSH2 0x1E4C DUP2 PUSH2 0x1E10 JUMP JUMPDEST SWAP1 POP SWAP2 SWAP1 POP JUMP JUMPDEST PUSH32 0x4E487B7100000000000000000000000000000000000000000000000000000000 PUSH1 0x0 MSTORE PUSH1 0x12 PUSH1 0x4 MSTORE PUSH1 0x24 PUSH1 0x0 REVERT JUMPDEST PUSH32 0x4E487B7100000000000000000000000000000000000000000000000000000000 PUSH1 0x0 MSTORE PUSH1 0x11 PUSH1 0x4 MSTORE PUSH1 0x24 PUSH1 0x0 REVERT JUMPDEST PUSH1 0x0 PUSH2 0x1EBC DUP3 PUSH2 0x187C JUMP JUMPDEST SWAP2 POP PUSH2 0x1EC7 DUP4 PUSH2 0x187C JUMP JUMPDEST SWAP3 POP DUP3 PUSH2 0x1ED7 JUMPI PUSH2 0x1ED6 PUSH2 0x1E53 JUMP JUMPDEST JUMPDEST DUP3 DUP3 DIV SWAP1 POP SWAP3 SWAP2 POP POP JUMP JUMPDEST PUSH32 0x4E6F7420656E6F75676820617070726F76616C73000000000000000000000000 PUSH1 0x0 DUP3 ADD MSTORE POP JUMP JUMPDEST PUSH1 0x0 PUSH2 0x1F18 PUSH1 0x14 DUP4 PUSH2 0x19AB JUMP JUMPDEST SWAP2 POP PUSH2 0x1F23 DUP3 PUSH2 0x1EE2 JUMP JUMPDEST PUSH1 0x20 DUP3 ADD SWAP1 POP SWAP2 SWAP1 POP JUMP JUMPDEST PUSH1 0x0 PUSH1 0x20 DUP3 ADD SWAP1 POP DUP2 DUP2 SUB PUSH1 0x0 DUP4 ADD MSTORE PUSH2 0x1F47 DUP2 PUSH2 0x1F0B JUMP JUMPDEST SWAP1 POP SWAP2 SWAP1 POP JUMP JUMPDEST PUSH32 0x5265717565737420616C72656164792066696E616C697A656400000000000000 PUSH1 0x0 DUP3 ADD MSTORE POP JUMP JUMPDEST PUSH1 0x0 PUSH2 0x1F84 PUSH1 0x19 DUP4 PUSH2 0x19AB JUMP JUMPDEST SWAP2 POP PUSH2 0x1F8F DUP3 PUSH2 0x1F4E JUMP JUMPDEST PUSH1 0x20 DUP3 ADD SWAP1 POP SWAP2 SWAP1 POP JUMP JUMPDEST PUSH1 0x0 PUSH1 0x20 DUP3 ADD SWAP1 POP DUP2 DUP2 SUB PUSH1 0x0 DUP4 ADD MSTORE PUSH2 0x1FB3 DUP2 PUSH2 0x1F77 JUMP JUMPDEST SWAP1 POP SWAP2 SWAP1 POP JUMP JUMPDEST PUSH1 0x0 DUP2 SWAP1 POP SWAP3 SWAP2 POP POP JUMP JUMPDEST POP JUMP JUMPDEST PUSH1 0x0 PUSH2 0x1FD5 PUSH1 0x0 DUP4 PUSH2 0x1FBA JUMP JUMPDEST SWAP2 POP PUSH2 0x1FE0 DUP3 PUSH2 0x1FC5 JUMP JUMPDEST PUSH1 0x0 DUP3 ADD SWAP1 POP SWAP2 SWAP1 POP JUMP JUMPDEST PUSH1 0x0 PUSH2 0x1FF6 DUP3 PUSH2 0x1FC8 JUMP JUMPDEST SWAP2 POP DUP2 SWAP1 POP SWAP2 SWAP1 POP JUMP JUMPDEST PUSH32 0x4E487B7100000000000000000000000000000000000000000000000000000000 PUSH1 0x0 MSTORE PUSH1 0x22 PUSH1 0x4 MSTORE PUSH1 0x24 PUSH1 0x0 REVERT JUMPDEST PUSH1 0x0 PUSH1 0x2 DUP3 DIV SWAP1 POP PUSH1 0x1 DUP3 AND DUP1 PUSH2 0x2047 JUMPI PUSH1 0x7F DUP3 AND SWAP2 POP JUMPDEST PUSH1 0x20 DUP3 LT DUP2 EQ ISZERO PUSH2 0x205B JUMPI PUSH2 0x205A PUSH2 0x2000 JUMP JUMPDEST JUMPDEST POP SWAP2 SWAP1 POP JUMP JUMPDEST PUSH1 0x0 PUSH2 0x206C DUP3 PUSH2 0x187C JUMP JUMPDEST SWAP2 POP PUSH32 0xFFFFFFFFFFFFFFFFFFFFFFFFFFFFFFFFFFFFFFFFFFFFFFFFFFFFFFFFFFFFFFFF DUP3 EQ ISZERO PUSH2 0x209F JUMPI PUSH2 0x209E PUSH2 0x1E82 JUMP JUMPDEST JUMPDEST PUSH1 0x1 DUP3 ADD SWAP1 POP SWAP2 SWAP1 POP JUMP JUMPDEST PUSH32 0x746172676574206E6F7420616368696576656400000000000000000000000000 PUSH1 0x0 DUP3 ADD MSTORE POP JUMP JUMPDEST PUSH1 0x0 PUSH2 0x20E0 PUSH1 0x13 DUP4 PUSH2 0x19AB JUMP JUMPDEST SWAP2 POP PUSH2 0x20EB DUP3 PUSH2 0x20AA JUMP JUMPDEST PUSH1 0x20 DUP3 ADD SWAP1 POP SWAP2 SWAP1 POP JUMP JUMPDEST PUSH1 0x0 PUSH1 0x20 DUP3 ADD SWAP1 POP DUP2 DUP2 SUB PUSH1 0x0 DUP4 ADD MSTORE PUSH2 0x210F DUP2 PUSH2 0x20D3 JUMP JUMPDEST SWAP1 POP SWAP2 SWAP1 POP JUMP JUMPDEST PUSH32 0x4E487B7100000000000000000000000000000000000000000000000000000000 PUSH1 0x0 MSTORE PUSH1 0x32 PUSH1 0x4 MSTORE PUSH1 0x24 PUSH1 0x0 REVERT JUMPDEST PUSH1 0x0 PUSH2 0x2150 DUP3 PUSH2 0x187C JUMP JUMPDEST SWAP2 POP PUSH2 0x215B DUP4 PUSH2 0x187C JUMP JUMPDEST SWAP3 POP DUP3 PUSH32 0xFFFFFFFFFFFFFFFFFFFFFFFFFFFFFFFFFFFFFFFFFFFFFFFFFFFFFFFFFFFFFFFF SUB DUP3 GT ISZERO PUSH2 0x2190 JUMPI PUSH2 0x218F PUSH2 0x1E82 JUMP JUMPDEST JUMPDEST DUP3 DUP3 ADD SWAP1 POP SWAP3 SWAP2 POP POP JUMP JUMPDEST PUSH1 0x0 PUSH2 0x21A6 DUP3 PUSH2 0x187C JUMP JUMPDEST SWAP2 POP PUSH2 0x21B1 DUP4 PUSH2 0x187C JUMP JUMPDEST SWAP3 POP DUP2 PUSH32 0xFFFFFFFFFFFFFFFFFFFFFFFFFFFFFFFFFFFFFFFFFFFFFFFFFFFFFFFFFFFFFFFF DIV DUP4 GT DUP3 ISZERO ISZERO AND ISZERO PUSH2 0x21EA JUMPI PUSH2 0x21E9 PUSH2 0x1E82 JUMP JUMPDEST JUMPDEST DUP3 DUP3 MUL SWAP1 POP SWAP3 SWAP2 POP POP JUMP JUMPDEST PUSH32 0x5472616E73666572206661696C65642E00000000000000000000000000000000 PUSH1 0x0 DUP3 ADD MSTORE POP JUMP JUMPDEST PUSH1 0x0 PUSH2 0x222B PUSH1 0x10 DUP4 PUSH2 0x19AB JUMP JUMPDEST SWAP2 POP PUSH2 0x2236 DUP3 PUSH2 0x21F5 JUMP JUMPDEST PUSH1 0x20 DUP3 ADD SWAP1 POP SWAP2 SWAP1 POP JUMP JUMPDEST PUSH1 0x0 PUSH1 0x20 DUP3 ADD SWAP1 POP DUP2 DUP2 SUB PUSH1 0x0 DUP4 ADD MSTORE PUSH2 0x225A DUP2 PUSH2 0x221E JUMP JUMPDEST SWAP1 POP SWAP2 SWAP1 POP JUMP JUMPDEST PUSH32 0x596F7520617265206E6F7420616E20617070726F76657221204F6E6C7920636F PUSH1 0x0 DUP3 ADD MSTORE PUSH32 0x6E7472696275746F72732063616E20617070726F766520612073706563696669 PUSH1 0x20 DUP3 ADD MSTORE PUSH32 0x63207061796D656E742072657175657374000000000000000000000000000000 PUSH1 0x40 DUP3 ADD MSTORE POP JUMP JUMPDEST PUSH1 0x0 PUSH2 0x22E3 PUSH1 0x51 DUP4 PUSH2 0x19AB JUMP JUMPDEST SWAP2 POP PUSH2 0x22EE DUP3 PUSH2 0x2261 JUMP JUMPDEST PUSH1 0x60 DUP3 ADD SWAP1 POP SWAP2 SWAP1 POP JUMP JUMPDEST PUSH1 0x0 PUSH1 0x20 DUP3 ADD SWAP1 POP DUP2 DUP2 SUB PUSH1 0x0 DUP4 ADD MSTORE PUSH2 0x2312 DUP2 PUSH2 0x22D6 JUMP JUMPDEST SWAP1 POP SWAP2 SWAP1 POP JUMP JUMPDEST PUSH32 0x596F75206861766520616C726561647920617070726F76656420746869732072 PUSH1 0x0 DUP3 ADD MSTORE PUSH32 0x6571756573740000000000000000000000000000000000000000000000000000 PUSH1 0x20 DUP3 ADD MSTORE POP JUMP JUMPDEST PUSH1 0x0 PUSH2 0x2375 PUSH1 0x26 DUP4 PUSH2 0x19AB JUMP JUMPDEST SWAP2 POP PUSH2 0x2380 DUP3 PUSH2 0x2319 JUMP JUMPDEST PUSH1 0x40 DUP3 ADD SWAP1 POP SWAP2 SWAP1 POP JUMP JUMPDEST PUSH1 0x0 PUSH1 0x20 DUP3 ADD SWAP1 POP DUP2 DUP2 SUB PUSH1 0x0 DUP4 ADD MSTORE PUSH2 0x23A4 DUP2 PUSH2 0x2368 JUMP JUMPDEST SWAP1 POP SWAP2 SWAP1 POP JUMP JUMPDEST PUSH32 0x436F6E747269627574696F6E206973206C657373207468616E206D696E696D75 PUSH1 0x0 DUP3 ADD MSTORE PUSH32 0x6D00000000000000000000000000000000000000000000000000000000000000 PUSH1 0x20 DUP3 ADD MSTORE POP JUMP JUMPDEST PUSH1 0x0 PUSH2 0x2407 PUSH1 0x21 DUP4 PUSH2 0x19AB JUMP JUMPDEST SWAP2 POP PUSH2 0x2412 DUP3 PUSH2 0x23AB JUMP JUMPDEST PUSH1 0x40 DUP3 ADD SWAP1 POP SWAP2 SWAP1 POP JUMP JUMPDEST PUSH1 0x0 PUSH1 0x20 DUP3 ADD SWAP1 POP DUP2 DUP2 SUB PUSH1 0x0 DUP4 ADD MSTORE PUSH2 0x2436 DUP2 PUSH2 0x23FA JUMP JUMPDEST SWAP1 POP SWAP2 SWAP1 POP JUMP INVALID LOG2 PUSH5 0x6970667358 0x22 SLT KECCAK256 SWAP8 SHL DUP12 DUP10 0xB6 SIGNEXTEND GAS PUSH16 0x6981092DFDB8870B63B7A15E30DF0272 CALLDATASIZE DUP9 0xAE DUP11 CALL JUMPI 0x4C 0x4F PUSH5 0x736F6C6343 STOP ADDMOD EXP STOP CALLER LOG2 PUSH5 0x6970667358 0x22 SLT KECCAK256 0xB7 DUP8 0x49 0xDA POP OR PUSH12 0x2F2F15B590B9CC4471A476E7 0xD5 SWAP6 0x5F 0xEC 0xB1 0xB9 0xBF 0xE9 0xD3 0xCB 0x23 0x23 0xC3 PUSH5 0x736F6C6343 STOP ADDMOD EXP STOP CALLER "},"gasEstimates":{"creation":{"codeDepositCost":"2533600","executionCost":"2733","totalCost":"2536333"},"external":{"createCampaign(uint256,string,string,string,uint256,string)":"infinite","deployedCampaigns(uint256)":"infinite","getDeployedCampaigns()":"infinite"}},"methodIdentifiers":{"createCampaign(uint256,string,string,string,uint256,string)":"f876bc49","deployedCampaigns(uint256)":"339d50a5","getDeployedCampaigns()":"4acb9d4f"}},"storageLayout":{"storage":[{"astId":5,"contract":"Campaign.sol:CampaignFactory","label":"deployedCampaigns","offset":0,"slot":"0","type":"t_array(t_contract(Campaign)628)dyn_storage"}],"types":{"t_array(t_contract(Campaign)628)dyn_storage":{"base":"t_contract(Campaign)628","encoding":"dynamic_array","label":"contract Campaign[]","numberOfBytes":"32"},"t_contract(Campaign)628":{"encoding":"inplace","label":"contract Campaign","numberOfBytes":"20"}}},"userdoc":{"kind":"user","methods":{},"version":1}}