{"abi":[{"inputs":[{"internalType":"uint256","name":"minimum","type":"uint256"},{"internalType":"string","name":"name","type":"string"},{"internalType":"string","name":"description","type":"string"},{"internalType":"string","name":"image","type":"string"},{"internalType":"uint256","name":"target","type":"uint256"}],"name":"createCampaign","outputs":[],"stateMutability":"nonpayable","type":"function"},{"inputs":[{"internalType":"uint256","name":"","type":"uint256"}],"name":"deployedCampaigns","outputs":[{"internalType":"contract Campaign","name":"","type":"address"}],"stateMutability":"view","type":"function"},{"inputs":[],"name":"getDeployedCampaigns","outputs":[{"internalType":"contract Campaign[]","name":"","type":"address[]"}],"stateMutability":"view","type":"function"}],"devdoc":{"kind":"dev","methods":{},"version":1},"evm":{"assembly":"    /* \"Campaign.sol\":69:681  contract CampaignFactory {... */\n  mstore(0x40, 0x80)\n  callvalue\n  dup1\n  iszero\n  tag_1\n  jumpi\n  0x00\n  dup1\n  revert\ntag_1:\n  pop\n  dataSize(sub_0)\n  dup1\n  dataOffset(sub_0)\n  0x00\n  codecopy\n  0x00\n  return\nstop\n\nsub_0: assembly {\n        /* \"Campaign.sol\":69:681  contract CampaignFactory {... */\n      mstore(0x40, 0x80)\n      callvalue\n      dup1\n      iszero\n      tag_1\n      jumpi\n      0x00\n      dup1\n      revert\n    tag_1:\n      pop\n      jumpi(tag_2, lt(calldatasize, 0x04))\n      shr(0xe0, calldataload(0x00))\n      dup1\n      0x339d50a5\n      eq\n      tag_3\n      jumpi\n      dup1\n      0x4acb9d4f\n      eq\n      tag_4\n      jumpi\n      dup1\n      0xd4ddd71a\n      eq\n      tag_5\n      jumpi\n    tag_2:\n      0x00\n      dup1\n      revert\n        /* \"Campaign.sol\":100:135  Campaign[] public deployedCampaigns */\n    tag_3:\n      tag_6\n      0x04\n      dup1\n      calldatasize\n      sub\n      dup2\n      add\n      swap1\n      tag_7\n      swap2\n      swap1\n      tag_8\n      jump\t// in\n    tag_7:\n      tag_9\n      jump\t// in\n    tag_6:\n      mload(0x40)\n      tag_10\n      swap2\n      swap1\n      tag_11\n      jump\t// in\n    tag_10:\n      mload(0x40)\n      dup1\n      swap2\n      sub\n      swap1\n      return\n        /* \"Campaign.sol\":566:679  function getDeployedCampaigns() public view returns (Campaign[] memory) {... */\n    tag_4:\n      tag_12\n      tag_13\n      jump\t// in\n    tag_12:\n      mload(0x40)\n      tag_14\n      swap2\n      swap1\n      tag_15\n      jump\t// in\n    tag_14:\n      mload(0x40)\n      dup1\n      swap2\n      sub\n      swap1\n      return\n        /* \"Campaign.sol\":142:560  function createCampaign(... */\n    tag_5:\n      tag_16\n      0x04\n      dup1\n      calldatasize\n      sub\n      dup2\n      add\n      swap1\n      tag_17\n      swap2\n      swap1\n      tag_18\n      jump\t// in\n    tag_17:\n      tag_19\n      jump\t// in\n    tag_16:\n      stop\n        /* \"Campaign.sol\":100:135  Campaign[] public deployedCampaigns */\n    tag_9:\n      0x00\n      dup2\n      dup2\n      sload\n      dup2\n      lt\n      tag_20\n      jumpi\n      0x00\n      dup1\n      revert\n    tag_20:\n      swap1\n      0x00\n      mstore\n      keccak256(0x00, 0x20)\n      add\n      0x00\n      swap2\n      pop\n      sload\n      swap1\n      0x0100\n      exp\n      swap1\n      div\n      0xffffffffffffffffffffffffffffffffffffffff\n      and\n      dup2\n      jump\t// out\n        /* \"Campaign.sol\":566:679  function getDeployedCampaigns() public view returns (Campaign[] memory) {... */\n    tag_13:\n        /* \"Campaign.sol\":619:636  Campaign[] memory */\n      0x60\n        /* \"Campaign.sol\":655:672  deployedCampaigns */\n      0x00\n        /* \"Campaign.sol\":648:672  return deployedCampaigns */\n      dup1\n      sload\n      dup1\n      0x20\n      mul\n      0x20\n      add\n      mload(0x40)\n      swap1\n      dup2\n      add\n      0x40\n      mstore\n      dup1\n      swap3\n      swap2\n      swap1\n      dup2\n      dup2\n      mstore\n      0x20\n      add\n      dup3\n      dup1\n      sload\n      dup1\n      iszero\n      tag_23\n      jumpi\n      0x20\n      mul\n      dup3\n      add\n      swap2\n      swap1\n      0x00\n      mstore\n      keccak256(0x00, 0x20)\n      swap1\n    tag_24:\n      dup2\n      0x00\n      swap1\n      sload\n      swap1\n      0x0100\n      exp\n      swap1\n      div\n      0xffffffffffffffffffffffffffffffffffffffff\n      and\n      0xffffffffffffffffffffffffffffffffffffffff\n      and\n      dup2\n      mstore\n      0x20\n      add\n      swap1\n      0x01\n      add\n      swap1\n      dup1\n      dup4\n      gt\n      tag_24\n      jumpi\n    tag_23:\n      pop\n      pop\n      pop\n      pop\n      pop\n      swap1\n      pop\n        /* \"Campaign.sol\":566:679  function getDeployedCampaigns() public view returns (Campaign[] memory) {... */\n      swap1\n      jump\t// out\n        /* \"Campaign.sol\":142:560  function createCampaign(... */\n    tag_19:\n        /* \"Campaign.sol\":336:356  Campaign newCampaign */\n      0x00\n        /* \"Campaign.sol\":385:392  minimum */\n      dup9\n        /* \"Campaign.sol\":406:416  msg.sender */\n      caller\n        /* \"Campaign.sol\":430:434  name */\n      dup10\n      dup10\n        /* \"Campaign.sol\":448:459  description */\n      dup10\n      dup10\n        /* \"Campaign.sol\":473:478  image */\n      dup10\n      dup10\n        /* \"Campaign.sol\":492:498  target */\n      dup10\n        /* \"Campaign.sol\":359:508  new Campaign(... */\n      mload(0x40)\n      tag_26\n      swap1\n      tag_27\n      jump\t// in\n    tag_26:\n      tag_28\n      swap10\n      swap9\n      swap8\n      swap7\n      swap6\n      swap5\n      swap4\n      swap3\n      swap2\n      swap1\n      tag_29\n      jump\t// in\n    tag_28:\n      mload(0x40)\n      dup1\n      swap2\n      sub\n      swap1\n      0x00\n      create\n      dup1\n      iszero\n      dup1\n      iszero\n      tag_30\n      jumpi\n      returndatasize\n      0x00\n      dup1\n      returndatacopy\n      revert(0x00, returndatasize)\n    tag_30:\n      pop\n        /* \"Campaign.sol\":336:508  Campaign newCampaign = new Campaign(... */\n      swap1\n      pop\n        /* \"Campaign.sol\":518:535  deployedCampaigns */\n      0x00\n        /* \"Campaign.sol\":541:552  newCampaign */\n      dup2\n        /* \"Campaign.sol\":518:553  deployedCampaigns.push(newCampaign) */\n      swap1\n      dup1\n      0x01\n      dup2\n      sload\n      add\n      dup1\n      dup3\n      sstore\n      dup1\n      swap2\n      pop\n      pop\n      0x01\n      swap1\n      sub\n      swap1\n      0x00\n      mstore\n      keccak256(0x00, 0x20)\n      add\n      0x00\n      swap1\n      swap2\n      swap1\n      swap2\n      swap1\n      swap2\n      0x0100\n      exp\n      dup2\n      sload\n      dup2\n      0xffffffffffffffffffffffffffffffffffffffff\n      mul\n      not\n      and\n      swap1\n      dup4\n      0xffffffffffffffffffffffffffffffffffffffff\n      and\n      mul\n      or\n      swap1\n      sstore\n      pop\n        /* \"Campaign.sol\":326:560  {... */\n      pop\n        /* \"Campaign.sol\":142:560  function createCampaign(... */\n      pop\n      pop\n      pop\n      pop\n      pop\n      pop\n      pop\n      pop\n      jump\t// out\n    tag_27:\n      dataSize(sub_0)\n      dup1\n      dataOffset(sub_0)\n      dup4\n      codecopy\n      add\n      swap1\n      jump\t// out\n        /* \"#utility.yul\":88:205   */\n    tag_33:\n        /* \"#utility.yul\":197:198   */\n      0x00\n        /* \"#utility.yul\":194:195   */\n      dup1\n        /* \"#utility.yul\":187:199   */\n      revert\n        /* \"#utility.yul\":211:328   */\n    tag_34:\n        /* \"#utility.yul\":320:321   */\n      0x00\n        /* \"#utility.yul\":317:318   */\n      dup1\n        /* \"#utility.yul\":310:322   */\n      revert\n        /* \"#utility.yul\":334:411   */\n    tag_35:\n        /* \"#utility.yul\":371:378   */\n      0x00\n        /* \"#utility.yul\":400:405   */\n      dup2\n        /* \"#utility.yul\":389:405   */\n      swap1\n      pop\n        /* \"#utility.yul\":334:411   */\n      swap2\n      swap1\n      pop\n      jump\t// out\n        /* \"#utility.yul\":417:539   */\n    tag_36:\n        /* \"#utility.yul\":490:514   */\n      tag_68\n        /* \"#utility.yul\":508:513   */\n      dup2\n        /* \"#utility.yul\":490:514   */\n      tag_35\n      jump\t// in\n    tag_68:\n        /* \"#utility.yul\":483:488   */\n      dup2\n        /* \"#utility.yul\":480:515   */\n      eq\n        /* \"#utility.yul\":470:533   */\n      tag_69\n      jumpi\n        /* \"#utility.yul\":529:530   */\n      0x00\n        /* \"#utility.yul\":526:527   */\n      dup1\n        /* \"#utility.yul\":519:531   */\n      revert\n        /* \"#utility.yul\":470:533   */\n    tag_69:\n        /* \"#utility.yul\":417:539   */\n      pop\n      jump\t// out\n        /* \"#utility.yul\":545:684   */\n    tag_37:\n        /* \"#utility.yul\":591:596   */\n      0x00\n        /* \"#utility.yul\":629:635   */\n      dup2\n        /* \"#utility.yul\":616:636   */\n      calldataload\n        /* \"#utility.yul\":607:636   */\n      swap1\n      pop\n        /* \"#utility.yul\":645:678   */\n      tag_71\n        /* \"#utility.yul\":672:677   */\n      dup2\n        /* \"#utility.yul\":645:678   */\n      tag_36\n      jump\t// in\n    tag_71:\n        /* \"#utility.yul\":545:684   */\n      swap3\n      swap2\n      pop\n      pop\n      jump\t// out\n        /* \"#utility.yul\":690:1019   */\n    tag_8:\n        /* \"#utility.yul\":749:755   */\n      0x00\n        /* \"#utility.yul\":798:800   */\n      0x20\n        /* \"#utility.yul\":786:795   */\n      dup3\n        /* \"#utility.yul\":777:784   */\n      dup5\n        /* \"#utility.yul\":773:796   */\n      sub\n        /* \"#utility.yul\":769:801   */\n      slt\n        /* \"#utility.yul\":766:885   */\n      iszero\n      tag_73\n      jumpi\n        /* \"#utility.yul\":804:883   */\n      tag_74\n      tag_33\n      jump\t// in\n    tag_74:\n        /* \"#utility.yul\":766:885   */\n    tag_73:\n        /* \"#utility.yul\":924:925   */\n      0x00\n        /* \"#utility.yul\":949:1002   */\n      tag_75\n        /* \"#utility.yul\":994:1001   */\n      dup5\n        /* \"#utility.yul\":985:991   */\n      dup3\n        /* \"#utility.yul\":974:983   */\n      dup6\n        /* \"#utility.yul\":970:992   */\n      add\n        /* \"#utility.yul\":949:1002   */\n      tag_37\n      jump\t// in\n    tag_75:\n        /* \"#utility.yul\":939:1002   */\n      swap2\n      pop\n        /* \"#utility.yul\":895:1012   */\n      pop\n        /* \"#utility.yul\":690:1019   */\n      swap3\n      swap2\n      pop\n      pop\n      jump\t// out\n        /* \"#utility.yul\":1025:1151   */\n    tag_38:\n        /* \"#utility.yul\":1062:1069   */\n      0x00\n        /* \"#utility.yul\":1102:1144   */\n      0xffffffffffffffffffffffffffffffffffffffff\n        /* \"#utility.yul\":1095:1100   */\n      dup3\n        /* \"#utility.yul\":1091:1145   */\n      and\n        /* \"#utility.yul\":1080:1145   */\n      swap1\n      pop\n        /* \"#utility.yul\":1025:1151   */\n      swap2\n      swap1\n      pop\n      jump\t// out\n        /* \"#utility.yul\":1157:1217   */\n    tag_39:\n        /* \"#utility.yul\":1185:1188   */\n      0x00\n        /* \"#utility.yul\":1206:1211   */\n      dup2\n        /* \"#utility.yul\":1199:1211   */\n      swap1\n      pop\n        /* \"#utility.yul\":1157:1217   */\n      swap2\n      swap1\n      pop\n      jump\t// out\n        /* \"#utility.yul\":1223:1365   */\n    tag_40:\n        /* \"#utility.yul\":1273:1282   */\n      0x00\n        /* \"#utility.yul\":1306:1359   */\n      tag_79\n        /* \"#utility.yul\":1324:1358   */\n      tag_80\n        /* \"#utility.yul\":1333:1357   */\n      tag_81\n        /* \"#utility.yul\":1351:1356   */\n      dup5\n        /* \"#utility.yul\":1333:1357   */\n      tag_38\n      jump\t// in\n    tag_81:\n        /* \"#utility.yul\":1324:1358   */\n      tag_39\n      jump\t// in\n    tag_80:\n        /* \"#utility.yul\":1306:1359   */\n      tag_38\n      jump\t// in\n    tag_79:\n        /* \"#utility.yul\":1293:1359   */\n      swap1\n      pop\n        /* \"#utility.yul\":1223:1365   */\n      swap2\n      swap1\n      pop\n      jump\t// out\n        /* \"#utility.yul\":1371:1497   */\n    tag_41:\n        /* \"#utility.yul\":1421:1430   */\n      0x00\n        /* \"#utility.yul\":1454:1491   */\n      tag_83\n        /* \"#utility.yul\":1485:1490   */\n      dup3\n        /* \"#utility.yul\":1454:1491   */\n      tag_40\n      jump\t// in\n    tag_83:\n        /* \"#utility.yul\":1441:1491   */\n      swap1\n      pop\n        /* \"#utility.yul\":1371:1497   */\n      swap2\n      swap1\n      pop\n      jump\t// out\n        /* \"#utility.yul\":1503:1645   */\n    tag_42:\n        /* \"#utility.yul\":1569:1578   */\n      0x00\n        /* \"#utility.yul\":1602:1639   */\n      tag_85\n        /* \"#utility.yul\":1633:1638   */\n      dup3\n        /* \"#utility.yul\":1602:1639   */\n      tag_41\n      jump\t// in\n    tag_85:\n        /* \"#utility.yul\":1589:1639   */\n      swap1\n      pop\n        /* \"#utility.yul\":1503:1645   */\n      swap2\n      swap1\n      pop\n      jump\t// out\n        /* \"#utility.yul\":1651:1814   */\n    tag_43:\n        /* \"#utility.yul\":1754:1807   */\n      tag_87\n        /* \"#utility.yul\":1801:1806   */\n      dup2\n        /* \"#utility.yul\":1754:1807   */\n      tag_42\n      jump\t// in\n    tag_87:\n        /* \"#utility.yul\":1749:1752   */\n      dup3\n        /* \"#utility.yul\":1742:1808   */\n      mstore\n        /* \"#utility.yul\":1651:1814   */\n      pop\n      pop\n      jump\t// out\n        /* \"#utility.yul\":1820:2074   */\n    tag_11:\n        /* \"#utility.yul\":1929:1933   */\n      0x00\n        /* \"#utility.yul\":1967:1969   */\n      0x20\n        /* \"#utility.yul\":1956:1965   */\n      dup3\n        /* \"#utility.yul\":1952:1970   */\n      add\n        /* \"#utility.yul\":1944:1970   */\n      swap1\n      pop\n        /* \"#utility.yul\":1980:2067   */\n      tag_89\n        /* \"#utility.yul\":2064:2065   */\n      0x00\n        /* \"#utility.yul\":2053:2062   */\n      dup4\n        /* \"#utility.yul\":2049:2066   */\n      add\n        /* \"#utility.yul\":2040:2046   */\n      dup5\n        /* \"#utility.yul\":1980:2067   */\n      tag_43\n      jump\t// in\n    tag_89:\n        /* \"#utility.yul\":1820:2074   */\n      swap3\n      swap2\n      pop\n      pop\n      jump\t// out\n        /* \"#utility.yul\":2080:2210   */\n    tag_44:\n        /* \"#utility.yul\":2163:2169   */\n      0x00\n        /* \"#utility.yul\":2197:2202   */\n      dup2\n        /* \"#utility.yul\":2191:2203   */\n      mload\n        /* \"#utility.yul\":2181:2203   */\n      swap1\n      pop\n        /* \"#utility.yul\":2080:2210   */\n      swap2\n      swap1\n      pop\n      jump\t// out\n        /* \"#utility.yul\":2216:2400   */\n    tag_45:\n        /* \"#utility.yul\":2315:2326   */\n      0x00\n        /* \"#utility.yul\":2349:2355   */\n      dup3\n        /* \"#utility.yul\":2344:2347   */\n      dup3\n        /* \"#utility.yul\":2337:2356   */\n      mstore\n        /* \"#utility.yul\":2389:2393   */\n      0x20\n        /* \"#utility.yul\":2384:2387   */\n      dup3\n        /* \"#utility.yul\":2380:2394   */\n      add\n        /* \"#utility.yul\":2365:2394   */\n      swap1\n      pop\n        /* \"#utility.yul\":2216:2400   */\n      swap3\n      swap2\n      pop\n      pop\n      jump\t// out\n        /* \"#utility.yul\":2406:2554   */\n    tag_46:\n        /* \"#utility.yul\":2489:2493   */\n      0x00\n        /* \"#utility.yul\":2512:2515   */\n      dup2\n        /* \"#utility.yul\":2504:2515   */\n      swap1\n      pop\n        /* \"#utility.yul\":2542:2546   */\n      0x20\n        /* \"#utility.yul\":2537:2540   */\n      dup3\n        /* \"#utility.yul\":2533:2547   */\n      add\n        /* \"#utility.yul\":2525:2547   */\n      swap1\n      pop\n        /* \"#utility.yul\":2406:2554   */\n      swap2\n      swap1\n      pop\n      jump\t// out\n        /* \"#utility.yul\":2560:2713   */\n    tag_47:\n        /* \"#utility.yul\":2653:2706   */\n      tag_94\n        /* \"#utility.yul\":2700:2705   */\n      dup2\n        /* \"#utility.yul\":2653:2706   */\n      tag_42\n      jump\t// in\n    tag_94:\n        /* \"#utility.yul\":2648:2651   */\n      dup3\n        /* \"#utility.yul\":2641:2707   */\n      mstore\n        /* \"#utility.yul\":2560:2713   */\n      pop\n      pop\n      jump\t// out\n        /* \"#utility.yul\":2719:2930   */\n    tag_48:\n        /* \"#utility.yul\":2804:2814   */\n      0x00\n        /* \"#utility.yul\":2825:2887   */\n      tag_96\n        /* \"#utility.yul\":2883:2886   */\n      dup4\n        /* \"#utility.yul\":2875:2881   */\n      dup4\n        /* \"#utility.yul\":2825:2887   */\n      tag_47\n      jump\t// in\n    tag_96:\n        /* \"#utility.yul\":2919:2923   */\n      0x20\n        /* \"#utility.yul\":2914:2917   */\n      dup4\n        /* \"#utility.yul\":2910:2924   */\n      add\n        /* \"#utility.yul\":2896:2924   */\n      swap1\n      pop\n        /* \"#utility.yul\":2719:2930   */\n      swap3\n      swap2\n      pop\n      pop\n      jump\t// out\n        /* \"#utility.yul\":2936:3065   */\n    tag_49:\n        /* \"#utility.yul\":3022:3026   */\n      0x00\n        /* \"#utility.yul\":3054:3058   */\n      0x20\n        /* \"#utility.yul\":3049:3052   */\n      dup3\n        /* \"#utility.yul\":3045:3059   */\n      add\n        /* \"#utility.yul\":3037:3059   */\n      swap1\n      pop\n        /* \"#utility.yul\":2936:3065   */\n      swap2\n      swap1\n      pop\n      jump\t// out\n        /* \"#utility.yul\":3111:3923   */\n    tag_50:\n        /* \"#utility.yul\":3246:3249   */\n      0x00\n        /* \"#utility.yul\":3275:3345   */\n      tag_99\n        /* \"#utility.yul\":3339:3344   */\n      dup3\n        /* \"#utility.yul\":3275:3345   */\n      tag_44\n      jump\t// in\n    tag_99:\n        /* \"#utility.yul\":3361:3447   */\n      tag_100\n        /* \"#utility.yul\":3440:3446   */\n      dup2\n        /* \"#utility.yul\":3435:3438   */\n      dup6\n        /* \"#utility.yul\":3361:3447   */\n      tag_45\n      jump\t// in\n    tag_100:\n        /* \"#utility.yul\":3354:3447   */\n      swap4\n      pop\n        /* \"#utility.yul\":3471:3543   */\n      tag_101\n        /* \"#utility.yul\":3537:3542   */\n      dup4\n        /* \"#utility.yul\":3471:3543   */\n      tag_46\n      jump\t// in\n    tag_101:\n        /* \"#utility.yul\":3566:3573   */\n      dup1\n        /* \"#utility.yul\":3597:3598   */\n      0x00\n        /* \"#utility.yul\":3582:3898   */\n    tag_102:\n        /* \"#utility.yul\":3607:3613   */\n      dup4\n        /* \"#utility.yul\":3604:3605   */\n      dup2\n        /* \"#utility.yul\":3601:3614   */\n      lt\n        /* \"#utility.yul\":3582:3898   */\n      iszero\n      tag_104\n      jumpi\n        /* \"#utility.yul\":3683:3689   */\n      dup2\n        /* \"#utility.yul\":3677:3690   */\n      mload\n        /* \"#utility.yul\":3710:3789   */\n      tag_105\n        /* \"#utility.yul\":3785:3788   */\n      dup9\n        /* \"#utility.yul\":3770:3783   */\n      dup3\n        /* \"#utility.yul\":3710:3789   */\n      tag_48\n      jump\t// in\n    tag_105:\n        /* \"#utility.yul\":3703:3789   */\n      swap8\n      pop\n        /* \"#utility.yul\":3812:3888   */\n      tag_106\n        /* \"#utility.yul\":3881:3887   */\n      dup4\n        /* \"#utility.yul\":3812:3888   */\n      tag_49\n      jump\t// in\n    tag_106:\n        /* \"#utility.yul\":3802:3888   */\n      swap3\n      pop\n        /* \"#utility.yul\":3642:3898   */\n      pop\n        /* \"#utility.yul\":3629:3630   */\n      0x01\n        /* \"#utility.yul\":3626:3627   */\n      dup2\n        /* \"#utility.yul\":3622:3631   */\n      add\n        /* \"#utility.yul\":3617:3631   */\n      swap1\n      pop\n        /* \"#utility.yul\":3582:3898   */\n      jump(tag_102)\n    tag_104:\n        /* \"#utility.yul\":3586:3600   */\n      pop\n        /* \"#utility.yul\":3914:3917   */\n      dup6\n        /* \"#utility.yul\":3907:3917   */\n      swap4\n      pop\n        /* \"#utility.yul\":3251:3923   */\n      pop\n      pop\n      pop\n        /* \"#utility.yul\":3111:3923   */\n      swap3\n      swap2\n      pop\n      pop\n      jump\t// out\n        /* \"#utility.yul\":3929:4334   */\n    tag_15:\n        /* \"#utility.yul\":4088:4092   */\n      0x00\n        /* \"#utility.yul\":4126:4128   */\n      0x20\n        /* \"#utility.yul\":4115:4124   */\n      dup3\n        /* \"#utility.yul\":4111:4129   */\n      add\n        /* \"#utility.yul\":4103:4129   */\n      swap1\n      pop\n        /* \"#utility.yul\":4175:4184   */\n      dup2\n        /* \"#utility.yul\":4169:4173   */\n      dup2\n        /* \"#utility.yul\":4165:4185   */\n      sub\n        /* \"#utility.yul\":4161:4162   */\n      0x00\n        /* \"#utility.yul\":4150:4159   */\n      dup4\n        /* \"#utility.yul\":4146:4163   */\n      add\n        /* \"#utility.yul\":4139:4186   */\n      mstore\n        /* \"#utility.yul\":4203:4327   */\n      tag_108\n        /* \"#utility.yul\":4322:4326   */\n      dup2\n        /* \"#utility.yul\":4313:4319   */\n      dup5\n        /* \"#utility.yul\":4203:4327   */\n      tag_50\n      jump\t// in\n    tag_108:\n        /* \"#utility.yul\":4195:4327   */\n      swap1\n      pop\n        /* \"#utility.yul\":3929:4334   */\n      swap3\n      swap2\n      pop\n      pop\n      jump\t// out\n        /* \"#utility.yul\":4340:4457   */\n    tag_51:\n        /* \"#utility.yul\":4449:4450   */\n      0x00\n        /* \"#utility.yul\":4446:4447   */\n      dup1\n        /* \"#utility.yul\":4439:4451   */\n      revert\n        /* \"#utility.yul\":4463:4580   */\n    tag_52:\n        /* \"#utility.yul\":4572:4573   */\n      0x00\n        /* \"#utility.yul\":4569:4570   */\n      dup1\n        /* \"#utility.yul\":4562:4574   */\n      revert\n        /* \"#utility.yul\":4586:4703   */\n    tag_53:\n        /* \"#utility.yul\":4695:4696   */\n      0x00\n        /* \"#utility.yul\":4692:4693   */\n      dup1\n        /* \"#utility.yul\":4685:4697   */\n      revert\n        /* \"#utility.yul\":4723:5276   */\n    tag_54:\n        /* \"#utility.yul\":4781:4789   */\n      0x00\n        /* \"#utility.yul\":4791:4797   */\n      dup1\n        /* \"#utility.yul\":4841:4844   */\n      dup4\n        /* \"#utility.yul\":4834:4838   */\n      0x1f\n        /* \"#utility.yul\":4826:4832   */\n      dup5\n        /* \"#utility.yul\":4822:4839   */\n      add\n        /* \"#utility.yul\":4818:4845   */\n      slt\n        /* \"#utility.yul\":4808:4930   */\n      tag_113\n      jumpi\n        /* \"#utility.yul\":4849:4928   */\n      tag_114\n      tag_51\n      jump\t// in\n    tag_114:\n        /* \"#utility.yul\":4808:4930   */\n    tag_113:\n        /* \"#utility.yul\":4962:4968   */\n      dup3\n        /* \"#utility.yul\":4949:4969   */\n      calldataload\n        /* \"#utility.yul\":4939:4969   */\n      swap1\n      pop\n        /* \"#utility.yul\":4992:5010   */\n      0xffffffffffffffff\n        /* \"#utility.yul\":4984:4990   */\n      dup2\n        /* \"#utility.yul\":4981:5011   */\n      gt\n        /* \"#utility.yul\":4978:5095   */\n      iszero\n      tag_115\n      jumpi\n        /* \"#utility.yul\":5014:5093   */\n      tag_116\n      tag_52\n      jump\t// in\n    tag_116:\n        /* \"#utility.yul\":4978:5095   */\n    tag_115:\n        /* \"#utility.yul\":5128:5132   */\n      0x20\n        /* \"#utility.yul\":5120:5126   */\n      dup4\n        /* \"#utility.yul\":5116:5133   */\n      add\n        /* \"#utility.yul\":5104:5133   */\n      swap2\n      pop\n        /* \"#utility.yul\":5182:5185   */\n      dup4\n        /* \"#utility.yul\":5174:5178   */\n      0x01\n        /* \"#utility.yul\":5166:5172   */\n      dup3\n        /* \"#utility.yul\":5162:5179   */\n      mul\n        /* \"#utility.yul\":5152:5160   */\n      dup4\n        /* \"#utility.yul\":5148:5180   */\n      add\n        /* \"#utility.yul\":5145:5186   */\n      gt\n        /* \"#utility.yul\":5142:5270   */\n      iszero\n      tag_117\n      jumpi\n        /* \"#utility.yul\":5189:5268   */\n      tag_118\n      tag_53\n      jump\t// in\n    tag_118:\n        /* \"#utility.yul\":5142:5270   */\n    tag_117:\n        /* \"#utility.yul\":4723:5276   */\n      swap3\n      pop\n      swap3\n      swap1\n      pop\n      jump\t// out\n        /* \"#utility.yul\":5282:6793   */\n    tag_18:\n        /* \"#utility.yul\":5413:5419   */\n      0x00\n        /* \"#utility.yul\":5421:5427   */\n      dup1\n        /* \"#utility.yul\":5429:5435   */\n      0x00\n        /* \"#utility.yul\":5437:5443   */\n      dup1\n        /* \"#utility.yul\":5445:5451   */\n      0x00\n        /* \"#utility.yul\":5453:5459   */\n      dup1\n        /* \"#utility.yul\":5461:5467   */\n      0x00\n        /* \"#utility.yul\":5469:5475   */\n      dup1\n        /* \"#utility.yul\":5518:5521   */\n      0xa0\n        /* \"#utility.yul\":5506:5515   */\n      dup10\n        /* \"#utility.yul\":5497:5504   */\n      dup12\n        /* \"#utility.yul\":5493:5516   */\n      sub\n        /* \"#utility.yul\":5489:5522   */\n      slt\n        /* \"#utility.yul\":5486:5606   */\n      iszero\n      tag_120\n      jumpi\n        /* \"#utility.yul\":5525:5604   */\n      tag_121\n      tag_33\n      jump\t// in\n    tag_121:\n        /* \"#utility.yul\":5486:5606   */\n    tag_120:\n        /* \"#utility.yul\":5645:5646   */\n      0x00\n        /* \"#utility.yul\":5670:5723   */\n      tag_122\n        /* \"#utility.yul\":5715:5722   */\n      dup12\n        /* \"#utility.yul\":5706:5712   */\n      dup3\n        /* \"#utility.yul\":5695:5704   */\n      dup13\n        /* \"#utility.yul\":5691:5713   */\n      add\n        /* \"#utility.yul\":5670:5723   */\n      tag_37\n      jump\t// in\n    tag_122:\n        /* \"#utility.yul\":5660:5723   */\n      swap9\n      pop\n        /* \"#utility.yul\":5616:5733   */\n      pop\n        /* \"#utility.yul\":5800:5802   */\n      0x20\n        /* \"#utility.yul\":5789:5798   */\n      dup10\n        /* \"#utility.yul\":5785:5803   */\n      add\n        /* \"#utility.yul\":5772:5804   */\n      calldataload\n        /* \"#utility.yul\":5831:5849   */\n      0xffffffffffffffff\n        /* \"#utility.yul\":5823:5829   */\n      dup2\n        /* \"#utility.yul\":5820:5850   */\n      gt\n        /* \"#utility.yul\":5817:5934   */\n      iszero\n      tag_123\n      jumpi\n        /* \"#utility.yul\":5853:5932   */\n      tag_124\n      tag_34\n      jump\t// in\n    tag_124:\n        /* \"#utility.yul\":5817:5934   */\n    tag_123:\n        /* \"#utility.yul\":5966:6031   */\n      tag_125\n        /* \"#utility.yul\":6023:6030   */\n      dup12\n        /* \"#utility.yul\":6014:6020   */\n      dup3\n        /* \"#utility.yul\":6003:6012   */\n      dup13\n        /* \"#utility.yul\":5999:6021   */\n      add\n        /* \"#utility.yul\":5966:6031   */\n      tag_54\n      jump\t// in\n    tag_125:\n        /* \"#utility.yul\":5948:6031   */\n      swap8\n      pop\n      swap8\n      pop\n        /* \"#utility.yul\":5743:6041   */\n      pop\n        /* \"#utility.yul\":6108:6110   */\n      0x40\n        /* \"#utility.yul\":6097:6106   */\n      dup10\n        /* \"#utility.yul\":6093:6111   */\n      add\n        /* \"#utility.yul\":6080:6112   */\n      calldataload\n        /* \"#utility.yul\":6139:6157   */\n      0xffffffffffffffff\n        /* \"#utility.yul\":6131:6137   */\n      dup2\n        /* \"#utility.yul\":6128:6158   */\n      gt\n        /* \"#utility.yul\":6125:6242   */\n      iszero\n      tag_126\n      jumpi\n        /* \"#utility.yul\":6161:6240   */\n      tag_127\n      tag_34\n      jump\t// in\n    tag_127:\n        /* \"#utility.yul\":6125:6242   */\n    tag_126:\n        /* \"#utility.yul\":6274:6339   */\n      tag_128\n        /* \"#utility.yul\":6331:6338   */\n      dup12\n        /* \"#utility.yul\":6322:6328   */\n      dup3\n        /* \"#utility.yul\":6311:6320   */\n      dup13\n        /* \"#utility.yul\":6307:6329   */\n      add\n        /* \"#utility.yul\":6274:6339   */\n      tag_54\n      jump\t// in\n    tag_128:\n        /* \"#utility.yul\":6256:6339   */\n      swap6\n      pop\n      swap6\n      pop\n        /* \"#utility.yul\":6051:6349   */\n      pop\n        /* \"#utility.yul\":6416:6418   */\n      0x60\n        /* \"#utility.yul\":6405:6414   */\n      dup10\n        /* \"#utility.yul\":6401:6419   */\n      add\n        /* \"#utility.yul\":6388:6420   */\n      calldataload\n        /* \"#utility.yul\":6447:6465   */\n      0xffffffffffffffff\n        /* \"#utility.yul\":6439:6445   */\n      dup2\n        /* \"#utility.yul\":6436:6466   */\n      gt\n        /* \"#utility.yul\":6433:6550   */\n      iszero\n      tag_129\n      jumpi\n        /* \"#utility.yul\":6469:6548   */\n      tag_130\n      tag_34\n      jump\t// in\n    tag_130:\n        /* \"#utility.yul\":6433:6550   */\n    tag_129:\n        /* \"#utility.yul\":6582:6647   */\n      tag_131\n        /* \"#utility.yul\":6639:6646   */\n      dup12\n        /* \"#utility.yul\":6630:6636   */\n      dup3\n        /* \"#utility.yul\":6619:6628   */\n      dup13\n        /* \"#utility.yul\":6615:6637   */\n      add\n        /* \"#utility.yul\":6582:6647   */\n      tag_54\n      jump\t// in\n    tag_131:\n        /* \"#utility.yul\":6564:6647   */\n      swap4\n      pop\n      swap4\n      pop\n        /* \"#utility.yul\":6359:6657   */\n      pop\n        /* \"#utility.yul\":6696:6699   */\n      0x80\n        /* \"#utility.yul\":6723:6776   */\n      tag_132\n        /* \"#utility.yul\":6768:6775   */\n      dup12\n        /* \"#utility.yul\":6759:6765   */\n      dup3\n        /* \"#utility.yul\":6748:6757   */\n      dup13\n        /* \"#utility.yul\":6744:6766   */\n      add\n        /* \"#utility.yul\":6723:6776   */\n      tag_37\n      jump\t// in\n    tag_132:\n        /* \"#utility.yul\":6713:6776   */\n      swap2\n      pop\n        /* \"#utility.yul\":6667:6786   */\n      pop\n        /* \"#utility.yul\":5282:6793   */\n      swap3\n      swap6\n      swap9\n      pop\n      swap3\n      swap6\n      swap9\n      swap1\n      swap4\n      swap7\n      pop\n      jump\t// out\n        /* \"#utility.yul\":6799:6917   */\n    tag_55:\n        /* \"#utility.yul\":6886:6910   */\n      tag_134\n        /* \"#utility.yul\":6904:6909   */\n      dup2\n        /* \"#utility.yul\":6886:6910   */\n      tag_35\n      jump\t// in\n    tag_134:\n        /* \"#utility.yul\":6881:6884   */\n      dup3\n        /* \"#utility.yul\":6874:6911   */\n      mstore\n        /* \"#utility.yul\":6799:6917   */\n      pop\n      pop\n      jump\t// out\n        /* \"#utility.yul\":6923:7019   */\n    tag_56:\n        /* \"#utility.yul\":6960:6967   */\n      0x00\n        /* \"#utility.yul\":6989:7013   */\n      tag_136\n        /* \"#utility.yul\":7007:7012   */\n      dup3\n        /* \"#utility.yul\":6989:7013   */\n      tag_38\n      jump\t// in\n    tag_136:\n        /* \"#utility.yul\":6978:7013   */\n      swap1\n      pop\n        /* \"#utility.yul\":6923:7019   */\n      swap2\n      swap1\n      pop\n      jump\t// out\n        /* \"#utility.yul\":7025:7143   */\n    tag_57:\n        /* \"#utility.yul\":7112:7136   */\n      tag_138\n        /* \"#utility.yul\":7130:7135   */\n      dup2\n        /* \"#utility.yul\":7112:7136   */\n      tag_56\n      jump\t// in\n    tag_138:\n        /* \"#utility.yul\":7107:7110   */\n      dup3\n        /* \"#utility.yul\":7100:7137   */\n      mstore\n        /* \"#utility.yul\":7025:7143   */\n      pop\n      pop\n      jump\t// out\n        /* \"#utility.yul\":7149:7318   */\n    tag_58:\n        /* \"#utility.yul\":7233:7244   */\n      0x00\n        /* \"#utility.yul\":7267:7273   */\n      dup3\n        /* \"#utility.yul\":7262:7265   */\n      dup3\n        /* \"#utility.yul\":7255:7274   */\n      mstore\n        /* \"#utility.yul\":7307:7311   */\n      0x20\n        /* \"#utility.yul\":7302:7305   */\n      dup3\n        /* \"#utility.yul\":7298:7312   */\n      add\n        /* \"#utility.yul\":7283:7312   */\n      swap1\n      pop\n        /* \"#utility.yul\":7149:7318   */\n      swap3\n      swap2\n      pop\n      pop\n      jump\t// out\n        /* \"#utility.yul\":7324:7478   */\n    tag_59:\n        /* \"#utility.yul\":7408:7414   */\n      dup3\n        /* \"#utility.yul\":7403:7406   */\n      dup2\n        /* \"#utility.yul\":7398:7401   */\n      dup4\n        /* \"#utility.yul\":7385:7415   */\n      calldatacopy\n        /* \"#utility.yul\":7470:7471   */\n      0x00\n        /* \"#utility.yul\":7461:7467   */\n      dup4\n        /* \"#utility.yul\":7456:7459   */\n      dup4\n        /* \"#utility.yul\":7452:7468   */\n      add\n        /* \"#utility.yul\":7445:7472   */\n      mstore\n        /* \"#utility.yul\":7324:7478   */\n      pop\n      pop\n      pop\n      jump\t// out\n        /* \"#utility.yul\":7484:7586   */\n    tag_60:\n        /* \"#utility.yul\":7525:7531   */\n      0x00\n        /* \"#utility.yul\":7576:7578   */\n      0x1f\n        /* \"#utility.yul\":7572:7579   */\n      not\n        /* \"#utility.yul\":7567:7569   */\n      0x1f\n        /* \"#utility.yul\":7560:7565   */\n      dup4\n        /* \"#utility.yul\":7556:7570   */\n      add\n        /* \"#utility.yul\":7552:7580   */\n      and\n        /* \"#utility.yul\":7542:7580   */\n      swap1\n      pop\n        /* \"#utility.yul\":7484:7586   */\n      swap2\n      swap1\n      pop\n      jump\t// out\n        /* \"#utility.yul\":7616:7920   */\n    tag_61:\n        /* \"#utility.yul\":7714:7717   */\n      0x00\n        /* \"#utility.yul\":7735:7806   */\n      tag_143\n        /* \"#utility.yul\":7799:7805   */\n      dup4\n        /* \"#utility.yul\":7794:7797   */\n      dup6\n        /* \"#utility.yul\":7735:7806   */\n      tag_58\n      jump\t// in\n    tag_143:\n        /* \"#utility.yul\":7728:7806   */\n      swap4\n      pop\n        /* \"#utility.yul\":7816:7859   */\n      tag_144\n        /* \"#utility.yul\":7852:7858   */\n      dup4\n        /* \"#utility.yul\":7847:7850   */\n      dup6\n        /* \"#utility.yul\":7840:7845   */\n      dup5\n        /* \"#utility.yul\":7816:7859   */\n      tag_59\n      jump\t// in\n    tag_144:\n        /* \"#utility.yul\":7884:7913   */\n      tag_145\n        /* \"#utility.yul\":7906:7912   */\n      dup4\n        /* \"#utility.yul\":7884:7913   */\n      tag_60\n      jump\t// in\n    tag_145:\n        /* \"#utility.yul\":7879:7882   */\n      dup5\n        /* \"#utility.yul\":7875:7914   */\n      add\n        /* \"#utility.yul\":7868:7914   */\n      swap1\n      pop\n        /* \"#utility.yul\":7616:7920   */\n      swap4\n      swap3\n      pop\n      pop\n      pop\n      jump\t// out\n        /* \"#utility.yul\":7926:9034   */\n    tag_29:\n        /* \"#utility.yul\":8249:8253   */\n      0x00\n        /* \"#utility.yul\":8287:8290   */\n      0xc0\n        /* \"#utility.yul\":8276:8285   */\n      dup3\n        /* \"#utility.yul\":8272:8291   */\n      add\n        /* \"#utility.yul\":8264:8291   */\n      swap1\n      pop\n        /* \"#utility.yul\":8301:8372   */\n      tag_147\n        /* \"#utility.yul\":8369:8370   */\n      0x00\n        /* \"#utility.yul\":8358:8367   */\n      dup4\n        /* \"#utility.yul\":8354:8371   */\n      add\n        /* \"#utility.yul\":8345:8351   */\n      dup13\n        /* \"#utility.yul\":8301:8372   */\n      tag_55\n      jump\t// in\n    tag_147:\n        /* \"#utility.yul\":8382:8454   */\n      tag_148\n        /* \"#utility.yul\":8450:8452   */\n      0x20\n        /* \"#utility.yul\":8439:8448   */\n      dup4\n        /* \"#utility.yul\":8435:8453   */\n      add\n        /* \"#utility.yul\":8426:8432   */\n      dup12\n        /* \"#utility.yul\":8382:8454   */\n      tag_57\n      jump\t// in\n    tag_148:\n        /* \"#utility.yul\":8501:8510   */\n      dup2\n        /* \"#utility.yul\":8495:8499   */\n      dup2\n        /* \"#utility.yul\":8491:8511   */\n      sub\n        /* \"#utility.yul\":8486:8488   */\n      0x40\n        /* \"#utility.yul\":8475:8484   */\n      dup4\n        /* \"#utility.yul\":8471:8489   */\n      add\n        /* \"#utility.yul\":8464:8512   */\n      mstore\n        /* \"#utility.yul\":8529:8617   */\n      tag_149\n        /* \"#utility.yul\":8612:8616   */\n      dup2\n        /* \"#utility.yul\":8603:8609   */\n      dup10\n        /* \"#utility.yul\":8595:8601   */\n      dup12\n        /* \"#utility.yul\":8529:8617   */\n      tag_61\n      jump\t// in\n    tag_149:\n        /* \"#utility.yul\":8521:8617   */\n      swap1\n      pop\n        /* \"#utility.yul\":8664:8673   */\n      dup2\n        /* \"#utility.yul\":8658:8662   */\n      dup2\n        /* \"#utility.yul\":8654:8674   */\n      sub\n        /* \"#utility.yul\":8649:8651   */\n      0x60\n        /* \"#utility.yul\":8638:8647   */\n      dup4\n        /* \"#utility.yul\":8634:8652   */\n      add\n        /* \"#utility.yul\":8627:8675   */\n      mstore\n        /* \"#utility.yul\":8692:8780   */\n      tag_150\n        /* \"#utility.yul\":8775:8779   */\n      dup2\n        /* \"#utility.yul\":8766:8772   */\n      dup8\n        /* \"#utility.yul\":8758:8764   */\n      dup10\n        /* \"#utility.yul\":8692:8780   */\n      tag_61\n      jump\t// in\n    tag_150:\n        /* \"#utility.yul\":8684:8780   */\n      swap1\n      pop\n        /* \"#utility.yul\":8828:8837   */\n      dup2\n        /* \"#utility.yul\":8822:8826   */\n      dup2\n        /* \"#utility.yul\":8818:8838   */\n      sub\n        /* \"#utility.yul\":8812:8815   */\n      0x80\n        /* \"#utility.yul\":8801:8810   */\n      dup4\n        /* \"#utility.yul\":8797:8816   */\n      add\n        /* \"#utility.yul\":8790:8839   */\n      mstore\n        /* \"#utility.yul\":8856:8944   */\n      tag_151\n        /* \"#utility.yul\":8939:8943   */\n      dup2\n        /* \"#utility.yul\":8930:8936   */\n      dup6\n        /* \"#utility.yul\":8922:8928   */\n      dup8\n        /* \"#utility.yul\":8856:8944   */\n      tag_61\n      jump\t// in\n    tag_151:\n        /* \"#utility.yul\":8848:8944   */\n      swap1\n      pop\n        /* \"#utility.yul\":8954:9027   */\n      tag_152\n        /* \"#utility.yul\":9022:9025   */\n      0xa0\n        /* \"#utility.yul\":9011:9020   */\n      dup4\n        /* \"#utility.yul\":9007:9026   */\n      add\n        /* \"#utility.yul\":8998:9004   */\n      dup5\n        /* \"#utility.yul\":8954:9027   */\n      tag_55\n      jump\t// in\n    tag_152:\n        /* \"#utility.yul\":7926:9034   */\n      swap11\n      swap10\n      pop\n      pop\n      pop\n      pop\n      pop\n      pop\n      pop\n      pop\n      pop\n      pop\n      jump\t// out\n    stop\n\n    sub_0: assembly {\n            /* \"Campaign.sol\":683:3740  contract Campaign {... */\n          mstore(0x40, 0x80)\n            /* \"Campaign.sol\":1326:1715  constructor(... */\n          callvalue\n          dup1\n          iszero\n          tag_1\n          jumpi\n          0x00\n          dup1\n          revert\n        tag_1:\n          pop\n          mload(0x40)\n          sub(codesize, bytecodeSize)\n          dup1\n          bytecodeSize\n          dup4\n          codecopy\n          dup2\n          dup2\n          add\n          0x40\n          mstore\n          dup2\n          add\n          swap1\n          tag_2\n          swap2\n          swap1\n          tag_3\n          jump\t// in\n        tag_2:\n            /* \"Campaign.sol\":1530:1537  creator */\n          dup5\n            /* \"Campaign.sol\":1520:1527  manager */\n          0x00\n          dup1\n            /* \"Campaign.sol\":1520:1537  manager = creator */\n          0x0100\n          exp\n          dup2\n          sload\n          dup2\n          0xffffffffffffffffffffffffffffffffffffffff\n          mul\n          not\n          and\n          swap1\n          dup4\n          0xffffffffffffffffffffffffffffffffffffffff\n          and\n          mul\n          or\n          swap1\n          sstore\n          pop\n            /* \"Campaign.sol\":1569:1576  minimum */\n          dup6\n            /* \"Campaign.sol\":1547:1566  minimumContribution */\n          0x01\n            /* \"Campaign.sol\":1547:1576  minimumContribution = minimum */\n          dup2\n          swap1\n          sstore\n          pop\n            /* \"Campaign.sol\":1601:1605  name */\n          dup4\n            /* \"Campaign.sol\":1586:1598  CampaignName */\n          0x02\n            /* \"Campaign.sol\":1586:1605  CampaignName = name */\n          swap1\n          dup1\n          mload\n          swap1\n          0x20\n          add\n          swap1\n          tag_6\n          swap3\n          swap2\n          swap1\n          tag_7\n          jump\t// in\n        tag_6:\n          pop\n            /* \"Campaign.sol\":1637:1648  description */\n          dup3\n            /* \"Campaign.sol\":1615:1634  CampaignDescription */\n          0x03\n            /* \"Campaign.sol\":1615:1648  CampaignDescription = description */\n          swap1\n          dup1\n          mload\n          swap1\n          0x20\n          add\n          swap1\n          tag_8\n          swap3\n          swap2\n          swap1\n          tag_7\n          jump\t// in\n        tag_8:\n          pop\n            /* \"Campaign.sol\":1669:1674  image */\n          dup2\n            /* \"Campaign.sol\":1658:1666  imageUrl */\n          0x04\n            /* \"Campaign.sol\":1658:1674  imageUrl = image */\n          swap1\n          dup1\n          mload\n          swap1\n          0x20\n          add\n          swap1\n          tag_9\n          swap3\n          swap2\n          swap1\n          tag_7\n          jump\t// in\n        tag_9:\n          pop\n            /* \"Campaign.sol\":1702:1708  target */\n          dup1\n            /* \"Campaign.sol\":1684:1699  targetToAchieve */\n          0x05\n            /* \"Campaign.sol\":1684:1708  targetToAchieve = target */\n          dup2\n          swap1\n          sstore\n          pop\n            /* \"Campaign.sol\":1326:1715  constructor(... */\n          pop\n          pop\n          pop\n          pop\n          pop\n          pop\n            /* \"Campaign.sol\":683:3740  contract Campaign {... */\n          jump(tag_10)\n        tag_7:\n          dup3\n          dup1\n          sload\n          tag_11\n          swap1\n          tag_12\n          jump\t// in\n        tag_11:\n          swap1\n          0x00\n          mstore\n          keccak256(0x00, 0x20)\n          swap1\n          0x1f\n          add\n          0x20\n          swap1\n          div\n          dup2\n          add\n          swap3\n          dup3\n          tag_14\n          jumpi\n          0x00\n          dup6\n          sstore\n          jump(tag_13)\n        tag_14:\n          dup3\n          0x1f\n          lt\n          tag_15\n          jumpi\n          dup1\n          mload\n          not(0xff)\n          and\n          dup4\n          dup1\n          add\n          or\n          dup6\n          sstore\n          jump(tag_13)\n        tag_15:\n          dup3\n          dup1\n          add\n          0x01\n          add\n          dup6\n          sstore\n          dup3\n          iszero\n          tag_13\n          jumpi\n          swap2\n          dup3\n          add\n        tag_16:\n          dup3\n          dup2\n          gt\n          iszero\n          tag_17\n          jumpi\n          dup3\n          mload\n          dup3\n          sstore\n          swap2\n          0x20\n          add\n          swap2\n          swap1\n          0x01\n          add\n          swap1\n          jump(tag_16)\n        tag_17:\n        tag_13:\n          pop\n          swap1\n          pop\n          tag_18\n          swap2\n          swap1\n          tag_19\n          jump\t// in\n        tag_18:\n          pop\n          swap1\n          jump\t// out\n        tag_19:\n        tag_20:\n          dup1\n          dup3\n          gt\n          iszero\n          tag_21\n          jumpi\n          0x00\n          dup2\n          0x00\n          swap1\n          sstore\n          pop\n          0x01\n          add\n          jump(tag_20)\n        tag_21:\n          pop\n          swap1\n          jump\t// out\n            /* \"#utility.yul\":7:82   */\n        tag_22:\n            /* \"#utility.yul\":40:46   */\n          0x00\n            /* \"#utility.yul\":73:75   */\n          0x40\n            /* \"#utility.yul\":67:76   */\n          mload\n            /* \"#utility.yul\":57:76   */\n          swap1\n          pop\n            /* \"#utility.yul\":7:82   */\n          swap1\n          jump\t// out\n            /* \"#utility.yul\":88:205   */\n        tag_23:\n            /* \"#utility.yul\":197:198   */\n          0x00\n            /* \"#utility.yul\":194:195   */\n          dup1\n            /* \"#utility.yul\":187:199   */\n          revert\n            /* \"#utility.yul\":211:328   */\n        tag_24:\n            /* \"#utility.yul\":320:321   */\n          0x00\n            /* \"#utility.yul\":317:318   */\n          dup1\n            /* \"#utility.yul\":310:322   */\n          revert\n            /* \"#utility.yul\":334:411   */\n        tag_25:\n            /* \"#utility.yul\":371:378   */\n          0x00\n            /* \"#utility.yul\":400:405   */\n          dup2\n            /* \"#utility.yul\":389:405   */\n          swap1\n          pop\n            /* \"#utility.yul\":334:411   */\n          swap2\n          swap1\n          pop\n          jump\t// out\n            /* \"#utility.yul\":417:539   */\n        tag_26:\n            /* \"#utility.yul\":490:514   */\n          tag_49\n            /* \"#utility.yul\":508:513   */\n          dup2\n            /* \"#utility.yul\":490:514   */\n          tag_25\n          jump\t// in\n        tag_49:\n            /* \"#utility.yul\":483:488   */\n          dup2\n            /* \"#utility.yul\":480:515   */\n          eq\n            /* \"#utility.yul\":470:533   */\n          tag_50\n          jumpi\n            /* \"#utility.yul\":529:530   */\n          0x00\n            /* \"#utility.yul\":526:527   */\n          dup1\n            /* \"#utility.yul\":519:531   */\n          revert\n            /* \"#utility.yul\":470:533   */\n        tag_50:\n            /* \"#utility.yul\":417:539   */\n          pop\n          jump\t// out\n            /* \"#utility.yul\":545:688   */\n        tag_27:\n            /* \"#utility.yul\":602:607   */\n          0x00\n            /* \"#utility.yul\":633:639   */\n          dup2\n            /* \"#utility.yul\":627:640   */\n          mload\n            /* \"#utility.yul\":618:640   */\n          swap1\n          pop\n            /* \"#utility.yul\":649:682   */\n          tag_52\n            /* \"#utility.yul\":676:681   */\n          dup2\n            /* \"#utility.yul\":649:682   */\n          tag_26\n          jump\t// in\n        tag_52:\n            /* \"#utility.yul\":545:688   */\n          swap3\n          swap2\n          pop\n          pop\n          jump\t// out\n            /* \"#utility.yul\":694:820   */\n        tag_28:\n            /* \"#utility.yul\":731:738   */\n          0x00\n            /* \"#utility.yul\":771:813   */\n          0xffffffffffffffffffffffffffffffffffffffff\n            /* \"#utility.yul\":764:769   */\n          dup3\n            /* \"#utility.yul\":760:814   */\n          and\n            /* \"#utility.yul\":749:814   */\n          swap1\n          pop\n            /* \"#utility.yul\":694:820   */\n          swap2\n          swap1\n          pop\n          jump\t// out\n            /* \"#utility.yul\":826:922   */\n        tag_29:\n            /* \"#utility.yul\":863:870   */\n          0x00\n            /* \"#utility.yul\":892:916   */\n          tag_55\n            /* \"#utility.yul\":910:915   */\n          dup3\n            /* \"#utility.yul\":892:916   */\n          tag_28\n          jump\t// in\n        tag_55:\n            /* \"#utility.yul\":881:916   */\n          swap1\n          pop\n            /* \"#utility.yul\":826:922   */\n          swap2\n          swap1\n          pop\n          jump\t// out\n            /* \"#utility.yul\":928:1050   */\n        tag_30:\n            /* \"#utility.yul\":1001:1025   */\n          tag_57\n            /* \"#utility.yul\":1019:1024   */\n          dup2\n            /* \"#utility.yul\":1001:1025   */\n          tag_29\n          jump\t// in\n        tag_57:\n            /* \"#utility.yul\":994:999   */\n          dup2\n            /* \"#utility.yul\":991:1026   */\n          eq\n            /* \"#utility.yul\":981:1044   */\n          tag_58\n          jumpi\n            /* \"#utility.yul\":1040:1041   */\n          0x00\n            /* \"#utility.yul\":1037:1038   */\n          dup1\n            /* \"#utility.yul\":1030:1042   */\n          revert\n            /* \"#utility.yul\":981:1044   */\n        tag_58:\n            /* \"#utility.yul\":928:1050   */\n          pop\n          jump\t// out\n            /* \"#utility.yul\":1056:1199   */\n        tag_31:\n            /* \"#utility.yul\":1113:1118   */\n          0x00\n            /* \"#utility.yul\":1144:1150   */\n          dup2\n            /* \"#utility.yul\":1138:1151   */\n          mload\n            /* \"#utility.yul\":1129:1151   */\n          swap1\n          pop\n            /* \"#utility.yul\":1160:1193   */\n          tag_60\n            /* \"#utility.yul\":1187:1192   */\n          dup2\n            /* \"#utility.yul\":1160:1193   */\n          tag_30\n          jump\t// in\n        tag_60:\n            /* \"#utility.yul\":1056:1199   */\n          swap3\n          swap2\n          pop\n          pop\n          jump\t// out\n            /* \"#utility.yul\":1205:1322   */\n        tag_32:\n            /* \"#utility.yul\":1314:1315   */\n          0x00\n            /* \"#utility.yul\":1311:1312   */\n          dup1\n            /* \"#utility.yul\":1304:1316   */\n          revert\n            /* \"#utility.yul\":1328:1445   */\n        tag_33:\n            /* \"#utility.yul\":1437:1438   */\n          0x00\n            /* \"#utility.yul\":1434:1435   */\n          dup1\n            /* \"#utility.yul\":1427:1439   */\n          revert\n            /* \"#utility.yul\":1451:1553   */\n        tag_34:\n            /* \"#utility.yul\":1492:1498   */\n          0x00\n            /* \"#utility.yul\":1543:1545   */\n          0x1f\n            /* \"#utility.yul\":1539:1546   */\n          not\n            /* \"#utility.yul\":1534:1536   */\n          0x1f\n            /* \"#utility.yul\":1527:1532   */\n          dup4\n            /* \"#utility.yul\":1523:1537   */\n          add\n            /* \"#utility.yul\":1519:1547   */\n          and\n            /* \"#utility.yul\":1509:1547   */\n          swap1\n          pop\n            /* \"#utility.yul\":1451:1553   */\n          swap2\n          swap1\n          pop\n          jump\t// out\n            /* \"#utility.yul\":1559:1739   */\n        tag_35:\n            /* \"#utility.yul\":1607:1684   */\n          0x4e487b7100000000000000000000000000000000000000000000000000000000\n            /* \"#utility.yul\":1604:1605   */\n          0x00\n            /* \"#utility.yul\":1597:1685   */\n          mstore\n            /* \"#utility.yul\":1704:1708   */\n          0x41\n            /* \"#utility.yul\":1701:1702   */\n          0x04\n            /* \"#utility.yul\":1694:1709   */\n          mstore\n            /* \"#utility.yul\":1728:1732   */\n          0x24\n            /* \"#utility.yul\":1725:1726   */\n          0x00\n            /* \"#utility.yul\":1718:1733   */\n          revert\n            /* \"#utility.yul\":1745:2026   */\n        tag_36:\n            /* \"#utility.yul\":1828:1855   */\n          tag_66\n            /* \"#utility.yul\":1850:1854   */\n          dup3\n            /* \"#utility.yul\":1828:1855   */\n          tag_34\n          jump\t// in\n        tag_66:\n            /* \"#utility.yul\":1820:1826   */\n          dup2\n            /* \"#utility.yul\":1816:1856   */\n          add\n            /* \"#utility.yul\":1958:1964   */\n          dup2\n            /* \"#utility.yul\":1946:1956   */\n          dup2\n            /* \"#utility.yul\":1943:1965   */\n          lt\n            /* \"#utility.yul\":1922:1940   */\n          0xffffffffffffffff\n            /* \"#utility.yul\":1910:1920   */\n          dup3\n            /* \"#utility.yul\":1907:1941   */\n          gt\n            /* \"#utility.yul\":1904:1966   */\n          or\n            /* \"#utility.yul\":1901:1989   */\n          iszero\n          tag_67\n          jumpi\n            /* \"#utility.yul\":1969:1987   */\n          tag_68\n          tag_35\n          jump\t// in\n        tag_68:\n            /* \"#utility.yul\":1901:1989   */\n        tag_67:\n            /* \"#utility.yul\":2009:2019   */\n          dup1\n            /* \"#utility.yul\":2005:2007   */\n          0x40\n            /* \"#utility.yul\":1998:2020   */\n          mstore\n            /* \"#utility.yul\":1788:2026   */\n          pop\n            /* \"#utility.yul\":1745:2026   */\n          pop\n          pop\n          jump\t// out\n            /* \"#utility.yul\":2032:2161   */\n        tag_37:\n            /* \"#utility.yul\":2066:2072   */\n          0x00\n            /* \"#utility.yul\":2093:2113   */\n          tag_70\n          tag_22\n          jump\t// in\n        tag_70:\n            /* \"#utility.yul\":2083:2113   */\n          swap1\n          pop\n            /* \"#utility.yul\":2122:2155   */\n          tag_71\n            /* \"#utility.yul\":2150:2154   */\n          dup3\n            /* \"#utility.yul\":2142:2148   */\n          dup3\n            /* \"#utility.yul\":2122:2155   */\n          tag_36\n          jump\t// in\n        tag_71:\n            /* \"#utility.yul\":2032:2161   */\n          swap2\n          swap1\n          pop\n          jump\t// out\n            /* \"#utility.yul\":2167:2475   */\n        tag_38:\n            /* \"#utility.yul\":2229:2233   */\n          0x00\n            /* \"#utility.yul\":2319:2337   */\n          0xffffffffffffffff\n            /* \"#utility.yul\":2311:2317   */\n          dup3\n            /* \"#utility.yul\":2308:2338   */\n          gt\n            /* \"#utility.yul\":2305:2361   */\n          iszero\n          tag_73\n          jumpi\n            /* \"#utility.yul\":2341:2359   */\n          tag_74\n          tag_35\n          jump\t// in\n        tag_74:\n            /* \"#utility.yul\":2305:2361   */\n        tag_73:\n            /* \"#utility.yul\":2379:2408   */\n          tag_75\n            /* \"#utility.yul\":2401:2407   */\n          dup3\n            /* \"#utility.yul\":2379:2408   */\n          tag_34\n          jump\t// in\n        tag_75:\n            /* \"#utility.yul\":2371:2408   */\n          swap1\n          pop\n            /* \"#utility.yul\":2463:2467   */\n          0x20\n            /* \"#utility.yul\":2457:2461   */\n          dup2\n            /* \"#utility.yul\":2453:2468   */\n          add\n            /* \"#utility.yul\":2445:2468   */\n          swap1\n          pop\n            /* \"#utility.yul\":2167:2475   */\n          swap2\n          swap1\n          pop\n          jump\t// out\n            /* \"#utility.yul\":2481:2788   */\n        tag_39:\n            /* \"#utility.yul\":2549:2550   */\n          0x00\n            /* \"#utility.yul\":2559:2672   */\n        tag_77:\n            /* \"#utility.yul\":2573:2579   */\n          dup4\n            /* \"#utility.yul\":2570:2571   */\n          dup2\n            /* \"#utility.yul\":2567:2580   */\n          lt\n            /* \"#utility.yul\":2559:2672   */\n          iszero\n          tag_79\n          jumpi\n            /* \"#utility.yul\":2658:2659   */\n          dup1\n            /* \"#utility.yul\":2653:2656   */\n          dup3\n            /* \"#utility.yul\":2649:2660   */\n          add\n            /* \"#utility.yul\":2643:2661   */\n          mload\n            /* \"#utility.yul\":2639:2640   */\n          dup2\n            /* \"#utility.yul\":2634:2637   */\n          dup5\n            /* \"#utility.yul\":2630:2641   */\n          add\n            /* \"#utility.yul\":2623:2662   */\n          mstore\n            /* \"#utility.yul\":2595:2597   */\n          0x20\n            /* \"#utility.yul\":2592:2593   */\n          dup2\n            /* \"#utility.yul\":2588:2598   */\n          add\n            /* \"#utility.yul\":2583:2598   */\n          swap1\n          pop\n            /* \"#utility.yul\":2559:2672   */\n          jump(tag_77)\n        tag_79:\n            /* \"#utility.yul\":2690:2696   */\n          dup4\n            /* \"#utility.yul\":2687:2688   */\n          dup2\n            /* \"#utility.yul\":2684:2697   */\n          gt\n            /* \"#utility.yul\":2681:2782   */\n          iszero\n          tag_80\n          jumpi\n            /* \"#utility.yul\":2770:2771   */\n          0x00\n            /* \"#utility.yul\":2761:2767   */\n          dup5\n            /* \"#utility.yul\":2756:2759   */\n          dup5\n            /* \"#utility.yul\":2752:2768   */\n          add\n            /* \"#utility.yul\":2745:2772   */\n          mstore\n            /* \"#utility.yul\":2681:2782   */\n        tag_80:\n            /* \"#utility.yul\":2530:2788   */\n          pop\n            /* \"#utility.yul\":2481:2788   */\n          pop\n          pop\n          pop\n          jump\t// out\n            /* \"#utility.yul\":2794:3215   */\n        tag_40:\n            /* \"#utility.yul\":2883:2888   */\n          0x00\n            /* \"#utility.yul\":2908:2974   */\n          tag_82\n            /* \"#utility.yul\":2924:2973   */\n          tag_83\n            /* \"#utility.yul\":2966:2972   */\n          dup5\n            /* \"#utility.yul\":2924:2973   */\n          tag_38\n          jump\t// in\n        tag_83:\n            /* \"#utility.yul\":2908:2974   */\n          tag_37\n          jump\t// in\n        tag_82:\n            /* \"#utility.yul\":2899:2974   */\n          swap1\n          pop\n            /* \"#utility.yul\":2997:3003   */\n          dup3\n            /* \"#utility.yul\":2990:2995   */\n          dup2\n            /* \"#utility.yul\":2983:3004   */\n          mstore\n            /* \"#utility.yul\":3035:3039   */\n          0x20\n            /* \"#utility.yul\":3028:3033   */\n          dup2\n            /* \"#utility.yul\":3024:3040   */\n          add\n            /* \"#utility.yul\":3073:3076   */\n          dup5\n            /* \"#utility.yul\":3064:3070   */\n          dup5\n            /* \"#utility.yul\":3059:3062   */\n          dup5\n            /* \"#utility.yul\":3055:3071   */\n          add\n            /* \"#utility.yul\":3052:3077   */\n          gt\n            /* \"#utility.yul\":3049:3161   */\n          iszero\n          tag_84\n          jumpi\n            /* \"#utility.yul\":3080:3159   */\n          tag_85\n          tag_33\n          jump\t// in\n        tag_85:\n            /* \"#utility.yul\":3049:3161   */\n        tag_84:\n            /* \"#utility.yul\":3170:3209   */\n          tag_86\n            /* \"#utility.yul\":3202:3208   */\n          dup5\n            /* \"#utility.yul\":3197:3200   */\n          dup3\n            /* \"#utility.yul\":3192:3195   */\n          dup6\n            /* \"#utility.yul\":3170:3209   */\n          tag_39\n          jump\t// in\n        tag_86:\n            /* \"#utility.yul\":2889:3215   */\n          pop\n            /* \"#utility.yul\":2794:3215   */\n          swap4\n          swap3\n          pop\n          pop\n          pop\n          jump\t// out\n            /* \"#utility.yul\":3235:3590   */\n        tag_41:\n            /* \"#utility.yul\":3302:3307   */\n          0x00\n            /* \"#utility.yul\":3351:3354   */\n          dup3\n            /* \"#utility.yul\":3344:3348   */\n          0x1f\n            /* \"#utility.yul\":3336:3342   */\n          dup4\n            /* \"#utility.yul\":3332:3349   */\n          add\n            /* \"#utility.yul\":3328:3355   */\n          slt\n            /* \"#utility.yul\":3318:3440   */\n          tag_88\n          jumpi\n            /* \"#utility.yul\":3359:3438   */\n          tag_89\n          tag_32\n          jump\t// in\n        tag_89:\n            /* \"#utility.yul\":3318:3440   */\n        tag_88:\n            /* \"#utility.yul\":3469:3475   */\n          dup2\n            /* \"#utility.yul\":3463:3476   */\n          mload\n            /* \"#utility.yul\":3494:3584   */\n          tag_90\n            /* \"#utility.yul\":3580:3583   */\n          dup5\n            /* \"#utility.yul\":3572:3578   */\n          dup3\n            /* \"#utility.yul\":3565:3569   */\n          0x20\n            /* \"#utility.yul\":3557:3563   */\n          dup7\n            /* \"#utility.yul\":3553:3570   */\n          add\n            /* \"#utility.yul\":3494:3584   */\n          tag_40\n          jump\t// in\n        tag_90:\n            /* \"#utility.yul\":3485:3584   */\n          swap2\n          pop\n            /* \"#utility.yul\":3308:3590   */\n          pop\n            /* \"#utility.yul\":3235:3590   */\n          swap3\n          swap2\n          pop\n          pop\n          jump\t// out\n            /* \"#utility.yul\":3596:5249   */\n        tag_3:\n            /* \"#utility.yul\":3741:3747   */\n          0x00\n            /* \"#utility.yul\":3749:3755   */\n          dup1\n            /* \"#utility.yul\":3757:3763   */\n          0x00\n            /* \"#utility.yul\":3765:3771   */\n          dup1\n            /* \"#utility.yul\":3773:3779   */\n          0x00\n            /* \"#utility.yul\":3781:3787   */\n          dup1\n            /* \"#utility.yul\":3830:3833   */\n          0xc0\n            /* \"#utility.yul\":3818:3827   */\n          dup8\n            /* \"#utility.yul\":3809:3816   */\n          dup10\n            /* \"#utility.yul\":3805:3828   */\n          sub\n            /* \"#utility.yul\":3801:3834   */\n          slt\n            /* \"#utility.yul\":3798:3918   */\n          iszero\n          tag_92\n          jumpi\n            /* \"#utility.yul\":3837:3916   */\n          tag_93\n          tag_23\n          jump\t// in\n        tag_93:\n            /* \"#utility.yul\":3798:3918   */\n        tag_92:\n            /* \"#utility.yul\":3957:3958   */\n          0x00\n            /* \"#utility.yul\":3982:4046   */\n          tag_94\n            /* \"#utility.yul\":4038:4045   */\n          dup10\n            /* \"#utility.yul\":4029:4035   */\n          dup3\n            /* \"#utility.yul\":4018:4027   */\n          dup11\n            /* \"#utility.yul\":4014:4036   */\n          add\n            /* \"#utility.yul\":3982:4046   */\n          tag_27\n          jump\t// in\n        tag_94:\n            /* \"#utility.yul\":3972:4046   */\n          swap7\n          pop\n            /* \"#utility.yul\":3928:4056   */\n          pop\n            /* \"#utility.yul\":4095:4097   */\n          0x20\n            /* \"#utility.yul\":4121:4185   */\n          tag_95\n            /* \"#utility.yul\":4177:4184   */\n          dup10\n            /* \"#utility.yul\":4168:4174   */\n          dup3\n            /* \"#utility.yul\":4157:4166   */\n          dup11\n            /* \"#utility.yul\":4153:4175   */\n          add\n            /* \"#utility.yul\":4121:4185   */\n          tag_31\n          jump\t// in\n        tag_95:\n            /* \"#utility.yul\":4111:4185   */\n          swap6\n          pop\n            /* \"#utility.yul\":4066:4195   */\n          pop\n            /* \"#utility.yul\":4255:4257   */\n          0x40\n            /* \"#utility.yul\":4244:4253   */\n          dup8\n            /* \"#utility.yul\":4240:4258   */\n          add\n            /* \"#utility.yul\":4234:4259   */\n          mload\n            /* \"#utility.yul\":4286:4304   */\n          0xffffffffffffffff\n            /* \"#utility.yul\":4278:4284   */\n          dup2\n            /* \"#utility.yul\":4275:4305   */\n          gt\n            /* \"#utility.yul\":4272:4389   */\n          iszero\n          tag_96\n          jumpi\n            /* \"#utility.yul\":4308:4387   */\n          tag_97\n          tag_24\n          jump\t// in\n        tag_97:\n            /* \"#utility.yul\":4272:4389   */\n        tag_96:\n            /* \"#utility.yul\":4413:4487   */\n          tag_98\n            /* \"#utility.yul\":4479:4486   */\n          dup10\n            /* \"#utility.yul\":4470:4476   */\n          dup3\n            /* \"#utility.yul\":4459:4468   */\n          dup11\n            /* \"#utility.yul\":4455:4477   */\n          add\n            /* \"#utility.yul\":4413:4487   */\n          tag_41\n          jump\t// in\n        tag_98:\n            /* \"#utility.yul\":4403:4487   */\n          swap5\n          pop\n            /* \"#utility.yul\":4205:4497   */\n          pop\n            /* \"#utility.yul\":4557:4559   */\n          0x60\n            /* \"#utility.yul\":4546:4555   */\n          dup8\n            /* \"#utility.yul\":4542:4560   */\n          add\n            /* \"#utility.yul\":4536:4561   */\n          mload\n            /* \"#utility.yul\":4588:4606   */\n          0xffffffffffffffff\n            /* \"#utility.yul\":4580:4586   */\n          dup2\n            /* \"#utility.yul\":4577:4607   */\n          gt\n            /* \"#utility.yul\":4574:4691   */\n          iszero\n          tag_99\n          jumpi\n            /* \"#utility.yul\":4610:4689   */\n          tag_100\n          tag_24\n          jump\t// in\n        tag_100:\n            /* \"#utility.yul\":4574:4691   */\n        tag_99:\n            /* \"#utility.yul\":4715:4789   */\n          tag_101\n            /* \"#utility.yul\":4781:4788   */\n          dup10\n            /* \"#utility.yul\":4772:4778   */\n          dup3\n            /* \"#utility.yul\":4761:4770   */\n          dup11\n            /* \"#utility.yul\":4757:4779   */\n          add\n            /* \"#utility.yul\":4715:4789   */\n          tag_41\n          jump\t// in\n        tag_101:\n            /* \"#utility.yul\":4705:4789   */\n          swap4\n          pop\n            /* \"#utility.yul\":4507:4799   */\n          pop\n            /* \"#utility.yul\":4859:4862   */\n          0x80\n            /* \"#utility.yul\":4848:4857   */\n          dup8\n            /* \"#utility.yul\":4844:4863   */\n          add\n            /* \"#utility.yul\":4838:4864   */\n          mload\n            /* \"#utility.yul\":4891:4909   */\n          0xffffffffffffffff\n            /* \"#utility.yul\":4883:4889   */\n          dup2\n            /* \"#utility.yul\":4880:4910   */\n          gt\n            /* \"#utility.yul\":4877:4994   */\n          iszero\n          tag_102\n          jumpi\n            /* \"#utility.yul\":4913:4992   */\n          tag_103\n          tag_24\n          jump\t// in\n        tag_103:\n            /* \"#utility.yul\":4877:4994   */\n        tag_102:\n            /* \"#utility.yul\":5018:5092   */\n          tag_104\n            /* \"#utility.yul\":5084:5091   */\n          dup10\n            /* \"#utility.yul\":5075:5081   */\n          dup3\n            /* \"#utility.yul\":5064:5073   */\n          dup11\n            /* \"#utility.yul\":5060:5082   */\n          add\n            /* \"#utility.yul\":5018:5092   */\n          tag_41\n          jump\t// in\n        tag_104:\n            /* \"#utility.yul\":5008:5092   */\n          swap3\n          pop\n            /* \"#utility.yul\":4809:5102   */\n          pop\n            /* \"#utility.yul\":5141:5144   */\n          0xa0\n            /* \"#utility.yul\":5168:5232   */\n          tag_105\n            /* \"#utility.yul\":5224:5231   */\n          dup10\n            /* \"#utility.yul\":5215:5221   */\n          dup3\n            /* \"#utility.yul\":5204:5213   */\n          dup11\n            /* \"#utility.yul\":5200:5222   */\n          add\n            /* \"#utility.yul\":5168:5232   */\n          tag_27\n          jump\t// in\n        tag_105:\n            /* \"#utility.yul\":5158:5232   */\n          swap2\n          pop\n            /* \"#utility.yul\":5112:5242   */\n          pop\n            /* \"#utility.yul\":3596:5249   */\n          swap3\n          swap6\n          pop\n          swap3\n          swap6\n          pop\n          swap3\n          swap6\n          jump\t// out\n            /* \"#utility.yul\":5255:5435   */\n        tag_42:\n            /* \"#utility.yul\":5303:5380   */\n          0x4e487b7100000000000000000000000000000000000000000000000000000000\n            /* \"#utility.yul\":5300:5301   */\n          0x00\n            /* \"#utility.yul\":5293:5381   */\n          mstore\n            /* \"#utility.yul\":5400:5404   */\n          0x22\n            /* \"#utility.yul\":5397:5398   */\n          0x04\n            /* \"#utility.yul\":5390:5405   */\n          mstore\n            /* \"#utility.yul\":5424:5428   */\n          0x24\n            /* \"#utility.yul\":5421:5422   */\n          0x00\n            /* \"#utility.yul\":5414:5429   */\n          revert\n            /* \"#utility.yul\":5441:5761   */\n        tag_12:\n            /* \"#utility.yul\":5485:5491   */\n          0x00\n            /* \"#utility.yul\":5522:5523   */\n          0x02\n            /* \"#utility.yul\":5516:5520   */\n          dup3\n            /* \"#utility.yul\":5512:5524   */\n          div\n            /* \"#utility.yul\":5502:5524   */\n          swap1\n          pop\n            /* \"#utility.yul\":5569:5570   */\n          0x01\n            /* \"#utility.yul\":5563:5567   */\n          dup3\n            /* \"#utility.yul\":5559:5571   */\n          and\n            /* \"#utility.yul\":5590:5608   */\n          dup1\n            /* \"#utility.yul\":5580:5661   */\n          tag_108\n          jumpi\n            /* \"#utility.yul\":5646:5650   */\n          0x7f\n            /* \"#utility.yul\":5638:5644   */\n          dup3\n            /* \"#utility.yul\":5634:5651   */\n          and\n            /* \"#utility.yul\":5624:5651   */\n          swap2\n          pop\n            /* \"#utility.yul\":5580:5661   */\n        tag_108:\n            /* \"#utility.yul\":5708:5710   */\n          0x20\n            /* \"#utility.yul\":5700:5706   */\n          dup3\n            /* \"#utility.yul\":5697:5711   */\n          lt\n            /* \"#utility.yul\":5677:5695   */\n          dup2\n            /* \"#utility.yul\":5674:5712   */\n          eq\n            /* \"#utility.yul\":5671:5755   */\n          iszero\n          tag_109\n          jumpi\n            /* \"#utility.yul\":5727:5745   */\n          tag_110\n          tag_42\n          jump\t// in\n        tag_110:\n            /* \"#utility.yul\":5671:5755   */\n        tag_109:\n            /* \"#utility.yul\":5492:5761   */\n          pop\n            /* \"#utility.yul\":5441:5761   */\n          swap2\n          swap1\n          pop\n          jump\t// out\n            /* \"Campaign.sol\":683:3740  contract Campaign {... */\n        tag_10:\n          dataSize(sub_0)\n          dup1\n          dataOffset(sub_0)\n          0x00\n          codecopy\n          0x00\n          return\n        stop\n\n        sub_0: assembly {\n                /* \"Campaign.sol\":683:3740  contract Campaign {... */\n              mstore(0x40, 0x80)\n              jumpi(tag_1, lt(calldatasize, 0x04))\n              shr(0xe0, calldataload(0x00))\n              dup1\n              0x82fde093\n              gt\n              tag_18\n              jumpi\n              dup1\n              0xaba83150\n              gt\n              tag_19\n              jumpi\n              dup1\n              0xaba83150\n              eq\n              tag_14\n              jumpi\n              dup1\n              0xb2a87fc3\n              eq\n              tag_15\n              jumpi\n              dup1\n              0xd7d1bbdb\n              eq\n              tag_16\n              jumpi\n              dup1\n              0xea25213f\n              eq\n              tag_17\n              jumpi\n              jump(tag_1)\n            tag_19:\n              dup1\n              0x82fde093\n              eq\n              tag_10\n              jumpi\n              dup1\n              0x8a9cfd55\n              eq\n              tag_11\n              jumpi\n              dup1\n              0x937e09b1\n              eq\n              tag_12\n              jumpi\n              dup1\n              0x97654a8c\n              eq\n              tag_13\n              jumpi\n              jump(tag_1)\n            tag_18:\n              dup1\n              0x4051ddac\n              gt\n              tag_20\n              jumpi\n              dup1\n              0x4051ddac\n              eq\n              tag_6\n              jumpi\n              dup1\n              0x481c6a75\n              eq\n              tag_7\n              jumpi\n              dup1\n              0x7e7cd1b3\n              eq\n              tag_8\n              jumpi\n              dup1\n              0x81d12c58\n              eq\n              tag_9\n              jumpi\n              jump(tag_1)\n            tag_20:\n              dup1\n              0x03441006\n              eq\n              tag_2\n              jumpi\n              dup1\n              0x0a144391\n              eq\n              tag_3\n              jumpi\n              dup1\n              0x1fbed579\n              eq\n              tag_4\n              jumpi\n              dup1\n              0x3410452a\n              eq\n              tag_5\n              jumpi\n            tag_1:\n              0x00\n              dup1\n              revert\n                /* \"Campaign.sol\":2638:2940  function finalizeRequest(uint256 index) public restricted {... */\n            tag_2:\n              callvalue\n              dup1\n              iszero\n              tag_21\n              jumpi\n              0x00\n              dup1\n              revert\n            tag_21:\n              pop\n              tag_22\n              0x04\n              dup1\n              calldatasize\n              sub\n              dup2\n              add\n              swap1\n              tag_23\n              swap2\n              swap1\n              tag_24\n              jump\t// in\n            tag_23:\n              tag_25\n              jump\t// in\n            tag_22:\n              stop\n                /* \"Campaign.sol\":1157:1198  mapping(address => bool) public approvers */\n            tag_3:\n              callvalue\n              dup1\n              iszero\n              tag_26\n              jumpi\n              0x00\n              dup1\n              revert\n            tag_26:\n              pop\n              tag_27\n              0x04\n              dup1\n              calldatasize\n              sub\n              dup2\n              add\n              swap1\n              tag_28\n              swap2\n              swap1\n              tag_29\n              jump\t// in\n            tag_28:\n              tag_30\n              jump\t// in\n            tag_27:\n              mload(0x40)\n              tag_31\n              swap2\n              swap1\n              tag_32\n              jump\t// in\n            tag_31:\n              mload(0x40)\n              dup1\n              swap2\n              sub\n              swap1\n              return\n                /* \"Campaign.sol\":1122:1151  address[] public contributers */\n            tag_4:\n              callvalue\n              dup1\n              iszero\n              tag_33\n              jumpi\n              0x00\n              dup1\n              revert\n            tag_33:\n              pop\n              tag_34\n              0x04\n              dup1\n              calldatasize\n              sub\n              dup2\n              add\n              swap1\n              tag_35\n              swap2\n              swap1\n              tag_24\n              jump\t// in\n            tag_35:\n              tag_36\n              jump\t// in\n            tag_34:\n              mload(0x40)\n              tag_37\n              swap2\n              swap1\n              tag_38\n              jump\t// in\n            tag_37:\n              mload(0x40)\n              dup1\n              swap2\n              sub\n              swap1\n              return\n                /* \"Campaign.sol\":3558:3651  function getRequestsCount() public view returns (uint256) {... */\n            tag_5:\n              callvalue\n              dup1\n              iszero\n              tag_39\n              jumpi\n              0x00\n              dup1\n              revert\n            tag_39:\n              pop\n              tag_40\n              tag_41\n              jump\t// in\n            tag_40:\n              mload(0x40)\n              tag_42\n              swap2\n              swap1\n              tag_43\n              jump\t// in\n            tag_42:\n              mload(0x40)\n              dup1\n              swap2\n              sub\n              swap1\n              return\n                /* \"Campaign.sol\":2946:3552  function getSummary()... */\n            tag_6:\n              callvalue\n              dup1\n              iszero\n              tag_44\n              jumpi\n              0x00\n              dup1\n              revert\n            tag_44:\n              pop\n              tag_45\n              tag_46\n              jump\t// in\n            tag_45:\n              mload(0x40)\n              tag_47\n              swap10\n              swap9\n              swap8\n              swap7\n              swap6\n              swap5\n              swap4\n              swap3\n              swap2\n              swap1\n              tag_48\n              jump\t// in\n            tag_47:\n              mload(0x40)\n              dup1\n              swap2\n              sub\n              swap1\n              return\n                /* \"Campaign.sol\":919:941  address public manager */\n            tag_7:\n              callvalue\n              dup1\n              iszero\n              tag_49\n              jumpi\n              0x00\n              dup1\n              revert\n            tag_49:\n              pop\n              tag_50\n              tag_51\n              jump\t// in\n            tag_50:\n              mload(0x40)\n              tag_52\n              swap2\n              swap1\n              tag_38\n              jump\t// in\n            tag_52:\n              mload(0x40)\n              dup1\n              swap2\n              sub\n              swap1\n              return\n                /* \"Campaign.sol\":987:1013  string public CampaignName */\n            tag_8:\n              callvalue\n              dup1\n              iszero\n              tag_53\n              jumpi\n              0x00\n              dup1\n              revert\n            tag_53:\n              pop\n              tag_54\n              tag_55\n              jump\t// in\n            tag_54:\n              mload(0x40)\n              tag_56\n              swap2\n              swap1\n              tag_57\n              jump\t// in\n            tag_56:\n              mload(0x40)\n              dup1\n              swap2\n              sub\n              swap1\n              return\n                /* \"Campaign.sol\":1746:1789  mapping(uint256 => Request) public requests */\n            tag_9:\n              callvalue\n              dup1\n              iszero\n              tag_58\n              jumpi\n              0x00\n              dup1\n              revert\n            tag_58:\n              pop\n              tag_59\n              0x04\n              dup1\n              calldatasize\n              sub\n              dup2\n              add\n              swap1\n              tag_60\n              swap2\n              swap1\n              tag_24\n              jump\t// in\n            tag_60:\n              tag_61\n              jump\t// in\n            tag_59:\n              mload(0x40)\n              tag_62\n              swap6\n              swap5\n              swap4\n              swap3\n              swap2\n              swap1\n              tag_63\n              jump\t// in\n            tag_62:\n              mload(0x40)\n              dup1\n              swap2\n              sub\n              swap1\n              return\n                /* \"Campaign.sol\":1204:1233  uint256 public approversCount */\n            tag_10:\n              callvalue\n              dup1\n              iszero\n              tag_64\n              jumpi\n              0x00\n              dup1\n              revert\n            tag_64:\n              pop\n              tag_65\n              tag_66\n              jump\t// in\n            tag_65:\n              mload(0x40)\n              tag_67\n              swap2\n              swap1\n              tag_43\n              jump\t// in\n            tag_67:\n              mload(0x40)\n              dup1\n              swap2\n              sub\n              swap1\n              return\n                /* \"Campaign.sol\":2000:2353  function createRequest(... */\n            tag_11:\n              callvalue\n              dup1\n              iszero\n              tag_68\n              jumpi\n              0x00\n              dup1\n              revert\n            tag_68:\n              pop\n              tag_69\n              0x04\n              dup1\n              calldatasize\n              sub\n              dup2\n              add\n              swap1\n              tag_70\n              swap2\n              swap1\n              tag_71\n              jump\t// in\n            tag_70:\n              tag_72\n              jump\t// in\n            tag_69:\n              stop\n                /* \"Campaign.sol\":947:981  uint256 public minimumContribution */\n            tag_12:\n              callvalue\n              dup1\n              iszero\n              tag_73\n              jumpi\n              0x00\n              dup1\n              revert\n            tag_73:\n              pop\n              tag_74\n              tag_75\n              jump\t// in\n            tag_74:\n              mload(0x40)\n              tag_76\n              swap2\n              swap1\n              tag_43\n              jump\t// in\n            tag_76:\n              mload(0x40)\n              dup1\n              swap2\n              sub\n              swap1\n              return\n                /* \"Campaign.sol\":1019:1052  string public CampaignDescription */\n            tag_13:\n              callvalue\n              dup1\n              iszero\n              tag_77\n              jumpi\n              0x00\n              dup1\n              revert\n            tag_77:\n              pop\n              tag_78\n              tag_79\n              jump\t// in\n            tag_78:\n              mload(0x40)\n              tag_80\n              swap2\n              swap1\n              tag_57\n              jump\t// in\n            tag_80:\n              mload(0x40)\n              dup1\n              swap2\n              sub\n              swap1\n              return\n                /* \"Campaign.sol\":1058:1080  string public imageUrl */\n            tag_14:\n              callvalue\n              dup1\n              iszero\n              tag_81\n              jumpi\n              0x00\n              dup1\n              revert\n            tag_81:\n              pop\n              tag_82\n              tag_83\n              jump\t// in\n            tag_82:\n              mload(0x40)\n              tag_84\n              swap2\n              swap1\n              tag_57\n              jump\t// in\n            tag_84:\n              mload(0x40)\n              dup1\n              swap2\n              sub\n              swap1\n              return\n                /* \"Campaign.sol\":1086:1116  uint256 public targetToAchieve */\n            tag_15:\n              callvalue\n              dup1\n              iszero\n              tag_85\n              jumpi\n              0x00\n              dup1\n              revert\n            tag_85:\n              pop\n              tag_86\n              tag_87\n              jump\t// in\n            tag_86:\n              mload(0x40)\n              tag_88\n              swap2\n              swap1\n              tag_43\n              jump\t// in\n            tag_88:\n              mload(0x40)\n              dup1\n              swap2\n              sub\n              swap1\n              return\n                /* \"Campaign.sol\":2359:2632  function approveRequest(uint256 index) public {... */\n            tag_16:\n              callvalue\n              dup1\n              iszero\n              tag_89\n              jumpi\n              0x00\n              dup1\n              revert\n            tag_89:\n              pop\n              tag_90\n              0x04\n              dup1\n              calldatasize\n              sub\n              dup2\n              add\n              swap1\n              tag_91\n              swap2\n              swap1\n              tag_24\n              jump\t// in\n            tag_91:\n              tag_92\n              jump\t// in\n            tag_90:\n              stop\n                /* \"Campaign.sol\":1796:1994  function contibute() public payable {... */\n            tag_17:\n              tag_93\n              tag_94\n              jump\t// in\n            tag_93:\n              stop\n                /* \"Campaign.sol\":2638:2940  function finalizeRequest(uint256 index) public restricted {... */\n            tag_25:\n                /* \"Campaign.sol\":1294:1301  manager */\n              0x00\n              dup1\n              sload\n              swap1\n              0x0100\n              exp\n              swap1\n              div\n              0xffffffffffffffffffffffffffffffffffffffff\n              and\n                /* \"Campaign.sol\":1280:1301  msg.sender == manager */\n              0xffffffffffffffffffffffffffffffffffffffff\n              and\n                /* \"Campaign.sol\":1280:1290  msg.sender */\n              caller\n                /* \"Campaign.sol\":1280:1301  msg.sender == manager */\n              0xffffffffffffffffffffffffffffffffffffffff\n              and\n              eq\n                /* \"Campaign.sol\":1272:1302  require(msg.sender == manager) */\n              tag_96\n              jumpi\n              0x00\n              dup1\n              revert\n            tag_96:\n                /* \"Campaign.sol\":2706:2729  Request storage request */\n              0x00\n                /* \"Campaign.sol\":2732:2740  requests */\n              0x0a\n                /* \"Campaign.sol\":2732:2747  requests[index] */\n              0x00\n                /* \"Campaign.sol\":2741:2746  index */\n              dup4\n                /* \"Campaign.sol\":2732:2747  requests[index] */\n              dup2\n              mstore\n              0x20\n              add\n              swap1\n              dup2\n              mstore\n              0x20\n              add\n              0x00\n              keccak256\n                /* \"Campaign.sol\":2706:2747  Request storage request = requests[index] */\n              swap1\n              pop\n                /* \"Campaign.sol\":2807:2808  2 */\n              0x02\n                /* \"Campaign.sol\":2790:2804  approversCount */\n              sload(0x08)\n                /* \"Campaign.sol\":2790:2808  approversCount / 2 */\n              tag_98\n              swap2\n              swap1\n              tag_99\n              jump\t// in\n            tag_98:\n                /* \"Campaign.sol\":2765:2772  request */\n              dup2\n                /* \"Campaign.sol\":2765:2786  request.approvalCount */\n              0x03\n              add\n              sload\n                /* \"Campaign.sol\":2765:2809  request.approvalCount > (approversCount / 2) */\n              gt\n                /* \"Campaign.sol\":2757:2810  require(request.approvalCount > (approversCount / 2)) */\n              tag_100\n              jumpi\n              0x00\n              dup1\n              revert\n            tag_100:\n                /* \"Campaign.sol\":2830:2837  request */\n              dup1\n                /* \"Campaign.sol\":2830:2846  request.complete */\n              0x02\n              add\n              0x14\n              swap1\n              sload\n              swap1\n              0x0100\n              exp\n              swap1\n              div\n              0xff\n              and\n                /* \"Campaign.sol\":2828:2847  !(request.complete) */\n              iszero\n                /* \"Campaign.sol\":2820:2848  require(!(request.complete)) */\n              tag_101\n              jumpi\n              0x00\n              dup1\n              revert\n            tag_101:\n                /* \"Campaign.sol\":2859:2866  request */\n              dup1\n                /* \"Campaign.sol\":2859:2876  request.recipient */\n              0x02\n              add\n              0x00\n              swap1\n              sload\n              swap1\n              0x0100\n              exp\n              swap1\n              div\n              0xffffffffffffffffffffffffffffffffffffffff\n              and\n                /* \"Campaign.sol\":2859:2885  request.recipient.transfer */\n              0xffffffffffffffffffffffffffffffffffffffff\n              and\n                /* \"Campaign.sol\":2859:2900  request.recipient.transfer(request.value) */\n              0x08fc\n                /* \"Campaign.sol\":2886:2893  request */\n              dup3\n                /* \"Campaign.sol\":2886:2899  request.value */\n              0x01\n              add\n              sload\n                /* \"Campaign.sol\":2859:2900  request.recipient.transfer(request.value) */\n              swap1\n              dup2\n              iszero\n              mul\n              swap1\n              mload(0x40)\n              0x00\n              mload(0x40)\n              dup1\n              dup4\n              sub\n              dup2\n              dup6\n              dup9\n              dup9\n              call\n              swap4\n              pop\n              pop\n              pop\n              pop\n              iszero\n              dup1\n              iszero\n              tag_103\n              jumpi\n              returndatasize\n              0x00\n              dup1\n              returndatacopy\n              revert(0x00, returndatasize)\n            tag_103:\n              pop\n                /* \"Campaign.sol\":2929:2933  true */\n              0x01\n                /* \"Campaign.sol\":2910:2917  request */\n              dup2\n                /* \"Campaign.sol\":2910:2926  request.complete */\n              0x02\n              add\n              0x14\n                /* \"Campaign.sol\":2910:2933  request.complete = true */\n              0x0100\n              exp\n              dup2\n              sload\n              dup2\n              0xff\n              mul\n              not\n              and\n              swap1\n              dup4\n              iszero\n              iszero\n              mul\n              or\n              swap1\n              sstore\n              pop\n                /* \"Campaign.sol\":2696:2940  {... */\n              pop\n                /* \"Campaign.sol\":2638:2940  function finalizeRequest(uint256 index) public restricted {... */\n              pop\n              jump\t// out\n                /* \"Campaign.sol\":1157:1198  mapping(address => bool) public approvers */\n            tag_30:\n              mstore(0x20, 0x07)\n              dup1\n              0x00\n              mstore\n              keccak256(0x00, 0x40)\n              0x00\n              swap2\n              pop\n              sload\n              swap1\n              0x0100\n              exp\n              swap1\n              div\n              0xff\n              and\n              dup2\n              jump\t// out\n                /* \"Campaign.sol\":1122:1151  address[] public contributers */\n            tag_36:\n              0x06\n              dup2\n              dup2\n              sload\n              dup2\n              lt\n              tag_104\n              jumpi\n              0x00\n              dup1\n              revert\n            tag_104:\n              swap1\n              0x00\n              mstore\n              keccak256(0x00, 0x20)\n              add\n              0x00\n              swap2\n              pop\n              sload\n              swap1\n              0x0100\n              exp\n              swap1\n              div\n              0xffffffffffffffffffffffffffffffffffffffff\n              and\n              dup2\n              jump\t// out\n                /* \"Campaign.sol\":3558:3651  function getRequestsCount() public view returns (uint256) {... */\n            tag_41:\n                /* \"Campaign.sol\":3607:3614  uint256 */\n              0x00\n                /* \"Campaign.sol\":3633:3644  numRequests */\n              sload(0x09)\n                /* \"Campaign.sol\":3626:3644  return numRequests */\n              swap1\n              pop\n                /* \"Campaign.sol\":3558:3651  function getRequestsCount() public view returns (uint256) {... */\n              swap1\n              jump\t// out\n                /* \"Campaign.sol\":2946:3552  function getSummary()... */\n            tag_46:\n                /* \"Campaign.sol\":3026:3033  uint256 */\n              0x00\n                /* \"Campaign.sol\":3047:3054  uint256 */\n              dup1\n                /* \"Campaign.sol\":3068:3075  uint256 */\n              0x00\n                /* \"Campaign.sol\":3089:3096  uint256 */\n              dup1\n                /* \"Campaign.sol\":3110:3117  address */\n              0x00\n                /* \"Campaign.sol\":3131:3144  string memory */\n              0x60\n                /* \"Campaign.sol\":3158:3171  string memory */\n              dup1\n                /* \"Campaign.sol\":3185:3198  string memory */\n              0x60\n                /* \"Campaign.sol\":3212:3219  uint256 */\n              0x00\n                /* \"Campaign.sol\":3265:3284  minimumContribution */\n              sload(0x01)\n                /* \"Campaign.sol\":3298:3319  address(this).balance */\n              selfbalance\n                /* \"Campaign.sol\":3365:3376  numRequests */\n              sload(0x09)\n                /* \"Campaign.sol\":3390:3404  approversCount */\n              sload(0x08)\n                /* \"Campaign.sol\":3418:3425  manager */\n              0x00\n              dup1\n              sload\n              swap1\n              0x0100\n              exp\n              swap1\n              div\n              0xffffffffffffffffffffffffffffffffffffffff\n              and\n                /* \"Campaign.sol\":3439:3451  CampaignName */\n              0x02\n                /* \"Campaign.sol\":3465:3484  CampaignDescription */\n              0x03\n                /* \"Campaign.sol\":3498:3506  imageUrl */\n              0x04\n                /* \"Campaign.sol\":3520:3535  targetToAchieve */\n              sload(0x05)\n                /* \"Campaign.sol\":3244:3545  return (... */\n              dup4\n              dup1\n              sload\n              tag_108\n              swap1\n              tag_109\n              jump\t// in\n            tag_108:\n              dup1\n              0x1f\n              add\n              0x20\n              dup1\n              swap2\n              div\n              mul\n              0x20\n              add\n              mload(0x40)\n              swap1\n              dup2\n              add\n              0x40\n              mstore\n              dup1\n              swap3\n              swap2\n              swap1\n              dup2\n              dup2\n              mstore\n              0x20\n              add\n              dup3\n              dup1\n              sload\n              tag_110\n              swap1\n              tag_109\n              jump\t// in\n            tag_110:\n              dup1\n              iszero\n              tag_111\n              jumpi\n              dup1\n              0x1f\n              lt\n              tag_112\n              jumpi\n              0x0100\n              dup1\n              dup4\n              sload\n              div\n              mul\n              dup4\n              mstore\n              swap2\n              0x20\n              add\n              swap2\n              jump(tag_111)\n            tag_112:\n              dup3\n              add\n              swap2\n              swap1\n              0x00\n              mstore\n              keccak256(0x00, 0x20)\n              swap1\n            tag_113:\n              dup2\n              sload\n              dup2\n              mstore\n              swap1\n              0x01\n              add\n              swap1\n              0x20\n              add\n              dup1\n              dup4\n              gt\n              tag_113\n              jumpi\n              dup3\n              swap1\n              sub\n              0x1f\n              and\n              dup3\n              add\n              swap2\n            tag_111:\n              pop\n              pop\n              pop\n              pop\n              pop\n              swap4\n              pop\n              dup3\n              dup1\n              sload\n              tag_114\n              swap1\n              tag_109\n              jump\t// in\n            tag_114:\n              dup1\n              0x1f\n              add\n              0x20\n              dup1\n              swap2\n              div\n              mul\n              0x20\n              add\n              mload(0x40)\n              swap1\n              dup2\n              add\n              0x40\n              mstore\n              dup1\n              swap3\n              swap2\n              swap1\n              dup2\n              dup2\n              mstore\n              0x20\n              add\n              dup3\n              dup1\n              sload\n              tag_115\n              swap1\n              tag_109\n              jump\t// in\n            tag_115:\n              dup1\n              iszero\n              tag_116\n              jumpi\n              dup1\n              0x1f\n              lt\n              tag_117\n              jumpi\n              0x0100\n              dup1\n              dup4\n              sload\n              div\n              mul\n              dup4\n              mstore\n              swap2\n              0x20\n              add\n              swap2\n              jump(tag_116)\n            tag_117:\n              dup3\n              add\n              swap2\n              swap1\n              0x00\n              mstore\n              keccak256(0x00, 0x20)\n              swap1\n            tag_118:\n              dup2\n              sload\n              dup2\n              mstore\n              swap1\n              0x01\n              add\n              swap1\n              0x20\n              add\n              dup1\n              dup4\n              gt\n              tag_118\n              jumpi\n              dup3\n              swap1\n              sub\n              0x1f\n              and\n              dup3\n              add\n              swap2\n            tag_116:\n              pop\n              pop\n              pop\n              pop\n              pop\n              swap3\n              pop\n              dup2\n              dup1\n              sload\n              tag_119\n              swap1\n              tag_109\n              jump\t// in\n            tag_119:\n              dup1\n              0x1f\n              add\n              0x20\n              dup1\n              swap2\n              div\n              mul\n              0x20\n              add\n              mload(0x40)\n              swap1\n              dup2\n              add\n              0x40\n              mstore\n              dup1\n              swap3\n              swap2\n              swap1\n              dup2\n              dup2\n              mstore\n              0x20\n              add\n              dup3\n              dup1\n              sload\n              tag_120\n              swap1\n              tag_109\n              jump\t// in\n            tag_120:\n              dup1\n              iszero\n              tag_121\n              jumpi\n              dup1\n              0x1f\n              lt\n              tag_122\n              jumpi\n              0x0100\n              dup1\n              dup4\n              sload\n              div\n              mul\n              dup4\n              mstore\n              swap2\n              0x20\n              add\n              swap2\n              jump(tag_121)\n            tag_122:\n              dup3\n              add\n              swap2\n              swap1\n              0x00\n              mstore\n              keccak256(0x00, 0x20)\n              swap1\n            tag_123:\n              dup2\n              sload\n              dup2\n              mstore\n              swap1\n              0x01\n              add\n              swap1\n              0x20\n              add\n              dup1\n              dup4\n              gt\n              tag_123\n              jumpi\n              dup3\n              swap1\n              sub\n              0x1f\n              and\n              dup3\n              add\n              swap2\n            tag_121:\n              pop\n              pop\n              pop\n              pop\n              pop\n              swap2\n              pop\n              swap9\n              pop\n              swap9\n              pop\n              swap9\n              pop\n              swap9\n              pop\n              swap9\n              pop\n              swap9\n              pop\n              swap9\n              pop\n              swap9\n              pop\n              swap9\n              pop\n                /* \"Campaign.sol\":2946:3552  function getSummary()... */\n              swap1\n              swap2\n              swap3\n              swap4\n              swap5\n              swap6\n              swap7\n              swap8\n              swap9\n              jump\t// out\n                /* \"Campaign.sol\":919:941  address public manager */\n            tag_51:\n              0x00\n              dup1\n              sload\n              swap1\n              0x0100\n              exp\n              swap1\n              div\n              0xffffffffffffffffffffffffffffffffffffffff\n              and\n              dup2\n              jump\t// out\n                /* \"Campaign.sol\":987:1013  string public CampaignName */\n            tag_55:\n              0x02\n              dup1\n              sload\n              tag_124\n              swap1\n              tag_109\n              jump\t// in\n            tag_124:\n              dup1\n              0x1f\n              add\n              0x20\n              dup1\n              swap2\n              div\n              mul\n              0x20\n              add\n              mload(0x40)\n              swap1\n              dup2\n              add\n              0x40\n              mstore\n              dup1\n              swap3\n              swap2\n              swap1\n              dup2\n              dup2\n              mstore\n              0x20\n              add\n              dup3\n              dup1\n              sload\n              tag_125\n              swap1\n              tag_109\n              jump\t// in\n            tag_125:\n              dup1\n              iszero\n              tag_126\n              jumpi\n              dup1\n              0x1f\n              lt\n              tag_127\n              jumpi\n              0x0100\n              dup1\n              dup4\n              sload\n              div\n              mul\n              dup4\n              mstore\n              swap2\n              0x20\n              add\n              swap2\n              jump(tag_126)\n            tag_127:\n              dup3\n              add\n              swap2\n              swap1\n              0x00\n              mstore\n              keccak256(0x00, 0x20)\n              swap1\n            tag_128:\n              dup2\n              sload\n              dup2\n              mstore\n              swap1\n              0x01\n              add\n              swap1\n              0x20\n              add\n              dup1\n              dup4\n              gt\n              tag_128\n              jumpi\n              dup3\n              swap1\n              sub\n              0x1f\n              and\n              dup3\n              add\n              swap2\n            tag_126:\n              pop\n              pop\n              pop\n              pop\n              pop\n              dup2\n              jump\t// out\n                /* \"Campaign.sol\":1746:1789  mapping(uint256 => Request) public requests */\n            tag_61:\n              mstore(0x20, 0x0a)\n              dup1\n              0x00\n              mstore\n              keccak256(0x00, 0x40)\n              0x00\n              swap2\n              pop\n              swap1\n              pop\n              dup1\n              0x00\n              add\n              dup1\n              sload\n              tag_129\n              swap1\n              tag_109\n              jump\t// in\n            tag_129:\n              dup1\n              0x1f\n              add\n              0x20\n              dup1\n              swap2\n              div\n              mul\n              0x20\n              add\n              mload(0x40)\n              swap1\n              dup2\n              add\n              0x40\n              mstore\n              dup1\n              swap3\n              swap2\n              swap1\n              dup2\n              dup2\n              mstore\n              0x20\n              add\n              dup3\n              dup1\n              sload\n              tag_130\n              swap1\n              tag_109\n              jump\t// in\n            tag_130:\n              dup1\n              iszero\n              tag_131\n              jumpi\n              dup1\n              0x1f\n              lt\n              tag_132\n              jumpi\n              0x0100\n              dup1\n              dup4\n              sload\n              div\n              mul\n              dup4\n              mstore\n              swap2\n              0x20\n              add\n              swap2\n              jump(tag_131)\n            tag_132:\n              dup3\n              add\n              swap2\n              swap1\n              0x00\n              mstore\n              keccak256(0x00, 0x20)\n              swap1\n            tag_133:\n              dup2\n              sload\n              dup2\n              mstore\n              swap1\n              0x01\n              add\n              swap1\n              0x20\n              add\n              dup1\n              dup4\n              gt\n              tag_133\n              jumpi\n              dup3\n              swap1\n              sub\n              0x1f\n              and\n              dup3\n              add\n              swap2\n            tag_131:\n              pop\n              pop\n              pop\n              pop\n              pop\n              swap1\n              dup1\n              0x01\n              add\n              sload\n              swap1\n              dup1\n              0x02\n              add\n              0x00\n              swap1\n              sload\n              swap1\n              0x0100\n              exp\n              swap1\n              div\n              0xffffffffffffffffffffffffffffffffffffffff\n              and\n              swap1\n              dup1\n              0x02\n              add\n              0x14\n              swap1\n              sload\n              swap1\n              0x0100\n              exp\n              swap1\n              div\n              0xff\n              and\n              swap1\n              dup1\n              0x03\n              add\n              sload\n              swap1\n              pop\n              dup6\n              jump\t// out\n                /* \"Campaign.sol\":1204:1233  uint256 public approversCount */\n            tag_66:\n              sload(0x08)\n              dup2\n              jump\t// out\n                /* \"Campaign.sol\":2000:2353  function createRequest(... */\n            tag_72:\n                /* \"Campaign.sol\":3712:3719  manager */\n              0x00\n              dup1\n              sload\n              swap1\n              0x0100\n              exp\n              swap1\n              div\n              0xffffffffffffffffffffffffffffffffffffffff\n              and\n                /* \"Campaign.sol\":3698:3719  msg.sender == manager */\n              0xffffffffffffffffffffffffffffffffffffffff\n              and\n                /* \"Campaign.sol\":3698:3708  msg.sender */\n              caller\n                /* \"Campaign.sol\":3698:3719  msg.sender == manager */\n              0xffffffffffffffffffffffffffffffffffffffff\n              and\n              eq\n                /* \"Campaign.sol\":3690:3720  require(msg.sender == manager) */\n              tag_135\n              jumpi\n              0x00\n              dup1\n              revert\n            tag_135:\n                /* \"Campaign.sol\":2151:2168  Request storage r */\n              0x00\n                /* \"Campaign.sol\":2171:2179  requests */\n              0x0a\n                /* \"Campaign.sol\":2171:2194  requests[numRequests++] */\n              0x00\n                /* \"Campaign.sol\":2180:2191  numRequests */\n              0x09\n              0x00\n                /* \"Campaign.sol\":2180:2193  numRequests++ */\n              dup2\n              sload\n              dup1\n              swap3\n              swap2\n              swap1\n              tag_137\n              swap1\n              tag_138\n              jump\t// in\n            tag_137:\n              swap2\n              swap1\n              pop\n              sstore\n                /* \"Campaign.sol\":2171:2194  requests[numRequests++] */\n              dup2\n              mstore\n              0x20\n              add\n              swap1\n              dup2\n              mstore\n              0x20\n              add\n              0x00\n              keccak256\n                /* \"Campaign.sol\":2151:2194  Request storage r = requests[numRequests++] */\n              swap1\n              pop\n                /* \"Campaign.sol\":2220:2231  description */\n              dup4\n                /* \"Campaign.sol\":2204:2205  r */\n              dup2\n                /* \"Campaign.sol\":2204:2217  r.description */\n              0x00\n              add\n                /* \"Campaign.sol\":2204:2231  r.description = description */\n              swap1\n              dup1\n              mload\n              swap1\n              0x20\n              add\n              swap1\n              tag_139\n              swap3\n              swap2\n              swap1\n              tag_140\n              jump\t// in\n            tag_139:\n              pop\n                /* \"Campaign.sol\":2251:2256  value */\n              dup3\n                /* \"Campaign.sol\":2241:2242  r */\n              dup2\n                /* \"Campaign.sol\":2241:2248  r.value */\n              0x01\n              add\n                /* \"Campaign.sol\":2241:2256  r.value = value */\n              dup2\n              swap1\n              sstore\n              pop\n                /* \"Campaign.sol\":2280:2289  recipient */\n              dup2\n                /* \"Campaign.sol\":2266:2267  r */\n              dup2\n                /* \"Campaign.sol\":2266:2277  r.recipient */\n              0x02\n              add\n              0x00\n                /* \"Campaign.sol\":2266:2289  r.recipient = recipient */\n              0x0100\n              exp\n              dup2\n              sload\n              dup2\n              0xffffffffffffffffffffffffffffffffffffffff\n              mul\n              not\n              and\n              swap1\n              dup4\n              0xffffffffffffffffffffffffffffffffffffffff\n              and\n              mul\n              or\n              swap1\n              sstore\n              pop\n                /* \"Campaign.sol\":2312:2317  false */\n              0x00\n                /* \"Campaign.sol\":2299:2300  r */\n              dup2\n                /* \"Campaign.sol\":2299:2309  r.complete */\n              0x02\n              add\n              0x14\n                /* \"Campaign.sol\":2299:2317  r.complete = false */\n              0x0100\n              exp\n              dup2\n              sload\n              dup2\n              0xff\n              mul\n              not\n              and\n              swap1\n              dup4\n              iszero\n              iszero\n              mul\n              or\n              swap1\n              sstore\n              pop\n                /* \"Campaign.sol\":2345:2346  0 */\n              0x00\n                /* \"Campaign.sol\":2327:2328  r */\n              dup2\n                /* \"Campaign.sol\":2327:2342  r.approvalCount */\n              0x03\n              add\n                /* \"Campaign.sol\":2327:2346  r.approvalCount = 0 */\n              dup2\n              swap1\n              sstore\n              pop\n                /* \"Campaign.sol\":2141:2353  {... */\n              pop\n                /* \"Campaign.sol\":2000:2353  function createRequest(... */\n              pop\n              pop\n              pop\n              jump\t// out\n                /* \"Campaign.sol\":947:981  uint256 public minimumContribution */\n            tag_75:\n              sload(0x01)\n              dup2\n              jump\t// out\n                /* \"Campaign.sol\":1019:1052  string public CampaignDescription */\n            tag_79:\n              0x03\n              dup1\n              sload\n              tag_141\n              swap1\n              tag_109\n              jump\t// in\n            tag_141:\n              dup1\n              0x1f\n              add\n              0x20\n              dup1\n              swap2\n              div\n              mul\n              0x20\n              add\n              mload(0x40)\n              swap1\n              dup2\n              add\n              0x40\n              mstore\n              dup1\n              swap3\n              swap2\n              swap1\n              dup2\n              dup2\n              mstore\n              0x20\n              add\n              dup3\n              dup1\n              sload\n              tag_142\n              swap1\n              tag_109\n              jump\t// in\n            tag_142:\n              dup1\n              iszero\n              tag_143\n              jumpi\n              dup1\n              0x1f\n              lt\n              tag_144\n              jumpi\n              0x0100\n              dup1\n              dup4\n              sload\n              div\n              mul\n              dup4\n              mstore\n              swap2\n              0x20\n              add\n              swap2\n              jump(tag_143)\n            tag_144:\n              dup3\n              add\n              swap2\n              swap1\n              0x00\n              mstore\n              keccak256(0x00, 0x20)\n              swap1\n            tag_145:\n              dup2\n              sload\n              dup2\n              mstore\n              swap1\n              0x01\n              add\n              swap1\n              0x20\n              add\n              dup1\n              dup4\n              gt\n              tag_145\n              jumpi\n              dup3\n              swap1\n              sub\n              0x1f\n              and\n              dup3\n              add\n              swap2\n            tag_143:\n              pop\n              pop\n              pop\n              pop\n              pop\n              dup2\n              jump\t// out\n                /* \"Campaign.sol\":1058:1080  string public imageUrl */\n            tag_83:\n              0x04\n              dup1\n              sload\n              tag_146\n              swap1\n              tag_109\n              jump\t// in\n            tag_146:\n              dup1\n              0x1f\n              add\n              0x20\n              dup1\n              swap2\n              div\n              mul\n              0x20\n              add\n              mload(0x40)\n              swap1\n              dup2\n              add\n              0x40\n              mstore\n              dup1\n              swap3\n              swap2\n              swap1\n              dup2\n              dup2\n              mstore\n              0x20\n              add\n              dup3\n              dup1\n              sload\n              tag_147\n              swap1\n              tag_109\n              jump\t// in\n            tag_147:\n              dup1\n              iszero\n              tag_148\n              jumpi\n              dup1\n              0x1f\n              lt\n              tag_149\n              jumpi\n              0x0100\n              dup1\n              dup4\n              sload\n              div\n              mul\n              dup4\n              mstore\n              swap2\n              0x20\n              add\n              swap2\n              jump(tag_148)\n            tag_149:\n              dup3\n              add\n              swap2\n              swap1\n              0x00\n              mstore\n              keccak256(0x00, 0x20)\n              swap1\n            tag_150:\n              dup2\n              sload\n              dup2\n              mstore\n              swap1\n              0x01\n              add\n              swap1\n              0x20\n              add\n              dup1\n              dup4\n              gt\n              tag_150\n              jumpi\n              dup3\n              swap1\n              sub\n              0x1f\n              and\n              dup3\n              add\n              swap2\n            tag_148:\n              pop\n              pop\n              pop\n              pop\n              pop\n              dup2\n              jump\t// out\n                /* \"Campaign.sol\":1086:1116  uint256 public targetToAchieve */\n            tag_87:\n              sload(0x05)\n              dup2\n              jump\t// out\n                /* \"Campaign.sol\":2359:2632  function approveRequest(uint256 index) public {... */\n            tag_92:\n                /* \"Campaign.sol\":2415:2438  Request storage request */\n              0x00\n                /* \"Campaign.sol\":2441:2449  requests */\n              0x0a\n                /* \"Campaign.sol\":2441:2456  requests[index] */\n              0x00\n                /* \"Campaign.sol\":2450:2455  index */\n              dup4\n                /* \"Campaign.sol\":2441:2456  requests[index] */\n              dup2\n              mstore\n              0x20\n              add\n              swap1\n              dup2\n              mstore\n              0x20\n              add\n              0x00\n              keccak256\n                /* \"Campaign.sol\":2415:2456  Request storage request = requests[index] */\n              swap1\n              pop\n                /* \"Campaign.sol\":2474:2483  approvers */\n              0x07\n                /* \"Campaign.sol\":2474:2495  approvers[msg.sender] */\n              0x00\n                /* \"Campaign.sol\":2484:2494  msg.sender */\n              caller\n                /* \"Campaign.sol\":2474:2495  approvers[msg.sender] */\n              0xffffffffffffffffffffffffffffffffffffffff\n              and\n              0xffffffffffffffffffffffffffffffffffffffff\n              and\n              dup2\n              mstore\n              0x20\n              add\n              swap1\n              dup2\n              mstore\n              0x20\n              add\n              0x00\n              keccak256\n              0x00\n              swap1\n              sload\n              swap1\n              0x0100\n              exp\n              swap1\n              div\n              0xff\n              and\n                /* \"Campaign.sol\":2466:2496  require(approvers[msg.sender]) */\n              tag_152\n              jumpi\n              0x00\n              dup1\n              revert\n            tag_152:\n                /* \"Campaign.sol\":2515:2522  request */\n              dup1\n                /* \"Campaign.sol\":2515:2532  request.approvals */\n              0x04\n              add\n                /* \"Campaign.sol\":2515:2544  request.approvals[msg.sender] */\n              0x00\n                /* \"Campaign.sol\":2533:2543  msg.sender */\n              caller\n                /* \"Campaign.sol\":2515:2544  request.approvals[msg.sender] */\n              0xffffffffffffffffffffffffffffffffffffffff\n              and\n              0xffffffffffffffffffffffffffffffffffffffff\n              and\n              dup2\n              mstore\n              0x20\n              add\n              swap1\n              dup2\n              mstore\n              0x20\n              add\n              0x00\n              keccak256\n              0x00\n              swap1\n              sload\n              swap1\n              0x0100\n              exp\n              swap1\n              div\n              0xff\n              and\n                /* \"Campaign.sol\":2514:2544  !request.approvals[msg.sender] */\n              iszero\n                /* \"Campaign.sol\":2506:2545  require(!request.approvals[msg.sender]) */\n              tag_153\n              jumpi\n              0x00\n              dup1\n              revert\n            tag_153:\n                /* \"Campaign.sol\":2588:2592  true */\n              0x01\n                /* \"Campaign.sol\":2556:2563  request */\n              dup2\n                /* \"Campaign.sol\":2556:2573  request.approvals */\n              0x04\n              add\n                /* \"Campaign.sol\":2556:2585  request.approvals[msg.sender] */\n              0x00\n                /* \"Campaign.sol\":2574:2584  msg.sender */\n              caller\n                /* \"Campaign.sol\":2556:2585  request.approvals[msg.sender] */\n              0xffffffffffffffffffffffffffffffffffffffff\n              and\n              0xffffffffffffffffffffffffffffffffffffffff\n              and\n              dup2\n              mstore\n              0x20\n              add\n              swap1\n              dup2\n              mstore\n              0x20\n              add\n              0x00\n              keccak256\n              0x00\n                /* \"Campaign.sol\":2556:2592  request.approvals[msg.sender] = true */\n              0x0100\n              exp\n              dup2\n              sload\n              dup2\n              0xff\n              mul\n              not\n              and\n              swap1\n              dup4\n              iszero\n              iszero\n              mul\n              or\n              swap1\n              sstore\n              pop\n                /* \"Campaign.sol\":2602:2609  request */\n              dup1\n                /* \"Campaign.sol\":2602:2623  request.approvalCount */\n              0x03\n              add\n              0x00\n                /* \"Campaign.sol\":2602:2625  request.approvalCount++ */\n              dup2\n              sload\n              dup1\n              swap3\n              swap2\n              swap1\n              tag_154\n              swap1\n              tag_138\n              jump\t// in\n            tag_154:\n              swap2\n              swap1\n              pop\n              sstore\n              pop\n                /* \"Campaign.sol\":2405:2632  {... */\n              pop\n                /* \"Campaign.sol\":2359:2632  function approveRequest(uint256 index) public {... */\n              pop\n              jump\t// out\n                /* \"Campaign.sol\":1796:1994  function contibute() public payable {... */\n            tag_94:\n                /* \"Campaign.sol\":1863:1882  minimumContribution */\n              sload(0x01)\n                /* \"Campaign.sol\":1850:1859  msg.value */\n              callvalue\n                /* \"Campaign.sol\":1850:1882  msg.value >= minimumContribution */\n              lt\n              iszero\n                /* \"Campaign.sol\":1842:1883  require(msg.value >= minimumContribution) */\n              tag_156\n              jumpi\n              0x00\n              dup1\n              revert\n            tag_156:\n                /* \"Campaign.sol\":1894:1906  contributers */\n              0x06\n                /* \"Campaign.sol\":1912:1922  msg.sender */\n              caller\n                /* \"Campaign.sol\":1894:1923  contributers.push(msg.sender) */\n              swap1\n              dup1\n              0x01\n              dup2\n              sload\n              add\n              dup1\n              dup3\n              sstore\n              dup1\n              swap2\n              pop\n              pop\n              0x01\n              swap1\n              sub\n              swap1\n              0x00\n              mstore\n              keccak256(0x00, 0x20)\n              add\n              0x00\n              swap1\n              swap2\n              swap1\n              swap2\n              swap1\n              swap2\n              0x0100\n              exp\n              dup2\n              sload\n              dup2\n              0xffffffffffffffffffffffffffffffffffffffff\n              mul\n              not\n              and\n              swap1\n              dup4\n              0xffffffffffffffffffffffffffffffffffffffff\n              and\n              mul\n              or\n              swap1\n              sstore\n              pop\n                /* \"Campaign.sol\":1957:1961  true */\n              0x01\n                /* \"Campaign.sol\":1933:1942  approvers */\n              0x07\n                /* \"Campaign.sol\":1933:1954  approvers[msg.sender] */\n              0x00\n                /* \"Campaign.sol\":1943:1953  msg.sender */\n              caller\n                /* \"Campaign.sol\":1933:1954  approvers[msg.sender] */\n              0xffffffffffffffffffffffffffffffffffffffff\n              and\n              0xffffffffffffffffffffffffffffffffffffffff\n              and\n              dup2\n              mstore\n              0x20\n              add\n              swap1\n              dup2\n              mstore\n              0x20\n              add\n              0x00\n              keccak256\n              0x00\n                /* \"Campaign.sol\":1933:1961  approvers[msg.sender] = true */\n              0x0100\n              exp\n              dup2\n              sload\n              dup2\n              0xff\n              mul\n              not\n              and\n              swap1\n              dup4\n              iszero\n              iszero\n              mul\n              or\n              swap1\n              sstore\n              pop\n                /* \"Campaign.sol\":1971:1985  approversCount */\n              0x08\n              0x00\n                /* \"Campaign.sol\":1971:1987  approversCount++ */\n              dup2\n              sload\n              dup1\n              swap3\n              swap2\n              swap1\n              tag_158\n              swap1\n              tag_138\n              jump\t// in\n            tag_158:\n              swap2\n              swap1\n              pop\n              sstore\n              pop\n                /* \"Campaign.sol\":1796:1994  function contibute() public payable {... */\n              jump\t// out\n            tag_140:\n              dup3\n              dup1\n              sload\n              tag_159\n              swap1\n              tag_109\n              jump\t// in\n            tag_159:\n              swap1\n              0x00\n              mstore\n              keccak256(0x00, 0x20)\n              swap1\n              0x1f\n              add\n              0x20\n              swap1\n              div\n              dup2\n              add\n              swap3\n              dup3\n              tag_161\n              jumpi\n              0x00\n              dup6\n              sstore\n              jump(tag_160)\n            tag_161:\n              dup3\n              0x1f\n              lt\n              tag_162\n              jumpi\n              dup1\n              mload\n              not(0xff)\n              and\n              dup4\n              dup1\n              add\n              or\n              dup6\n              sstore\n              jump(tag_160)\n            tag_162:\n              dup3\n              dup1\n              add\n              0x01\n              add\n              dup6\n              sstore\n              dup3\n              iszero\n              tag_160\n              jumpi\n              swap2\n              dup3\n              add\n            tag_163:\n              dup3\n              dup2\n              gt\n              iszero\n              tag_164\n              jumpi\n              dup3\n              mload\n              dup3\n              sstore\n              swap2\n              0x20\n              add\n              swap2\n              swap1\n              0x01\n              add\n              swap1\n              jump(tag_163)\n            tag_164:\n            tag_160:\n              pop\n              swap1\n              pop\n              tag_165\n              swap2\n              swap1\n              tag_166\n              jump\t// in\n            tag_165:\n              pop\n              swap1\n              jump\t// out\n            tag_166:\n            tag_167:\n              dup1\n              dup3\n              gt\n              iszero\n              tag_168\n              jumpi\n              0x00\n              dup2\n              0x00\n              swap1\n              sstore\n              pop\n              0x01\n              add\n              jump(tag_167)\n            tag_168:\n              pop\n              swap1\n              jump\t// out\n                /* \"#utility.yul\":7:82   */\n            tag_169:\n                /* \"#utility.yul\":40:46   */\n              0x00\n                /* \"#utility.yul\":73:75   */\n              0x40\n                /* \"#utility.yul\":67:76   */\n              mload\n                /* \"#utility.yul\":57:76   */\n              swap1\n              pop\n                /* \"#utility.yul\":7:82   */\n              swap1\n              jump\t// out\n                /* \"#utility.yul\":88:205   */\n            tag_170:\n                /* \"#utility.yul\":197:198   */\n              0x00\n                /* \"#utility.yul\":194:195   */\n              dup1\n                /* \"#utility.yul\":187:199   */\n              revert\n                /* \"#utility.yul\":211:328   */\n            tag_171:\n                /* \"#utility.yul\":320:321   */\n              0x00\n                /* \"#utility.yul\":317:318   */\n              dup1\n                /* \"#utility.yul\":310:322   */\n              revert\n                /* \"#utility.yul\":334:411   */\n            tag_172:\n                /* \"#utility.yul\":371:378   */\n              0x00\n                /* \"#utility.yul\":400:405   */\n              dup2\n                /* \"#utility.yul\":389:405   */\n              swap1\n              pop\n                /* \"#utility.yul\":334:411   */\n              swap2\n              swap1\n              pop\n              jump\t// out\n                /* \"#utility.yul\":417:539   */\n            tag_173:\n                /* \"#utility.yul\":490:514   */\n              tag_210\n                /* \"#utility.yul\":508:513   */\n              dup2\n                /* \"#utility.yul\":490:514   */\n              tag_172\n              jump\t// in\n            tag_210:\n                /* \"#utility.yul\":483:488   */\n              dup2\n                /* \"#utility.yul\":480:515   */\n              eq\n                /* \"#utility.yul\":470:533   */\n              tag_211\n              jumpi\n                /* \"#utility.yul\":529:530   */\n              0x00\n                /* \"#utility.yul\":526:527   */\n              dup1\n                /* \"#utility.yul\":519:531   */\n              revert\n                /* \"#utility.yul\":470:533   */\n            tag_211:\n                /* \"#utility.yul\":417:539   */\n              pop\n              jump\t// out\n                /* \"#utility.yul\":545:684   */\n            tag_174:\n                /* \"#utility.yul\":591:596   */\n              0x00\n                /* \"#utility.yul\":629:635   */\n              dup2\n                /* \"#utility.yul\":616:636   */\n              calldataload\n                /* \"#utility.yul\":607:636   */\n              swap1\n              pop\n                /* \"#utility.yul\":645:678   */\n              tag_213\n                /* \"#utility.yul\":672:677   */\n              dup2\n                /* \"#utility.yul\":645:678   */\n              tag_173\n              jump\t// in\n            tag_213:\n                /* \"#utility.yul\":545:684   */\n              swap3\n              swap2\n              pop\n              pop\n              jump\t// out\n                /* \"#utility.yul\":690:1019   */\n            tag_24:\n                /* \"#utility.yul\":749:755   */\n              0x00\n                /* \"#utility.yul\":798:800   */\n              0x20\n                /* \"#utility.yul\":786:795   */\n              dup3\n                /* \"#utility.yul\":777:784   */\n              dup5\n                /* \"#utility.yul\":773:796   */\n              sub\n                /* \"#utility.yul\":769:801   */\n              slt\n                /* \"#utility.yul\":766:885   */\n              iszero\n              tag_215\n              jumpi\n                /* \"#utility.yul\":804:883   */\n              tag_216\n              tag_170\n              jump\t// in\n            tag_216:\n                /* \"#utility.yul\":766:885   */\n            tag_215:\n                /* \"#utility.yul\":924:925   */\n              0x00\n                /* \"#utility.yul\":949:1002   */\n              tag_217\n                /* \"#utility.yul\":994:1001   */\n              dup5\n                /* \"#utility.yul\":985:991   */\n              dup3\n                /* \"#utility.yul\":974:983   */\n              dup6\n                /* \"#utility.yul\":970:992   */\n              add\n                /* \"#utility.yul\":949:1002   */\n              tag_174\n              jump\t// in\n            tag_217:\n                /* \"#utility.yul\":939:1002   */\n              swap2\n              pop\n                /* \"#utility.yul\":895:1012   */\n              pop\n                /* \"#utility.yul\":690:1019   */\n              swap3\n              swap2\n              pop\n              pop\n              jump\t// out\n                /* \"#utility.yul\":1025:1151   */\n            tag_175:\n                /* \"#utility.yul\":1062:1069   */\n              0x00\n                /* \"#utility.yul\":1102:1144   */\n              0xffffffffffffffffffffffffffffffffffffffff\n                /* \"#utility.yul\":1095:1100   */\n              dup3\n                /* \"#utility.yul\":1091:1145   */\n              and\n                /* \"#utility.yul\":1080:1145   */\n              swap1\n              pop\n                /* \"#utility.yul\":1025:1151   */\n              swap2\n              swap1\n              pop\n              jump\t// out\n                /* \"#utility.yul\":1157:1253   */\n            tag_176:\n                /* \"#utility.yul\":1194:1201   */\n              0x00\n                /* \"#utility.yul\":1223:1247   */\n              tag_220\n                /* \"#utility.yul\":1241:1246   */\n              dup3\n                /* \"#utility.yul\":1223:1247   */\n              tag_175\n              jump\t// in\n            tag_220:\n                /* \"#utility.yul\":1212:1247   */\n              swap1\n              pop\n                /* \"#utility.yul\":1157:1253   */\n              swap2\n              swap1\n              pop\n              jump\t// out\n                /* \"#utility.yul\":1259:1381   */\n            tag_177:\n                /* \"#utility.yul\":1332:1356   */\n              tag_222\n                /* \"#utility.yul\":1350:1355   */\n              dup2\n                /* \"#utility.yul\":1332:1356   */\n              tag_176\n              jump\t// in\n            tag_222:\n                /* \"#utility.yul\":1325:1330   */\n              dup2\n                /* \"#utility.yul\":1322:1357   */\n              eq\n                /* \"#utility.yul\":1312:1375   */\n              tag_223\n              jumpi\n                /* \"#utility.yul\":1371:1372   */\n              0x00\n                /* \"#utility.yul\":1368:1369   */\n              dup1\n                /* \"#utility.yul\":1361:1373   */\n              revert\n                /* \"#utility.yul\":1312:1375   */\n            tag_223:\n                /* \"#utility.yul\":1259:1381   */\n              pop\n              jump\t// out\n                /* \"#utility.yul\":1387:1526   */\n            tag_178:\n                /* \"#utility.yul\":1433:1438   */\n              0x00\n                /* \"#utility.yul\":1471:1477   */\n              dup2\n                /* \"#utility.yul\":1458:1478   */\n              calldataload\n                /* \"#utility.yul\":1449:1478   */\n              swap1\n              pop\n                /* \"#utility.yul\":1487:1520   */\n              tag_225\n                /* \"#utility.yul\":1514:1519   */\n              dup2\n                /* \"#utility.yul\":1487:1520   */\n              tag_177\n              jump\t// in\n            tag_225:\n                /* \"#utility.yul\":1387:1526   */\n              swap3\n              swap2\n              pop\n              pop\n              jump\t// out\n                /* \"#utility.yul\":1532:1861   */\n            tag_29:\n                /* \"#utility.yul\":1591:1597   */\n              0x00\n                /* \"#utility.yul\":1640:1642   */\n              0x20\n                /* \"#utility.yul\":1628:1637   */\n              dup3\n                /* \"#utility.yul\":1619:1626   */\n              dup5\n                /* \"#utility.yul\":1615:1638   */\n              sub\n                /* \"#utility.yul\":1611:1643   */\n              slt\n                /* \"#utility.yul\":1608:1727   */\n              iszero\n              tag_227\n              jumpi\n                /* \"#utility.yul\":1646:1725   */\n              tag_228\n              tag_170\n              jump\t// in\n            tag_228:\n                /* \"#utility.yul\":1608:1727   */\n            tag_227:\n                /* \"#utility.yul\":1766:1767   */\n              0x00\n                /* \"#utility.yul\":1791:1844   */\n              tag_229\n                /* \"#utility.yul\":1836:1843   */\n              dup5\n                /* \"#utility.yul\":1827:1833   */\n              dup3\n                /* \"#utility.yul\":1816:1825   */\n              dup6\n                /* \"#utility.yul\":1812:1834   */\n              add\n                /* \"#utility.yul\":1791:1844   */\n              tag_178\n              jump\t// in\n            tag_229:\n                /* \"#utility.yul\":1781:1844   */\n              swap2\n              pop\n                /* \"#utility.yul\":1737:1854   */\n              pop\n                /* \"#utility.yul\":1532:1861   */\n              swap3\n              swap2\n              pop\n              pop\n              jump\t// out\n                /* \"#utility.yul\":1867:1957   */\n            tag_179:\n                /* \"#utility.yul\":1901:1908   */\n              0x00\n                /* \"#utility.yul\":1944:1949   */\n              dup2\n                /* \"#utility.yul\":1937:1950   */\n              iszero\n                /* \"#utility.yul\":1930:1951   */\n              iszero\n                /* \"#utility.yul\":1919:1951   */\n              swap1\n              pop\n                /* \"#utility.yul\":1867:1957   */\n              swap2\n              swap1\n              pop\n              jump\t// out\n                /* \"#utility.yul\":1963:2072   */\n            tag_180:\n                /* \"#utility.yul\":2044:2065   */\n              tag_232\n                /* \"#utility.yul\":2059:2064   */\n              dup2\n                /* \"#utility.yul\":2044:2065   */\n              tag_179\n              jump\t// in\n            tag_232:\n                /* \"#utility.yul\":2039:2042   */\n              dup3\n                /* \"#utility.yul\":2032:2066   */\n              mstore\n                /* \"#utility.yul\":1963:2072   */\n              pop\n              pop\n              jump\t// out\n                /* \"#utility.yul\":2078:2288   */\n            tag_32:\n                /* \"#utility.yul\":2165:2169   */\n              0x00\n                /* \"#utility.yul\":2203:2205   */\n              0x20\n                /* \"#utility.yul\":2192:2201   */\n              dup3\n                /* \"#utility.yul\":2188:2206   */\n              add\n                /* \"#utility.yul\":2180:2206   */\n              swap1\n              pop\n                /* \"#utility.yul\":2216:2281   */\n              tag_234\n                /* \"#utility.yul\":2278:2279   */\n              0x00\n                /* \"#utility.yul\":2267:2276   */\n              dup4\n                /* \"#utility.yul\":2263:2280   */\n              add\n                /* \"#utility.yul\":2254:2260   */\n              dup5\n                /* \"#utility.yul\":2216:2281   */\n              tag_180\n              jump\t// in\n            tag_234:\n                /* \"#utility.yul\":2078:2288   */\n              swap3\n              swap2\n              pop\n              pop\n              jump\t// out\n                /* \"#utility.yul\":2294:2412   */\n            tag_181:\n                /* \"#utility.yul\":2381:2405   */\n              tag_236\n                /* \"#utility.yul\":2399:2404   */\n              dup2\n                /* \"#utility.yul\":2381:2405   */\n              tag_176\n              jump\t// in\n            tag_236:\n                /* \"#utility.yul\":2376:2379   */\n              dup3\n                /* \"#utility.yul\":2369:2406   */\n              mstore\n                /* \"#utility.yul\":2294:2412   */\n              pop\n              pop\n              jump\t// out\n                /* \"#utility.yul\":2418:2640   */\n            tag_38:\n                /* \"#utility.yul\":2511:2515   */\n              0x00\n                /* \"#utility.yul\":2549:2551   */\n              0x20\n                /* \"#utility.yul\":2538:2547   */\n              dup3\n                /* \"#utility.yul\":2534:2552   */\n              add\n                /* \"#utility.yul\":2526:2552   */\n              swap1\n              pop\n                /* \"#utility.yul\":2562:2633   */\n              tag_238\n                /* \"#utility.yul\":2630:2631   */\n              0x00\n                /* \"#utility.yul\":2619:2628   */\n              dup4\n                /* \"#utility.yul\":2615:2632   */\n              add\n                /* \"#utility.yul\":2606:2612   */\n              dup5\n                /* \"#utility.yul\":2562:2633   */\n              tag_181\n              jump\t// in\n            tag_238:\n                /* \"#utility.yul\":2418:2640   */\n              swap3\n              swap2\n              pop\n              pop\n              jump\t// out\n                /* \"#utility.yul\":2646:2764   */\n            tag_182:\n                /* \"#utility.yul\":2733:2757   */\n              tag_240\n                /* \"#utility.yul\":2751:2756   */\n              dup2\n                /* \"#utility.yul\":2733:2757   */\n              tag_172\n              jump\t// in\n            tag_240:\n                /* \"#utility.yul\":2728:2731   */\n              dup3\n                /* \"#utility.yul\":2721:2758   */\n              mstore\n                /* \"#utility.yul\":2646:2764   */\n              pop\n              pop\n              jump\t// out\n                /* \"#utility.yul\":2770:2992   */\n            tag_43:\n                /* \"#utility.yul\":2863:2867   */\n              0x00\n                /* \"#utility.yul\":2901:2903   */\n              0x20\n                /* \"#utility.yul\":2890:2899   */\n              dup3\n                /* \"#utility.yul\":2886:2904   */\n              add\n                /* \"#utility.yul\":2878:2904   */\n              swap1\n              pop\n                /* \"#utility.yul\":2914:2985   */\n              tag_242\n                /* \"#utility.yul\":2982:2983   */\n              0x00\n                /* \"#utility.yul\":2971:2980   */\n              dup4\n                /* \"#utility.yul\":2967:2984   */\n              add\n                /* \"#utility.yul\":2958:2964   */\n              dup5\n                /* \"#utility.yul\":2914:2985   */\n              tag_182\n              jump\t// in\n            tag_242:\n                /* \"#utility.yul\":2770:2992   */\n              swap3\n              swap2\n              pop\n              pop\n              jump\t// out\n                /* \"#utility.yul\":2998:3097   */\n            tag_183:\n                /* \"#utility.yul\":3050:3056   */\n              0x00\n                /* \"#utility.yul\":3084:3089   */\n              dup2\n                /* \"#utility.yul\":3078:3090   */\n              mload\n                /* \"#utility.yul\":3068:3090   */\n              swap1\n              pop\n                /* \"#utility.yul\":2998:3097   */\n              swap2\n              swap1\n              pop\n              jump\t// out\n                /* \"#utility.yul\":3103:3272   */\n            tag_184:\n                /* \"#utility.yul\":3187:3198   */\n              0x00\n                /* \"#utility.yul\":3221:3227   */\n              dup3\n                /* \"#utility.yul\":3216:3219   */\n              dup3\n                /* \"#utility.yul\":3209:3228   */\n              mstore\n                /* \"#utility.yul\":3261:3265   */\n              0x20\n                /* \"#utility.yul\":3256:3259   */\n              dup3\n                /* \"#utility.yul\":3252:3266   */\n              add\n                /* \"#utility.yul\":3237:3266   */\n              swap1\n              pop\n                /* \"#utility.yul\":3103:3272   */\n              swap3\n              swap2\n              pop\n              pop\n              jump\t// out\n                /* \"#utility.yul\":3278:3585   */\n            tag_185:\n                /* \"#utility.yul\":3346:3347   */\n              0x00\n                /* \"#utility.yul\":3356:3469   */\n            tag_246:\n                /* \"#utility.yul\":3370:3376   */\n              dup4\n                /* \"#utility.yul\":3367:3368   */\n              dup2\n                /* \"#utility.yul\":3364:3377   */\n              lt\n                /* \"#utility.yul\":3356:3469   */\n              iszero\n              tag_248\n              jumpi\n                /* \"#utility.yul\":3455:3456   */\n              dup1\n                /* \"#utility.yul\":3450:3453   */\n              dup3\n                /* \"#utility.yul\":3446:3457   */\n              add\n                /* \"#utility.yul\":3440:3458   */\n              mload\n                /* \"#utility.yul\":3436:3437   */\n              dup2\n                /* \"#utility.yul\":3431:3434   */\n              dup5\n                /* \"#utility.yul\":3427:3438   */\n              add\n                /* \"#utility.yul\":3420:3459   */\n              mstore\n                /* \"#utility.yul\":3392:3394   */\n              0x20\n                /* \"#utility.yul\":3389:3390   */\n              dup2\n                /* \"#utility.yul\":3385:3395   */\n              add\n                /* \"#utility.yul\":3380:3395   */\n              swap1\n              pop\n                /* \"#utility.yul\":3356:3469   */\n              jump(tag_246)\n            tag_248:\n                /* \"#utility.yul\":3487:3493   */\n              dup4\n                /* \"#utility.yul\":3484:3485   */\n              dup2\n                /* \"#utility.yul\":3481:3494   */\n              gt\n                /* \"#utility.yul\":3478:3579   */\n              iszero\n              tag_249\n              jumpi\n                /* \"#utility.yul\":3567:3568   */\n              0x00\n                /* \"#utility.yul\":3558:3564   */\n              dup5\n                /* \"#utility.yul\":3553:3556   */\n              dup5\n                /* \"#utility.yul\":3549:3565   */\n              add\n                /* \"#utility.yul\":3542:3569   */\n              mstore\n                /* \"#utility.yul\":3478:3579   */\n            tag_249:\n                /* \"#utility.yul\":3327:3585   */\n              pop\n                /* \"#utility.yul\":3278:3585   */\n              pop\n              pop\n              pop\n              jump\t// out\n                /* \"#utility.yul\":3591:3693   */\n            tag_186:\n                /* \"#utility.yul\":3632:3638   */\n              0x00\n                /* \"#utility.yul\":3683:3685   */\n              0x1f\n                /* \"#utility.yul\":3679:3686   */\n              not\n                /* \"#utility.yul\":3674:3676   */\n              0x1f\n                /* \"#utility.yul\":3667:3672   */\n              dup4\n                /* \"#utility.yul\":3663:3677   */\n              add\n                /* \"#utility.yul\":3659:3687   */\n              and\n                /* \"#utility.yul\":3649:3687   */\n              swap1\n              pop\n                /* \"#utility.yul\":3591:3693   */\n              swap2\n              swap1\n              pop\n              jump\t// out\n                /* \"#utility.yul\":3699:4063   */\n            tag_187:\n                /* \"#utility.yul\":3787:3790   */\n              0x00\n                /* \"#utility.yul\":3815:3854   */\n              tag_252\n                /* \"#utility.yul\":3848:3853   */\n              dup3\n                /* \"#utility.yul\":3815:3854   */\n              tag_183\n              jump\t// in\n            tag_252:\n                /* \"#utility.yul\":3870:3941   */\n              tag_253\n                /* \"#utility.yul\":3934:3940   */\n              dup2\n                /* \"#utility.yul\":3929:3932   */\n              dup6\n                /* \"#utility.yul\":3870:3941   */\n              tag_184\n              jump\t// in\n            tag_253:\n                /* \"#utility.yul\":3863:3941   */\n              swap4\n              pop\n                /* \"#utility.yul\":3950:4002   */\n              tag_254\n                /* \"#utility.yul\":3995:4001   */\n              dup2\n                /* \"#utility.yul\":3990:3993   */\n              dup6\n                /* \"#utility.yul\":3983:3987   */\n              0x20\n                /* \"#utility.yul\":3976:3981   */\n              dup7\n                /* \"#utility.yul\":3972:3988   */\n              add\n                /* \"#utility.yul\":3950:4002   */\n              tag_185\n              jump\t// in\n            tag_254:\n                /* \"#utility.yul\":4027:4056   */\n              tag_255\n                /* \"#utility.yul\":4049:4055   */\n              dup2\n                /* \"#utility.yul\":4027:4056   */\n              tag_186\n              jump\t// in\n            tag_255:\n                /* \"#utility.yul\":4022:4025   */\n              dup5\n                /* \"#utility.yul\":4018:4057   */\n              add\n                /* \"#utility.yul\":4011:4057   */\n              swap2\n              pop\n                /* \"#utility.yul\":3791:4063   */\n              pop\n                /* \"#utility.yul\":3699:4063   */\n              swap3\n              swap2\n              pop\n              pop\n              jump\t// out\n                /* \"#utility.yul\":4069:5450   */\n            tag_48:\n                /* \"#utility.yul\":4446:4450   */\n              0x00\n                /* \"#utility.yul\":4484:4487   */\n              0x0120\n                /* \"#utility.yul\":4473:4482   */\n              dup3\n                /* \"#utility.yul\":4469:4488   */\n              add\n                /* \"#utility.yul\":4461:4488   */\n              swap1\n              pop\n                /* \"#utility.yul\":4498:4569   */\n              tag_257\n                /* \"#utility.yul\":4566:4567   */\n              0x00\n                /* \"#utility.yul\":4555:4564   */\n              dup4\n                /* \"#utility.yul\":4551:4568   */\n              add\n                /* \"#utility.yul\":4542:4548   */\n              dup13\n                /* \"#utility.yul\":4498:4569   */\n              tag_182\n              jump\t// in\n            tag_257:\n                /* \"#utility.yul\":4579:4651   */\n              tag_258\n                /* \"#utility.yul\":4647:4649   */\n              0x20\n                /* \"#utility.yul\":4636:4645   */\n              dup4\n                /* \"#utility.yul\":4632:4650   */\n              add\n                /* \"#utility.yul\":4623:4629   */\n              dup12\n                /* \"#utility.yul\":4579:4651   */\n              tag_182\n              jump\t// in\n            tag_258:\n                /* \"#utility.yul\":4661:4733   */\n              tag_259\n                /* \"#utility.yul\":4729:4731   */\n              0x40\n                /* \"#utility.yul\":4718:4727   */\n              dup4\n                /* \"#utility.yul\":4714:4732   */\n              add\n                /* \"#utility.yul\":4705:4711   */\n              dup11\n                /* \"#utility.yul\":4661:4733   */\n              tag_182\n              jump\t// in\n            tag_259:\n                /* \"#utility.yul\":4743:4815   */\n              tag_260\n                /* \"#utility.yul\":4811:4813   */\n              0x60\n                /* \"#utility.yul\":4800:4809   */\n              dup4\n                /* \"#utility.yul\":4796:4814   */\n              add\n                /* \"#utility.yul\":4787:4793   */\n              dup10\n                /* \"#utility.yul\":4743:4815   */\n              tag_182\n              jump\t// in\n            tag_260:\n                /* \"#utility.yul\":4825:4898   */\n              tag_261\n                /* \"#utility.yul\":4893:4896   */\n              0x80\n                /* \"#utility.yul\":4882:4891   */\n              dup4\n                /* \"#utility.yul\":4878:4897   */\n              add\n                /* \"#utility.yul\":4869:4875   */\n              dup9\n                /* \"#utility.yul\":4825:4898   */\n              tag_181\n              jump\t// in\n            tag_261:\n                /* \"#utility.yul\":4946:4955   */\n              dup2\n                /* \"#utility.yul\":4940:4944   */\n              dup2\n                /* \"#utility.yul\":4936:4956   */\n              sub\n                /* \"#utility.yul\":4930:4933   */\n              0xa0\n                /* \"#utility.yul\":4919:4928   */\n              dup4\n                /* \"#utility.yul\":4915:4934   */\n              add\n                /* \"#utility.yul\":4908:4957   */\n              mstore\n                /* \"#utility.yul\":4974:5052   */\n              tag_262\n                /* \"#utility.yul\":5047:5051   */\n              dup2\n                /* \"#utility.yul\":5038:5044   */\n              dup8\n                /* \"#utility.yul\":4974:5052   */\n              tag_187\n              jump\t// in\n            tag_262:\n                /* \"#utility.yul\":4966:5052   */\n              swap1\n              pop\n                /* \"#utility.yul\":5100:5109   */\n              dup2\n                /* \"#utility.yul\":5094:5098   */\n              dup2\n                /* \"#utility.yul\":5090:5110   */\n              sub\n                /* \"#utility.yul\":5084:5087   */\n              0xc0\n                /* \"#utility.yul\":5073:5082   */\n              dup4\n                /* \"#utility.yul\":5069:5088   */\n              add\n                /* \"#utility.yul\":5062:5111   */\n              mstore\n                /* \"#utility.yul\":5128:5206   */\n              tag_263\n                /* \"#utility.yul\":5201:5205   */\n              dup2\n                /* \"#utility.yul\":5192:5198   */\n              dup7\n                /* \"#utility.yul\":5128:5206   */\n              tag_187\n              jump\t// in\n            tag_263:\n                /* \"#utility.yul\":5120:5206   */\n              swap1\n              pop\n                /* \"#utility.yul\":5254:5263   */\n              dup2\n                /* \"#utility.yul\":5248:5252   */\n              dup2\n                /* \"#utility.yul\":5244:5264   */\n              sub\n                /* \"#utility.yul\":5238:5241   */\n              0xe0\n                /* \"#utility.yul\":5227:5236   */\n              dup4\n                /* \"#utility.yul\":5223:5242   */\n              add\n                /* \"#utility.yul\":5216:5265   */\n              mstore\n                /* \"#utility.yul\":5282:5360   */\n              tag_264\n                /* \"#utility.yul\":5355:5359   */\n              dup2\n                /* \"#utility.yul\":5346:5352   */\n              dup6\n                /* \"#utility.yul\":5282:5360   */\n              tag_187\n              jump\t// in\n            tag_264:\n                /* \"#utility.yul\":5274:5360   */\n              swap1\n              pop\n                /* \"#utility.yul\":5370:5443   */\n              tag_265\n                /* \"#utility.yul\":5438:5441   */\n              0x0100\n                /* \"#utility.yul\":5427:5436   */\n              dup4\n                /* \"#utility.yul\":5423:5442   */\n              add\n                /* \"#utility.yul\":5414:5420   */\n              dup5\n                /* \"#utility.yul\":5370:5443   */\n              tag_182\n              jump\t// in\n            tag_265:\n                /* \"#utility.yul\":4069:5450   */\n              swap11\n              swap10\n              pop\n              pop\n              pop\n              pop\n              pop\n              pop\n              pop\n              pop\n              pop\n              pop\n              jump\t// out\n                /* \"#utility.yul\":5456:5769   */\n            tag_57:\n                /* \"#utility.yul\":5569:5573   */\n              0x00\n                /* \"#utility.yul\":5607:5609   */\n              0x20\n                /* \"#utility.yul\":5596:5605   */\n              dup3\n                /* \"#utility.yul\":5592:5610   */\n              add\n                /* \"#utility.yul\":5584:5610   */\n              swap1\n              pop\n                /* \"#utility.yul\":5656:5665   */\n              dup2\n                /* \"#utility.yul\":5650:5654   */\n              dup2\n                /* \"#utility.yul\":5646:5666   */\n              sub\n                /* \"#utility.yul\":5642:5643   */\n              0x00\n                /* \"#utility.yul\":5631:5640   */\n              dup4\n                /* \"#utility.yul\":5627:5644   */\n              add\n                /* \"#utility.yul\":5620:5667   */\n              mstore\n                /* \"#utility.yul\":5684:5762   */\n              tag_267\n                /* \"#utility.yul\":5757:5761   */\n              dup2\n                /* \"#utility.yul\":5748:5754   */\n              dup5\n                /* \"#utility.yul\":5684:5762   */\n              tag_187\n              jump\t// in\n            tag_267:\n                /* \"#utility.yul\":5676:5762   */\n              swap1\n              pop\n                /* \"#utility.yul\":5456:5769   */\n              swap3\n              swap2\n              pop\n              pop\n              jump\t// out\n                /* \"#utility.yul\":5775:5879   */\n            tag_188:\n                /* \"#utility.yul\":5820:5827   */\n              0x00\n                /* \"#utility.yul\":5849:5873   */\n              tag_269\n                /* \"#utility.yul\":5867:5872   */\n              dup3\n                /* \"#utility.yul\":5849:5873   */\n              tag_175\n              jump\t// in\n            tag_269:\n                /* \"#utility.yul\":5838:5873   */\n              swap1\n              pop\n                /* \"#utility.yul\":5775:5879   */\n              swap2\n              swap1\n              pop\n              jump\t// out\n                /* \"#utility.yul\":5885:6027   */\n            tag_189:\n                /* \"#utility.yul\":5988:6020   */\n              tag_271\n                /* \"#utility.yul\":6014:6019   */\n              dup2\n                /* \"#utility.yul\":5988:6020   */\n              tag_188\n              jump\t// in\n            tag_271:\n                /* \"#utility.yul\":5983:5986   */\n              dup3\n                /* \"#utility.yul\":5976:6021   */\n              mstore\n                /* \"#utility.yul\":5885:6027   */\n              pop\n              pop\n              jump\t// out\n                /* \"#utility.yul\":6033:6808   */\n            tag_63:\n                /* \"#utility.yul\":6268:6272   */\n              0x00\n                /* \"#utility.yul\":6306:6309   */\n              0xa0\n                /* \"#utility.yul\":6295:6304   */\n              dup3\n                /* \"#utility.yul\":6291:6310   */\n              add\n                /* \"#utility.yul\":6283:6310   */\n              swap1\n              pop\n                /* \"#utility.yul\":6356:6365   */\n              dup2\n                /* \"#utility.yul\":6350:6354   */\n              dup2\n                /* \"#utility.yul\":6346:6366   */\n              sub\n                /* \"#utility.yul\":6342:6343   */\n              0x00\n                /* \"#utility.yul\":6331:6340   */\n              dup4\n                /* \"#utility.yul\":6327:6344   */\n              add\n                /* \"#utility.yul\":6320:6367   */\n              mstore\n                /* \"#utility.yul\":6384:6462   */\n              tag_273\n                /* \"#utility.yul\":6457:6461   */\n              dup2\n                /* \"#utility.yul\":6448:6454   */\n              dup9\n                /* \"#utility.yul\":6384:6462   */\n              tag_187\n              jump\t// in\n            tag_273:\n                /* \"#utility.yul\":6376:6462   */\n              swap1\n              pop\n                /* \"#utility.yul\":6472:6544   */\n              tag_274\n                /* \"#utility.yul\":6540:6542   */\n              0x20\n                /* \"#utility.yul\":6529:6538   */\n              dup4\n                /* \"#utility.yul\":6525:6543   */\n              add\n                /* \"#utility.yul\":6516:6522   */\n              dup8\n                /* \"#utility.yul\":6472:6544   */\n              tag_182\n              jump\t// in\n            tag_274:\n                /* \"#utility.yul\":6554:6642   */\n              tag_275\n                /* \"#utility.yul\":6638:6640   */\n              0x40\n                /* \"#utility.yul\":6627:6636   */\n              dup4\n                /* \"#utility.yul\":6623:6641   */\n              add\n                /* \"#utility.yul\":6614:6620   */\n              dup7\n                /* \"#utility.yul\":6554:6642   */\n              tag_189\n              jump\t// in\n            tag_275:\n                /* \"#utility.yul\":6652:6718   */\n              tag_276\n                /* \"#utility.yul\":6714:6716   */\n              0x60\n                /* \"#utility.yul\":6703:6712   */\n              dup4\n                /* \"#utility.yul\":6699:6717   */\n              add\n                /* \"#utility.yul\":6690:6696   */\n              dup6\n                /* \"#utility.yul\":6652:6718   */\n              tag_180\n              jump\t// in\n            tag_276:\n                /* \"#utility.yul\":6728:6801   */\n              tag_277\n                /* \"#utility.yul\":6796:6799   */\n              0x80\n                /* \"#utility.yul\":6785:6794   */\n              dup4\n                /* \"#utility.yul\":6781:6800   */\n              add\n                /* \"#utility.yul\":6772:6778   */\n              dup5\n                /* \"#utility.yul\":6728:6801   */\n              tag_182\n              jump\t// in\n            tag_277:\n                /* \"#utility.yul\":6033:6808   */\n              swap7\n              swap6\n              pop\n              pop\n              pop\n              pop\n              pop\n              pop\n              jump\t// out\n                /* \"#utility.yul\":6814:6931   */\n            tag_190:\n                /* \"#utility.yul\":6923:6924   */\n              0x00\n                /* \"#utility.yul\":6920:6921   */\n              dup1\n                /* \"#utility.yul\":6913:6925   */\n              revert\n                /* \"#utility.yul\":6937:7054   */\n            tag_191:\n                /* \"#utility.yul\":7046:7047   */\n              0x00\n                /* \"#utility.yul\":7043:7044   */\n              dup1\n                /* \"#utility.yul\":7036:7048   */\n              revert\n                /* \"#utility.yul\":7060:7240   */\n            tag_192:\n                /* \"#utility.yul\":7108:7185   */\n              0x4e487b7100000000000000000000000000000000000000000000000000000000\n                /* \"#utility.yul\":7105:7106   */\n              0x00\n                /* \"#utility.yul\":7098:7186   */\n              mstore\n                /* \"#utility.yul\":7205:7209   */\n              0x41\n                /* \"#utility.yul\":7202:7203   */\n              0x04\n                /* \"#utility.yul\":7195:7210   */\n              mstore\n                /* \"#utility.yul\":7229:7233   */\n              0x24\n                /* \"#utility.yul\":7226:7227   */\n              0x00\n                /* \"#utility.yul\":7219:7234   */\n              revert\n                /* \"#utility.yul\":7246:7527   */\n            tag_193:\n                /* \"#utility.yul\":7329:7356   */\n              tag_282\n                /* \"#utility.yul\":7351:7355   */\n              dup3\n                /* \"#utility.yul\":7329:7356   */\n              tag_186\n              jump\t// in\n            tag_282:\n                /* \"#utility.yul\":7321:7327   */\n              dup2\n                /* \"#utility.yul\":7317:7357   */\n              add\n                /* \"#utility.yul\":7459:7465   */\n              dup2\n                /* \"#utility.yul\":7447:7457   */\n              dup2\n                /* \"#utility.yul\":7444:7466   */\n              lt\n                /* \"#utility.yul\":7423:7441   */\n              0xffffffffffffffff\n                /* \"#utility.yul\":7411:7421   */\n              dup3\n                /* \"#utility.yul\":7408:7442   */\n              gt\n                /* \"#utility.yul\":7405:7467   */\n              or\n                /* \"#utility.yul\":7402:7490   */\n              iszero\n              tag_283\n              jumpi\n                /* \"#utility.yul\":7470:7488   */\n              tag_284\n              tag_192\n              jump\t// in\n            tag_284:\n                /* \"#utility.yul\":7402:7490   */\n            tag_283:\n                /* \"#utility.yul\":7510:7520   */\n              dup1\n                /* \"#utility.yul\":7506:7508   */\n              0x40\n                /* \"#utility.yul\":7499:7521   */\n              mstore\n                /* \"#utility.yul\":7289:7527   */\n              pop\n                /* \"#utility.yul\":7246:7527   */\n              pop\n              pop\n              jump\t// out\n                /* \"#utility.yul\":7533:7662   */\n            tag_194:\n                /* \"#utility.yul\":7567:7573   */\n              0x00\n                /* \"#utility.yul\":7594:7614   */\n              tag_286\n              tag_169\n              jump\t// in\n            tag_286:\n                /* \"#utility.yul\":7584:7614   */\n              swap1\n              pop\n                /* \"#utility.yul\":7623:7656   */\n              tag_287\n                /* \"#utility.yul\":7651:7655   */\n              dup3\n                /* \"#utility.yul\":7643:7649   */\n              dup3\n                /* \"#utility.yul\":7623:7656   */\n              tag_193\n              jump\t// in\n            tag_287:\n                /* \"#utility.yul\":7533:7662   */\n              swap2\n              swap1\n              pop\n              jump\t// out\n                /* \"#utility.yul\":7668:7976   */\n            tag_195:\n                /* \"#utility.yul\":7730:7734   */\n              0x00\n                /* \"#utility.yul\":7820:7838   */\n              0xffffffffffffffff\n                /* \"#utility.yul\":7812:7818   */\n              dup3\n                /* \"#utility.yul\":7809:7839   */\n              gt\n                /* \"#utility.yul\":7806:7862   */\n              iszero\n              tag_289\n              jumpi\n                /* \"#utility.yul\":7842:7860   */\n              tag_290\n              tag_192\n              jump\t// in\n            tag_290:\n                /* \"#utility.yul\":7806:7862   */\n            tag_289:\n                /* \"#utility.yul\":7880:7909   */\n              tag_291\n                /* \"#utility.yul\":7902:7908   */\n              dup3\n                /* \"#utility.yul\":7880:7909   */\n              tag_186\n              jump\t// in\n            tag_291:\n                /* \"#utility.yul\":7872:7909   */\n              swap1\n              pop\n                /* \"#utility.yul\":7964:7968   */\n              0x20\n                /* \"#utility.yul\":7958:7962   */\n              dup2\n                /* \"#utility.yul\":7954:7969   */\n              add\n                /* \"#utility.yul\":7946:7969   */\n              swap1\n              pop\n                /* \"#utility.yul\":7668:7976   */\n              swap2\n              swap1\n              pop\n              jump\t// out\n                /* \"#utility.yul\":7982:8136   */\n            tag_196:\n                /* \"#utility.yul\":8066:8072   */\n              dup3\n                /* \"#utility.yul\":8061:8064   */\n              dup2\n                /* \"#utility.yul\":8056:8059   */\n              dup4\n                /* \"#utility.yul\":8043:8073   */\n              calldatacopy\n                /* \"#utility.yul\":8128:8129   */\n              0x00\n                /* \"#utility.yul\":8119:8125   */\n              dup4\n                /* \"#utility.yul\":8114:8117   */\n              dup4\n                /* \"#utility.yul\":8110:8126   */\n              add\n                /* \"#utility.yul\":8103:8130   */\n              mstore\n                /* \"#utility.yul\":7982:8136   */\n              pop\n              pop\n              pop\n              jump\t// out\n                /* \"#utility.yul\":8142:8554   */\n            tag_197:\n                /* \"#utility.yul\":8220:8225   */\n              0x00\n                /* \"#utility.yul\":8245:8311   */\n              tag_294\n                /* \"#utility.yul\":8261:8310   */\n              tag_295\n                /* \"#utility.yul\":8303:8309   */\n              dup5\n                /* \"#utility.yul\":8261:8310   */\n              tag_195\n              jump\t// in\n            tag_295:\n                /* \"#utility.yul\":8245:8311   */\n              tag_194\n              jump\t// in\n            tag_294:\n                /* \"#utility.yul\":8236:8311   */\n              swap1\n              pop\n                /* \"#utility.yul\":8334:8340   */\n              dup3\n                /* \"#utility.yul\":8327:8332   */\n              dup2\n                /* \"#utility.yul\":8320:8341   */\n              mstore\n                /* \"#utility.yul\":8372:8376   */\n              0x20\n                /* \"#utility.yul\":8365:8370   */\n              dup2\n                /* \"#utility.yul\":8361:8377   */\n              add\n                /* \"#utility.yul\":8410:8413   */\n              dup5\n                /* \"#utility.yul\":8401:8407   */\n              dup5\n                /* \"#utility.yul\":8396:8399   */\n              dup5\n                /* \"#utility.yul\":8392:8408   */\n              add\n                /* \"#utility.yul\":8389:8414   */\n              gt\n                /* \"#utility.yul\":8386:8498   */\n              iszero\n              tag_296\n              jumpi\n                /* \"#utility.yul\":8417:8496   */\n              tag_297\n              tag_191\n              jump\t// in\n            tag_297:\n                /* \"#utility.yul\":8386:8498   */\n            tag_296:\n                /* \"#utility.yul\":8507:8548   */\n              tag_298\n                /* \"#utility.yul\":8541:8547   */\n              dup5\n                /* \"#utility.yul\":8536:8539   */\n              dup3\n                /* \"#utility.yul\":8531:8534   */\n              dup6\n                /* \"#utility.yul\":8507:8548   */\n              tag_196\n              jump\t// in\n            tag_298:\n                /* \"#utility.yul\":8226:8554   */\n              pop\n                /* \"#utility.yul\":8142:8554   */\n              swap4\n              swap3\n              pop\n              pop\n              pop\n              jump\t// out\n                /* \"#utility.yul\":8574:8914   */\n            tag_198:\n                /* \"#utility.yul\":8630:8635   */\n              0x00\n                /* \"#utility.yul\":8679:8682   */\n              dup3\n                /* \"#utility.yul\":8672:8676   */\n              0x1f\n                /* \"#utility.yul\":8664:8670   */\n              dup4\n                /* \"#utility.yul\":8660:8677   */\n              add\n                /* \"#utility.yul\":8656:8683   */\n              slt\n                /* \"#utility.yul\":8646:8768   */\n              tag_300\n              jumpi\n                /* \"#utility.yul\":8687:8766   */\n              tag_301\n              tag_190\n              jump\t// in\n            tag_301:\n                /* \"#utility.yul\":8646:8768   */\n            tag_300:\n                /* \"#utility.yul\":8804:8810   */\n              dup2\n                /* \"#utility.yul\":8791:8811   */\n              calldataload\n                /* \"#utility.yul\":8829:8908   */\n              tag_302\n                /* \"#utility.yul\":8904:8907   */\n              dup5\n                /* \"#utility.yul\":8896:8902   */\n              dup3\n                /* \"#utility.yul\":8889:8893   */\n              0x20\n                /* \"#utility.yul\":8881:8887   */\n              dup7\n                /* \"#utility.yul\":8877:8894   */\n              add\n                /* \"#utility.yul\":8829:8908   */\n              tag_197\n              jump\t// in\n            tag_302:\n                /* \"#utility.yul\":8820:8908   */\n              swap2\n              pop\n                /* \"#utility.yul\":8636:8914   */\n              pop\n                /* \"#utility.yul\":8574:8914   */\n              swap3\n              swap2\n              pop\n              pop\n              jump\t// out\n                /* \"#utility.yul\":8920:9058   */\n            tag_199:\n                /* \"#utility.yul\":9001:9033   */\n              tag_304\n                /* \"#utility.yul\":9027:9032   */\n              dup2\n                /* \"#utility.yul\":9001:9033   */\n              tag_188\n              jump\t// in\n            tag_304:\n                /* \"#utility.yul\":8994:8999   */\n              dup2\n                /* \"#utility.yul\":8991:9034   */\n              eq\n                /* \"#utility.yul\":8981:9052   */\n              tag_305\n              jumpi\n                /* \"#utility.yul\":9048:9049   */\n              0x00\n                /* \"#utility.yul\":9045:9046   */\n              dup1\n                /* \"#utility.yul\":9038:9050   */\n              revert\n                /* \"#utility.yul\":8981:9052   */\n            tag_305:\n                /* \"#utility.yul\":8920:9058   */\n              pop\n              jump\t// out\n                /* \"#utility.yul\":9064:9219   */\n            tag_200:\n                /* \"#utility.yul\":9118:9123   */\n              0x00\n                /* \"#utility.yul\":9156:9162   */\n              dup2\n                /* \"#utility.yul\":9143:9163   */\n              calldataload\n                /* \"#utility.yul\":9134:9163   */\n              swap1\n              pop\n                /* \"#utility.yul\":9172:9213   */\n              tag_307\n                /* \"#utility.yul\":9207:9212   */\n              dup2\n                /* \"#utility.yul\":9172:9213   */\n              tag_199\n              jump\t// in\n            tag_307:\n                /* \"#utility.yul\":9064:9219   */\n              swap3\n              swap2\n              pop\n              pop\n              jump\t// out\n                /* \"#utility.yul\":9225:10040   */\n            tag_71:\n                /* \"#utility.yul\":9320:9326   */\n              0x00\n                /* \"#utility.yul\":9328:9334   */\n              dup1\n                /* \"#utility.yul\":9336:9342   */\n              0x00\n                /* \"#utility.yul\":9385:9387   */\n              0x60\n                /* \"#utility.yul\":9373:9382   */\n              dup5\n                /* \"#utility.yul\":9364:9371   */\n              dup7\n                /* \"#utility.yul\":9360:9383   */\n              sub\n                /* \"#utility.yul\":9356:9388   */\n              slt\n                /* \"#utility.yul\":9353:9472   */\n              iszero\n              tag_309\n              jumpi\n                /* \"#utility.yul\":9391:9470   */\n              tag_310\n              tag_170\n              jump\t// in\n            tag_310:\n                /* \"#utility.yul\":9353:9472   */\n            tag_309:\n                /* \"#utility.yul\":9539:9540   */\n              0x00\n                /* \"#utility.yul\":9528:9537   */\n              dup5\n                /* \"#utility.yul\":9524:9541   */\n              add\n                /* \"#utility.yul\":9511:9542   */\n              calldataload\n                /* \"#utility.yul\":9569:9587   */\n              0xffffffffffffffff\n                /* \"#utility.yul\":9561:9567   */\n              dup2\n                /* \"#utility.yul\":9558:9588   */\n              gt\n                /* \"#utility.yul\":9555:9672   */\n              iszero\n              tag_311\n              jumpi\n                /* \"#utility.yul\":9591:9670   */\n              tag_312\n              tag_171\n              jump\t// in\n            tag_312:\n                /* \"#utility.yul\":9555:9672   */\n            tag_311:\n                /* \"#utility.yul\":9696:9759   */\n              tag_313\n                /* \"#utility.yul\":9751:9758   */\n              dup7\n                /* \"#utility.yul\":9742:9748   */\n              dup3\n                /* \"#utility.yul\":9731:9740   */\n              dup8\n                /* \"#utility.yul\":9727:9749   */\n              add\n                /* \"#utility.yul\":9696:9759   */\n              tag_198\n              jump\t// in\n            tag_313:\n                /* \"#utility.yul\":9686:9759   */\n              swap4\n              pop\n                /* \"#utility.yul\":9482:9769   */\n              pop\n                /* \"#utility.yul\":9808:9810   */\n              0x20\n                /* \"#utility.yul\":9834:9887   */\n              tag_314\n                /* \"#utility.yul\":9879:9886   */\n              dup7\n                /* \"#utility.yul\":9870:9876   */\n              dup3\n                /* \"#utility.yul\":9859:9868   */\n              dup8\n                /* \"#utility.yul\":9855:9877   */\n              add\n                /* \"#utility.yul\":9834:9887   */\n              tag_174\n              jump\t// in\n            tag_314:\n                /* \"#utility.yul\":9824:9887   */\n              swap3\n              pop\n                /* \"#utility.yul\":9779:9897   */\n              pop\n                /* \"#utility.yul\":9936:9938   */\n              0x40\n                /* \"#utility.yul\":9962:10023   */\n              tag_315\n                /* \"#utility.yul\":10015:10022   */\n              dup7\n                /* \"#utility.yul\":10006:10012   */\n              dup3\n                /* \"#utility.yul\":9995:10004   */\n              dup8\n                /* \"#utility.yul\":9991:10013   */\n              add\n                /* \"#utility.yul\":9962:10023   */\n              tag_200\n              jump\t// in\n            tag_315:\n                /* \"#utility.yul\":9952:10023   */\n              swap2\n              pop\n                /* \"#utility.yul\":9907:10033   */\n              pop\n                /* \"#utility.yul\":9225:10040   */\n              swap3\n              pop\n              swap3\n              pop\n              swap3\n              jump\t// out\n                /* \"#utility.yul\":10046:10226   */\n            tag_201:\n                /* \"#utility.yul\":10094:10171   */\n              0x4e487b7100000000000000000000000000000000000000000000000000000000\n                /* \"#utility.yul\":10091:10092   */\n              0x00\n                /* \"#utility.yul\":10084:10172   */\n              mstore\n                /* \"#utility.yul\":10191:10195   */\n              0x12\n                /* \"#utility.yul\":10188:10189   */\n              0x04\n                /* \"#utility.yul\":10181:10196   */\n              mstore\n                /* \"#utility.yul\":10215:10219   */\n              0x24\n                /* \"#utility.yul\":10212:10213   */\n              0x00\n                /* \"#utility.yul\":10205:10220   */\n              revert\n                /* \"#utility.yul\":10232:10412   */\n            tag_202:\n                /* \"#utility.yul\":10280:10357   */\n              0x4e487b7100000000000000000000000000000000000000000000000000000000\n                /* \"#utility.yul\":10277:10278   */\n              0x00\n                /* \"#utility.yul\":10270:10358   */\n              mstore\n                /* \"#utility.yul\":10377:10381   */\n              0x11\n                /* \"#utility.yul\":10374:10375   */\n              0x04\n                /* \"#utility.yul\":10367:10382   */\n              mstore\n                /* \"#utility.yul\":10401:10405   */\n              0x24\n                /* \"#utility.yul\":10398:10399   */\n              0x00\n                /* \"#utility.yul\":10391:10406   */\n              revert\n                /* \"#utility.yul\":10418:10603   */\n            tag_99:\n                /* \"#utility.yul\":10458:10459   */\n              0x00\n                /* \"#utility.yul\":10475:10495   */\n              tag_319\n                /* \"#utility.yul\":10493:10494   */\n              dup3\n                /* \"#utility.yul\":10475:10495   */\n              tag_172\n              jump\t// in\n            tag_319:\n                /* \"#utility.yul\":10470:10495   */\n              swap2\n              pop\n                /* \"#utility.yul\":10509:10529   */\n              tag_320\n                /* \"#utility.yul\":10527:10528   */\n              dup4\n                /* \"#utility.yul\":10509:10529   */\n              tag_172\n              jump\t// in\n            tag_320:\n                /* \"#utility.yul\":10504:10529   */\n              swap3\n              pop\n                /* \"#utility.yul\":10548:10549   */\n              dup3\n                /* \"#utility.yul\":10538:10573   */\n              tag_321\n              jumpi\n                /* \"#utility.yul\":10553:10571   */\n              tag_322\n              tag_201\n              jump\t// in\n            tag_322:\n                /* \"#utility.yul\":10538:10573   */\n            tag_321:\n                /* \"#utility.yul\":10595:10596   */\n              dup3\n                /* \"#utility.yul\":10592:10593   */\n              dup3\n                /* \"#utility.yul\":10588:10597   */\n              div\n                /* \"#utility.yul\":10583:10597   */\n              swap1\n              pop\n                /* \"#utility.yul\":10418:10603   */\n              swap3\n              swap2\n              pop\n              pop\n              jump\t// out\n                /* \"#utility.yul\":10609:10789   */\n            tag_203:\n                /* \"#utility.yul\":10657:10734   */\n              0x4e487b7100000000000000000000000000000000000000000000000000000000\n                /* \"#utility.yul\":10654:10655   */\n              0x00\n                /* \"#utility.yul\":10647:10735   */\n              mstore\n                /* \"#utility.yul\":10754:10758   */\n              0x22\n                /* \"#utility.yul\":10751:10752   */\n              0x04\n                /* \"#utility.yul\":10744:10759   */\n              mstore\n                /* \"#utility.yul\":10778:10782   */\n              0x24\n                /* \"#utility.yul\":10775:10776   */\n              0x00\n                /* \"#utility.yul\":10768:10783   */\n              revert\n                /* \"#utility.yul\":10795:11115   */\n            tag_109:\n                /* \"#utility.yul\":10839:10845   */\n              0x00\n                /* \"#utility.yul\":10876:10877   */\n              0x02\n                /* \"#utility.yul\":10870:10874   */\n              dup3\n                /* \"#utility.yul\":10866:10878   */\n              div\n                /* \"#utility.yul\":10856:10878   */\n              swap1\n              pop\n                /* \"#utility.yul\":10923:10924   */\n              0x01\n                /* \"#utility.yul\":10917:10921   */\n              dup3\n                /* \"#utility.yul\":10913:10925   */\n              and\n                /* \"#utility.yul\":10944:10962   */\n              dup1\n                /* \"#utility.yul\":10934:11015   */\n              tag_325\n              jumpi\n                /* \"#utility.yul\":11000:11004   */\n              0x7f\n                /* \"#utility.yul\":10992:10998   */\n              dup3\n                /* \"#utility.yul\":10988:11005   */\n              and\n                /* \"#utility.yul\":10978:11005   */\n              swap2\n              pop\n                /* \"#utility.yul\":10934:11015   */\n            tag_325:\n                /* \"#utility.yul\":11062:11064   */\n              0x20\n                /* \"#utility.yul\":11054:11060   */\n              dup3\n                /* \"#utility.yul\":11051:11065   */\n              lt\n                /* \"#utility.yul\":11031:11049   */\n              dup2\n                /* \"#utility.yul\":11028:11066   */\n              eq\n                /* \"#utility.yul\":11025:11109   */\n              iszero\n              tag_326\n              jumpi\n                /* \"#utility.yul\":11081:11099   */\n              tag_327\n              tag_203\n              jump\t// in\n            tag_327:\n                /* \"#utility.yul\":11025:11109   */\n            tag_326:\n                /* \"#utility.yul\":10846:11115   */\n              pop\n                /* \"#utility.yul\":10795:11115   */\n              swap2\n              swap1\n              pop\n              jump\t// out\n                /* \"#utility.yul\":11121:11354   */\n            tag_138:\n                /* \"#utility.yul\":11160:11163   */\n              0x00\n                /* \"#utility.yul\":11183:11207   */\n              tag_329\n                /* \"#utility.yul\":11201:11206   */\n              dup3\n                /* \"#utility.yul\":11183:11207   */\n              tag_172\n              jump\t// in\n            tag_329:\n                /* \"#utility.yul\":11174:11207   */\n              swap2\n              pop\n                /* \"#utility.yul\":11229:11295   */\n              0xffffffffffffffffffffffffffffffffffffffffffffffffffffffffffffffff\n                /* \"#utility.yul\":11222:11227   */\n              dup3\n                /* \"#utility.yul\":11219:11296   */\n              eq\n                /* \"#utility.yul\":11216:11319   */\n              iszero\n              tag_330\n              jumpi\n                /* \"#utility.yul\":11299:11317   */\n              tag_331\n              tag_202\n              jump\t// in\n            tag_331:\n                /* \"#utility.yul\":11216:11319   */\n            tag_330:\n                /* \"#utility.yul\":11346:11347   */\n              0x01\n                /* \"#utility.yul\":11339:11344   */\n              dup3\n                /* \"#utility.yul\":11335:11348   */\n              add\n                /* \"#utility.yul\":11328:11348   */\n              swap1\n              pop\n                /* \"#utility.yul\":11121:11354   */\n              swap2\n              swap1\n              pop\n              jump\t// out\n\n            auxdata: 0xa2646970667358221220b7d8b82c2ea70d90f5f30625d971a8675773f95323048c7363f6de5a7c3ac13b64736f6c634300080a0033\n        }\n    }\n\n    auxdata: 0xa26469706673582212202ed55fe08d87320aba3d01b7cd5b1b3edb618f5fd2ac5e82bf9e68b495c4352064736f6c634300080a0033\n}\n","bytecode":{"linkReferences":{},"object":"608060405234801561001057600080fd5b5061210f806100206000396000f3fe60806040523480156200001157600080fd5b5060043610620000465760003560e01c8063339d50a5146200004b5780634acb9d4f1462000081578063d4ddd71a14620000a3575b600080fd5b620000696004803603810190620000639190620002a1565b620000c3565b6040516200007891906200035e565b60405180910390f35b6200008b62000103565b6040516200009a919062000449565b60405180910390f35b620000c16004803603810190620000bb9190620004db565b62000193565b005b60008181548110620000d457600080fd5b906000526020600020016000915054906101000a900473ffffffffffffffffffffffffffffffffffffffff1681565b606060008054806020026020016040519081016040528092919081815260200182805480156200018957602002820191906000526020600020905b8160009054906101000a900473ffffffffffffffffffffffffffffffffffffffff1673ffffffffffffffffffffffffffffffffffffffff16815260200190600101908083116200013e575b5050505050905090565b6000883389898989898989604051620001ac906200024e565b620001c09998979695949392919062000667565b604051809103906000f080158015620001dd573d6000803e3d6000fd5b5090506000819080600181540180825580915050600190039060005260206000200160009091909190916101000a81548173ffffffffffffffffffffffffffffffffffffffff021916908373ffffffffffffffffffffffffffffffffffffffff160217905550505050505050505050565b6119ea80620006f083390190565b600080fd5b600080fd5b6000819050919050565b6200027b8162000266565b81146200028757600080fd5b50565b6000813590506200029b8162000270565b92915050565b600060208284031215620002ba57620002b96200025c565b5b6000620002ca848285016200028a565b91505092915050565b600073ffffffffffffffffffffffffffffffffffffffff82169050919050565b6000819050919050565b60006200031e620003186200031284620002d3565b620002f3565b620002d3565b9050919050565b60006200033282620002fd565b9050919050565b6000620003468262000325565b9050919050565b620003588162000339565b82525050565b60006020820190506200037560008301846200034d565b92915050565b600081519050919050565b600082825260208201905092915050565b6000819050602082019050919050565b620003b28162000339565b82525050565b6000620003c68383620003a7565b60208301905092915050565b6000602082019050919050565b6000620003ec826200037b565b620003f8818562000386565b9350620004058362000397565b8060005b838110156200043c578151620004208882620003b8565b97506200042d83620003d2565b92505060018101905062000409565b5085935050505092915050565b60006020820190508181036000830152620004658184620003df565b905092915050565b600080fd5b600080fd5b600080fd5b60008083601f8401126200049557620004946200046d565b5b8235905067ffffffffffffffff811115620004b557620004b462000472565b5b602083019150836001820283011115620004d457620004d362000477565b5b9250929050565b60008060008060008060008060a0898b031215620004fe57620004fd6200025c565b5b60006200050e8b828c016200028a565b985050602089013567ffffffffffffffff81111562000532576200053162000261565b5b620005408b828c016200047c565b9750975050604089013567ffffffffffffffff81111562000566576200056562000261565b5b620005748b828c016200047c565b9550955050606089013567ffffffffffffffff8111156200059a576200059962000261565b5b620005a88b828c016200047c565b93509350506080620005bd8b828c016200028a565b9150509295985092959890939650565b620005d88162000266565b82525050565b6000620005eb82620002d3565b9050919050565b620005fd81620005de565b82525050565b600082825260208201905092915050565b82818337600083830152505050565b6000601f19601f8301169050919050565b600062000642838562000603565b93506200065183858462000614565b6200065c8362000623565b840190509392505050565b600060c0820190506200067e600083018c620005cd565b6200068d602083018b620005f2565b8181036040830152620006a281898b62000634565b90508181036060830152620006b981878962000634565b90508181036080830152620006d081858762000634565b9050620006e160a0830184620005cd565b9a995050505050505050505056fe60806040523480156200001157600080fd5b50604051620019ea380380620019ea8339818101604052810190620000379190620003c9565b846000806101000a81548173ffffffffffffffffffffffffffffffffffffffff021916908373ffffffffffffffffffffffffffffffffffffffff16021790555085600181905550836002908051906020019062000096929190620000dc565b508260039080519060200190620000af929190620000dc565b508160049080519060200190620000c8929190620000dc565b508060058190555050505050505062000527565b828054620000ea90620004f1565b90600052602060002090601f0160209004810192826200010e57600085556200015a565b82601f106200012957805160ff19168380011785556200015a565b828001600101855582156200015a579182015b82811115620001595782518255916020019190600101906200013c565b5b5090506200016991906200016d565b5090565b5b80821115620001885760008160009055506001016200016e565b5090565b6000604051905090565b600080fd5b600080fd5b6000819050919050565b620001b581620001a0565b8114620001c157600080fd5b50565b600081519050620001d581620001aa565b92915050565b600073ffffffffffffffffffffffffffffffffffffffff82169050919050565b60006200020882620001db565b9050919050565b6200021a81620001fb565b81146200022657600080fd5b50565b6000815190506200023a816200020f565b92915050565b600080fd5b600080fd5b6000601f19601f8301169050919050565b7f4e487b7100000000000000000000000000000000000000000000000000000000600052604160045260246000fd5b62000295826200024a565b810181811067ffffffffffffffff82111715620002b757620002b66200025b565b5b80604052505050565b6000620002cc6200018c565b9050620002da82826200028a565b919050565b600067ffffffffffffffff821115620002fd57620002fc6200025b565b5b62000308826200024a565b9050602081019050919050565b60005b838110156200033557808201518184015260208101905062000318565b8381111562000345576000848401525b50505050565b6000620003626200035c84620002df565b620002c0565b90508281526020810184848401111562000381576200038062000245565b5b6200038e84828562000315565b509392505050565b600082601f830112620003ae57620003ad62000240565b5b8151620003c08482602086016200034b565b91505092915050565b60008060008060008060c08789031215620003e957620003e862000196565b5b6000620003f989828a01620001c4565b96505060206200040c89828a0162000229565b955050604087015167ffffffffffffffff81111562000430576200042f6200019b565b5b6200043e89828a0162000396565b945050606087015167ffffffffffffffff8111156200046257620004616200019b565b5b6200047089828a0162000396565b935050608087015167ffffffffffffffff8111156200049457620004936200019b565b5b620004a289828a0162000396565b92505060a0620004b589828a01620001c4565b9150509295509295509295565b7f4e487b7100000000000000000000000000000000000000000000000000000000600052602260045260246000fd5b600060028204905060018216806200050a57607f821691505b60208210811415620005215762000520620004c2565b5b50919050565b6114b380620005376000396000f3fe6080604052600436106100f35760003560e01c806382fde0931161008a578063aba8315011610059578063aba831501461033a578063b2a87fc314610365578063d7d1bbdb14610390578063ea25213f146103b9576100f3565b806382fde093146102905780638a9cfd55146102bb578063937e09b1146102e457806397654a8c1461030f576100f3565b80634051ddac116100c65780634051ddac146101c6578063481c6a75146101f95780637e7cd1b31461022457806381d12c581461024f576100f3565b806303441006146100f85780630a144391146101215780631fbed5791461015e5780633410452a1461019b575b600080fd5b34801561010457600080fd5b5061011f600480360381019061011a9190610e5a565b6103c3565b005b34801561012d57600080fd5b5061014860048036038101906101439190610ee5565b6104fc565b6040516101559190610f2d565b60405180910390f35b34801561016a57600080fd5b5061018560048036038101906101809190610e5a565b61051c565b6040516101929190610f57565b60405180910390f35b3480156101a757600080fd5b506101b061055b565b6040516101bd9190610f81565b60405180910390f35b3480156101d257600080fd5b506101db610565565b6040516101f099989796959493929190611035565b60405180910390f35b34801561020557600080fd5b5061020e610769565b60405161021b9190610f57565b60405180910390f35b34801561023057600080fd5b5061023961078d565b60405161024691906110d7565b60405180910390f35b34801561025b57600080fd5b5061027660048036038101906102719190610e5a565b61081b565b60405161028795949392919061111a565b60405180910390f35b34801561029c57600080fd5b506102a5610906565b6040516102b29190610f81565b60405180910390f35b3480156102c757600080fd5b506102e260048036038101906102dd91906112d5565b61090c565b005b3480156102f057600080fd5b506102f9610a23565b6040516103069190610f81565b60405180910390f35b34801561031b57600080fd5b50610324610a29565b60405161033191906110d7565b60405180910390f35b34801561034657600080fd5b5061034f610ab7565b60405161035c91906110d7565b60405180910390f35b34801561037157600080fd5b5061037a610b45565b6040516103879190610f81565b60405180910390f35b34801561039c57600080fd5b506103b760048036038101906103b29190610e5a565b610b4b565b005b6103c1610c89565b005b60008054906101000a900473ffffffffffffffffffffffffffffffffffffffff1673ffffffffffffffffffffffffffffffffffffffff163373ffffffffffffffffffffffffffffffffffffffff161461041b57600080fd5b6000600a60008381526020019081526020016000209050600260085461044191906113a2565b81600301541161045057600080fd5b8060020160149054906101000a900460ff161561046c57600080fd5b8060020160009054906101000a900473ffffffffffffffffffffffffffffffffffffffff1673ffffffffffffffffffffffffffffffffffffffff166108fc82600101549081150290604051600060405180830381858888f193505050501580156104da573d6000803e3d6000fd5b5060018160020160146101000a81548160ff0219169083151502179055505050565b60076020528060005260406000206000915054906101000a900460ff1681565b6006818154811061052c57600080fd5b906000526020600020016000915054906101000a900473ffffffffffffffffffffffffffffffffffffffff1681565b6000600954905090565b6000806000806000606080606060006001544760095460085460008054906101000a900473ffffffffffffffffffffffffffffffffffffffff166002600360046005548380546105b490611402565b80601f01602080910402602001604051908101604052809291908181526020018280546105e090611402565b801561062d5780601f106106025761010080835404028352916020019161062d565b820191906000526020600020905b81548152906001019060200180831161061057829003601f168201915b5050505050935082805461064090611402565b80601f016020809104026020016040519081016040528092919081815260200182805461066c90611402565b80156106b95780601f1061068e576101008083540402835291602001916106b9565b820191906000526020600020905b81548152906001019060200180831161069c57829003601f168201915b505050505092508180546106cc90611402565b80601f01602080910402602001604051908101604052809291908181526020018280546106f890611402565b80156107455780601f1061071a57610100808354040283529160200191610745565b820191906000526020600020905b81548152906001019060200180831161072857829003601f168201915b50505050509150985098509850985098509850985098509850909192939495969798565b60008054906101000a900473ffffffffffffffffffffffffffffffffffffffff1681565b6002805461079a90611402565b80601f01602080910402602001604051908101604052809291908181526020018280546107c690611402565b80156108135780601f106107e857610100808354040283529160200191610813565b820191906000526020600020905b8154815290600101906020018083116107f657829003601f168201915b505050505081565b600a60205280600052604060002060009150905080600001805461083e90611402565b80601f016020809104026020016040519081016040528092919081815260200182805461086a90611402565b80156108b75780601f1061088c576101008083540402835291602001916108b7565b820191906000526020600020905b81548152906001019060200180831161089a57829003601f168201915b5050505050908060010154908060020160009054906101000a900473ffffffffffffffffffffffffffffffffffffffff16908060020160149054906101000a900460ff16908060030154905085565b60085481565b60008054906101000a900473ffffffffffffffffffffffffffffffffffffffff1673ffffffffffffffffffffffffffffffffffffffff163373ffffffffffffffffffffffffffffffffffffffff161461096457600080fd5b6000600a60006009600081548092919061097d90611434565b9190505581526020019081526020016000209050838160000190805190602001906109a9929190610d6d565b50828160010181905550818160020160006101000a81548173ffffffffffffffffffffffffffffffffffffffff021916908373ffffffffffffffffffffffffffffffffffffffff16021790555060008160020160146101000a81548160ff0219169083151502179055506000816003018190555050505050565b60015481565b60038054610a3690611402565b80601f0160208091040260200160405190810160405280929190818152602001828054610a6290611402565b8015610aaf5780601f10610a8457610100808354040283529160200191610aaf565b820191906000526020600020905b815481529060010190602001808311610a9257829003601f168201915b505050505081565b60048054610ac490611402565b80601f0160208091040260200160405190810160405280929190818152602001828054610af090611402565b8015610b3d5780601f10610b1257610100808354040283529160200191610b3d565b820191906000526020600020905b815481529060010190602001808311610b2057829003601f168201915b505050505081565b60055481565b6000600a60008381526020019081526020016000209050600760003373ffffffffffffffffffffffffffffffffffffffff1673ffffffffffffffffffffffffffffffffffffffff16815260200190815260200160002060009054906101000a900460ff16610bb857600080fd5b8060040160003373ffffffffffffffffffffffffffffffffffffffff1673ffffffffffffffffffffffffffffffffffffffff16815260200190815260200160002060009054906101000a900460ff1615610c1157600080fd5b60018160040160003373ffffffffffffffffffffffffffffffffffffffff1673ffffffffffffffffffffffffffffffffffffffff16815260200190815260200160002060006101000a81548160ff021916908315150217905550806003016000815480929190610c8090611434565b91905055505050565b600154341015610c9857600080fd5b6006339080600181540180825580915050600190039060005260206000200160009091909190916101000a81548173ffffffffffffffffffffffffffffffffffffffff021916908373ffffffffffffffffffffffffffffffffffffffff1602179055506001600760003373ffffffffffffffffffffffffffffffffffffffff1673ffffffffffffffffffffffffffffffffffffffff16815260200190815260200160002060006101000a81548160ff02191690831515021790555060086000815480929190610d6690611434565b9190505550565b828054610d7990611402565b90600052602060002090601f016020900481019282610d9b5760008555610de2565b82601f10610db457805160ff1916838001178555610de2565b82800160010185558215610de2579182015b82811115610de1578251825591602001919060010190610dc6565b5b509050610def9190610df3565b5090565b5b80821115610e0c576000816000905550600101610df4565b5090565b6000604051905090565b600080fd5b600080fd5b6000819050919050565b610e3781610e24565b8114610e4257600080fd5b50565b600081359050610e5481610e2e565b92915050565b600060208284031215610e7057610e6f610e1a565b5b6000610e7e84828501610e45565b91505092915050565b600073ffffffffffffffffffffffffffffffffffffffff82169050919050565b6000610eb282610e87565b9050919050565b610ec281610ea7565b8114610ecd57600080fd5b50565b600081359050610edf81610eb9565b92915050565b600060208284031215610efb57610efa610e1a565b5b6000610f0984828501610ed0565b91505092915050565b60008115159050919050565b610f2781610f12565b82525050565b6000602082019050610f426000830184610f1e565b92915050565b610f5181610ea7565b82525050565b6000602082019050610f6c6000830184610f48565b92915050565b610f7b81610e24565b82525050565b6000602082019050610f966000830184610f72565b92915050565b600081519050919050565b600082825260208201905092915050565b60005b83811015610fd6578082015181840152602081019050610fbb565b83811115610fe5576000848401525b50505050565b6000601f19601f8301169050919050565b600061100782610f9c565b6110118185610fa7565b9350611021818560208601610fb8565b61102a81610feb565b840191505092915050565b60006101208201905061104b600083018c610f72565b611058602083018b610f72565b611065604083018a610f72565b6110726060830189610f72565b61107f6080830188610f48565b81810360a08301526110918187610ffc565b905081810360c08301526110a58186610ffc565b905081810360e08301526110b98185610ffc565b90506110c9610100830184610f72565b9a9950505050505050505050565b600060208201905081810360008301526110f18184610ffc565b905092915050565b600061110482610e87565b9050919050565b611114816110f9565b82525050565b600060a08201905081810360008301526111348188610ffc565b90506111436020830187610f72565b611150604083018661110b565b61115d6060830185610f1e565b61116a6080830184610f72565b9695505050505050565b600080fd5b600080fd5b7f4e487b7100000000000000000000000000000000000000000000000000000000600052604160045260246000fd5b6111b682610feb565b810181811067ffffffffffffffff821117156111d5576111d461117e565b5b80604052505050565b60006111e8610e10565b90506111f482826111ad565b919050565b600067ffffffffffffffff8211156112145761121361117e565b5b61121d82610feb565b9050602081019050919050565b82818337600083830152505050565b600061124c611247846111f9565b6111de565b90508281526020810184848401111561126857611267611179565b5b61127384828561122a565b509392505050565b600082601f8301126112905761128f611174565b5b81356112a0848260208601611239565b91505092915050565b6112b2816110f9565b81146112bd57600080fd5b50565b6000813590506112cf816112a9565b92915050565b6000806000606084860312156112ee576112ed610e1a565b5b600084013567ffffffffffffffff81111561130c5761130b610e1f565b5b6113188682870161127b565b935050602061132986828701610e45565b925050604061133a868287016112c0565b9150509250925092565b7f4e487b7100000000000000000000000000000000000000000000000000000000600052601260045260246000fd5b7f4e487b7100000000000000000000000000000000000000000000000000000000600052601160045260246000fd5b60006113ad82610e24565b91506113b883610e24565b9250826113c8576113c7611344565b5b828204905092915050565b7f4e487b7100000000000000000000000000000000000000000000000000000000600052602260045260246000fd5b6000600282049050600182168061141a57607f821691505b6020821081141561142e5761142d6113d3565b5b50919050565b600061143f82610e24565b91507fffffffffffffffffffffffffffffffffffffffffffffffffffffffffffffffff82141561147257611471611373565b5b60018201905091905056fea2646970667358221220b7d8b82c2ea70d90f5f30625d971a8675773f95323048c7363f6de5a7c3ac13b64736f6c634300080a0033a26469706673582212202ed55fe08d87320aba3d01b7cd5b1b3edb618f5fd2ac5e82bf9e68b495c4352064736f6c634300080a0033","opcodes":"PUSH1 0x80 PUSH1 0x40 MSTORE CALLVALUE DUP1 ISZERO PUSH2 0x10 JUMPI PUSH1 0x0 DUP1 REVERT JUMPDEST POP PUSH2 0x210F DUP1 PUSH2 0x20 PUSH1 0x0 CODECOPY PUSH1 0x0 RETURN INVALID PUSH1 0x80 PUSH1 0x40 MSTORE CALLVALUE DUP1 ISZERO PUSH3 0x11 JUMPI PUSH1 0x0 DUP1 REVERT JUMPDEST POP PUSH1 0x4 CALLDATASIZE LT PUSH3 0x46 JUMPI PUSH1 0x0 CALLDATALOAD PUSH1 0xE0 SHR DUP1 PUSH4 0x339D50A5 EQ PUSH3 0x4B JUMPI DUP1 PUSH4 0x4ACB9D4F EQ PUSH3 0x81 JUMPI DUP1 PUSH4 0xD4DDD71A EQ PUSH3 0xA3 JUMPI JUMPDEST PUSH1 0x0 DUP1 REVERT JUMPDEST PUSH3 0x69 PUSH1 0x4 DUP1 CALLDATASIZE SUB DUP2 ADD SWAP1 PUSH3 0x63 SWAP2 SWAP1 PUSH3 0x2A1 JUMP JUMPDEST PUSH3 0xC3 JUMP JUMPDEST PUSH1 0x40 MLOAD PUSH3 0x78 SWAP2 SWAP1 PUSH3 0x35E JUMP JUMPDEST PUSH1 0x40 MLOAD DUP1 SWAP2 SUB SWAP1 RETURN JUMPDEST PUSH3 0x8B PUSH3 0x103 JUMP JUMPDEST PUSH1 0x40 MLOAD PUSH3 0x9A SWAP2 SWAP1 PUSH3 0x449 JUMP JUMPDEST PUSH1 0x40 MLOAD DUP1 SWAP2 SUB SWAP1 RETURN JUMPDEST PUSH3 0xC1 PUSH1 0x4 DUP1 CALLDATASIZE SUB DUP2 ADD SWAP1 PUSH3 0xBB SWAP2 SWAP1 PUSH3 0x4DB JUMP JUMPDEST PUSH3 0x193 JUMP JUMPDEST STOP JUMPDEST PUSH1 0x0 DUP2 DUP2 SLOAD DUP2 LT PUSH3 0xD4 JUMPI PUSH1 0x0 DUP1 REVERT JUMPDEST SWAP1 PUSH1 0x0 MSTORE PUSH1 0x20 PUSH1 0x0 KECCAK256 ADD PUSH1 0x0 SWAP2 POP SLOAD SWAP1 PUSH2 0x100 EXP SWAP1 DIV PUSH20 0xFFFFFFFFFFFFFFFFFFFFFFFFFFFFFFFFFFFFFFFF AND DUP2 JUMP JUMPDEST PUSH1 0x60 PUSH1 0x0 DUP1 SLOAD DUP1 PUSH1 0x20 MUL PUSH1 0x20 ADD PUSH1 0x40 MLOAD SWAP1 DUP2 ADD PUSH1 0x40 MSTORE DUP1 SWAP3 SWAP2 SWAP1 DUP2 DUP2 MSTORE PUSH1 0x20 ADD DUP3 DUP1 SLOAD DUP1 ISZERO PUSH3 0x189 JUMPI PUSH1 0x20 MUL DUP3 ADD SWAP2 SWAP1 PUSH1 0x0 MSTORE PUSH1 0x20 PUSH1 0x0 KECCAK256 SWAP1 JUMPDEST DUP2 PUSH1 0x0 SWAP1 SLOAD SWAP1 PUSH2 0x100 EXP SWAP1 DIV PUSH20 0xFFFFFFFFFFFFFFFFFFFFFFFFFFFFFFFFFFFFFFFF AND PUSH20 0xFFFFFFFFFFFFFFFFFFFFFFFFFFFFFFFFFFFFFFFF AND DUP2 MSTORE PUSH1 0x20 ADD SWAP1 PUSH1 0x1 ADD SWAP1 DUP1 DUP4 GT PUSH3 0x13E JUMPI JUMPDEST POP POP POP POP POP SWAP1 POP SWAP1 JUMP JUMPDEST PUSH1 0x0 DUP9 CALLER DUP10 DUP10 DUP10 DUP10 DUP10 DUP10 DUP10 PUSH1 0x40 MLOAD PUSH3 0x1AC SWAP1 PUSH3 0x24E JUMP JUMPDEST PUSH3 0x1C0 SWAP10 SWAP9 SWAP8 SWAP7 SWAP6 SWAP5 SWAP4 SWAP3 SWAP2 SWAP1 PUSH3 0x667 JUMP JUMPDEST PUSH1 0x40 MLOAD DUP1 SWAP2 SUB SWAP1 PUSH1 0x0 CREATE DUP1 ISZERO DUP1 ISZERO PUSH3 0x1DD JUMPI RETURNDATASIZE PUSH1 0x0 DUP1 RETURNDATACOPY RETURNDATASIZE PUSH1 0x0 REVERT JUMPDEST POP SWAP1 POP PUSH1 0x0 DUP2 SWAP1 DUP1 PUSH1 0x1 DUP2 SLOAD ADD DUP1 DUP3 SSTORE DUP1 SWAP2 POP POP PUSH1 0x1 SWAP1 SUB SWAP1 PUSH1 0x0 MSTORE PUSH1 0x20 PUSH1 0x0 KECCAK256 ADD PUSH1 0x0 SWAP1 SWAP2 SWAP1 SWAP2 SWAP1 SWAP2 PUSH2 0x100 EXP DUP2 SLOAD DUP2 PUSH20 0xFFFFFFFFFFFFFFFFFFFFFFFFFFFFFFFFFFFFFFFF MUL NOT AND SWAP1 DUP4 PUSH20 0xFFFFFFFFFFFFFFFFFFFFFFFFFFFFFFFFFFFFFFFF AND MUL OR SWAP1 SSTORE POP POP POP POP POP POP POP POP POP POP JUMP JUMPDEST PUSH2 0x19EA DUP1 PUSH3 0x6F0 DUP4 CODECOPY ADD SWAP1 JUMP JUMPDEST PUSH1 0x0 DUP1 REVERT JUMPDEST PUSH1 0x0 DUP1 REVERT JUMPDEST PUSH1 0x0 DUP2 SWAP1 POP SWAP2 SWAP1 POP JUMP JUMPDEST PUSH3 0x27B DUP2 PUSH3 0x266 JUMP JUMPDEST DUP2 EQ PUSH3 0x287 JUMPI PUSH1 0x0 DUP1 REVERT JUMPDEST POP JUMP JUMPDEST PUSH1 0x0 DUP2 CALLDATALOAD SWAP1 POP PUSH3 0x29B DUP2 PUSH3 0x270 JUMP JUMPDEST SWAP3 SWAP2 POP POP JUMP JUMPDEST PUSH1 0x0 PUSH1 0x20 DUP3 DUP5 SUB SLT ISZERO PUSH3 0x2BA JUMPI PUSH3 0x2B9 PUSH3 0x25C JUMP JUMPDEST JUMPDEST PUSH1 0x0 PUSH3 0x2CA DUP5 DUP3 DUP6 ADD PUSH3 0x28A JUMP JUMPDEST SWAP2 POP POP SWAP3 SWAP2 POP POP JUMP JUMPDEST PUSH1 0x0 PUSH20 0xFFFFFFFFFFFFFFFFFFFFFFFFFFFFFFFFFFFFFFFF DUP3 AND SWAP1 POP SWAP2 SWAP1 POP JUMP JUMPDEST PUSH1 0x0 DUP2 SWAP1 POP SWAP2 SWAP1 POP JUMP JUMPDEST PUSH1 0x0 PUSH3 0x31E PUSH3 0x318 PUSH3 0x312 DUP5 PUSH3 0x2D3 JUMP JUMPDEST PUSH3 0x2F3 JUMP JUMPDEST PUSH3 0x2D3 JUMP JUMPDEST SWAP1 POP SWAP2 SWAP1 POP JUMP JUMPDEST PUSH1 0x0 PUSH3 0x332 DUP3 PUSH3 0x2FD JUMP JUMPDEST SWAP1 POP SWAP2 SWAP1 POP JUMP JUMPDEST PUSH1 0x0 PUSH3 0x346 DUP3 PUSH3 0x325 JUMP JUMPDEST SWAP1 POP SWAP2 SWAP1 POP JUMP JUMPDEST PUSH3 0x358 DUP2 PUSH3 0x339 JUMP JUMPDEST DUP3 MSTORE POP POP JUMP JUMPDEST PUSH1 0x0 PUSH1 0x20 DUP3 ADD SWAP1 POP PUSH3 0x375 PUSH1 0x0 DUP4 ADD DUP5 PUSH3 0x34D JUMP JUMPDEST SWAP3 SWAP2 POP POP JUMP JUMPDEST PUSH1 0x0 DUP2 MLOAD SWAP1 POP SWAP2 SWAP1 POP JUMP JUMPDEST PUSH1 0x0 DUP3 DUP3 MSTORE PUSH1 0x20 DUP3 ADD SWAP1 POP SWAP3 SWAP2 POP POP JUMP JUMPDEST PUSH1 0x0 DUP2 SWAP1 POP PUSH1 0x20 DUP3 ADD SWAP1 POP SWAP2 SWAP1 POP JUMP JUMPDEST PUSH3 0x3B2 DUP2 PUSH3 0x339 JUMP JUMPDEST DUP3 MSTORE POP POP JUMP JUMPDEST PUSH1 0x0 PUSH3 0x3C6 DUP4 DUP4 PUSH3 0x3A7 JUMP JUMPDEST PUSH1 0x20 DUP4 ADD SWAP1 POP SWAP3 SWAP2 POP POP JUMP JUMPDEST PUSH1 0x0 PUSH1 0x20 DUP3 ADD SWAP1 POP SWAP2 SWAP1 POP JUMP JUMPDEST PUSH1 0x0 PUSH3 0x3EC DUP3 PUSH3 0x37B JUMP JUMPDEST PUSH3 0x3F8 DUP2 DUP6 PUSH3 0x386 JUMP JUMPDEST SWAP4 POP PUSH3 0x405 DUP4 PUSH3 0x397 JUMP JUMPDEST DUP1 PUSH1 0x0 JUMPDEST DUP4 DUP2 LT ISZERO PUSH3 0x43C JUMPI DUP2 MLOAD PUSH3 0x420 DUP9 DUP3 PUSH3 0x3B8 JUMP JUMPDEST SWAP8 POP PUSH3 0x42D DUP4 PUSH3 0x3D2 JUMP JUMPDEST SWAP3 POP POP PUSH1 0x1 DUP2 ADD SWAP1 POP PUSH3 0x409 JUMP JUMPDEST POP DUP6 SWAP4 POP POP POP POP SWAP3 SWAP2 POP POP JUMP JUMPDEST PUSH1 0x0 PUSH1 0x20 DUP3 ADD SWAP1 POP DUP2 DUP2 SUB PUSH1 0x0 DUP4 ADD MSTORE PUSH3 0x465 DUP2 DUP5 PUSH3 0x3DF JUMP JUMPDEST SWAP1 POP SWAP3 SWAP2 POP POP JUMP JUMPDEST PUSH1 0x0 DUP1 REVERT JUMPDEST PUSH1 0x0 DUP1 REVERT JUMPDEST PUSH1 0x0 DUP1 REVERT JUMPDEST PUSH1 0x0 DUP1 DUP4 PUSH1 0x1F DUP5 ADD SLT PUSH3 0x495 JUMPI PUSH3 0x494 PUSH3 0x46D JUMP JUMPDEST JUMPDEST DUP3 CALLDATALOAD SWAP1 POP PUSH8 0xFFFFFFFFFFFFFFFF DUP2 GT ISZERO PUSH3 0x4B5 JUMPI PUSH3 0x4B4 PUSH3 0x472 JUMP JUMPDEST JUMPDEST PUSH1 0x20 DUP4 ADD SWAP2 POP DUP4 PUSH1 0x1 DUP3 MUL DUP4 ADD GT ISZERO PUSH3 0x4D4 JUMPI PUSH3 0x4D3 PUSH3 0x477 JUMP JUMPDEST JUMPDEST SWAP3 POP SWAP3 SWAP1 POP JUMP JUMPDEST PUSH1 0x0 DUP1 PUSH1 0x0 DUP1 PUSH1 0x0 DUP1 PUSH1 0x0 DUP1 PUSH1 0xA0 DUP10 DUP12 SUB SLT ISZERO PUSH3 0x4FE JUMPI PUSH3 0x4FD PUSH3 0x25C JUMP JUMPDEST JUMPDEST PUSH1 0x0 PUSH3 0x50E DUP12 DUP3 DUP13 ADD PUSH3 0x28A JUMP JUMPDEST SWAP9 POP POP PUSH1 0x20 DUP10 ADD CALLDATALOAD PUSH8 0xFFFFFFFFFFFFFFFF DUP2 GT ISZERO PUSH3 0x532 JUMPI PUSH3 0x531 PUSH3 0x261 JUMP JUMPDEST JUMPDEST PUSH3 0x540 DUP12 DUP3 DUP13 ADD PUSH3 0x47C JUMP JUMPDEST SWAP8 POP SWAP8 POP POP PUSH1 0x40 DUP10 ADD CALLDATALOAD PUSH8 0xFFFFFFFFFFFFFFFF DUP2 GT ISZERO PUSH3 0x566 JUMPI PUSH3 0x565 PUSH3 0x261 JUMP JUMPDEST JUMPDEST PUSH3 0x574 DUP12 DUP3 DUP13 ADD PUSH3 0x47C JUMP JUMPDEST SWAP6 POP SWAP6 POP POP PUSH1 0x60 DUP10 ADD CALLDATALOAD PUSH8 0xFFFFFFFFFFFFFFFF DUP2 GT ISZERO PUSH3 0x59A JUMPI PUSH3 0x599 PUSH3 0x261 JUMP JUMPDEST JUMPDEST PUSH3 0x5A8 DUP12 DUP3 DUP13 ADD PUSH3 0x47C JUMP JUMPDEST SWAP4 POP SWAP4 POP POP PUSH1 0x80 PUSH3 0x5BD DUP12 DUP3 DUP13 ADD PUSH3 0x28A JUMP JUMPDEST SWAP2 POP POP SWAP3 SWAP6 SWAP9 POP SWAP3 SWAP6 SWAP9 SWAP1 SWAP4 SWAP7 POP JUMP JUMPDEST PUSH3 0x5D8 DUP2 PUSH3 0x266 JUMP JUMPDEST DUP3 MSTORE POP POP JUMP JUMPDEST PUSH1 0x0 PUSH3 0x5EB DUP3 PUSH3 0x2D3 JUMP JUMPDEST SWAP1 POP SWAP2 SWAP1 POP JUMP JUMPDEST PUSH3 0x5FD DUP2 PUSH3 0x5DE JUMP JUMPDEST DUP3 MSTORE POP POP JUMP JUMPDEST PUSH1 0x0 DUP3 DUP3 MSTORE PUSH1 0x20 DUP3 ADD SWAP1 POP SWAP3 SWAP2 POP POP JUMP JUMPDEST DUP3 DUP2 DUP4 CALLDATACOPY PUSH1 0x0 DUP4 DUP4 ADD MSTORE POP POP POP JUMP JUMPDEST PUSH1 0x0 PUSH1 0x1F NOT PUSH1 0x1F DUP4 ADD AND SWAP1 POP SWAP2 SWAP1 POP JUMP JUMPDEST PUSH1 0x0 PUSH3 0x642 DUP4 DUP6 PUSH3 0x603 JUMP JUMPDEST SWAP4 POP PUSH3 0x651 DUP4 DUP6 DUP5 PUSH3 0x614 JUMP JUMPDEST PUSH3 0x65C DUP4 PUSH3 0x623 JUMP JUMPDEST DUP5 ADD SWAP1 POP SWAP4 SWAP3 POP POP POP JUMP JUMPDEST PUSH1 0x0 PUSH1 0xC0 DUP3 ADD SWAP1 POP PUSH3 0x67E PUSH1 0x0 DUP4 ADD DUP13 PUSH3 0x5CD JUMP JUMPDEST PUSH3 0x68D PUSH1 0x20 DUP4 ADD DUP12 PUSH3 0x5F2 JUMP JUMPDEST DUP2 DUP2 SUB PUSH1 0x40 DUP4 ADD MSTORE PUSH3 0x6A2 DUP2 DUP10 DUP12 PUSH3 0x634 JUMP JUMPDEST SWAP1 POP DUP2 DUP2 SUB PUSH1 0x60 DUP4 ADD MSTORE PUSH3 0x6B9 DUP2 DUP8 DUP10 PUSH3 0x634 JUMP JUMPDEST SWAP1 POP DUP2 DUP2 SUB PUSH1 0x80 DUP4 ADD MSTORE PUSH3 0x6D0 DUP2 DUP6 DUP8 PUSH3 0x634 JUMP JUMPDEST SWAP1 POP PUSH3 0x6E1 PUSH1 0xA0 DUP4 ADD DUP5 PUSH3 0x5CD JUMP JUMPDEST SWAP11 SWAP10 POP POP POP POP POP POP POP POP POP POP JUMP INVALID PUSH1 0x80 PUSH1 0x40 MSTORE CALLVALUE DUP1 ISZERO PUSH3 0x11 JUMPI PUSH1 0x0 DUP1 REVERT JUMPDEST POP PUSH1 0x40 MLOAD PUSH3 0x19EA CODESIZE SUB DUP1 PUSH3 0x19EA DUP4 CODECOPY DUP2 DUP2 ADD PUSH1 0x40 MSTORE DUP2 ADD SWAP1 PUSH3 0x37 SWAP2 SWAP1 PUSH3 0x3C9 JUMP JUMPDEST DUP5 PUSH1 0x0 DUP1 PUSH2 0x100 EXP DUP2 SLOAD DUP2 PUSH20 0xFFFFFFFFFFFFFFFFFFFFFFFFFFFFFFFFFFFFFFFF MUL NOT AND SWAP1 DUP4 PUSH20 0xFFFFFFFFFFFFFFFFFFFFFFFFFFFFFFFFFFFFFFFF AND MUL OR SWAP1 SSTORE POP DUP6 PUSH1 0x1 DUP2 SWAP1 SSTORE POP DUP4 PUSH1 0x2 SWAP1 DUP1 MLOAD SWAP1 PUSH1 0x20 ADD SWAP1 PUSH3 0x96 SWAP3 SWAP2 SWAP1 PUSH3 0xDC JUMP JUMPDEST POP DUP3 PUSH1 0x3 SWAP1 DUP1 MLOAD SWAP1 PUSH1 0x20 ADD SWAP1 PUSH3 0xAF SWAP3 SWAP2 SWAP1 PUSH3 0xDC JUMP JUMPDEST POP DUP2 PUSH1 0x4 SWAP1 DUP1 MLOAD SWAP1 PUSH1 0x20 ADD SWAP1 PUSH3 0xC8 SWAP3 SWAP2 SWAP1 PUSH3 0xDC JUMP JUMPDEST POP DUP1 PUSH1 0x5 DUP2 SWAP1 SSTORE POP POP POP POP POP POP POP PUSH3 0x527 JUMP JUMPDEST DUP3 DUP1 SLOAD PUSH3 0xEA SWAP1 PUSH3 0x4F1 JUMP JUMPDEST SWAP1 PUSH1 0x0 MSTORE PUSH1 0x20 PUSH1 0x0 KECCAK256 SWAP1 PUSH1 0x1F ADD PUSH1 0x20 SWAP1 DIV DUP2 ADD SWAP3 DUP3 PUSH3 0x10E JUMPI PUSH1 0x0 DUP6 SSTORE PUSH3 0x15A JUMP JUMPDEST DUP3 PUSH1 0x1F LT PUSH3 0x129 JUMPI DUP1 MLOAD PUSH1 0xFF NOT AND DUP4 DUP1 ADD OR DUP6 SSTORE PUSH3 0x15A JUMP JUMPDEST DUP3 DUP1 ADD PUSH1 0x1 ADD DUP6 SSTORE DUP3 ISZERO PUSH3 0x15A JUMPI SWAP2 DUP3 ADD JUMPDEST DUP3 DUP2 GT ISZERO PUSH3 0x159 JUMPI DUP3 MLOAD DUP3 SSTORE SWAP2 PUSH1 0x20 ADD SWAP2 SWAP1 PUSH1 0x1 ADD SWAP1 PUSH3 0x13C JUMP JUMPDEST JUMPDEST POP SWAP1 POP PUSH3 0x169 SWAP2 SWAP1 PUSH3 0x16D JUMP JUMPDEST POP SWAP1 JUMP JUMPDEST JUMPDEST DUP1 DUP3 GT ISZERO PUSH3 0x188 JUMPI PUSH1 0x0 DUP2 PUSH1 0x0 SWAP1 SSTORE POP PUSH1 0x1 ADD PUSH3 0x16E JUMP JUMPDEST POP SWAP1 JUMP JUMPDEST PUSH1 0x0 PUSH1 0x40 MLOAD SWAP1 POP SWAP1 JUMP JUMPDEST PUSH1 0x0 DUP1 REVERT JUMPDEST PUSH1 0x0 DUP1 REVERT JUMPDEST PUSH1 0x0 DUP2 SWAP1 POP SWAP2 SWAP1 POP JUMP JUMPDEST PUSH3 0x1B5 DUP2 PUSH3 0x1A0 JUMP JUMPDEST DUP2 EQ PUSH3 0x1C1 JUMPI PUSH1 0x0 DUP1 REVERT JUMPDEST POP JUMP JUMPDEST PUSH1 0x0 DUP2 MLOAD SWAP1 POP PUSH3 0x1D5 DUP2 PUSH3 0x1AA JUMP JUMPDEST SWAP3 SWAP2 POP POP JUMP JUMPDEST PUSH1 0x0 PUSH20 0xFFFFFFFFFFFFFFFFFFFFFFFFFFFFFFFFFFFFFFFF DUP3 AND SWAP1 POP SWAP2 SWAP1 POP JUMP JUMPDEST PUSH1 0x0 PUSH3 0x208 DUP3 PUSH3 0x1DB JUMP JUMPDEST SWAP1 POP SWAP2 SWAP1 POP JUMP JUMPDEST PUSH3 0x21A DUP2 PUSH3 0x1FB JUMP JUMPDEST DUP2 EQ PUSH3 0x226 JUMPI PUSH1 0x0 DUP1 REVERT JUMPDEST POP JUMP JUMPDEST PUSH1 0x0 DUP2 MLOAD SWAP1 POP PUSH3 0x23A DUP2 PUSH3 0x20F JUMP JUMPDEST SWAP3 SWAP2 POP POP JUMP JUMPDEST PUSH1 0x0 DUP1 REVERT JUMPDEST PUSH1 0x0 DUP1 REVERT JUMPDEST PUSH1 0x0 PUSH1 0x1F NOT PUSH1 0x1F DUP4 ADD AND SWAP1 POP SWAP2 SWAP1 POP JUMP JUMPDEST PUSH32 0x4E487B7100000000000000000000000000000000000000000000000000000000 PUSH1 0x0 MSTORE PUSH1 0x41 PUSH1 0x4 MSTORE PUSH1 0x24 PUSH1 0x0 REVERT JUMPDEST PUSH3 0x295 DUP3 PUSH3 0x24A JUMP JUMPDEST DUP2 ADD DUP2 DUP2 LT PUSH8 0xFFFFFFFFFFFFFFFF DUP3 GT OR ISZERO PUSH3 0x2B7 JUMPI PUSH3 0x2B6 PUSH3 0x25B JUMP JUMPDEST JUMPDEST DUP1 PUSH1 0x40 MSTORE POP POP POP JUMP JUMPDEST PUSH1 0x0 PUSH3 0x2CC PUSH3 0x18C JUMP JUMPDEST SWAP1 POP PUSH3 0x2DA DUP3 DUP3 PUSH3 0x28A JUMP JUMPDEST SWAP2 SWAP1 POP JUMP JUMPDEST PUSH1 0x0 PUSH8 0xFFFFFFFFFFFFFFFF DUP3 GT ISZERO PUSH3 0x2FD JUMPI PUSH3 0x2FC PUSH3 0x25B JUMP JUMPDEST JUMPDEST PUSH3 0x308 DUP3 PUSH3 0x24A JUMP JUMPDEST SWAP1 POP PUSH1 0x20 DUP2 ADD SWAP1 POP SWAP2 SWAP1 POP JUMP JUMPDEST PUSH1 0x0 JUMPDEST DUP4 DUP2 LT ISZERO PUSH3 0x335 JUMPI DUP1 DUP3 ADD MLOAD DUP2 DUP5 ADD MSTORE PUSH1 0x20 DUP2 ADD SWAP1 POP PUSH3 0x318 JUMP JUMPDEST DUP4 DUP2 GT ISZERO PUSH3 0x345 JUMPI PUSH1 0x0 DUP5 DUP5 ADD MSTORE JUMPDEST POP POP POP POP JUMP JUMPDEST PUSH1 0x0 PUSH3 0x362 PUSH3 0x35C DUP5 PUSH3 0x2DF JUMP JUMPDEST PUSH3 0x2C0 JUMP JUMPDEST SWAP1 POP DUP3 DUP2 MSTORE PUSH1 0x20 DUP2 ADD DUP5 DUP5 DUP5 ADD GT ISZERO PUSH3 0x381 JUMPI PUSH3 0x380 PUSH3 0x245 JUMP JUMPDEST JUMPDEST PUSH3 0x38E DUP5 DUP3 DUP6 PUSH3 0x315 JUMP JUMPDEST POP SWAP4 SWAP3 POP POP POP JUMP JUMPDEST PUSH1 0x0 DUP3 PUSH1 0x1F DUP4 ADD SLT PUSH3 0x3AE JUMPI PUSH3 0x3AD PUSH3 0x240 JUMP JUMPDEST JUMPDEST DUP2 MLOAD PUSH3 0x3C0 DUP5 DUP3 PUSH1 0x20 DUP7 ADD PUSH3 0x34B JUMP JUMPDEST SWAP2 POP POP SWAP3 SWAP2 POP POP JUMP JUMPDEST PUSH1 0x0 DUP1 PUSH1 0x0 DUP1 PUSH1 0x0 DUP1 PUSH1 0xC0 DUP8 DUP10 SUB SLT ISZERO PUSH3 0x3E9 JUMPI PUSH3 0x3E8 PUSH3 0x196 JUMP JUMPDEST JUMPDEST PUSH1 0x0 PUSH3 0x3F9 DUP10 DUP3 DUP11 ADD PUSH3 0x1C4 JUMP JUMPDEST SWAP7 POP POP PUSH1 0x20 PUSH3 0x40C DUP10 DUP3 DUP11 ADD PUSH3 0x229 JUMP JUMPDEST SWAP6 POP POP PUSH1 0x40 DUP8 ADD MLOAD PUSH8 0xFFFFFFFFFFFFFFFF DUP2 GT ISZERO PUSH3 0x430 JUMPI PUSH3 0x42F PUSH3 0x19B JUMP JUMPDEST JUMPDEST PUSH3 0x43E DUP10 DUP3 DUP11 ADD PUSH3 0x396 JUMP JUMPDEST SWAP5 POP POP PUSH1 0x60 DUP8 ADD MLOAD PUSH8 0xFFFFFFFFFFFFFFFF DUP2 GT ISZERO PUSH3 0x462 JUMPI PUSH3 0x461 PUSH3 0x19B JUMP JUMPDEST JUMPDEST PUSH3 0x470 DUP10 DUP3 DUP11 ADD PUSH3 0x396 JUMP JUMPDEST SWAP4 POP POP PUSH1 0x80 DUP8 ADD MLOAD PUSH8 0xFFFFFFFFFFFFFFFF DUP2 GT ISZERO PUSH3 0x494 JUMPI PUSH3 0x493 PUSH3 0x19B JUMP JUMPDEST JUMPDEST PUSH3 0x4A2 DUP10 DUP3 DUP11 ADD PUSH3 0x396 JUMP JUMPDEST SWAP3 POP POP PUSH1 0xA0 PUSH3 0x4B5 DUP10 DUP3 DUP11 ADD PUSH3 0x1C4 JUMP JUMPDEST SWAP2 POP POP SWAP3 SWAP6 POP SWAP3 SWAP6 POP SWAP3 SWAP6 JUMP JUMPDEST PUSH32 0x4E487B7100000000000000000000000000000000000000000000000000000000 PUSH1 0x0 MSTORE PUSH1 0x22 PUSH1 0x4 MSTORE PUSH1 0x24 PUSH1 0x0 REVERT JUMPDEST PUSH1 0x0 PUSH1 0x2 DUP3 DIV SWAP1 POP PUSH1 0x1 DUP3 AND DUP1 PUSH3 0x50A JUMPI PUSH1 0x7F DUP3 AND SWAP2 POP JUMPDEST PUSH1 0x20 DUP3 LT DUP2 EQ ISZERO PUSH3 0x521 JUMPI PUSH3 0x520 PUSH3 0x4C2 JUMP JUMPDEST JUMPDEST POP SWAP2 SWAP1 POP JUMP JUMPDEST PUSH2 0x14B3 DUP1 PUSH3 0x537 PUSH1 0x0 CODECOPY PUSH1 0x0 RETURN INVALID PUSH1 0x80 PUSH1 0x40 MSTORE PUSH1 0x4 CALLDATASIZE LT PUSH2 0xF3 JUMPI PUSH1 0x0 CALLDATALOAD PUSH1 0xE0 SHR DUP1 PUSH4 0x82FDE093 GT PUSH2 0x8A JUMPI DUP1 PUSH4 0xABA83150 GT PUSH2 0x59 JUMPI DUP1 PUSH4 0xABA83150 EQ PUSH2 0x33A JUMPI DUP1 PUSH4 0xB2A87FC3 EQ PUSH2 0x365 JUMPI DUP1 PUSH4 0xD7D1BBDB EQ PUSH2 0x390 JUMPI DUP1 PUSH4 0xEA25213F EQ PUSH2 0x3B9 JUMPI PUSH2 0xF3 JUMP JUMPDEST DUP1 PUSH4 0x82FDE093 EQ PUSH2 0x290 JUMPI DUP1 PUSH4 0x8A9CFD55 EQ PUSH2 0x2BB JUMPI DUP1 PUSH4 0x937E09B1 EQ PUSH2 0x2E4 JUMPI DUP1 PUSH4 0x97654A8C EQ PUSH2 0x30F JUMPI PUSH2 0xF3 JUMP JUMPDEST DUP1 PUSH4 0x4051DDAC GT PUSH2 0xC6 JUMPI DUP1 PUSH4 0x4051DDAC EQ PUSH2 0x1C6 JUMPI DUP1 PUSH4 0x481C6A75 EQ PUSH2 0x1F9 JUMPI DUP1 PUSH4 0x7E7CD1B3 EQ PUSH2 0x224 JUMPI DUP1 PUSH4 0x81D12C58 EQ PUSH2 0x24F JUMPI PUSH2 0xF3 JUMP JUMPDEST DUP1 PUSH4 0x3441006 EQ PUSH2 0xF8 JUMPI DUP1 PUSH4 0xA144391 EQ PUSH2 0x121 JUMPI DUP1 PUSH4 0x1FBED579 EQ PUSH2 0x15E JUMPI DUP1 PUSH4 0x3410452A EQ PUSH2 0x19B JUMPI JUMPDEST PUSH1 0x0 DUP1 REVERT JUMPDEST CALLVALUE DUP1 ISZERO PUSH2 0x104 JUMPI PUSH1 0x0 DUP1 REVERT JUMPDEST POP PUSH2 0x11F PUSH1 0x4 DUP1 CALLDATASIZE SUB DUP2 ADD SWAP1 PUSH2 0x11A SWAP2 SWAP1 PUSH2 0xE5A JUMP JUMPDEST PUSH2 0x3C3 JUMP JUMPDEST STOP JUMPDEST CALLVALUE DUP1 ISZERO PUSH2 0x12D JUMPI PUSH1 0x0 DUP1 REVERT JUMPDEST POP PUSH2 0x148 PUSH1 0x4 DUP1 CALLDATASIZE SUB DUP2 ADD SWAP1 PUSH2 0x143 SWAP2 SWAP1 PUSH2 0xEE5 JUMP JUMPDEST PUSH2 0x4FC JUMP JUMPDEST PUSH1 0x40 MLOAD PUSH2 0x155 SWAP2 SWAP1 PUSH2 0xF2D JUMP JUMPDEST PUSH1 0x40 MLOAD DUP1 SWAP2 SUB SWAP1 RETURN JUMPDEST CALLVALUE DUP1 ISZERO PUSH2 0x16A JUMPI PUSH1 0x0 DUP1 REVERT JUMPDEST POP PUSH2 0x185 PUSH1 0x4 DUP1 CALLDATASIZE SUB DUP2 ADD SWAP1 PUSH2 0x180 SWAP2 SWAP1 PUSH2 0xE5A JUMP JUMPDEST PUSH2 0x51C JUMP JUMPDEST PUSH1 0x40 MLOAD PUSH2 0x192 SWAP2 SWAP1 PUSH2 0xF57 JUMP JUMPDEST PUSH1 0x40 MLOAD DUP1 SWAP2 SUB SWAP1 RETURN JUMPDEST CALLVALUE DUP1 ISZERO PUSH2 0x1A7 JUMPI PUSH1 0x0 DUP1 REVERT JUMPDEST POP PUSH2 0x1B0 PUSH2 0x55B JUMP JUMPDEST PUSH1 0x40 MLOAD PUSH2 0x1BD SWAP2 SWAP1 PUSH2 0xF81 JUMP JUMPDEST PUSH1 0x40 MLOAD DUP1 SWAP2 SUB SWAP1 RETURN JUMPDEST CALLVALUE DUP1 ISZERO PUSH2 0x1D2 JUMPI PUSH1 0x0 DUP1 REVERT JUMPDEST POP PUSH2 0x1DB PUSH2 0x565 JUMP JUMPDEST PUSH1 0x40 MLOAD PUSH2 0x1F0 SWAP10 SWAP9 SWAP8 SWAP7 SWAP6 SWAP5 SWAP4 SWAP3 SWAP2 SWAP1 PUSH2 0x1035 JUMP JUMPDEST PUSH1 0x40 MLOAD DUP1 SWAP2 SUB SWAP1 RETURN JUMPDEST CALLVALUE DUP1 ISZERO PUSH2 0x205 JUMPI PUSH1 0x0 DUP1 REVERT JUMPDEST POP PUSH2 0x20E PUSH2 0x769 JUMP JUMPDEST PUSH1 0x40 MLOAD PUSH2 0x21B SWAP2 SWAP1 PUSH2 0xF57 JUMP JUMPDEST PUSH1 0x40 MLOAD DUP1 SWAP2 SUB SWAP1 RETURN JUMPDEST CALLVALUE DUP1 ISZERO PUSH2 0x230 JUMPI PUSH1 0x0 DUP1 REVERT JUMPDEST POP PUSH2 0x239 PUSH2 0x78D JUMP JUMPDEST PUSH1 0x40 MLOAD PUSH2 0x246 SWAP2 SWAP1 PUSH2 0x10D7 JUMP JUMPDEST PUSH1 0x40 MLOAD DUP1 SWAP2 SUB SWAP1 RETURN JUMPDEST CALLVALUE DUP1 ISZERO PUSH2 0x25B JUMPI PUSH1 0x0 DUP1 REVERT JUMPDEST POP PUSH2 0x276 PUSH1 0x4 DUP1 CALLDATASIZE SUB DUP2 ADD SWAP1 PUSH2 0x271 SWAP2 SWAP1 PUSH2 0xE5A JUMP JUMPDEST PUSH2 0x81B JUMP JUMPDEST PUSH1 0x40 MLOAD PUSH2 0x287 SWAP6 SWAP5 SWAP4 SWAP3 SWAP2 SWAP1 PUSH2 0x111A JUMP JUMPDEST PUSH1 0x40 MLOAD DUP1 SWAP2 SUB SWAP1 RETURN JUMPDEST CALLVALUE DUP1 ISZERO PUSH2 0x29C JUMPI PUSH1 0x0 DUP1 REVERT JUMPDEST POP PUSH2 0x2A5 PUSH2 0x906 JUMP JUMPDEST PUSH1 0x40 MLOAD PUSH2 0x2B2 SWAP2 SWAP1 PUSH2 0xF81 JUMP JUMPDEST PUSH1 0x40 MLOAD DUP1 SWAP2 SUB SWAP1 RETURN JUMPDEST CALLVALUE DUP1 ISZERO PUSH2 0x2C7 JUMPI PUSH1 0x0 DUP1 REVERT JUMPDEST POP PUSH2 0x2E2 PUSH1 0x4 DUP1 CALLDATASIZE SUB DUP2 ADD SWAP1 PUSH2 0x2DD SWAP2 SWAP1 PUSH2 0x12D5 JUMP JUMPDEST PUSH2 0x90C JUMP JUMPDEST STOP JUMPDEST CALLVALUE DUP1 ISZERO PUSH2 0x2F0 JUMPI PUSH1 0x0 DUP1 REVERT JUMPDEST POP PUSH2 0x2F9 PUSH2 0xA23 JUMP JUMPDEST PUSH1 0x40 MLOAD PUSH2 0x306 SWAP2 SWAP1 PUSH2 0xF81 JUMP JUMPDEST PUSH1 0x40 MLOAD DUP1 SWAP2 SUB SWAP1 RETURN JUMPDEST CALLVALUE DUP1 ISZERO PUSH2 0x31B JUMPI PUSH1 0x0 DUP1 REVERT JUMPDEST POP PUSH2 0x324 PUSH2 0xA29 JUMP JUMPDEST PUSH1 0x40 MLOAD PUSH2 0x331 SWAP2 SWAP1 PUSH2 0x10D7 JUMP JUMPDEST PUSH1 0x40 MLOAD DUP1 SWAP2 SUB SWAP1 RETURN JUMPDEST CALLVALUE DUP1 ISZERO PUSH2 0x346 JUMPI PUSH1 0x0 DUP1 REVERT JUMPDEST POP PUSH2 0x34F PUSH2 0xAB7 JUMP JUMPDEST PUSH1 0x40 MLOAD PUSH2 0x35C SWAP2 SWAP1 PUSH2 0x10D7 JUMP JUMPDEST PUSH1 0x40 MLOAD DUP1 SWAP2 SUB SWAP1 RETURN JUMPDEST CALLVALUE DUP1 ISZERO PUSH2 0x371 JUMPI PUSH1 0x0 DUP1 REVERT JUMPDEST POP PUSH2 0x37A PUSH2 0xB45 JUMP JUMPDEST PUSH1 0x40 MLOAD PUSH2 0x387 SWAP2 SWAP1 PUSH2 0xF81 JUMP JUMPDEST PUSH1 0x40 MLOAD DUP1 SWAP2 SUB SWAP1 RETURN JUMPDEST CALLVALUE DUP1 ISZERO PUSH2 0x39C JUMPI PUSH1 0x0 DUP1 REVERT JUMPDEST POP PUSH2 0x3B7 PUSH1 0x4 DUP1 CALLDATASIZE SUB DUP2 ADD SWAP1 PUSH2 0x3B2 SWAP2 SWAP1 PUSH2 0xE5A JUMP JUMPDEST PUSH2 0xB4B JUMP JUMPDEST STOP JUMPDEST PUSH2 0x3C1 PUSH2 0xC89 JUMP JUMPDEST STOP JUMPDEST PUSH1 0x0 DUP1 SLOAD SWAP1 PUSH2 0x100 EXP SWAP1 DIV PUSH20 0xFFFFFFFFFFFFFFFFFFFFFFFFFFFFFFFFFFFFFFFF AND PUSH20 0xFFFFFFFFFFFFFFFFFFFFFFFFFFFFFFFFFFFFFFFF AND CALLER PUSH20 0xFFFFFFFFFFFFFFFFFFFFFFFFFFFFFFFFFFFFFFFF AND EQ PUSH2 0x41B JUMPI PUSH1 0x0 DUP1 REVERT JUMPDEST PUSH1 0x0 PUSH1 0xA PUSH1 0x0 DUP4 DUP2 MSTORE PUSH1 0x20 ADD SWAP1 DUP2 MSTORE PUSH1 0x20 ADD PUSH1 0x0 KECCAK256 SWAP1 POP PUSH1 0x2 PUSH1 0x8 SLOAD PUSH2 0x441 SWAP2 SWAP1 PUSH2 0x13A2 JUMP JUMPDEST DUP2 PUSH1 0x3 ADD SLOAD GT PUSH2 0x450 JUMPI PUSH1 0x0 DUP1 REVERT JUMPDEST DUP1 PUSH1 0x2 ADD PUSH1 0x14 SWAP1 SLOAD SWAP1 PUSH2 0x100 EXP SWAP1 DIV PUSH1 0xFF AND ISZERO PUSH2 0x46C JUMPI PUSH1 0x0 DUP1 REVERT JUMPDEST DUP1 PUSH1 0x2 ADD PUSH1 0x0 SWAP1 SLOAD SWAP1 PUSH2 0x100 EXP SWAP1 DIV PUSH20 0xFFFFFFFFFFFFFFFFFFFFFFFFFFFFFFFFFFFFFFFF AND PUSH20 0xFFFFFFFFFFFFFFFFFFFFFFFFFFFFFFFFFFFFFFFF AND PUSH2 0x8FC DUP3 PUSH1 0x1 ADD SLOAD SWAP1 DUP2 ISZERO MUL SWAP1 PUSH1 0x40 MLOAD PUSH1 0x0 PUSH1 0x40 MLOAD DUP1 DUP4 SUB DUP2 DUP6 DUP9 DUP9 CALL SWAP4 POP POP POP POP ISZERO DUP1 ISZERO PUSH2 0x4DA JUMPI RETURNDATASIZE PUSH1 0x0 DUP1 RETURNDATACOPY RETURNDATASIZE PUSH1 0x0 REVERT JUMPDEST POP PUSH1 0x1 DUP2 PUSH1 0x2 ADD PUSH1 0x14 PUSH2 0x100 EXP DUP2 SLOAD DUP2 PUSH1 0xFF MUL NOT AND SWAP1 DUP4 ISZERO ISZERO MUL OR SWAP1 SSTORE POP POP POP JUMP JUMPDEST PUSH1 0x7 PUSH1 0x20 MSTORE DUP1 PUSH1 0x0 MSTORE PUSH1 0x40 PUSH1 0x0 KECCAK256 PUSH1 0x0 SWAP2 POP SLOAD SWAP1 PUSH2 0x100 EXP SWAP1 DIV PUSH1 0xFF AND DUP2 JUMP JUMPDEST PUSH1 0x6 DUP2 DUP2 SLOAD DUP2 LT PUSH2 0x52C JUMPI PUSH1 0x0 DUP1 REVERT JUMPDEST SWAP1 PUSH1 0x0 MSTORE PUSH1 0x20 PUSH1 0x0 KECCAK256 ADD PUSH1 0x0 SWAP2 POP SLOAD SWAP1 PUSH2 0x100 EXP SWAP1 DIV PUSH20 0xFFFFFFFFFFFFFFFFFFFFFFFFFFFFFFFFFFFFFFFF AND DUP2 JUMP JUMPDEST PUSH1 0x0 PUSH1 0x9 SLOAD SWAP1 POP SWAP1 JUMP JUMPDEST PUSH1 0x0 DUP1 PUSH1 0x0 DUP1 PUSH1 0x0 PUSH1 0x60 DUP1 PUSH1 0x60 PUSH1 0x0 PUSH1 0x1 SLOAD SELFBALANCE PUSH1 0x9 SLOAD PUSH1 0x8 SLOAD PUSH1 0x0 DUP1 SLOAD SWAP1 PUSH2 0x100 EXP SWAP1 DIV PUSH20 0xFFFFFFFFFFFFFFFFFFFFFFFFFFFFFFFFFFFFFFFF AND PUSH1 0x2 PUSH1 0x3 PUSH1 0x4 PUSH1 0x5 SLOAD DUP4 DUP1 SLOAD PUSH2 0x5B4 SWAP1 PUSH2 0x1402 JUMP JUMPDEST DUP1 PUSH1 0x1F ADD PUSH1 0x20 DUP1 SWAP2 DIV MUL PUSH1 0x20 ADD PUSH1 0x40 MLOAD SWAP1 DUP2 ADD PUSH1 0x40 MSTORE DUP1 SWAP3 SWAP2 SWAP1 DUP2 DUP2 MSTORE PUSH1 0x20 ADD DUP3 DUP1 SLOAD PUSH2 0x5E0 SWAP1 PUSH2 0x1402 JUMP JUMPDEST DUP1 ISZERO PUSH2 0x62D JUMPI DUP1 PUSH1 0x1F LT PUSH2 0x602 JUMPI PUSH2 0x100 DUP1 DUP4 SLOAD DIV MUL DUP4 MSTORE SWAP2 PUSH1 0x20 ADD SWAP2 PUSH2 0x62D JUMP JUMPDEST DUP3 ADD SWAP2 SWAP1 PUSH1 0x0 MSTORE PUSH1 0x20 PUSH1 0x0 KECCAK256 SWAP1 JUMPDEST DUP2 SLOAD DUP2 MSTORE SWAP1 PUSH1 0x1 ADD SWAP1 PUSH1 0x20 ADD DUP1 DUP4 GT PUSH2 0x610 JUMPI DUP3 SWAP1 SUB PUSH1 0x1F AND DUP3 ADD SWAP2 JUMPDEST POP POP POP POP POP SWAP4 POP DUP3 DUP1 SLOAD PUSH2 0x640 SWAP1 PUSH2 0x1402 JUMP JUMPDEST DUP1 PUSH1 0x1F ADD PUSH1 0x20 DUP1 SWAP2 DIV MUL PUSH1 0x20 ADD PUSH1 0x40 MLOAD SWAP1 DUP2 ADD PUSH1 0x40 MSTORE DUP1 SWAP3 SWAP2 SWAP1 DUP2 DUP2 MSTORE PUSH1 0x20 ADD DUP3 DUP1 SLOAD PUSH2 0x66C SWAP1 PUSH2 0x1402 JUMP JUMPDEST DUP1 ISZERO PUSH2 0x6B9 JUMPI DUP1 PUSH1 0x1F LT PUSH2 0x68E JUMPI PUSH2 0x100 DUP1 DUP4 SLOAD DIV MUL DUP4 MSTORE SWAP2 PUSH1 0x20 ADD SWAP2 PUSH2 0x6B9 JUMP JUMPDEST DUP3 ADD SWAP2 SWAP1 PUSH1 0x0 MSTORE PUSH1 0x20 PUSH1 0x0 KECCAK256 SWAP1 JUMPDEST DUP2 SLOAD DUP2 MSTORE SWAP1 PUSH1 0x1 ADD SWAP1 PUSH1 0x20 ADD DUP1 DUP4 GT PUSH2 0x69C JUMPI DUP3 SWAP1 SUB PUSH1 0x1F AND DUP3 ADD SWAP2 JUMPDEST POP POP POP POP POP SWAP3 POP DUP2 DUP1 SLOAD PUSH2 0x6CC SWAP1 PUSH2 0x1402 JUMP JUMPDEST DUP1 PUSH1 0x1F ADD PUSH1 0x20 DUP1 SWAP2 DIV MUL PUSH1 0x20 ADD PUSH1 0x40 MLOAD SWAP1 DUP2 ADD PUSH1 0x40 MSTORE DUP1 SWAP3 SWAP2 SWAP1 DUP2 DUP2 MSTORE PUSH1 0x20 ADD DUP3 DUP1 SLOAD PUSH2 0x6F8 SWAP1 PUSH2 0x1402 JUMP JUMPDEST DUP1 ISZERO PUSH2 0x745 JUMPI DUP1 PUSH1 0x1F LT PUSH2 0x71A JUMPI PUSH2 0x100 DUP1 DUP4 SLOAD DIV MUL DUP4 MSTORE SWAP2 PUSH1 0x20 ADD SWAP2 PUSH2 0x745 JUMP JUMPDEST DUP3 ADD SWAP2 SWAP1 PUSH1 0x0 MSTORE PUSH1 0x20 PUSH1 0x0 KECCAK256 SWAP1 JUMPDEST DUP2 SLOAD DUP2 MSTORE SWAP1 PUSH1 0x1 ADD SWAP1 PUSH1 0x20 ADD DUP1 DUP4 GT PUSH2 0x728 JUMPI DUP3 SWAP1 SUB PUSH1 0x1F AND DUP3 ADD SWAP2 JUMPDEST POP POP POP POP POP SWAP2 POP SWAP9 POP SWAP9 POP SWAP9 POP SWAP9 POP SWAP9 POP SWAP9 POP SWAP9 POP SWAP9 POP SWAP9 POP SWAP1 SWAP2 SWAP3 SWAP4 SWAP5 SWAP6 SWAP7 SWAP8 SWAP9 JUMP JUMPDEST PUSH1 0x0 DUP1 SLOAD SWAP1 PUSH2 0x100 EXP SWAP1 DIV PUSH20 0xFFFFFFFFFFFFFFFFFFFFFFFFFFFFFFFFFFFFFFFF AND DUP2 JUMP JUMPDEST PUSH1 0x2 DUP1 SLOAD PUSH2 0x79A SWAP1 PUSH2 0x1402 JUMP JUMPDEST DUP1 PUSH1 0x1F ADD PUSH1 0x20 DUP1 SWAP2 DIV MUL PUSH1 0x20 ADD PUSH1 0x40 MLOAD SWAP1 DUP2 ADD PUSH1 0x40 MSTORE DUP1 SWAP3 SWAP2 SWAP1 DUP2 DUP2 MSTORE PUSH1 0x20 ADD DUP3 DUP1 SLOAD PUSH2 0x7C6 SWAP1 PUSH2 0x1402 JUMP JUMPDEST DUP1 ISZERO PUSH2 0x813 JUMPI DUP1 PUSH1 0x1F LT PUSH2 0x7E8 JUMPI PUSH2 0x100 DUP1 DUP4 SLOAD DIV MUL DUP4 MSTORE SWAP2 PUSH1 0x20 ADD SWAP2 PUSH2 0x813 JUMP JUMPDEST DUP3 ADD SWAP2 SWAP1 PUSH1 0x0 MSTORE PUSH1 0x20 PUSH1 0x0 KECCAK256 SWAP1 JUMPDEST DUP2 SLOAD DUP2 MSTORE SWAP1 PUSH1 0x1 ADD SWAP1 PUSH1 0x20 ADD DUP1 DUP4 GT PUSH2 0x7F6 JUMPI DUP3 SWAP1 SUB PUSH1 0x1F AND DUP3 ADD SWAP2 JUMPDEST POP POP POP POP POP DUP2 JUMP JUMPDEST PUSH1 0xA PUSH1 0x20 MSTORE DUP1 PUSH1 0x0 MSTORE PUSH1 0x40 PUSH1 0x0 KECCAK256 PUSH1 0x0 SWAP2 POP SWAP1 POP DUP1 PUSH1 0x0 ADD DUP1 SLOAD PUSH2 0x83E SWAP1 PUSH2 0x1402 JUMP JUMPDEST DUP1 PUSH1 0x1F ADD PUSH1 0x20 DUP1 SWAP2 DIV MUL PUSH1 0x20 ADD PUSH1 0x40 MLOAD SWAP1 DUP2 ADD PUSH1 0x40 MSTORE DUP1 SWAP3 SWAP2 SWAP1 DUP2 DUP2 MSTORE PUSH1 0x20 ADD DUP3 DUP1 SLOAD PUSH2 0x86A SWAP1 PUSH2 0x1402 JUMP JUMPDEST DUP1 ISZERO PUSH2 0x8B7 JUMPI DUP1 PUSH1 0x1F LT PUSH2 0x88C JUMPI PUSH2 0x100 DUP1 DUP4 SLOAD DIV MUL DUP4 MSTORE SWAP2 PUSH1 0x20 ADD SWAP2 PUSH2 0x8B7 JUMP JUMPDEST DUP3 ADD SWAP2 SWAP1 PUSH1 0x0 MSTORE PUSH1 0x20 PUSH1 0x0 KECCAK256 SWAP1 JUMPDEST DUP2 SLOAD DUP2 MSTORE SWAP1 PUSH1 0x1 ADD SWAP1 PUSH1 0x20 ADD DUP1 DUP4 GT PUSH2 0x89A JUMPI DUP3 SWAP1 SUB PUSH1 0x1F AND DUP3 ADD SWAP2 JUMPDEST POP POP POP POP POP SWAP1 DUP1 PUSH1 0x1 ADD SLOAD SWAP1 DUP1 PUSH1 0x2 ADD PUSH1 0x0 SWAP1 SLOAD SWAP1 PUSH2 0x100 EXP SWAP1 DIV PUSH20 0xFFFFFFFFFFFFFFFFFFFFFFFFFFFFFFFFFFFFFFFF AND SWAP1 DUP1 PUSH1 0x2 ADD PUSH1 0x14 SWAP1 SLOAD SWAP1 PUSH2 0x100 EXP SWAP1 DIV PUSH1 0xFF AND SWAP1 DUP1 PUSH1 0x3 ADD SLOAD SWAP1 POP DUP6 JUMP JUMPDEST PUSH1 0x8 SLOAD DUP2 JUMP JUMPDEST PUSH1 0x0 DUP1 SLOAD SWAP1 PUSH2 0x100 EXP SWAP1 DIV PUSH20 0xFFFFFFFFFFFFFFFFFFFFFFFFFFFFFFFFFFFFFFFF AND PUSH20 0xFFFFFFFFFFFFFFFFFFFFFFFFFFFFFFFFFFFFFFFF AND CALLER PUSH20 0xFFFFFFFFFFFFFFFFFFFFFFFFFFFFFFFFFFFFFFFF AND EQ PUSH2 0x964 JUMPI PUSH1 0x0 DUP1 REVERT JUMPDEST PUSH1 0x0 PUSH1 0xA PUSH1 0x0 PUSH1 0x9 PUSH1 0x0 DUP2 SLOAD DUP1 SWAP3 SWAP2 SWAP1 PUSH2 0x97D SWAP1 PUSH2 0x1434 JUMP JUMPDEST SWAP2 SWAP1 POP SSTORE DUP2 MSTORE PUSH1 0x20 ADD SWAP1 DUP2 MSTORE PUSH1 0x20 ADD PUSH1 0x0 KECCAK256 SWAP1 POP DUP4 DUP2 PUSH1 0x0 ADD SWAP1 DUP1 MLOAD SWAP1 PUSH1 0x20 ADD SWAP1 PUSH2 0x9A9 SWAP3 SWAP2 SWAP1 PUSH2 0xD6D JUMP JUMPDEST POP DUP3 DUP2 PUSH1 0x1 ADD DUP2 SWAP1 SSTORE POP DUP2 DUP2 PUSH1 0x2 ADD PUSH1 0x0 PUSH2 0x100 EXP DUP2 SLOAD DUP2 PUSH20 0xFFFFFFFFFFFFFFFFFFFFFFFFFFFFFFFFFFFFFFFF MUL NOT AND SWAP1 DUP4 PUSH20 0xFFFFFFFFFFFFFFFFFFFFFFFFFFFFFFFFFFFFFFFF AND MUL OR SWAP1 SSTORE POP PUSH1 0x0 DUP2 PUSH1 0x2 ADD PUSH1 0x14 PUSH2 0x100 EXP DUP2 SLOAD DUP2 PUSH1 0xFF MUL NOT AND SWAP1 DUP4 ISZERO ISZERO MUL OR SWAP1 SSTORE POP PUSH1 0x0 DUP2 PUSH1 0x3 ADD DUP2 SWAP1 SSTORE POP POP POP POP POP JUMP JUMPDEST PUSH1 0x1 SLOAD DUP2 JUMP JUMPDEST PUSH1 0x3 DUP1 SLOAD PUSH2 0xA36 SWAP1 PUSH2 0x1402 JUMP JUMPDEST DUP1 PUSH1 0x1F ADD PUSH1 0x20 DUP1 SWAP2 DIV MUL PUSH1 0x20 ADD PUSH1 0x40 MLOAD SWAP1 DUP2 ADD PUSH1 0x40 MSTORE DUP1 SWAP3 SWAP2 SWAP1 DUP2 DUP2 MSTORE PUSH1 0x20 ADD DUP3 DUP1 SLOAD PUSH2 0xA62 SWAP1 PUSH2 0x1402 JUMP JUMPDEST DUP1 ISZERO PUSH2 0xAAF JUMPI DUP1 PUSH1 0x1F LT PUSH2 0xA84 JUMPI PUSH2 0x100 DUP1 DUP4 SLOAD DIV MUL DUP4 MSTORE SWAP2 PUSH1 0x20 ADD SWAP2 PUSH2 0xAAF JUMP JUMPDEST DUP3 ADD SWAP2 SWAP1 PUSH1 0x0 MSTORE PUSH1 0x20 PUSH1 0x0 KECCAK256 SWAP1 JUMPDEST DUP2 SLOAD DUP2 MSTORE SWAP1 PUSH1 0x1 ADD SWAP1 PUSH1 0x20 ADD DUP1 DUP4 GT PUSH2 0xA92 JUMPI DUP3 SWAP1 SUB PUSH1 0x1F AND DUP3 ADD SWAP2 JUMPDEST POP POP POP POP POP DUP2 JUMP JUMPDEST PUSH1 0x4 DUP1 SLOAD PUSH2 0xAC4 SWAP1 PUSH2 0x1402 JUMP JUMPDEST DUP1 PUSH1 0x1F ADD PUSH1 0x20 DUP1 SWAP2 DIV MUL PUSH1 0x20 ADD PUSH1 0x40 MLOAD SWAP1 DUP2 ADD PUSH1 0x40 MSTORE DUP1 SWAP3 SWAP2 SWAP1 DUP2 DUP2 MSTORE PUSH1 0x20 ADD DUP3 DUP1 SLOAD PUSH2 0xAF0 SWAP1 PUSH2 0x1402 JUMP JUMPDEST DUP1 ISZERO PUSH2 0xB3D JUMPI DUP1 PUSH1 0x1F LT PUSH2 0xB12 JUMPI PUSH2 0x100 DUP1 DUP4 SLOAD DIV MUL DUP4 MSTORE SWAP2 PUSH1 0x20 ADD SWAP2 PUSH2 0xB3D JUMP JUMPDEST DUP3 ADD SWAP2 SWAP1 PUSH1 0x0 MSTORE PUSH1 0x20 PUSH1 0x0 KECCAK256 SWAP1 JUMPDEST DUP2 SLOAD DUP2 MSTORE SWAP1 PUSH1 0x1 ADD SWAP1 PUSH1 0x20 ADD DUP1 DUP4 GT PUSH2 0xB20 JUMPI DUP3 SWAP1 SUB PUSH1 0x1F AND DUP3 ADD SWAP2 JUMPDEST POP POP POP POP POP DUP2 JUMP JUMPDEST PUSH1 0x5 SLOAD DUP2 JUMP JUMPDEST PUSH1 0x0 PUSH1 0xA PUSH1 0x0 DUP4 DUP2 MSTORE PUSH1 0x20 ADD SWAP1 DUP2 MSTORE PUSH1 0x20 ADD PUSH1 0x0 KECCAK256 SWAP1 POP PUSH1 0x7 PUSH1 0x0 CALLER PUSH20 0xFFFFFFFFFFFFFFFFFFFFFFFFFFFFFFFFFFFFFFFF AND PUSH20 0xFFFFFFFFFFFFFFFFFFFFFFFFFFFFFFFFFFFFFFFF AND DUP2 MSTORE PUSH1 0x20 ADD SWAP1 DUP2 MSTORE PUSH1 0x20 ADD PUSH1 0x0 KECCAK256 PUSH1 0x0 SWAP1 SLOAD SWAP1 PUSH2 0x100 EXP SWAP1 DIV PUSH1 0xFF AND PUSH2 0xBB8 JUMPI PUSH1 0x0 DUP1 REVERT JUMPDEST DUP1 PUSH1 0x4 ADD PUSH1 0x0 CALLER PUSH20 0xFFFFFFFFFFFFFFFFFFFFFFFFFFFFFFFFFFFFFFFF AND PUSH20 0xFFFFFFFFFFFFFFFFFFFFFFFFFFFFFFFFFFFFFFFF AND DUP2 MSTORE PUSH1 0x20 ADD SWAP1 DUP2 MSTORE PUSH1 0x20 ADD PUSH1 0x0 KECCAK256 PUSH1 0x0 SWAP1 SLOAD SWAP1 PUSH2 0x100 EXP SWAP1 DIV PUSH1 0xFF AND ISZERO PUSH2 0xC11 JUMPI PUSH1 0x0 DUP1 REVERT JUMPDEST PUSH1 0x1 DUP2 PUSH1 0x4 ADD PUSH1 0x0 CALLER PUSH20 0xFFFFFFFFFFFFFFFFFFFFFFFFFFFFFFFFFFFFFFFF AND PUSH20 0xFFFFFFFFFFFFFFFFFFFFFFFFFFFFFFFFFFFFFFFF AND DUP2 MSTORE PUSH1 0x20 ADD SWAP1 DUP2 MSTORE PUSH1 0x20 ADD PUSH1 0x0 KECCAK256 PUSH1 0x0 PUSH2 0x100 EXP DUP2 SLOAD DUP2 PUSH1 0xFF MUL NOT AND SWAP1 DUP4 ISZERO ISZERO MUL OR SWAP1 SSTORE POP DUP1 PUSH1 0x3 ADD PUSH1 0x0 DUP2 SLOAD DUP1 SWAP3 SWAP2 SWAP1 PUSH2 0xC80 SWAP1 PUSH2 0x1434 JUMP JUMPDEST SWAP2 SWAP1 POP SSTORE POP POP POP JUMP JUMPDEST PUSH1 0x1 SLOAD CALLVALUE LT ISZERO PUSH2 0xC98 JUMPI PUSH1 0x0 DUP1 REVERT JUMPDEST PUSH1 0x6 CALLER SWAP1 DUP1 PUSH1 0x1 DUP2 SLOAD ADD DUP1 DUP3 SSTORE DUP1 SWAP2 POP POP PUSH1 0x1 SWAP1 SUB SWAP1 PUSH1 0x0 MSTORE PUSH1 0x20 PUSH1 0x0 KECCAK256 ADD PUSH1 0x0 SWAP1 SWAP2 SWAP1 SWAP2 SWAP1 SWAP2 PUSH2 0x100 EXP DUP2 SLOAD DUP2 PUSH20 0xFFFFFFFFFFFFFFFFFFFFFFFFFFFFFFFFFFFFFFFF MUL NOT AND SWAP1 DUP4 PUSH20 0xFFFFFFFFFFFFFFFFFFFFFFFFFFFFFFFFFFFFFFFF AND MUL OR SWAP1 SSTORE POP PUSH1 0x1 PUSH1 0x7 PUSH1 0x0 CALLER PUSH20 0xFFFFFFFFFFFFFFFFFFFFFFFFFFFFFFFFFFFFFFFF AND PUSH20 0xFFFFFFFFFFFFFFFFFFFFFFFFFFFFFFFFFFFFFFFF AND DUP2 MSTORE PUSH1 0x20 ADD SWAP1 DUP2 MSTORE PUSH1 0x20 ADD PUSH1 0x0 KECCAK256 PUSH1 0x0 PUSH2 0x100 EXP DUP2 SLOAD DUP2 PUSH1 0xFF MUL NOT AND SWAP1 DUP4 ISZERO ISZERO MUL OR SWAP1 SSTORE POP PUSH1 0x8 PUSH1 0x0 DUP2 SLOAD DUP1 SWAP3 SWAP2 SWAP1 PUSH2 0xD66 SWAP1 PUSH2 0x1434 JUMP JUMPDEST SWAP2 SWAP1 POP SSTORE POP JUMP JUMPDEST DUP3 DUP1 SLOAD PUSH2 0xD79 SWAP1 PUSH2 0x1402 JUMP JUMPDEST SWAP1 PUSH1 0x0 MSTORE PUSH1 0x20 PUSH1 0x0 KECCAK256 SWAP1 PUSH1 0x1F ADD PUSH1 0x20 SWAP1 DIV DUP2 ADD SWAP3 DUP3 PUSH2 0xD9B JUMPI PUSH1 0x0 DUP6 SSTORE PUSH2 0xDE2 JUMP JUMPDEST DUP3 PUSH1 0x1F LT PUSH2 0xDB4 JUMPI DUP1 MLOAD PUSH1 0xFF NOT AND DUP4 DUP1 ADD OR DUP6 SSTORE PUSH2 0xDE2 JUMP JUMPDEST DUP3 DUP1 ADD PUSH1 0x1 ADD DUP6 SSTORE DUP3 ISZERO PUSH2 0xDE2 JUMPI SWAP2 DUP3 ADD JUMPDEST DUP3 DUP2 GT ISZERO PUSH2 0xDE1 JUMPI DUP3 MLOAD DUP3 SSTORE SWAP2 PUSH1 0x20 ADD SWAP2 SWAP1 PUSH1 0x1 ADD SWAP1 PUSH2 0xDC6 JUMP JUMPDEST JUMPDEST POP SWAP1 POP PUSH2 0xDEF SWAP2 SWAP1 PUSH2 0xDF3 JUMP JUMPDEST POP SWAP1 JUMP JUMPDEST JUMPDEST DUP1 DUP3 GT ISZERO PUSH2 0xE0C JUMPI PUSH1 0x0 DUP2 PUSH1 0x0 SWAP1 SSTORE POP PUSH1 0x1 ADD PUSH2 0xDF4 JUMP JUMPDEST POP SWAP1 JUMP JUMPDEST PUSH1 0x0 PUSH1 0x40 MLOAD SWAP1 POP SWAP1 JUMP JUMPDEST PUSH1 0x0 DUP1 REVERT JUMPDEST PUSH1 0x0 DUP1 REVERT JUMPDEST PUSH1 0x0 DUP2 SWAP1 POP SWAP2 SWAP1 POP JUMP JUMPDEST PUSH2 0xE37 DUP2 PUSH2 0xE24 JUMP JUMPDEST DUP2 EQ PUSH2 0xE42 JUMPI PUSH1 0x0 DUP1 REVERT JUMPDEST POP JUMP JUMPDEST PUSH1 0x0 DUP2 CALLDATALOAD SWAP1 POP PUSH2 0xE54 DUP2 PUSH2 0xE2E JUMP JUMPDEST SWAP3 SWAP2 POP POP JUMP JUMPDEST PUSH1 0x0 PUSH1 0x20 DUP3 DUP5 SUB SLT ISZERO PUSH2 0xE70 JUMPI PUSH2 0xE6F PUSH2 0xE1A JUMP JUMPDEST JUMPDEST PUSH1 0x0 PUSH2 0xE7E DUP5 DUP3 DUP6 ADD PUSH2 0xE45 JUMP JUMPDEST SWAP2 POP POP SWAP3 SWAP2 POP POP JUMP JUMPDEST PUSH1 0x0 PUSH20 0xFFFFFFFFFFFFFFFFFFFFFFFFFFFFFFFFFFFFFFFF DUP3 AND SWAP1 POP SWAP2 SWAP1 POP JUMP JUMPDEST PUSH1 0x0 PUSH2 0xEB2 DUP3 PUSH2 0xE87 JUMP JUMPDEST SWAP1 POP SWAP2 SWAP1 POP JUMP JUMPDEST PUSH2 0xEC2 DUP2 PUSH2 0xEA7 JUMP JUMPDEST DUP2 EQ PUSH2 0xECD JUMPI PUSH1 0x0 DUP1 REVERT JUMPDEST POP JUMP JUMPDEST PUSH1 0x0 DUP2 CALLDATALOAD SWAP1 POP PUSH2 0xEDF DUP2 PUSH2 0xEB9 JUMP JUMPDEST SWAP3 SWAP2 POP POP JUMP JUMPDEST PUSH1 0x0 PUSH1 0x20 DUP3 DUP5 SUB SLT ISZERO PUSH2 0xEFB JUMPI PUSH2 0xEFA PUSH2 0xE1A JUMP JUMPDEST JUMPDEST PUSH1 0x0 PUSH2 0xF09 DUP5 DUP3 DUP6 ADD PUSH2 0xED0 JUMP JUMPDEST SWAP2 POP POP SWAP3 SWAP2 POP POP JUMP JUMPDEST PUSH1 0x0 DUP2 ISZERO ISZERO SWAP1 POP SWAP2 SWAP1 POP JUMP JUMPDEST PUSH2 0xF27 DUP2 PUSH2 0xF12 JUMP JUMPDEST DUP3 MSTORE POP POP JUMP JUMPDEST PUSH1 0x0 PUSH1 0x20 DUP3 ADD SWAP1 POP PUSH2 0xF42 PUSH1 0x0 DUP4 ADD DUP5 PUSH2 0xF1E JUMP JUMPDEST SWAP3 SWAP2 POP POP JUMP JUMPDEST PUSH2 0xF51 DUP2 PUSH2 0xEA7 JUMP JUMPDEST DUP3 MSTORE POP POP JUMP JUMPDEST PUSH1 0x0 PUSH1 0x20 DUP3 ADD SWAP1 POP PUSH2 0xF6C PUSH1 0x0 DUP4 ADD DUP5 PUSH2 0xF48 JUMP JUMPDEST SWAP3 SWAP2 POP POP JUMP JUMPDEST PUSH2 0xF7B DUP2 PUSH2 0xE24 JUMP JUMPDEST DUP3 MSTORE POP POP JUMP JUMPDEST PUSH1 0x0 PUSH1 0x20 DUP3 ADD SWAP1 POP PUSH2 0xF96 PUSH1 0x0 DUP4 ADD DUP5 PUSH2 0xF72 JUMP JUMPDEST SWAP3 SWAP2 POP POP JUMP JUMPDEST PUSH1 0x0 DUP2 MLOAD SWAP1 POP SWAP2 SWAP1 POP JUMP JUMPDEST PUSH1 0x0 DUP3 DUP3 MSTORE PUSH1 0x20 DUP3 ADD SWAP1 POP SWAP3 SWAP2 POP POP JUMP JUMPDEST PUSH1 0x0 JUMPDEST DUP4 DUP2 LT ISZERO PUSH2 0xFD6 JUMPI DUP1 DUP3 ADD MLOAD DUP2 DUP5 ADD MSTORE PUSH1 0x20 DUP2 ADD SWAP1 POP PUSH2 0xFBB JUMP JUMPDEST DUP4 DUP2 GT ISZERO PUSH2 0xFE5 JUMPI PUSH1 0x0 DUP5 DUP5 ADD MSTORE JUMPDEST POP POP POP POP JUMP JUMPDEST PUSH1 0x0 PUSH1 0x1F NOT PUSH1 0x1F DUP4 ADD AND SWAP1 POP SWAP2 SWAP1 POP JUMP JUMPDEST PUSH1 0x0 PUSH2 0x1007 DUP3 PUSH2 0xF9C JUMP JUMPDEST PUSH2 0x1011 DUP2 DUP6 PUSH2 0xFA7 JUMP JUMPDEST SWAP4 POP PUSH2 0x1021 DUP2 DUP6 PUSH1 0x20 DUP7 ADD PUSH2 0xFB8 JUMP JUMPDEST PUSH2 0x102A DUP2 PUSH2 0xFEB JUMP JUMPDEST DUP5 ADD SWAP2 POP POP SWAP3 SWAP2 POP POP JUMP JUMPDEST PUSH1 0x0 PUSH2 0x120 DUP3 ADD SWAP1 POP PUSH2 0x104B PUSH1 0x0 DUP4 ADD DUP13 PUSH2 0xF72 JUMP JUMPDEST PUSH2 0x1058 PUSH1 0x20 DUP4 ADD DUP12 PUSH2 0xF72 JUMP JUMPDEST PUSH2 0x1065 PUSH1 0x40 DUP4 ADD DUP11 PUSH2 0xF72 JUMP JUMPDEST PUSH2 0x1072 PUSH1 0x60 DUP4 ADD DUP10 PUSH2 0xF72 JUMP JUMPDEST PUSH2 0x107F PUSH1 0x80 DUP4 ADD DUP9 PUSH2 0xF48 JUMP JUMPDEST DUP2 DUP2 SUB PUSH1 0xA0 DUP4 ADD MSTORE PUSH2 0x1091 DUP2 DUP8 PUSH2 0xFFC JUMP JUMPDEST SWAP1 POP DUP2 DUP2 SUB PUSH1 0xC0 DUP4 ADD MSTORE PUSH2 0x10A5 DUP2 DUP7 PUSH2 0xFFC JUMP JUMPDEST SWAP1 POP DUP2 DUP2 SUB PUSH1 0xE0 DUP4 ADD MSTORE PUSH2 0x10B9 DUP2 DUP6 PUSH2 0xFFC JUMP JUMPDEST SWAP1 POP PUSH2 0x10C9 PUSH2 0x100 DUP4 ADD DUP5 PUSH2 0xF72 JUMP JUMPDEST SWAP11 SWAP10 POP POP POP POP POP POP POP POP POP POP JUMP JUMPDEST PUSH1 0x0 PUSH1 0x20 DUP3 ADD SWAP1 POP DUP2 DUP2 SUB PUSH1 0x0 DUP4 ADD MSTORE PUSH2 0x10F1 DUP2 DUP5 PUSH2 0xFFC JUMP JUMPDEST SWAP1 POP SWAP3 SWAP2 POP POP JUMP JUMPDEST PUSH1 0x0 PUSH2 0x1104 DUP3 PUSH2 0xE87 JUMP JUMPDEST SWAP1 POP SWAP2 SWAP1 POP JUMP JUMPDEST PUSH2 0x1114 DUP2 PUSH2 0x10F9 JUMP JUMPDEST DUP3 MSTORE POP POP JUMP JUMPDEST PUSH1 0x0 PUSH1 0xA0 DUP3 ADD SWAP1 POP DUP2 DUP2 SUB PUSH1 0x0 DUP4 ADD MSTORE PUSH2 0x1134 DUP2 DUP9 PUSH2 0xFFC JUMP JUMPDEST SWAP1 POP PUSH2 0x1143 PUSH1 0x20 DUP4 ADD DUP8 PUSH2 0xF72 JUMP JUMPDEST PUSH2 0x1150 PUSH1 0x40 DUP4 ADD DUP7 PUSH2 0x110B JUMP JUMPDEST PUSH2 0x115D PUSH1 0x60 DUP4 ADD DUP6 PUSH2 0xF1E JUMP JUMPDEST PUSH2 0x116A PUSH1 0x80 DUP4 ADD DUP5 PUSH2 0xF72 JUMP JUMPDEST SWAP7 SWAP6 POP POP POP POP POP POP JUMP JUMPDEST PUSH1 0x0 DUP1 REVERT JUMPDEST PUSH1 0x0 DUP1 REVERT JUMPDEST PUSH32 0x4E487B7100000000000000000000000000000000000000000000000000000000 PUSH1 0x0 MSTORE PUSH1 0x41 PUSH1 0x4 MSTORE PUSH1 0x24 PUSH1 0x0 REVERT JUMPDEST PUSH2 0x11B6 DUP3 PUSH2 0xFEB JUMP JUMPDEST DUP2 ADD DUP2 DUP2 LT PUSH8 0xFFFFFFFFFFFFFFFF DUP3 GT OR ISZERO PUSH2 0x11D5 JUMPI PUSH2 0x11D4 PUSH2 0x117E JUMP JUMPDEST JUMPDEST DUP1 PUSH1 0x40 MSTORE POP POP POP JUMP JUMPDEST PUSH1 0x0 PUSH2 0x11E8 PUSH2 0xE10 JUMP JUMPDEST SWAP1 POP PUSH2 0x11F4 DUP3 DUP3 PUSH2 0x11AD JUMP JUMPDEST SWAP2 SWAP1 POP JUMP JUMPDEST PUSH1 0x0 PUSH8 0xFFFFFFFFFFFFFFFF DUP3 GT ISZERO PUSH2 0x1214 JUMPI PUSH2 0x1213 PUSH2 0x117E JUMP JUMPDEST JUMPDEST PUSH2 0x121D DUP3 PUSH2 0xFEB JUMP JUMPDEST SWAP1 POP PUSH1 0x20 DUP2 ADD SWAP1 POP SWAP2 SWAP1 POP JUMP JUMPDEST DUP3 DUP2 DUP4 CALLDATACOPY PUSH1 0x0 DUP4 DUP4 ADD MSTORE POP POP POP JUMP JUMPDEST PUSH1 0x0 PUSH2 0x124C PUSH2 0x1247 DUP5 PUSH2 0x11F9 JUMP JUMPDEST PUSH2 0x11DE JUMP JUMPDEST SWAP1 POP DUP3 DUP2 MSTORE PUSH1 0x20 DUP2 ADD DUP5 DUP5 DUP5 ADD GT ISZERO PUSH2 0x1268 JUMPI PUSH2 0x1267 PUSH2 0x1179 JUMP JUMPDEST JUMPDEST PUSH2 0x1273 DUP5 DUP3 DUP6 PUSH2 0x122A JUMP JUMPDEST POP SWAP4 SWAP3 POP POP POP JUMP JUMPDEST PUSH1 0x0 DUP3 PUSH1 0x1F DUP4 ADD SLT PUSH2 0x1290 JUMPI PUSH2 0x128F PUSH2 0x1174 JUMP JUMPDEST JUMPDEST DUP2 CALLDATALOAD PUSH2 0x12A0 DUP5 DUP3 PUSH1 0x20 DUP7 ADD PUSH2 0x1239 JUMP JUMPDEST SWAP2 POP POP SWAP3 SWAP2 POP POP JUMP JUMPDEST PUSH2 0x12B2 DUP2 PUSH2 0x10F9 JUMP JUMPDEST DUP2 EQ PUSH2 0x12BD JUMPI PUSH1 0x0 DUP1 REVERT JUMPDEST POP JUMP JUMPDEST PUSH1 0x0 DUP2 CALLDATALOAD SWAP1 POP PUSH2 0x12CF DUP2 PUSH2 0x12A9 JUMP JUMPDEST SWAP3 SWAP2 POP POP JUMP JUMPDEST PUSH1 0x0 DUP1 PUSH1 0x0 PUSH1 0x60 DUP5 DUP7 SUB SLT ISZERO PUSH2 0x12EE JUMPI PUSH2 0x12ED PUSH2 0xE1A JUMP JUMPDEST JUMPDEST PUSH1 0x0 DUP5 ADD CALLDATALOAD PUSH8 0xFFFFFFFFFFFFFFFF DUP2 GT ISZERO PUSH2 0x130C JUMPI PUSH2 0x130B PUSH2 0xE1F JUMP JUMPDEST JUMPDEST PUSH2 0x1318 DUP7 DUP3 DUP8 ADD PUSH2 0x127B JUMP JUMPDEST SWAP4 POP POP PUSH1 0x20 PUSH2 0x1329 DUP7 DUP3 DUP8 ADD PUSH2 0xE45 JUMP JUMPDEST SWAP3 POP POP PUSH1 0x40 PUSH2 0x133A DUP7 DUP3 DUP8 ADD PUSH2 0x12C0 JUMP JUMPDEST SWAP2 POP POP SWAP3 POP SWAP3 POP SWAP3 JUMP JUMPDEST PUSH32 0x4E487B7100000000000000000000000000000000000000000000000000000000 PUSH1 0x0 MSTORE PUSH1 0x12 PUSH1 0x4 MSTORE PUSH1 0x24 PUSH1 0x0 REVERT JUMPDEST PUSH32 0x4E487B7100000000000000000000000000000000000000000000000000000000 PUSH1 0x0 MSTORE PUSH1 0x11 PUSH1 0x4 MSTORE PUSH1 0x24 PUSH1 0x0 REVERT JUMPDEST PUSH1 0x0 PUSH2 0x13AD DUP3 PUSH2 0xE24 JUMP JUMPDEST SWAP2 POP PUSH2 0x13B8 DUP4 PUSH2 0xE24 JUMP JUMPDEST SWAP3 POP DUP3 PUSH2 0x13C8 JUMPI PUSH2 0x13C7 PUSH2 0x1344 JUMP JUMPDEST JUMPDEST DUP3 DUP3 DIV SWAP1 POP SWAP3 SWAP2 POP POP JUMP JUMPDEST PUSH32 0x4E487B7100000000000000000000000000000000000000000000000000000000 PUSH1 0x0 MSTORE PUSH1 0x22 PUSH1 0x4 MSTORE PUSH1 0x24 PUSH1 0x0 REVERT JUMPDEST PUSH1 0x0 PUSH1 0x2 DUP3 DIV SWAP1 POP PUSH1 0x1 DUP3 AND DUP1 PUSH2 0x141A JUMPI PUSH1 0x7F DUP3 AND SWAP2 POP JUMPDEST PUSH1 0x20 DUP3 LT DUP2 EQ ISZERO PUSH2 0x142E JUMPI PUSH2 0x142D PUSH2 0x13D3 JUMP JUMPDEST JUMPDEST POP SWAP2 SWAP1 POP JUMP JUMPDEST PUSH1 0x0 PUSH2 0x143F DUP3 PUSH2 0xE24 JUMP JUMPDEST SWAP2 POP PUSH32 0xFFFFFFFFFFFFFFFFFFFFFFFFFFFFFFFFFFFFFFFFFFFFFFFFFFFFFFFFFFFFFFFF DUP3 EQ ISZERO PUSH2 0x1472 JUMPI PUSH2 0x1471 PUSH2 0x1373 JUMP JUMPDEST JUMPDEST PUSH1 0x1 DUP3 ADD SWAP1 POP SWAP2 SWAP1 POP JUMP INVALID LOG2 PUSH5 0x6970667358 0x22 SLT KECCAK256 0xB7 0xD8 0xB8 0x2C 0x2E 0xA7 0xD SWAP1 CREATE2 RETURN MOD 0x25 0xD9 PUSH18 0xA8675773F95323048C7363F6DE5A7C3AC13B PUSH5 0x736F6C6343 STOP ADDMOD EXP STOP CALLER LOG2 PUSH5 0x6970667358 0x22 SLT KECCAK256 0x2E 0xD5 0x5F 0xE0 DUP14 DUP8 ORIGIN EXP 0xBA RETURNDATASIZE ADD 0xB7 0xCD JUMPDEST SHL RETURNDATACOPY 0xDB PUSH2 0x8F5F 0xD2 0xAC 0x5E DUP3 0xBF SWAP15 PUSH9 0xB495C4352064736F6C PUSH4 0x4300080A STOP CALLER "},"gasEstimates":{"creation":{"codeDepositCost":"1692600","executionCost":"1778","totalCost":"1694378"},"external":{"createCampaign(uint256,string,string,string,uint256)":"infinite","deployedCampaigns(uint256)":"infinite","getDeployedCampaigns()":"infinite"}},"methodIdentifiers":{"createCampaign(uint256,string,string,string,uint256)":"d4ddd71a","deployedCampaigns(uint256)":"339d50a5","getDeployedCampaigns()":"4acb9d4f"}},"storageLayout":{"storage":[{"astId":5,"contract":"Campaign.sol:CampaignFactory","label":"deployedCampaigns","offset":0,"slot":"0","type":"t_array(t_contract(Campaign)370)dyn_storage"}],"types":{"t_array(t_contract(Campaign)370)dyn_storage":{"base":"t_contract(Campaign)370","encoding":"dynamic_array","label":"contract Campaign[]","numberOfBytes":"32"},"t_contract(Campaign)370":{"encoding":"inplace","label":"contract Campaign","numberOfBytes":"20"}}},"userdoc":{"kind":"user","methods":{},"version":1}}